{
  "contractName": "CollectionContract",
  "abi": [
    {
      "inputs": [
        {
          "internalType": "address",
          "name": "_masterAccessControlAddress",
          "type": "address"
        },
        {
          "internalType": "address",
          "name": "_nftContractAddress",
          "type": "address"
        }
      ],
      "stateMutability": "nonpayable",
      "type": "constructor"
    },
    {
      "anonymous": false,
      "inputs": [
        {
          "indexed": true,
          "internalType": "uint256",
          "name": "collectionId",
          "type": "uint256"
        },
        {
          "indexed": true,
          "internalType": "address",
          "name": "creator",
          "type": "address"
        },
        {
          "indexed": false,
          "internalType": "string",
          "name": "baseModel",
          "type": "string"
        }
      ],
      "name": "CollectionCreated",
      "type": "event"
    },
    {
      "anonymous": false,
      "inputs": [
        {
          "indexed": true,
          "internalType": "uint256",
          "name": "collectionId",
          "type": "uint256"
        },
        {
          "indexed": true,
          "internalType": "address",
          "name": "previousOwner",
          "type": "address"
        },
        {
          "indexed": true,
          "internalType": "address",
          "name": "newOwner",
          "type": "address"
        }
      ],
      "name": "CollectionTransferred",
      "type": "event"
    },
    {
      "anonymous": false,
      "inputs": [
        {
          "indexed": true,
          "internalType": "uint256",
          "name": "collectionId",
          "type": "uint256"
        },
        {
          "indexed": true,
          "internalType": "address",
          "name": "updater",
          "type": "address"
        }
      ],
      "name": "CollectionUpdated",
      "type": "event"
    },
    {
      "inputs": [],
      "name": "masterAccessControl",
      "outputs": [
        {
          "internalType": "contract MasterAccessControl",
          "name": "",
          "type": "address"
        }
      ],
      "stateMutability": "view",
      "type": "function",
      "constant": true
    },
    {
      "inputs": [],
      "name": "nftContract",
      "outputs": [
        {
          "internalType": "contract NFTContract",
          "name": "",
          "type": "address"
        }
      ],
      "stateMutability": "view",
      "type": "function",
      "constant": true
    },
    {
      "inputs": [
        {
          "internalType": "string",
          "name": "_name",
          "type": "string"
        },
        {
          "internalType": "uint256",
          "name": "_contextWindow",
          "type": "uint256"
        },
        {
          "internalType": "string",
          "name": "_baseModel",
          "type": "string"
        },
        {
          "internalType": "string",
          "name": "_image",
          "type": "string"
        },
        {
          "internalType": "string",
          "name": "_description",
          "type": "string"
        }
      ],
      "name": "createCollection",
      "outputs": [
        {
          "internalType": "uint256",
          "name": "",
          "type": "uint256"
        }
      ],
      "stateMutability": "nonpayable",
      "type": "function"
    },
    {
      "inputs": [
        {
          "internalType": "uint256",
          "name": "_collectionId",
          "type": "uint256"
        },
        {
          "internalType": "string",
          "name": "_name",
          "type": "string"
        },
        {
          "internalType": "uint256",
          "name": "_contextWindow",
          "type": "uint256"
        },
        {
          "internalType": "string",
          "name": "_baseModel",
          "type": "string"
        },
        {
          "internalType": "string",
          "name": "_image",
          "type": "string"
        },
        {
          "internalType": "string",
          "name": "_description",
          "type": "string"
        }
      ],
      "name": "updateCollection",
      "outputs": [],
      "stateMutability": "nonpayable",
      "type": "function"
    },
    {
      "inputs": [
        {
          "internalType": "uint256",
          "name": "_collectionId",
          "type": "uint256"
        },
        {
          "internalType": "address",
          "name": "_newOwner",
          "type": "address"
        }
      ],
      "name": "transferCollection",
      "outputs": [],
      "stateMutability": "nonpayable",
      "type": "function"
    },
    {
      "inputs": [
        {
          "internalType": "uint256",
          "name": "_collectionId",
          "type": "uint256"
        }
      ],
      "name": "getCollectionMetadata",
      "outputs": [
        {
          "components": [
            {
              "internalType": "string",
              "name": "name",
              "type": "string"
            },
            {
              "internalType": "uint256",
              "name": "contextWindow",
              "type": "uint256"
            },
            {
              "internalType": "string",
              "name": "baseModel",
              "type": "string"
            },
            {
              "internalType": "string",
              "name": "image",
              "type": "string"
            },
            {
              "internalType": "string",
              "name": "description",
              "type": "string"
            },
            {
              "internalType": "address",
              "name": "creator",
              "type": "address"
            },
            {
              "internalType": "uint256",
              "name": "dateCreated",
              "type": "uint256"
            },
            {
              "internalType": "address",
              "name": "owner",
              "type": "address"
            }
          ],
          "internalType": "struct CollectionContract.CollectionMetadata",
          "name": "",
          "type": "tuple"
        }
      ],
      "stateMutability": "view",
      "type": "function",
      "constant": true
    },
    {
      "inputs": [
        {
          "internalType": "uint256",
          "name": "_collectionId",
          "type": "uint256"
        }
      ],
      "name": "getCollectionOwner",
      "outputs": [
        {
          "internalType": "address",
          "name": "",
          "type": "address"
        }
      ],
      "stateMutability": "view",
      "type": "function",
      "constant": true
    },
    {
      "inputs": [],
      "name": "getTotalCollections",
      "outputs": [
        {
          "internalType": "uint256",
          "name": "",
          "type": "uint256"
        }
      ],
      "stateMutability": "view",
      "type": "function",
      "constant": true
    },
    {
      "inputs": [],
      "name": "getAllCollections",
      "outputs": [
        {
          "components": [
            {
              "internalType": "string",
              "name": "name",
              "type": "string"
            },
            {
              "internalType": "uint256",
              "name": "contextWindow",
              "type": "uint256"
            },
            {
              "internalType": "string",
              "name": "baseModel",
              "type": "string"
            },
            {
              "internalType": "string",
              "name": "image",
              "type": "string"
            },
            {
              "internalType": "string",
              "name": "description",
              "type": "string"
            },
            {
              "internalType": "address",
              "name": "creator",
              "type": "address"
            },
            {
              "internalType": "uint256",
              "name": "dateCreated",
              "type": "uint256"
            },
            {
              "internalType": "address",
              "name": "owner",
              "type": "address"
            }
          ],
          "internalType": "struct CollectionContract.CollectionMetadata[]",
          "name": "",
          "type": "tuple[]"
        }
      ],
      "stateMutability": "view",
      "type": "function",
      "constant": true
    },
    {
      "inputs": [
        {
          "internalType": "uint256",
          "name": "_collectionId",
          "type": "uint256"
        }
      ],
      "name": "getCollectionNFTCount",
      "outputs": [
        {
          "internalType": "uint256",
          "name": "",
          "type": "uint256"
        }
      ],
      "stateMutability": "view",
      "type": "function",
      "constant": true
    },
    {
      "inputs": [
        {
          "internalType": "uint256",
          "name": "_collectionId",
          "type": "uint256"
        }
      ],
      "name": "getCollectionUniqueHolders",
      "outputs": [
        {
          "internalType": "uint256",
          "name": "",
          "type": "uint256"
        }
      ],
      "stateMutability": "view",
      "type": "function",
      "constant": true
    }
  ],
  "bytecode": "0x60806040523480156200001157600080fd5b50604051620025a8380380620025a88339818101604052810190620000379190620001b9565b816000806101000a81548173ffffffffffffffffffffffffffffffffffffffff021916908373ffffffffffffffffffffffffffffffffffffffff16021790555080600160006101000a81548173ffffffffffffffffffffffffffffffffffffffff021916908373ffffffffffffffffffffffffffffffffffffffff16021790555060008054906101000a900473ffffffffffffffffffffffffffffffffffffffff1673ffffffffffffffffffffffffffffffffffffffff1663a2aadc54336040518263ffffffff1660e01b815260040162000113919062000211565b600060405180830381600087803b1580156200012e57600080fd5b505af115801562000143573d6000803e3d6000fd5b5050505050506200022e565b600080fd5b600073ffffffffffffffffffffffffffffffffffffffff82169050919050565b6000620001818262000154565b9050919050565b620001938162000174565b81146200019f57600080fd5b50565b600081519050620001b38162000188565b92915050565b60008060408385031215620001d357620001d26200014f565b5b6000620001e385828601620001a2565b9250506020620001f685828601620001a2565b9150509250929050565b6200020b8162000174565b82525050565b600060208201905062000228600083018462000200565b92915050565b61236a806200023e6000396000f3fe608060405234801561001057600080fd5b50600436106100a95760003560e01c8063939bf6dd11610071578063939bf6dd146101785780639ef8dd6714610196578063cf013874146101b4578063d56d229d146101e4578063da4bd50514610202578063feb4cbb91461021e576100a9565b8063394120c0146100ae57806343ca4047146100de5780636804a958146100fa5780638c627b16146101185780638dacc9f914610148575b600080fd5b6100c860048036038101906100c391906113fb565b61024e565b6040516100d59190611469565b60405180910390f35b6100f860048036038101906100f391906115ca565b6102db565b005b610102610433565b60405161010f91906118eb565b60405180910390f35b610132600480360381019061012d91906113fb565b61080b565b60405161013f919061191c565b60405180910390f35b610162600480360381019061015d9190611937565b610900565b60405161016f919061191c565b60405180910390f35b610180610c1f565b60405161018d919061191c565b60405180910390f35b61019e610c29565b6040516101ab9190611a81565b60405180910390f35b6101ce60048036038101906101c991906113fb565b610c4d565b6040516101db9190611b61565b60405180910390f35b6101ec610fd4565b6040516101f99190611ba4565b60405180910390f35b61021c60048036038101906102179190611beb565b610ffa565b005b610238600480360381019061023391906113fb565b61124b565b604051610245919061191c565b60405180910390f35b6000808211801561026157506004548211155b6102a0576040517f08c379a000000000000000000000000000000000000000000000000000000000815260040161029790611cae565b60405180910390fd5b6003600083815260200190815260200160002060009054906101000a900473ffffffffffffffffffffffffffffffffffffffff169050919050565b853373ffffffffffffffffffffffffffffffffffffffff166003600083815260200190815260200160002060009054906101000a900473ffffffffffffffffffffffffffffffffffffffff1673ffffffffffffffffffffffffffffffffffffffff161461037d576040517f08c379a000000000000000000000000000000000000000000000000000000000815260040161037490611d40565b60405180910390fd5b6000600260008981526020019081526020016000209050868160000190816103a59190611f62565b50858160010181905550848160020190816103c09190611f62565b50838160030190816103d29190611f62565b50828160040190816103e49190611f62565b503373ffffffffffffffffffffffffffffffffffffffff16887fdc3665dfa360896ba80f3f0a287f3fab1df037f080190fd39f5b39281b5cef3360405160405180910390a35050505050505050565b6060600060045467ffffffffffffffff8111156104535761045261149f565b5b60405190808252806020026020018201604052801561048c57816020015b610479611340565b8152602001906001900390816104715790505b5090506000600190505b60045481116108035760026000828152602001908152602001600020604051806101000160405290816000820180546104ce90611d8f565b80601f01602080910402602001604051908101604052809291908181526020018280546104fa90611d8f565b80156105475780601f1061051c57610100808354040283529160200191610547565b820191906000526020600020905b81548152906001019060200180831161052a57829003601f168201915b505050505081526020016001820154815260200160028201805461056a90611d8f565b80601f016020809104026020016040519081016040528092919081815260200182805461059690611d8f565b80156105e35780601f106105b8576101008083540402835291602001916105e3565b820191906000526020600020905b8154815290600101906020018083116105c657829003601f168201915b505050505081526020016003820180546105fc90611d8f565b80601f016020809104026020016040519081016040528092919081815260200182805461062890611d8f565b80156106755780601f1061064a57610100808354040283529160200191610675565b820191906000526020600020905b81548152906001019060200180831161065857829003601f168201915b5050505050815260200160048201805461068e90611d8f565b80601f01602080910402602001604051908101604052809291908181526020018280546106ba90611d8f565b80156107075780601f106106dc57610100808354040283529160200191610707565b820191906000526020600020905b8154815290600101906020018083116106ea57829003601f168201915b505050505081526020016005820160009054906101000a900473ffffffffffffffffffffffffffffffffffffffff1673ffffffffffffffffffffffffffffffffffffffff1673ffffffffffffffffffffffffffffffffffffffff168152602001600682015481526020016007820160009054906101000a900473ffffffffffffffffffffffffffffffffffffffff1673ffffffffffffffffffffffffffffffffffffffff1673ffffffffffffffffffffffffffffffffffffffff1681525050826001836107d49190612063565b815181106107e5576107e4612097565b5b602002602001018190525080806107fb906120c6565b915050610496565b508091505090565b6000808211801561081e57506004548211155b61085d576040517f08c379a000000000000000000000000000000000000000000000000000000000815260040161085490611cae565b60405180910390fd5b600160009054906101000a900473ffffffffffffffffffffffffffffffffffffffff1673ffffffffffffffffffffffffffffffffffffffff1663f9f96003836040518263ffffffff1660e01b81526004016108b8919061191c565b602060405180830381865afa1580156108d5573d6000803e3d6000fd5b505050506040513d601f19601f820116820180604052508101906108f99190612123565b9050919050565b60008060009054906101000a900473ffffffffffffffffffffffffffffffffffffffff1673ffffffffffffffffffffffffffffffffffffffff1663c6310de3336040518263ffffffff1660e01b815260040161095c9190611469565b602060405180830381865afa158015610979573d6000803e3d6000fd5b505050506040513d601f19601f8201168201806040525081019061099d9190612188565b6109dc576040517f08c379a00000000000000000000000000000000000000000000000000000000081526004016109d390612227565b60405180910390fd5b600460008154809291906109ef906120c6565b9190505550600060045490506040518061010001604052808881526020018781526020018681526020018581526020018481526020013373ffffffffffffffffffffffffffffffffffffffff1681526020014281526020013373ffffffffffffffffffffffffffffffffffffffff16815250600260008381526020019081526020016000206000820151816000019081610a899190611f62565b50602082015181600101556040820151816002019081610aa99190611f62565b506060820151816003019081610abf9190611f62565b506080820151816004019081610ad59190611f62565b5060a08201518160050160006101000a81548173ffffffffffffffffffffffffffffffffffffffff021916908373ffffffffffffffffffffffffffffffffffffffff16021790555060c0820151816006015560e08201518160070160006101000a81548173ffffffffffffffffffffffffffffffffffffffff021916908373ffffffffffffffffffffffffffffffffffffffff160217905550905050336003600083815260200190815260200160002060006101000a81548173ffffffffffffffffffffffffffffffffffffffff021916908373ffffffffffffffffffffffffffffffffffffffff1602179055503373ffffffffffffffffffffffffffffffffffffffff16817fb0b7b214963f2e16da9cf6ed5851757dfed306875edf1d59e030881102ef24ef87604051610c0a9190612280565b60405180910390a38091505095945050505050565b6000600454905090565b60008054906101000a900473ffffffffffffffffffffffffffffffffffffffff1681565b610c55611340565b600082118015610c6757506004548211155b610ca6576040517f08c379a0000000000000000000000000000000000000000000000000000000008152600401610c9d90611cae565b60405180910390fd5b6002600083815260200190815260200160002060405180610100016040529081600082018054610cd590611d8f565b80601f0160208091040260200160405190810160405280929190818152602001828054610d0190611d8f565b8015610d4e5780601f10610d2357610100808354040283529160200191610d4e565b820191906000526020600020905b815481529060010190602001808311610d3157829003601f168201915b5050505050815260200160018201548152602001600282018054610d7190611d8f565b80601f0160208091040260200160405190810160405280929190818152602001828054610d9d90611d8f565b8015610dea5780601f10610dbf57610100808354040283529160200191610dea565b820191906000526020600020905b815481529060010190602001808311610dcd57829003601f168201915b50505050508152602001600382018054610e0390611d8f565b80601f0160208091040260200160405190810160405280929190818152602001828054610e2f90611d8f565b8015610e7c5780601f10610e5157610100808354040283529160200191610e7c565b820191906000526020600020905b815481529060010190602001808311610e5f57829003601f168201915b50505050508152602001600482018054610e9590611d8f565b80601f0160208091040260200160405190810160405280929190818152602001828054610ec190611d8f565b8015610f0e5780601f10610ee357610100808354040283529160200191610f0e565b820191906000526020600020905b815481529060010190602001808311610ef157829003601f168201915b505050505081526020016005820160009054906101000a900473ffffffffffffffffffffffffffffffffffffffff1673ffffffffffffffffffffffffffffffffffffffff1673ffffffffffffffffffffffffffffffffffffffff168152602001600682015481526020016007820160009054906101000a900473ffffffffffffffffffffffffffffffffffffffff1673ffffffffffffffffffffffffffffffffffffffff1673ffffffffffffffffffffffffffffffffffffffff16815250509050919050565b600160009054906101000a900473ffffffffffffffffffffffffffffffffffffffff1681565b813373ffffffffffffffffffffffffffffffffffffffff166003600083815260200190815260200160002060009054906101000a900473ffffffffffffffffffffffffffffffffffffffff1673ffffffffffffffffffffffffffffffffffffffff161461109c576040517f08c379a000000000000000000000000000000000000000000000000000000000815260040161109390611d40565b60405180910390fd5b600073ffffffffffffffffffffffffffffffffffffffff168273ffffffffffffffffffffffffffffffffffffffff160361110b576040517f08c379a000000000000000000000000000000000000000000000000000000000815260040161110290612314565b60405180910390fd5b60006003600085815260200190815260200160002060009054906101000a900473ffffffffffffffffffffffffffffffffffffffff169050826003600086815260200190815260200160002060006101000a81548173ffffffffffffffffffffffffffffffffffffffff021916908373ffffffffffffffffffffffffffffffffffffffff160217905550826002600086815260200190815260200160002060070160006101000a81548173ffffffffffffffffffffffffffffffffffffffff021916908373ffffffffffffffffffffffffffffffffffffffff1602179055508273ffffffffffffffffffffffffffffffffffffffff168173ffffffffffffffffffffffffffffffffffffffff16857f9b6a32f3cd7b15e8a1bfb25410c1b783cf20a9fcfee4b3b070770f5c09c0646f60405160405180910390a450505050565b6000808211801561125e57506004548211155b61129d576040517f08c379a000000000000000000000000000000000000000000000000000000000815260040161129490611cae565b60405180910390fd5b600160009054906101000a900473ffffffffffffffffffffffffffffffffffffffff1673ffffffffffffffffffffffffffffffffffffffff1663feb4cbb9836040518263ffffffff1660e01b81526004016112f8919061191c565b602060405180830381865afa158015611315573d6000803e3d6000fd5b505050506040513d601f19601f820116820180604052508101906113399190612123565b9050919050565b6040518061010001604052806060815260200160008152602001606081526020016060815260200160608152602001600073ffffffffffffffffffffffffffffffffffffffff16815260200160008152602001600073ffffffffffffffffffffffffffffffffffffffff1681525090565b6000604051905090565b600080fd5b600080fd5b6000819050919050565b6113d8816113c5565b81146113e357600080fd5b50565b6000813590506113f5816113cf565b92915050565b600060208284031215611411576114106113bb565b5b600061141f848285016113e6565b91505092915050565b600073ffffffffffffffffffffffffffffffffffffffff82169050919050565b600061145382611428565b9050919050565b61146381611448565b82525050565b600060208201905061147e600083018461145a565b92915050565b600080fd5b600080fd5b6000601f19601f8301169050919050565b7f4e487b7100000000000000000000000000000000000000000000000000000000600052604160045260246000fd5b6114d78261148e565b810181811067ffffffffffffffff821117156114f6576114f561149f565b5b80604052505050565b60006115096113b1565b905061151582826114ce565b919050565b600067ffffffffffffffff8211156115355761153461149f565b5b61153e8261148e565b9050602081019050919050565b82818337600083830152505050565b600061156d6115688461151a565b6114ff565b90508281526020810184848401111561158957611588611489565b5b61159484828561154b565b509392505050565b600082601f8301126115b1576115b0611484565b5b81356115c184826020860161155a565b91505092915050565b60008060008060008060c087890312156115e7576115e66113bb565b5b60006115f589828a016113e6565b965050602087013567ffffffffffffffff811115611616576116156113c0565b5b61162289828a0161159c565b955050604061163389828a016113e6565b945050606087013567ffffffffffffffff811115611654576116536113c0565b5b61166089828a0161159c565b935050608087013567ffffffffffffffff811115611681576116806113c0565b5b61168d89828a0161159c565b92505060a087013567ffffffffffffffff8111156116ae576116ad6113c0565b5b6116ba89828a0161159c565b9150509295509295509295565b600081519050919050565b600082825260208201905092915050565b6000819050602082019050919050565b600081519050919050565b600082825260208201905092915050565b60005b8381101561172d578082015181840152602081019050611712565b60008484015250505050565b6000611744826116f3565b61174e81856116fe565b935061175e81856020860161170f565b6117678161148e565b840191505092915050565b61177b816113c5565b82525050565b61178a81611448565b82525050565b60006101008301600083015184820360008601526117ae8282611739565b91505060208301516117c36020860182611772565b50604083015184820360408601526117db8282611739565b915050606083015184820360608601526117f58282611739565b9150506080830151848203608086015261180f8282611739565b91505060a083015161182460a0860182611781565b5060c083015161183760c0860182611772565b5060e083015161184a60e0860182611781565b508091505092915050565b60006118618383611790565b905092915050565b6000602082019050919050565b6000611881826116c7565b61188b81856116d2565b93508360208202850161189d856116e3565b8060005b858110156118d957848403895281516118ba8582611855565b94506118c583611869565b925060208a019950506001810190506118a1565b50829750879550505050505092915050565b600060208201905081810360008301526119058184611876565b905092915050565b611916816113c5565b82525050565b6000602082019050611931600083018461190d565b92915050565b600080600080600060a08688031215611953576119526113bb565b5b600086013567ffffffffffffffff811115611971576119706113c0565b5b61197d8882890161159c565b955050602061198e888289016113e6565b945050604086013567ffffffffffffffff8111156119af576119ae6113c0565b5b6119bb8882890161159c565b935050606086013567ffffffffffffffff8111156119dc576119db6113c0565b5b6119e88882890161159c565b925050608086013567ffffffffffffffff811115611a0957611a086113c0565b5b611a158882890161159c565b9150509295509295909350565b6000819050919050565b6000611a47611a42611a3d84611428565b611a22565b611428565b9050919050565b6000611a5982611a2c565b9050919050565b6000611a6b82611a4e565b9050919050565b611a7b81611a60565b82525050565b6000602082019050611a966000830184611a72565b92915050565b6000610100830160008301518482036000860152611aba8282611739565b9150506020830151611acf6020860182611772565b5060408301518482036040860152611ae78282611739565b91505060608301518482036060860152611b018282611739565b91505060808301518482036080860152611b1b8282611739565b91505060a0830151611b3060a0860182611781565b5060c0830151611b4360c0860182611772565b5060e0830151611b5660e0860182611781565b508091505092915050565b60006020820190508181036000830152611b7b8184611a9c565b905092915050565b6000611b8e82611a4e565b9050919050565b611b9e81611b83565b82525050565b6000602082019050611bb96000830184611b95565b92915050565b611bc881611448565b8114611bd357600080fd5b50565b600081359050611be581611bbf565b92915050565b60008060408385031215611c0257611c016113bb565b5b6000611c10858286016113e6565b9250506020611c2185828601611bd6565b9150509250929050565b600082825260208201905092915050565b7f436f6c6c656374696f6e436f6e74726163743a20496e76616c696420636f6c6c60008201527f656374696f6e2049440000000000000000000000000000000000000000000000602082015250565b6000611c98602983611c2b565b9150611ca382611c3c565b604082019050919050565b60006020820190508181036000830152611cc781611c8b565b9050919050565b7f436f6c6c656374696f6e436f6e74726163743a204e6f742074686520636f6c6c60008201527f656374696f6e206f776e65720000000000000000000000000000000000000000602082015250565b6000611d2a602c83611c2b565b9150611d3582611cce565b604082019050919050565b60006020820190508181036000830152611d5981611d1d565b9050919050565b7f4e487b7100000000000000000000000000000000000000000000000000000000600052602260045260246000fd5b60006002820490506001821680611da757607f821691505b602082108103611dba57611db9611d60565b5b50919050565b60008190508160005260206000209050919050565b60006020601f8301049050919050565b600082821b905092915050565b600060088302611e227fffffffffffffffffffffffffffffffffffffffffffffffffffffffffffffffff82611de5565b611e2c8683611de5565b95508019841693508086168417925050509392505050565b6000611e5f611e5a611e55846113c5565b611a22565b6113c5565b9050919050565b6000819050919050565b611e7983611e44565b611e8d611e8582611e66565b848454611df2565b825550505050565b600090565b611ea2611e95565b611ead818484611e70565b505050565b5b81811015611ed157611ec6600082611e9a565b600181019050611eb3565b5050565b601f821115611f1657611ee781611dc0565b611ef084611dd5565b81016020851015611eff578190505b611f13611f0b85611dd5565b830182611eb2565b50505b505050565b600082821c905092915050565b6000611f3960001984600802611f1b565b1980831691505092915050565b6000611f528383611f28565b9150826002028217905092915050565b611f6b826116f3565b67ffffffffffffffff811115611f8457611f8361149f565b5b611f8e8254611d8f565b611f99828285611ed5565b600060209050601f831160018114611fcc5760008415611fba578287015190505b611fc48582611f46565b86555061202c565b601f198416611fda86611dc0565b60005b8281101561200257848901518255600182019150602085019450602081019050611fdd565b8683101561201f578489015161201b601f891682611f28565b8355505b6001600288020188555050505b505050505050565b7f4e487b7100000000000000000000000000000000000000000000000000000000600052601160045260246000fd5b600061206e826113c5565b9150612079836113c5565b925082820390508181111561209157612090612034565b5b92915050565b7f4e487b7100000000000000000000000000000000000000000000000000000000600052603260045260246000fd5b60006120d1826113c5565b91507fffffffffffffffffffffffffffffffffffffffffffffffffffffffffffffffff820361210357612102612034565b5b600182019050919050565b60008151905061211d816113cf565b92915050565b600060208284031215612139576121386113bb565b5b60006121478482850161210e565b91505092915050565b60008115159050919050565b61216581612150565b811461217057600080fd5b50565b6000815190506121828161215c565b92915050565b60006020828403121561219e5761219d6113bb565b5b60006121ac84828501612173565b91505092915050565b7f436f6c6c656374696f6e436f6e74726163743a204e6f7420617574686f72697a60008201527f6564000000000000000000000000000000000000000000000000000000000000602082015250565b6000612211602283611c2b565b915061221c826121b5565b604082019050919050565b6000602082019050818103600083015261224081612204565b9050919050565b6000612252826116f3565b61225c8185611c2b565b935061226c81856020860161170f565b6122758161148e565b840191505092915050565b6000602082019050818103600083015261229a8184612247565b905092915050565b7f436f6c6c656374696f6e436f6e74726163743a20496e76616c6964206e65772060008201527f6f776e6572206164647265737300000000000000000000000000000000000000602082015250565b60006122fe602d83611c2b565b9150612309826122a2565b604082019050919050565b6000602082019050818103600083015261232d816122f1565b905091905056fea2646970667358221220e668b0f7dcb0dd009e69f99d0b9b5ef35b33e66dc99436450b2048cc7c2972fe64736f6c63430008130033",
  "immutableReferences": {},
  "source": "// SPDX-License-Identifier: MIT\r\npragma solidity ^0.8.7;\r\n\r\nimport \"./MasterAccessControl.sol\";\r\nimport \"./NFTContract.sol\";\r\n\r\ncontract CollectionContract {\r\n    MasterAccessControl public masterAccessControl;\r\n    NFTContract public nftContract;\r\n\r\n    struct CollectionMetadata {\r\n        string name;\r\n        uint256 contextWindow;\r\n        string baseModel;\r\n        string image;\r\n        string description;\r\n        address creator;\r\n        uint256 dateCreated;\r\n        address owner;\r\n    }\r\n\r\n    mapping(uint256 => CollectionMetadata) private collections;\r\n    mapping(uint256 => address) private collectionOwners;\r\n\r\n    uint256 private totalCollections;\r\n\r\n    event CollectionCreated(uint256 indexed collectionId, address indexed creator, string baseModel);\r\n    event CollectionUpdated(uint256 indexed collectionId, address indexed updater);\r\n    event CollectionTransferred(uint256 indexed collectionId, address indexed previousOwner, address indexed newOwner);\r\n\r\n    constructor(address _masterAccessControlAddress, address _nftContractAddress) {\r\n        masterAccessControl = MasterAccessControl(_masterAccessControlAddress);\r\n        nftContract = NFTContract(_nftContractAddress);\r\n        masterAccessControl.grantSelfAccess(msg.sender);\r\n    }\r\n\r\n    modifier onlyAuthorized() {\r\n        require(masterAccessControl.selfCheckAccess(msg.sender), \"CollectionContract: Not authorized\");\r\n        _;\r\n    }\r\n\r\n    modifier onlyCollectionOwner(uint256 _collectionId) {\r\n        require(collectionOwners[_collectionId] == msg.sender, \"CollectionContract: Not the collection owner\");\r\n        _;\r\n    }\r\n\r\n    function createCollection(\r\n        string memory _name,\r\n        uint256 _contextWindow,\r\n        string memory _baseModel,\r\n        string memory _image,\r\n        string memory _description\r\n    ) external onlyAuthorized returns (uint256) {\r\n        totalCollections++;\r\n        uint256 newCollectionId = totalCollections;\r\n\r\n        collections[newCollectionId] = CollectionMetadata({\r\n            name : _name,\r\n            contextWindow : _contextWindow,\r\n            baseModel: _baseModel,\r\n            image: _image,\r\n            description: _description,\r\n            creator: msg.sender,\r\n            dateCreated: block.timestamp,\r\n            owner: msg.sender\r\n        });\r\n\r\n        collectionOwners[newCollectionId] = msg.sender;\r\n\r\n        emit CollectionCreated(newCollectionId, msg.sender, _baseModel);\r\n\r\n        return newCollectionId;\r\n    }\r\n\r\n    function updateCollection(\r\n        uint256 _collectionId,\r\n        string memory _name,\r\n        uint256 _contextWindow,\r\n        string memory _baseModel,\r\n        string memory _image,\r\n        string memory _description\r\n    ) external onlyCollectionOwner(_collectionId) {\r\n        CollectionMetadata storage collection = collections[_collectionId];\r\n        \r\n        collection.name = _name;\r\n        collection.contextWindow = _contextWindow;\r\n        collection.baseModel = _baseModel;\r\n        collection.image = _image;\r\n        collection.description = _description;\r\n\r\n\r\n        emit CollectionUpdated(_collectionId, msg.sender);\r\n    }\r\n\r\n    function transferCollection(uint256 _collectionId, address _newOwner) external onlyCollectionOwner(_collectionId) {\r\n        require(_newOwner != address(0), \"CollectionContract: Invalid new owner address\");\r\n\r\n        address previousOwner = collectionOwners[_collectionId];\r\n        collectionOwners[_collectionId] = _newOwner;\r\n        collections[_collectionId].owner = _newOwner;\r\n\r\n        emit CollectionTransferred(_collectionId, previousOwner, _newOwner);\r\n    }\r\n\r\n    function getCollectionMetadata(uint256 _collectionId) external view returns (CollectionMetadata memory) {\r\n        require(_collectionId > 0 && _collectionId <= totalCollections, \"CollectionContract: Invalid collection ID\");\r\n        return collections[_collectionId];\r\n    }\r\n\r\n    function getCollectionOwner(uint256 _collectionId) external view returns (address) {\r\n        require(_collectionId > 0 && _collectionId <= totalCollections, \"CollectionContract: Invalid collection ID\");\r\n        return collectionOwners[_collectionId];\r\n    }\r\n\r\n    function getTotalCollections() external view returns (uint256) {\r\n        return totalCollections;\r\n    }\r\n\r\n    function getAllCollections() external view returns (CollectionMetadata[] memory) {\r\n        CollectionMetadata[] memory allCollections = new CollectionMetadata[](totalCollections);\r\n        \r\n        for (uint256 i = 1; i <= totalCollections; i++) {\r\n            allCollections[i - 1] = collections[i];\r\n        }\r\n\r\n        return allCollections;\r\n    }\r\n\r\n    function getCollectionNFTCount(uint256 _collectionId) external view returns (uint256) {\r\n        require(_collectionId > 0 && _collectionId <= totalCollections, \"CollectionContract: Invalid collection ID\");\r\n        return nftContract.getCollectionNFTCount(_collectionId);\r\n    }\r\n\r\n    function getCollectionUniqueHolders(uint256 _collectionId) external view returns (uint256) {\r\n        require(_collectionId > 0 && _collectionId <= totalCollections, \"CollectionContract: Invalid collection ID\");\r\n        return nftContract.numberOfHolders(_collectionId);\r\n    }\r\n}",
  "sourcePath": "F:\\Projects\\03 Hackathon\\Tron Hackathon\\NeuraNFT_Tron\\smart_contracts\\truffle_compiled_contract\\contracts\\CollectionContract.sol",
  "compiler": {
    "name": "solc",
    "version": "0.8.19+commit.7dd6d404.Emscripten.clang"
  },
  "schemaVersion": "3.4.16",
  "updatedAt": "2024-10-11T12:33:51.177Z",
  "networkType": "ethereum",
  "devdoc": {
    "kind": "dev",
    "methods": {},
    "version": 1
  },
  "userdoc": {
    "kind": "user",
    "methods": {},
    "version": 1
  }
}