{
  "contractName": "CollectionContract",
  "abi": [
    {
      "inputs": [
        {
          "internalType": "address",
          "name": "_masterAccessControlAddress",
          "type": "address"
        },
        {
          "internalType": "address",
          "name": "_nftContractAddress",
          "type": "address"
        }
      ],
      "stateMutability": "nonpayable",
      "type": "constructor"
    },
    {
      "anonymous": false,
      "inputs": [
        {
          "indexed": true,
          "internalType": "uint256",
          "name": "collectionId",
          "type": "uint256"
        },
        {
          "indexed": true,
          "internalType": "address",
          "name": "creator",
          "type": "address"
        },
        {
          "indexed": false,
          "internalType": "string",
          "name": "baseModel",
          "type": "string"
        }
      ],
      "name": "CollectionCreated",
      "type": "event"
    },
    {
      "anonymous": false,
      "inputs": [
        {
          "indexed": true,
          "internalType": "uint256",
          "name": "collectionId",
          "type": "uint256"
        },
        {
          "indexed": true,
          "internalType": "address",
          "name": "previousOwner",
          "type": "address"
        },
        {
          "indexed": true,
          "internalType": "address",
          "name": "newOwner",
          "type": "address"
        }
      ],
      "name": "CollectionTransferred",
      "type": "event"
    },
    {
      "anonymous": false,
      "inputs": [
        {
          "indexed": true,
          "internalType": "uint256",
          "name": "collectionId",
          "type": "uint256"
        },
        {
          "indexed": true,
          "internalType": "address",
          "name": "updater",
          "type": "address"
        }
      ],
      "name": "CollectionUpdated",
      "type": "event"
    },
    {
      "inputs": [],
      "name": "masterAccessControl",
      "outputs": [
        {
          "internalType": "contract MasterAccessControl",
          "name": "",
          "type": "address"
        }
      ],
      "stateMutability": "view",
      "type": "function",
      "constant": true
    },
    {
      "inputs": [],
      "name": "nftContract",
      "outputs": [
        {
          "internalType": "contract NFTContract",
          "name": "",
          "type": "address"
        }
      ],
      "stateMutability": "view",
      "type": "function",
      "constant": true
    },
    {
      "inputs": [
        {
          "internalType": "string",
          "name": "_baseModel",
          "type": "string"
        },
        {
          "internalType": "string",
          "name": "_image",
          "type": "string"
        },
        {
          "internalType": "string",
          "name": "_description",
          "type": "string"
        }
      ],
      "name": "createCollection",
      "outputs": [
        {
          "internalType": "uint256",
          "name": "",
          "type": "uint256"
        }
      ],
      "stateMutability": "nonpayable",
      "type": "function"
    },
    {
      "inputs": [
        {
          "internalType": "uint256",
          "name": "_collectionId",
          "type": "uint256"
        },
        {
          "internalType": "string",
          "name": "_baseModel",
          "type": "string"
        },
        {
          "internalType": "string",
          "name": "_image",
          "type": "string"
        },
        {
          "internalType": "string",
          "name": "_description",
          "type": "string"
        }
      ],
      "name": "updateCollection",
      "outputs": [],
      "stateMutability": "nonpayable",
      "type": "function"
    },
    {
      "inputs": [
        {
          "internalType": "uint256",
          "name": "_collectionId",
          "type": "uint256"
        },
        {
          "internalType": "address",
          "name": "_newOwner",
          "type": "address"
        }
      ],
      "name": "transferCollection",
      "outputs": [],
      "stateMutability": "nonpayable",
      "type": "function"
    },
    {
      "inputs": [
        {
          "internalType": "uint256",
          "name": "_collectionId",
          "type": "uint256"
        }
      ],
      "name": "getCollectionMetadata",
      "outputs": [
        {
          "components": [
            {
              "internalType": "string",
              "name": "baseModel",
              "type": "string"
            },
            {
              "internalType": "string",
              "name": "image",
              "type": "string"
            },
            {
              "internalType": "string",
              "name": "description",
              "type": "string"
            },
            {
              "internalType": "address",
              "name": "creator",
              "type": "address"
            },
            {
              "internalType": "uint256",
              "name": "dateCreated",
              "type": "uint256"
            },
            {
              "internalType": "address",
              "name": "owner",
              "type": "address"
            }
          ],
          "internalType": "struct CollectionContract.CollectionMetadata",
          "name": "",
          "type": "tuple"
        }
      ],
      "stateMutability": "view",
      "type": "function",
      "constant": true
    },
    {
      "inputs": [
        {
          "internalType": "uint256",
          "name": "_collectionId",
          "type": "uint256"
        }
      ],
      "name": "getCollectionOwner",
      "outputs": [
        {
          "internalType": "address",
          "name": "",
          "type": "address"
        }
      ],
      "stateMutability": "view",
      "type": "function",
      "constant": true
    },
    {
      "inputs": [],
      "name": "getTotalCollections",
      "outputs": [
        {
          "internalType": "uint256",
          "name": "",
          "type": "uint256"
        }
      ],
      "stateMutability": "view",
      "type": "function",
      "constant": true
    },
    {
      "inputs": [],
      "name": "getAllCollections",
      "outputs": [
        {
          "components": [
            {
              "internalType": "string",
              "name": "baseModel",
              "type": "string"
            },
            {
              "internalType": "string",
              "name": "image",
              "type": "string"
            },
            {
              "internalType": "string",
              "name": "description",
              "type": "string"
            },
            {
              "internalType": "address",
              "name": "creator",
              "type": "address"
            },
            {
              "internalType": "uint256",
              "name": "dateCreated",
              "type": "uint256"
            },
            {
              "internalType": "address",
              "name": "owner",
              "type": "address"
            }
          ],
          "internalType": "struct CollectionContract.CollectionMetadata[]",
          "name": "",
          "type": "tuple[]"
        }
      ],
      "stateMutability": "view",
      "type": "function",
      "constant": true
    },
    {
      "inputs": [
        {
          "internalType": "uint256",
          "name": "_collectionId",
          "type": "uint256"
        }
      ],
      "name": "getCollectionNFTCount",
      "outputs": [
        {
          "internalType": "uint256",
          "name": "",
          "type": "uint256"
        }
      ],
      "stateMutability": "view",
      "type": "function",
      "constant": true
    },
    {
      "inputs": [
        {
          "internalType": "uint256",
          "name": "_collectionId",
          "type": "uint256"
        }
      ],
      "name": "getCollectionUniqueHolders",
      "outputs": [
        {
          "internalType": "uint256",
          "name": "",
          "type": "uint256"
        }
      ],
      "stateMutability": "view",
      "type": "function",
      "constant": true
    }
  ],
  "bytecode": "0x60806040523480156200001157600080fd5b5060405162002331380380620023318339818101604052810190620000379190620001b9565b816000806101000a81548173ffffffffffffffffffffffffffffffffffffffff021916908373ffffffffffffffffffffffffffffffffffffffff16021790555080600160006101000a81548173ffffffffffffffffffffffffffffffffffffffff021916908373ffffffffffffffffffffffffffffffffffffffff16021790555060008054906101000a900473ffffffffffffffffffffffffffffffffffffffff1673ffffffffffffffffffffffffffffffffffffffff1663a2aadc54336040518263ffffffff1660e01b815260040162000113919062000211565b600060405180830381600087803b1580156200012e57600080fd5b505af115801562000143573d6000803e3d6000fd5b5050505050506200022e565b600080fd5b600073ffffffffffffffffffffffffffffffffffffffff82169050919050565b6000620001818262000154565b9050919050565b620001938162000174565b81146200019f57600080fd5b50565b600081519050620001b38162000188565b92915050565b60008060408385031215620001d357620001d26200014f565b5b6000620001e385828601620001a2565b9250506020620001f685828601620001a2565b9150509250929050565b6200020b8162000174565b82525050565b600060208201905062000228600083018462000200565b92915050565b6120f3806200023e6000396000f3fe608060405234801561001057600080fd5b50600436106100a95760003560e01c8063a5f55ba511610071578063a5f55ba514610168578063cf01387414610184578063d56d229d146101b4578063da4bd505146101d2578063ece86c21146101ee578063feb4cbb91461021e576100a9565b8063394120c0146100ae5780636804a958146100de5780638c627b16146100fc578063939bf6dd1461012c5780639ef8dd671461014a575b600080fd5b6100c860048036038101906100c39190611266565b61024e565b6040516100d591906112d4565b60405180910390f35b6100e66102db565b6040516100f391906114f6565b60405180910390f35b61011660048036038101906101119190611266565b610616565b6040516101239190611527565b60405180910390f35b61013461070b565b6040516101419190611527565b60405180910390f35b610152610715565b60405161015f91906115a1565b60405180910390f35b610182600480360381019061017d91906116f1565b610739565b005b61019e60048036038101906101999190611266565b610874565b6040516101ab9190611843565b60405180910390f35b6101bc610b5e565b6040516101c99190611886565b60405180910390f35b6101ec60048036038101906101e791906118cd565b610b84565b005b6102086004803603810190610203919061190d565b610dd5565b6040516102159190611527565b60405180910390f35b61023860048036038101906102339190611266565b6110c5565b6040516102459190611527565b60405180910390f35b6000808211801561026157506004548211155b6102a0576040517f08c379a000000000000000000000000000000000000000000000000000000000815260040161029790611a37565b60405180910390fd5b6003600083815260200190815260200160002060009054906101000a900473ffffffffffffffffffffffffffffffffffffffff169050919050565b6060600060045467ffffffffffffffff8111156102fb576102fa6115c6565b5b60405190808252806020026020018201604052801561033457816020015b6103216111ba565b8152602001906001900390816103195790505b5090506000600190505b600454811161060e57600260008281526020019081526020016000206040518060c001604052908160008201805461037590611a86565b80601f01602080910402602001604051908101604052809291908181526020018280546103a190611a86565b80156103ee5780601f106103c3576101008083540402835291602001916103ee565b820191906000526020600020905b8154815290600101906020018083116103d157829003601f168201915b5050505050815260200160018201805461040790611a86565b80601f016020809104026020016040519081016040528092919081815260200182805461043390611a86565b80156104805780601f1061045557610100808354040283529160200191610480565b820191906000526020600020905b81548152906001019060200180831161046357829003601f168201915b5050505050815260200160028201805461049990611a86565b80601f01602080910402602001604051908101604052809291908181526020018280546104c590611a86565b80156105125780601f106104e757610100808354040283529160200191610512565b820191906000526020600020905b8154815290600101906020018083116104f557829003601f168201915b505050505081526020016003820160009054906101000a900473ffffffffffffffffffffffffffffffffffffffff1673ffffffffffffffffffffffffffffffffffffffff1673ffffffffffffffffffffffffffffffffffffffff168152602001600482015481526020016005820160009054906101000a900473ffffffffffffffffffffffffffffffffffffffff1673ffffffffffffffffffffffffffffffffffffffff1673ffffffffffffffffffffffffffffffffffffffff1681525050826001836105df9190611ae6565b815181106105f0576105ef611b1a565b5b6020026020010181905250808061060690611b49565b91505061033e565b508091505090565b6000808211801561062957506004548211155b610668576040517f08c379a000000000000000000000000000000000000000000000000000000000815260040161065f90611a37565b60405180910390fd5b600160009054906101000a900473ffffffffffffffffffffffffffffffffffffffff1673ffffffffffffffffffffffffffffffffffffffff1663f9f96003836040518263ffffffff1660e01b81526004016106c39190611527565b602060405180830381865afa1580156106e0573d6000803e3d6000fd5b505050506040513d601f19601f820116820180604052508101906107049190611ba6565b9050919050565b6000600454905090565b60008054906101000a900473ffffffffffffffffffffffffffffffffffffffff1681565b833373ffffffffffffffffffffffffffffffffffffffff166003600083815260200190815260200160002060009054906101000a900473ffffffffffffffffffffffffffffffffffffffff1673ffffffffffffffffffffffffffffffffffffffff16146107db576040517f08c379a00000000000000000000000000000000000000000000000000000000081526004016107d290611c45565b60405180910390fd5b6000600260008781526020019081526020016000209050848160000190816108039190611e07565b50838160010190816108159190611e07565b50828160020190816108279190611e07565b503373ffffffffffffffffffffffffffffffffffffffff16867fdc3665dfa360896ba80f3f0a287f3fab1df037f080190fd39f5b39281b5cef3360405160405180910390a3505050505050565b61087c6111ba565b60008211801561088e57506004548211155b6108cd576040517f08c379a00000000000000000000000000000000000000000000000000000000081526004016108c490611a37565b60405180910390fd5b600260008381526020019081526020016000206040518060c00160405290816000820180546108fb90611a86565b80601f016020809104026020016040519081016040528092919081815260200182805461092790611a86565b80156109745780601f1061094957610100808354040283529160200191610974565b820191906000526020600020905b81548152906001019060200180831161095757829003601f168201915b5050505050815260200160018201805461098d90611a86565b80601f01602080910402602001604051908101604052809291908181526020018280546109b990611a86565b8015610a065780601f106109db57610100808354040283529160200191610a06565b820191906000526020600020905b8154815290600101906020018083116109e957829003601f168201915b50505050508152602001600282018054610a1f90611a86565b80601f0160208091040260200160405190810160405280929190818152602001828054610a4b90611a86565b8015610a985780601f10610a6d57610100808354040283529160200191610a98565b820191906000526020600020905b815481529060010190602001808311610a7b57829003601f168201915b505050505081526020016003820160009054906101000a900473ffffffffffffffffffffffffffffffffffffffff1673ffffffffffffffffffffffffffffffffffffffff1673ffffffffffffffffffffffffffffffffffffffff168152602001600482015481526020016005820160009054906101000a900473ffffffffffffffffffffffffffffffffffffffff1673ffffffffffffffffffffffffffffffffffffffff1673ffffffffffffffffffffffffffffffffffffffff16815250509050919050565b600160009054906101000a900473ffffffffffffffffffffffffffffffffffffffff1681565b813373ffffffffffffffffffffffffffffffffffffffff166003600083815260200190815260200160002060009054906101000a900473ffffffffffffffffffffffffffffffffffffffff1673ffffffffffffffffffffffffffffffffffffffff1614610c26576040517f08c379a0000000000000000000000000000000000000000000000000000000008152600401610c1d90611c45565b60405180910390fd5b600073ffffffffffffffffffffffffffffffffffffffff168273ffffffffffffffffffffffffffffffffffffffff1603610c95576040517f08c379a0000000000000000000000000000000000000000000000000000000008152600401610c8c90611f4b565b60405180910390fd5b60006003600085815260200190815260200160002060009054906101000a900473ffffffffffffffffffffffffffffffffffffffff169050826003600086815260200190815260200160002060006101000a81548173ffffffffffffffffffffffffffffffffffffffff021916908373ffffffffffffffffffffffffffffffffffffffff160217905550826002600086815260200190815260200160002060050160006101000a81548173ffffffffffffffffffffffffffffffffffffffff021916908373ffffffffffffffffffffffffffffffffffffffff1602179055508273ffffffffffffffffffffffffffffffffffffffff168173ffffffffffffffffffffffffffffffffffffffff16857f9b6a32f3cd7b15e8a1bfb25410c1b783cf20a9fcfee4b3b070770f5c09c0646f60405160405180910390a450505050565b60008060009054906101000a900473ffffffffffffffffffffffffffffffffffffffff1673ffffffffffffffffffffffffffffffffffffffff1663c6310de3336040518263ffffffff1660e01b8152600401610e3191906112d4565b602060405180830381865afa158015610e4e573d6000803e3d6000fd5b505050506040513d601f19601f82011682018060405250810190610e729190611fa3565b610eb1576040517f08c379a0000000000000000000000000000000000000000000000000000000008152600401610ea890612042565b60405180910390fd5b60046000815480929190610ec490611b49565b9190505550600060045490506040518060c001604052808681526020018581526020018481526020013373ffffffffffffffffffffffffffffffffffffffff1681526020014281526020013373ffffffffffffffffffffffffffffffffffffffff16815250600260008381526020019081526020016000206000820151816000019081610f519190611e07565b506020820151816001019081610f679190611e07565b506040820151816002019081610f7d9190611e07565b5060608201518160030160006101000a81548173ffffffffffffffffffffffffffffffffffffffff021916908373ffffffffffffffffffffffffffffffffffffffff1602179055506080820151816004015560a08201518160050160006101000a81548173ffffffffffffffffffffffffffffffffffffffff021916908373ffffffffffffffffffffffffffffffffffffffff160217905550905050336003600083815260200190815260200160002060006101000a81548173ffffffffffffffffffffffffffffffffffffffff021916908373ffffffffffffffffffffffffffffffffffffffff1602179055503373ffffffffffffffffffffffffffffffffffffffff16817fb0b7b214963f2e16da9cf6ed5851757dfed306875edf1d59e030881102ef24ef876040516110b2919061209b565b60405180910390a3809150509392505050565b600080821180156110d857506004548211155b611117576040517f08c379a000000000000000000000000000000000000000000000000000000000815260040161110e90611a37565b60405180910390fd5b600160009054906101000a900473ffffffffffffffffffffffffffffffffffffffff1673ffffffffffffffffffffffffffffffffffffffff1663feb4cbb9836040518263ffffffff1660e01b81526004016111729190611527565b602060405180830381865afa15801561118f573d6000803e3d6000fd5b505050506040513d601f19601f820116820180604052508101906111b39190611ba6565b9050919050565b6040518060c00160405280606081526020016060815260200160608152602001600073ffffffffffffffffffffffffffffffffffffffff16815260200160008152602001600073ffffffffffffffffffffffffffffffffffffffff1681525090565b6000604051905090565b600080fd5b600080fd5b6000819050919050565b61124381611230565b811461124e57600080fd5b50565b6000813590506112608161123a565b92915050565b60006020828403121561127c5761127b611226565b5b600061128a84828501611251565b91505092915050565b600073ffffffffffffffffffffffffffffffffffffffff82169050919050565b60006112be82611293565b9050919050565b6112ce816112b3565b82525050565b60006020820190506112e960008301846112c5565b92915050565b600081519050919050565b600082825260208201905092915050565b6000819050602082019050919050565b600081519050919050565b600082825260208201905092915050565b60005b8381101561135557808201518184015260208101905061133a565b60008484015250505050565b6000601f19601f8301169050919050565b600061137d8261131b565b6113878185611326565b9350611397818560208601611337565b6113a081611361565b840191505092915050565b6113b4816112b3565b82525050565b6113c381611230565b82525050565b600060c08301600083015184820360008601526113e68282611372565b915050602083015184820360208601526114008282611372565b9150506040830151848203604086015261141a8282611372565b915050606083015161142f60608601826113ab565b50608083015161144260808601826113ba565b5060a083015161145560a08601826113ab565b508091505092915050565b600061146c83836113c9565b905092915050565b6000602082019050919050565b600061148c826112ef565b61149681856112fa565b9350836020820285016114a88561130b565b8060005b858110156114e457848403895281516114c58582611460565b94506114d083611474565b925060208a019950506001810190506114ac565b50829750879550505050505092915050565b600060208201905081810360008301526115108184611481565b905092915050565b61152181611230565b82525050565b600060208201905061153c6000830184611518565b92915050565b6000819050919050565b600061156761156261155d84611293565b611542565b611293565b9050919050565b60006115798261154c565b9050919050565b600061158b8261156e565b9050919050565b61159b81611580565b82525050565b60006020820190506115b66000830184611592565b92915050565b600080fd5b600080fd5b7f4e487b7100000000000000000000000000000000000000000000000000000000600052604160045260246000fd5b6115fe82611361565b810181811067ffffffffffffffff8211171561161d5761161c6115c6565b5b80604052505050565b600061163061121c565b905061163c82826115f5565b919050565b600067ffffffffffffffff82111561165c5761165b6115c6565b5b61166582611361565b9050602081019050919050565b82818337600083830152505050565b600061169461168f84611641565b611626565b9050828152602081018484840111156116b0576116af6115c1565b5b6116bb848285611672565b509392505050565b600082601f8301126116d8576116d76115bc565b5b81356116e8848260208601611681565b91505092915050565b6000806000806080858703121561170b5761170a611226565b5b600061171987828801611251565b945050602085013567ffffffffffffffff81111561173a5761173961122b565b5b611746878288016116c3565b935050604085013567ffffffffffffffff8111156117675761176661122b565b5b611773878288016116c3565b925050606085013567ffffffffffffffff8111156117945761179361122b565b5b6117a0878288016116c3565b91505092959194509250565b600060c08301600083015184820360008601526117c98282611372565b915050602083015184820360208601526117e38282611372565b915050604083015184820360408601526117fd8282611372565b915050606083015161181260608601826113ab565b50608083015161182560808601826113ba565b5060a083015161183860a08601826113ab565b508091505092915050565b6000602082019050818103600083015261185d81846117ac565b905092915050565b60006118708261156e565b9050919050565b61188081611865565b82525050565b600060208201905061189b6000830184611877565b92915050565b6118aa816112b3565b81146118b557600080fd5b50565b6000813590506118c7816118a1565b92915050565b600080604083850312156118e4576118e3611226565b5b60006118f285828601611251565b9250506020611903858286016118b8565b9150509250929050565b60008060006060848603121561192657611925611226565b5b600084013567ffffffffffffffff8111156119445761194361122b565b5b611950868287016116c3565b935050602084013567ffffffffffffffff8111156119715761197061122b565b5b61197d868287016116c3565b925050604084013567ffffffffffffffff81111561199e5761199d61122b565b5b6119aa868287016116c3565b9150509250925092565b600082825260208201905092915050565b7f436f6c6c656374696f6e436f6e74726163743a20496e76616c696420636f6c6c60008201527f656374696f6e2049440000000000000000000000000000000000000000000000602082015250565b6000611a216029836119b4565b9150611a2c826119c5565b604082019050919050565b60006020820190508181036000830152611a5081611a14565b9050919050565b7f4e487b7100000000000000000000000000000000000000000000000000000000600052602260045260246000fd5b60006002820490506001821680611a9e57607f821691505b602082108103611ab157611ab0611a57565b5b50919050565b7f4e487b7100000000000000000000000000000000000000000000000000000000600052601160045260246000fd5b6000611af182611230565b9150611afc83611230565b9250828203905081811115611b1457611b13611ab7565b5b92915050565b7f4e487b7100000000000000000000000000000000000000000000000000000000600052603260045260246000fd5b6000611b5482611230565b91507fffffffffffffffffffffffffffffffffffffffffffffffffffffffffffffffff8203611b8657611b85611ab7565b5b600182019050919050565b600081519050611ba08161123a565b92915050565b600060208284031215611bbc57611bbb611226565b5b6000611bca84828501611b91565b91505092915050565b7f436f6c6c656374696f6e436f6e74726163743a204e6f742074686520636f6c6c60008201527f656374696f6e206f776e65720000000000000000000000000000000000000000602082015250565b6000611c2f602c836119b4565b9150611c3a82611bd3565b604082019050919050565b60006020820190508181036000830152611c5e81611c22565b9050919050565b60008190508160005260206000209050919050565b60006020601f8301049050919050565b600082821b905092915050565b600060088302611cc77fffffffffffffffffffffffffffffffffffffffffffffffffffffffffffffffff82611c8a565b611cd18683611c8a565b95508019841693508086168417925050509392505050565b6000611d04611cff611cfa84611230565b611542565b611230565b9050919050565b6000819050919050565b611d1e83611ce9565b611d32611d2a82611d0b565b848454611c97565b825550505050565b600090565b611d47611d3a565b611d52818484611d15565b505050565b5b81811015611d7657611d6b600082611d3f565b600181019050611d58565b5050565b601f821115611dbb57611d8c81611c65565b611d9584611c7a565b81016020851015611da4578190505b611db8611db085611c7a565b830182611d57565b50505b505050565b600082821c905092915050565b6000611dde60001984600802611dc0565b1980831691505092915050565b6000611df78383611dcd565b9150826002028217905092915050565b611e108261131b565b67ffffffffffffffff811115611e2957611e286115c6565b5b611e338254611a86565b611e3e828285611d7a565b600060209050601f831160018114611e715760008415611e5f578287015190505b611e698582611deb565b865550611ed1565b601f198416611e7f86611c65565b60005b82811015611ea757848901518255600182019150602085019450602081019050611e82565b86831015611ec45784890151611ec0601f891682611dcd565b8355505b6001600288020188555050505b505050505050565b7f436f6c6c656374696f6e436f6e74726163743a20496e76616c6964206e65772060008201527f6f776e6572206164647265737300000000000000000000000000000000000000602082015250565b6000611f35602d836119b4565b9150611f4082611ed9565b604082019050919050565b60006020820190508181036000830152611f6481611f28565b9050919050565b60008115159050919050565b611f8081611f6b565b8114611f8b57600080fd5b50565b600081519050611f9d81611f77565b92915050565b600060208284031215611fb957611fb8611226565b5b6000611fc784828501611f8e565b91505092915050565b7f436f6c6c656374696f6e436f6e74726163743a204e6f7420617574686f72697a60008201527f6564000000000000000000000000000000000000000000000000000000000000602082015250565b600061202c6022836119b4565b915061203782611fd0565b604082019050919050565b6000602082019050818103600083015261205b8161201f565b9050919050565b600061206d8261131b565b61207781856119b4565b9350612087818560208601611337565b61209081611361565b840191505092915050565b600060208201905081810360008301526120b58184612062565b90509291505056fea264697066735822122086c1abfe7af9fde69794f9432f537e214bb02698ee8a20494603b82ff95c30a664736f6c63430008130033",
  "immutableReferences": {},
  "source": "// SPDX-License-Identifier: MIT\r\npragma solidity ^0.8.7;\r\n\r\nimport \"./MasterAccessControl.sol\";\r\nimport \"./NFTContract.sol\";\r\n\r\ncontract CollectionContract {\r\n    MasterAccessControl public masterAccessControl;\r\n    NFTContract public nftContract;\r\n\r\n    struct CollectionMetadata {\r\n        string baseModel;\r\n        string image;\r\n        string description;\r\n        address creator;\r\n        uint256 dateCreated;\r\n        address owner;\r\n    }\r\n\r\n    mapping(uint256 => CollectionMetadata) private collections;\r\n    mapping(uint256 => address) private collectionOwners;\r\n\r\n    uint256 private totalCollections;\r\n\r\n    event CollectionCreated(uint256 indexed collectionId, address indexed creator, string baseModel);\r\n    event CollectionUpdated(uint256 indexed collectionId, address indexed updater);\r\n    event CollectionTransferred(uint256 indexed collectionId, address indexed previousOwner, address indexed newOwner);\r\n\r\n    constructor(address _masterAccessControlAddress, address _nftContractAddress) {\r\n        masterAccessControl = MasterAccessControl(_masterAccessControlAddress);\r\n        nftContract = NFTContract(_nftContractAddress);\r\n        masterAccessControl.grantSelfAccess(msg.sender);\r\n    }\r\n\r\n    modifier onlyAuthorized() {\r\n        require(masterAccessControl.selfCheckAccess(msg.sender), \"CollectionContract: Not authorized\");\r\n        _;\r\n    }\r\n\r\n    modifier onlyCollectionOwner(uint256 _collectionId) {\r\n        require(collectionOwners[_collectionId] == msg.sender, \"CollectionContract: Not the collection owner\");\r\n        _;\r\n    }\r\n\r\n    function createCollection(\r\n        string memory _baseModel,\r\n        string memory _image,\r\n        string memory _description\r\n    ) external onlyAuthorized returns (uint256) {\r\n        totalCollections++;\r\n        uint256 newCollectionId = totalCollections;\r\n\r\n        collections[newCollectionId] = CollectionMetadata({\r\n            baseModel: _baseModel,\r\n            image: _image,\r\n            description: _description,\r\n            creator: msg.sender,\r\n            dateCreated: block.timestamp,\r\n            owner: msg.sender\r\n        });\r\n\r\n        collectionOwners[newCollectionId] = msg.sender;\r\n\r\n        emit CollectionCreated(newCollectionId, msg.sender, _baseModel);\r\n\r\n        return newCollectionId;\r\n    }\r\n\r\n    function updateCollection(\r\n        uint256 _collectionId,\r\n        string memory _baseModel,\r\n        string memory _image,\r\n        string memory _description\r\n    ) external onlyCollectionOwner(_collectionId) {\r\n        CollectionMetadata storage collection = collections[_collectionId];\r\n        \r\n        collection.baseModel = _baseModel;\r\n        collection.image = _image;\r\n        collection.description = _description;\r\n\r\n        emit CollectionUpdated(_collectionId, msg.sender);\r\n    }\r\n\r\n    function transferCollection(uint256 _collectionId, address _newOwner) external onlyCollectionOwner(_collectionId) {\r\n        require(_newOwner != address(0), \"CollectionContract: Invalid new owner address\");\r\n\r\n        address previousOwner = collectionOwners[_collectionId];\r\n        collectionOwners[_collectionId] = _newOwner;\r\n        collections[_collectionId].owner = _newOwner;\r\n\r\n        emit CollectionTransferred(_collectionId, previousOwner, _newOwner);\r\n    }\r\n\r\n    function getCollectionMetadata(uint256 _collectionId) external view returns (CollectionMetadata memory) {\r\n        require(_collectionId > 0 && _collectionId <= totalCollections, \"CollectionContract: Invalid collection ID\");\r\n        return collections[_collectionId];\r\n    }\r\n\r\n    function getCollectionOwner(uint256 _collectionId) external view returns (address) {\r\n        require(_collectionId > 0 && _collectionId <= totalCollections, \"CollectionContract: Invalid collection ID\");\r\n        return collectionOwners[_collectionId];\r\n    }\r\n\r\n    function getTotalCollections() external view returns (uint256) {\r\n        return totalCollections;\r\n    }\r\n\r\n    function getAllCollections() external view returns (CollectionMetadata[] memory) {\r\n        CollectionMetadata[] memory allCollections = new CollectionMetadata[](totalCollections);\r\n        \r\n        for (uint256 i = 1; i <= totalCollections; i++) {\r\n            allCollections[i - 1] = collections[i];\r\n        }\r\n\r\n        return allCollections;\r\n    }\r\n\r\n    function getCollectionNFTCount(uint256 _collectionId) external view returns (uint256) {\r\n        require(_collectionId > 0 && _collectionId <= totalCollections, \"CollectionContract: Invalid collection ID\");\r\n        return nftContract.getCollectionNFTCount(_collectionId);\r\n    }\r\n\r\n    function getCollectionUniqueHolders(uint256 _collectionId) external view returns (uint256) {\r\n        require(_collectionId > 0 && _collectionId <= totalCollections, \"CollectionContract: Invalid collection ID\");\r\n        return nftContract.numberOfHolders(_collectionId);\r\n    }\r\n}",
  "sourcePath": "F:\\Projects\\03 Hackathon\\Tron Hackathon\\NeuraNFT_Tron\\smart_contracts\\truffle_compiled_contract\\contracts\\CollectionContract.sol",
  "compiler": {
    "name": "solc",
    "version": "0.8.19+commit.7dd6d404.Emscripten.clang"
  },
  "schemaVersion": "3.4.16",
  "updatedAt": "2024-10-07T11:25:36.130Z",
  "networkType": "ethereum",
  "devdoc": {
    "kind": "dev",
    "methods": {},
    "version": 1
  },
  "userdoc": {
    "kind": "user",
    "methods": {},
    "version": 1
  }
}