{
  "contractName": "MasterAccessControl",
  "abi": [
    {
      "inputs": [],
      "stateMutability": "nonpayable",
      "type": "constructor"
    },
    {
      "anonymous": false,
      "inputs": [
        {
          "indexed": true,
          "internalType": "address",
          "name": "contractAddress",
          "type": "address"
        },
        {
          "indexed": true,
          "internalType": "address",
          "name": "caller",
          "type": "address"
        }
      ],
      "name": "AccessGranted",
      "type": "event"
    },
    {
      "anonymous": false,
      "inputs": [
        {
          "indexed": true,
          "internalType": "address",
          "name": "contractAddress",
          "type": "address"
        },
        {
          "indexed": true,
          "internalType": "address",
          "name": "caller",
          "type": "address"
        }
      ],
      "name": "AccessRevoked",
      "type": "event"
    },
    {
      "inputs": [
        {
          "internalType": "address",
          "name": "_contract",
          "type": "address"
        },
        {
          "internalType": "address",
          "name": "_caller",
          "type": "address"
        }
      ],
      "name": "grantAccess",
      "outputs": [],
      "stateMutability": "nonpayable",
      "type": "function"
    },
    {
      "inputs": [
        {
          "internalType": "address",
          "name": "_contract",
          "type": "address"
        },
        {
          "internalType": "address",
          "name": "_caller",
          "type": "address"
        }
      ],
      "name": "revokeAccess",
      "outputs": [],
      "stateMutability": "nonpayable",
      "type": "function"
    },
    {
      "inputs": [
        {
          "internalType": "address",
          "name": "_addressToGrant",
          "type": "address"
        }
      ],
      "name": "grantSelfAccess",
      "outputs": [],
      "stateMutability": "nonpayable",
      "type": "function"
    },
    {
      "inputs": [
        {
          "internalType": "address",
          "name": "_addressToRevoke",
          "type": "address"
        }
      ],
      "name": "revokeSelfAccess",
      "outputs": [],
      "stateMutability": "nonpayable",
      "type": "function"
    },
    {
      "inputs": [
        {
          "internalType": "address",
          "name": "_contract",
          "type": "address"
        },
        {
          "internalType": "address",
          "name": "_caller",
          "type": "address"
        }
      ],
      "name": "hasAccess",
      "outputs": [
        {
          "internalType": "bool",
          "name": "",
          "type": "bool"
        }
      ],
      "stateMutability": "view",
      "type": "function",
      "constant": true
    },
    {
      "inputs": [
        {
          "internalType": "address",
          "name": "_addressToCheck",
          "type": "address"
        }
      ],
      "name": "selfCheckAccess",
      "outputs": [
        {
          "internalType": "bool",
          "name": "",
          "type": "bool"
        }
      ],
      "stateMutability": "view",
      "type": "function",
      "constant": true
    }
  ],
  "bytecode": "0x608060405234801561001057600080fd5b5060016000803073ffffffffffffffffffffffffffffffffffffffff1673ffffffffffffffffffffffffffffffffffffffff16815260200190815260200160002060003373ffffffffffffffffffffffffffffffffffffffff1673ffffffffffffffffffffffffffffffffffffffff16815260200190815260200160002060006101000a81548160ff0219169083151502179055503373ffffffffffffffffffffffffffffffffffffffff163073ffffffffffffffffffffffffffffffffffffffff167f9f520b3bfc56d06f7065d10b4683b3f57ac8895d5026cd176dee95ce1454cb8d60405160405180910390a36108938061010e6000396000f3fe608060405234801561001057600080fd5b50600436106100625760003560e01c80631709ef07146100675780635f6ea3401461009757806373d422af146100b3578063a2aadc54146100cf578063c6310de3146100eb578063c6a09d951461011b575b600080fd5b610081600480360381019061007c9190610717565b610137565b60405161008e9190610772565b60405180910390f35b6100b160048036038101906100ac9190610717565b6101ca565b005b6100cd60048036038101906100c8919061078d565b610305565b005b6100e960048036038101906100e4919061078d565b6103f6565b005b6101056004803603810190610100919061078d565b6104e7565b6040516101129190610772565b60405180910390f35b61013560048036038101906101309190610717565b610579565b005b60008060008473ffffffffffffffffffffffffffffffffffffffff1673ffffffffffffffffffffffffffffffffffffffff16815260200190815260200160002060008373ffffffffffffffffffffffffffffffffffffffff1673ffffffffffffffffffffffffffffffffffffffff16815260200190815260200160002060009054906101000a900460ff16905092915050565b6101d43033610137565b610213576040517f08c379a000000000000000000000000000000000000000000000000000000000815260040161020a9061083d565b60405180910390fd5b60008060008473ffffffffffffffffffffffffffffffffffffffff1673ffffffffffffffffffffffffffffffffffffffff16815260200190815260200160002060008373ffffffffffffffffffffffffffffffffffffffff1673ffffffffffffffffffffffffffffffffffffffff16815260200190815260200160002060006101000a81548160ff0219169083151502179055508073ffffffffffffffffffffffffffffffffffffffff168273ffffffffffffffffffffffffffffffffffffffff167f825c8be24eb0df19500f63e86c29e7d0d951e73056b889b891d85e40938d9b6e60405160405180910390a35050565b60008060003373ffffffffffffffffffffffffffffffffffffffff1673ffffffffffffffffffffffffffffffffffffffff16815260200190815260200160002060008373ffffffffffffffffffffffffffffffffffffffff1673ffffffffffffffffffffffffffffffffffffffff16815260200190815260200160002060006101000a81548160ff0219169083151502179055508073ffffffffffffffffffffffffffffffffffffffff163373ffffffffffffffffffffffffffffffffffffffff167f825c8be24eb0df19500f63e86c29e7d0d951e73056b889b891d85e40938d9b6e60405160405180910390a350565b60016000803373ffffffffffffffffffffffffffffffffffffffff1673ffffffffffffffffffffffffffffffffffffffff16815260200190815260200160002060008373ffffffffffffffffffffffffffffffffffffffff1673ffffffffffffffffffffffffffffffffffffffff16815260200190815260200160002060006101000a81548160ff0219169083151502179055508073ffffffffffffffffffffffffffffffffffffffff163373ffffffffffffffffffffffffffffffffffffffff167f9f520b3bfc56d06f7065d10b4683b3f57ac8895d5026cd176dee95ce1454cb8d60405160405180910390a350565b60008060003373ffffffffffffffffffffffffffffffffffffffff1673ffffffffffffffffffffffffffffffffffffffff16815260200190815260200160002060008373ffffffffffffffffffffffffffffffffffffffff1673ffffffffffffffffffffffffffffffffffffffff16815260200190815260200160002060009054906101000a900460ff169050919050565b6105833033610137565b6105c2576040517f08c379a00000000000000000000000000000000000000000000000000000000081526004016105b99061083d565b60405180910390fd5b60016000808473ffffffffffffffffffffffffffffffffffffffff1673ffffffffffffffffffffffffffffffffffffffff16815260200190815260200160002060008373ffffffffffffffffffffffffffffffffffffffff1673ffffffffffffffffffffffffffffffffffffffff16815260200190815260200160002060006101000a81548160ff0219169083151502179055508073ffffffffffffffffffffffffffffffffffffffff168273ffffffffffffffffffffffffffffffffffffffff167f9f520b3bfc56d06f7065d10b4683b3f57ac8895d5026cd176dee95ce1454cb8d60405160405180910390a35050565b600080fd5b600073ffffffffffffffffffffffffffffffffffffffff82169050919050565b60006106e4826106b9565b9050919050565b6106f4816106d9565b81146106ff57600080fd5b50565b600081359050610711816106eb565b92915050565b6000806040838503121561072e5761072d6106b4565b5b600061073c85828601610702565b925050602061074d85828601610702565b9150509250929050565b60008115159050919050565b61076c81610757565b82525050565b60006020820190506107876000830184610763565b92915050565b6000602082840312156107a3576107a26106b4565b5b60006107b184828501610702565b91505092915050565b600082825260208201905092915050565b7f4d6173746572416363657373436f6e74726f6c3a204e6f7420617574686f726960008201527f7a65640000000000000000000000000000000000000000000000000000000000602082015250565b60006108276023836107ba565b9150610832826107cb565b604082019050919050565b600060208201905081810360008301526108568161081a565b905091905056fea2646970667358221220d87cf6e03e85578f9d9c405a7532ed22c5a44c50e5559805de7440a5a31dda2d64736f6c63430008130033",
  "immutableReferences": {},
  "source": "// SPDX-License-Identifier: MIT\r\npragma solidity ^0.8.7;\r\n\r\ncontract MasterAccessControl {\r\n    // Mapping from contract address to a mapping of caller addresses to access rights\r\n    mapping(address => mapping(address => bool)) private accessRights;\r\n\r\n    // Events\r\n    event AccessGranted(address indexed contractAddress, address indexed caller);\r\n    event AccessRevoked(address indexed contractAddress, address indexed caller);\r\n\r\n    // Modifier to check access rights\r\n    modifier onlyAuthorized()\r\n    {\r\n        require(hasAccess(address(this), msg.sender), \"MasterAccessControl: Not authorized\");\r\n        _;\r\n    }\r\n\r\n\r\n    // Constructor\r\n    constructor() {\r\n        // Grant deployer access\r\n        accessRights[address(this)][msg.sender] = true;\r\n        emit AccessGranted(address(this), msg.sender);\r\n    }\r\n\r\n    // Grant access to a caller for a specific contract\r\n    function grantAccess(address _contract, address _caller) external onlyAuthorized {\r\n        // Implement ownership logic if necessary\r\n        accessRights[_contract][_caller] = true;\r\n        emit AccessGranted(_contract, _caller);\r\n    }\r\n\r\n    // Revoke access\r\n    function revokeAccess(address _contract, address _caller) onlyAuthorized() external {\r\n        // Implement ownership logic if necessary\r\n        accessRights[_contract][_caller] = false;\r\n        emit AccessRevoked(_contract, _caller);\r\n    }\r\n\r\n\r\n    function grantSelfAccess(address _addressToGrant) external {\r\n        accessRights[msg.sender][_addressToGrant] = true;\r\n        emit AccessGranted(msg.sender, _addressToGrant);\r\n    }\r\n\r\n    function revokeSelfAccess(address _addressToRevoke) external {\r\n        accessRights[msg.sender][_addressToRevoke] = false;\r\n        emit AccessRevoked(msg.sender, _addressToRevoke);\r\n    }\r\n\r\n\r\n\r\n    // Check if an address has access to a contract\r\n    function hasAccess(address _contract, address _caller) public view returns (bool) {\r\n        return accessRights[_contract][_caller];\r\n    }\r\n\r\n    // Function for contracts to check access\r\n    function selfCheckAccess(address _addressToCheck) external view returns (bool) {\r\n        return accessRights[msg.sender][_addressToCheck];\r\n    }\r\n}",
  "sourcePath": "F:\\Projects\\03 Hackathon\\Tron Hackathon\\NeuraNFT_Tron\\smart_contracts\\truffle_compiled_contract\\contracts\\MasterAccessControl.sol",
  "compiler": {
    "name": "solc",
    "version": "0.8.19+commit.7dd6d404.Emscripten.clang"
  },
  "schemaVersion": "3.4.16",
  "updatedAt": "2024-10-11T12:33:51.162Z",
  "networkType": "ethereum",
  "devdoc": {
    "kind": "dev",
    "methods": {},
    "version": 1
  },
  "userdoc": {
    "kind": "user",
    "methods": {},
    "version": 1
  }
}