{
  "contractName": "NFTAccessControl",
  "abi": [
    {
      "inputs": [
        {
          "internalType": "address",
          "name": "_accessControlAddress",
          "type": "address"
        }
      ],
      "stateMutability": "nonpayable",
      "type": "constructor"
    },
    {
      "anonymous": false,
      "inputs": [
        {
          "indexed": true,
          "internalType": "uint256",
          "name": "collectionId",
          "type": "uint256"
        },
        {
          "indexed": true,
          "internalType": "uint256",
          "name": "nftId",
          "type": "uint256"
        },
        {
          "indexed": true,
          "internalType": "address",
          "name": "user",
          "type": "address"
        },
        {
          "indexed": false,
          "internalType": "enum AccessLevel",
          "name": "accessLevel",
          "type": "uint8"
        }
      ],
      "name": "AccessGranted",
      "type": "event"
    },
    {
      "anonymous": false,
      "inputs": [
        {
          "indexed": true,
          "internalType": "address",
          "name": "user",
          "type": "address"
        },
        {
          "indexed": true,
          "internalType": "uint256",
          "name": "collectionId",
          "type": "uint256"
        },
        {
          "indexed": true,
          "internalType": "uint256",
          "name": "nftId",
          "type": "uint256"
        },
        {
          "indexed": false,
          "internalType": "enum AccessLevel",
          "name": "newAccessLevel",
          "type": "uint8"
        }
      ],
      "name": "AccessLevelChanged",
      "type": "event"
    },
    {
      "anonymous": false,
      "inputs": [
        {
          "indexed": true,
          "internalType": "uint256",
          "name": "collectionId",
          "type": "uint256"
        },
        {
          "indexed": true,
          "internalType": "uint256",
          "name": "nftId",
          "type": "uint256"
        },
        {
          "indexed": true,
          "internalType": "address",
          "name": "user",
          "type": "address"
        }
      ],
      "name": "AccessRevoked",
      "type": "event"
    },
    {
      "inputs": [],
      "name": "accessControl",
      "outputs": [
        {
          "internalType": "contract MasterAccessControl",
          "name": "",
          "type": "address"
        }
      ],
      "stateMutability": "view",
      "type": "function",
      "constant": true
    },
    {
      "inputs": [
        {
          "internalType": "uint256",
          "name": "_collectionId",
          "type": "uint256"
        },
        {
          "internalType": "uint256",
          "name": "_nftId",
          "type": "uint256"
        },
        {
          "internalType": "enum AccessLevel",
          "name": "_accessLevel",
          "type": "uint8"
        }
      ],
      "name": "setMaxAccessLevel",
      "outputs": [],
      "stateMutability": "nonpayable",
      "type": "function"
    },
    {
      "inputs": [
        {
          "internalType": "uint256",
          "name": "_collectionId",
          "type": "uint256"
        },
        {
          "internalType": "uint256",
          "name": "_nftId",
          "type": "uint256"
        },
        {
          "internalType": "enum AccessLevel",
          "name": "_accessLevel",
          "type": "uint8"
        }
      ],
      "name": "setDefaultAccessLevel",
      "outputs": [],
      "stateMutability": "nonpayable",
      "type": "function"
    },
    {
      "inputs": [
        {
          "internalType": "uint256",
          "name": "_collectionId",
          "type": "uint256"
        },
        {
          "internalType": "uint256",
          "name": "_nftId",
          "type": "uint256"
        },
        {
          "internalType": "address",
          "name": "_user",
          "type": "address"
        },
        {
          "internalType": "enum AccessLevel",
          "name": "_accessLevel",
          "type": "uint8"
        }
      ],
      "name": "grantAccess",
      "outputs": [],
      "stateMutability": "nonpayable",
      "type": "function"
    },
    {
      "inputs": [
        {
          "internalType": "uint256",
          "name": "_collectionId",
          "type": "uint256"
        },
        {
          "internalType": "uint256",
          "name": "_nftId",
          "type": "uint256"
        },
        {
          "internalType": "address",
          "name": "_user",
          "type": "address"
        }
      ],
      "name": "revokeAccess",
      "outputs": [],
      "stateMutability": "nonpayable",
      "type": "function"
    },
    {
      "inputs": [
        {
          "internalType": "address",
          "name": "_user",
          "type": "address"
        }
      ],
      "name": "getAllAccessForUser",
      "outputs": [
        {
          "components": [
            {
              "internalType": "uint256",
              "name": "collectionId",
              "type": "uint256"
            },
            {
              "internalType": "uint256",
              "name": "nftId",
              "type": "uint256"
            },
            {
              "internalType": "enum AccessLevel",
              "name": "accessLevel",
              "type": "uint8"
            }
          ],
          "internalType": "struct NFTAccessControl.AccessEntry[]",
          "name": "",
          "type": "tuple[]"
        }
      ],
      "stateMutability": "view",
      "type": "function",
      "constant": true
    },
    {
      "inputs": [
        {
          "internalType": "uint256",
          "name": "_collectionId",
          "type": "uint256"
        },
        {
          "internalType": "uint256",
          "name": "_nftId",
          "type": "uint256"
        },
        {
          "internalType": "address",
          "name": "_user",
          "type": "address"
        }
      ],
      "name": "getAccessLevel",
      "outputs": [
        {
          "internalType": "enum AccessLevel",
          "name": "",
          "type": "uint8"
        }
      ],
      "stateMutability": "view",
      "type": "function",
      "constant": true
    },
    {
      "inputs": [
        {
          "internalType": "uint256",
          "name": "_collectionId",
          "type": "uint256"
        },
        {
          "internalType": "uint256",
          "name": "_nftId",
          "type": "uint256"
        },
        {
          "internalType": "address",
          "name": "_user",
          "type": "address"
        },
        {
          "internalType": "enum AccessLevel",
          "name": "_accessLevel",
          "type": "uint8"
        }
      ],
      "name": "checkMinimumAccess",
      "outputs": [
        {
          "internalType": "bool",
          "name": "",
          "type": "bool"
        }
      ],
      "stateMutability": "view",
      "type": "function",
      "constant": true
    },
    {
      "inputs": [
        {
          "internalType": "uint256",
          "name": "_collectionId",
          "type": "uint256"
        },
        {
          "internalType": "uint256",
          "name": "_nftId",
          "type": "uint256"
        }
      ],
      "name": "getAllUsersAccessForNFT",
      "outputs": [
        {
          "components": [
            {
              "internalType": "address",
              "name": "user",
              "type": "address"
            },
            {
              "internalType": "enum AccessLevel",
              "name": "accessLevel",
              "type": "uint8"
            }
          ],
          "internalType": "struct NFTAccessControl.UserAccess[]",
          "name": "",
          "type": "tuple[]"
        }
      ],
      "stateMutability": "view",
      "type": "function",
      "constant": true
    }
  ],
  "bytecode": "0x60806040523480156200001157600080fd5b5060405162002bd538038062002bd5833981810160405281019062000037919062000177565b806000806101000a81548173ffffffffffffffffffffffffffffffffffffffff021916908373ffffffffffffffffffffffffffffffffffffffff16021790555060008054906101000a900473ffffffffffffffffffffffffffffffffffffffff1673ffffffffffffffffffffffffffffffffffffffff1663a2aadc54336040518263ffffffff1660e01b8152600401620000d29190620001ba565b600060405180830381600087803b158015620000ed57600080fd5b505af115801562000102573d6000803e3d6000fd5b5050505050620001d7565b600080fd5b600073ffffffffffffffffffffffffffffffffffffffff82169050919050565b60006200013f8262000112565b9050919050565b620001518162000132565b81146200015d57600080fd5b50565b600081519050620001718162000146565b92915050565b60006020828403121562000190576200018f6200010d565b5b6000620001a08482850162000160565b91505092915050565b620001b48162000132565b82525050565b6000602082019050620001d16000830184620001a9565b92915050565b6129ee80620001e76000396000f3fe608060405234801561001057600080fd5b50600436106100935760003560e01c8063be18f39511610066578063be18f3951461011e578063c23650131461014e578063c9835f301461017e578063d17f650d146101ae578063e57fb90d146101ca57610093565b806313007d55146100985780633a93511d146100b65780633b984bff146100d257806396360e5314610102575b600080fd5b6100a06101e6565b6040516100ad9190612198565b60405180910390f35b6100d060048036038101906100cb9190612213565b61020a565b005b6100ec60048036038101906100e791906122a4565b610552565b6040516100f99190612326565b60405180910390f35b61011c600480360381019061011791906122a4565b6106ed565b005b61013860048036038101906101339190612341565b610bb4565b604051610145919061240b565b60405180910390f35b61016860048036038101906101639190612426565b610c9a565b6040516101759190612562565b60405180910390f35b61019860048036038101906101939190612584565b610dab565b6040516101a591906126b1565b60405180910390f35b6101c860048036038101906101c39190612213565b610e98565b005b6101e460048036038101906101df9190612341565b611179565b005b60008054906101000a900473ffffffffffffffffffffffffffffffffffffffff1681565b828260008060009054906101000a900473ffffffffffffffffffffffffffffffffffffffff1673ffffffffffffffffffffffffffffffffffffffff1663c6310de3336040518263ffffffff1660e01b815260040161026891906126e2565b602060405180830381865afa158015610285573d6000803e3d6000fd5b505050506040513d601f19601f820116820180604052508101906102a99190612729565b905060006006808111156102c0576102bf612394565b5b60016000868152602001908152602001600020600085815260200190815260200160002060003373ffffffffffffffffffffffffffffffffffffffff1673ffffffffffffffffffffffffffffffffffffffff16815260200190815260200160002060009054906101000a900460ff16600681111561034157610340612394565b5b10159050818061034e5750805b61038d576040517f08c379a0000000000000000000000000000000000000000000000000000000008152600401610384906127b3565b60405180910390fd5b86868660008160068111156103a5576103a4612394565b5b60036000868152602001908152602001600020600085815260200190815260200160002060009054906101000a900460ff1660068111156103e9576103e8612394565b5b10159050600080600681111561040257610401612394565b5b60036000878152602001908152602001600020600086815260200190815260200160002060009054906101000a900460ff16600681111561044657610445612394565b5b14905081806104525750805b610491576040517f08c379a000000000000000000000000000000000000000000000000000000000815260040161048890612845565b60405180910390fd5b600060068111156104a5576104a4612394565b5b8a60068111156104b8576104b7612394565b5b036104f8576040517f08c379a00000000000000000000000000000000000000000000000000000000081526004016104ef906128d7565b60405180910390fd5b89600360008e815260200190815260200160002060008d815260200190815260200160002060006101000a81548160ff0219169083600681111561053f5761053e612394565b5b0217905550505050505050505050505050565b600081600681111561056757610566612394565b5b60026000878152602001908152602001600020600086815260200190815260200160002060009054906101000a900460ff1660068111156105ab576105aa612394565b5b106105b957600190506106e5565b600060016000878152602001908152602001600020600086815260200190815260200160002060008573ffffffffffffffffffffffffffffffffffffffff1673ffffffffffffffffffffffffffffffffffffffff16815260200190815260200160002060009054906101000a900460ff169050600060068111156106405761063f612394565b5b81600681111561065357610652612394565b5b036106b95782600681111561066b5761066a612394565b5b60026000888152602001908152602001600020600087815260200190815260200160002060009054906101000a900460ff1660068111156106af576106ae612394565b5b10159150506106e5565b8260068111156106cc576106cb612394565b5b8160068111156106df576106de612394565b5b10159150505b949350505050565b838360008060009054906101000a900473ffffffffffffffffffffffffffffffffffffffff1673ffffffffffffffffffffffffffffffffffffffff1663c6310de3336040518263ffffffff1660e01b815260040161074b91906126e2565b602060405180830381865afa158015610768573d6000803e3d6000fd5b505050506040513d601f19601f8201168201806040525081019061078c9190612729565b905060006006808111156107a3576107a2612394565b5b60016000868152602001908152602001600020600085815260200190815260200160002060003373ffffffffffffffffffffffffffffffffffffffff1673ffffffffffffffffffffffffffffffffffffffff16815260200190815260200160002060009054906101000a900460ff16600681111561082457610823612394565b5b1015905081806108315750805b610870576040517f08c379a0000000000000000000000000000000000000000000000000000000008152600401610867906127b3565b60405180910390fd5b878786600081600681111561088857610887612394565b5b60036000868152602001908152602001600020600085815260200190815260200160002060009054906101000a900460ff1660068111156108cc576108cb612394565b5b1015905060008060068111156108e5576108e4612394565b5b60036000878152602001908152602001600020600086815260200190815260200160002060009054906101000a900460ff16600681111561092957610928612394565b5b14905081806109355750805b610974576040517f08c379a000000000000000000000000000000000000000000000000000000000815260040161096b90612845565b60405180910390fd5b6000600681111561098857610987612394565b5b8a600681111561099b5761099a612394565b5b036109db576040517f08c379a00000000000000000000000000000000000000000000000000000000081526004016109d2906128d7565b60405180910390fd5b89600160008f815260200190815260200160002060008e815260200190815260200160002060008d73ffffffffffffffffffffffffffffffffffffffff1673ffffffffffffffffffffffffffffffffffffffff16815260200190815260200160002060006101000a81548160ff02191690836006811115610a5f57610a5e612394565b5b021790555089600460008d73ffffffffffffffffffffffffffffffffffffffff1673ffffffffffffffffffffffffffffffffffffffff16815260200190815260200160002060008f815260200190815260200160002060008e815260200190815260200160002060006101000a81548160ff02191690836006811115610ae857610ae7612394565b5b0217905550610af98b8e8e8d6113e5565b610b058d8d8d8d6116da565b8a73ffffffffffffffffffffffffffffffffffffffff168c8e7fd5422307db29d9fcf76206ee945905c864bf3bf5118ab875bc2c9523e59866e98d604051610b4d919061240b565b60405180910390a48b8d8c73ffffffffffffffffffffffffffffffffffffffff167f9c22416d2351a8fd56706bdcaba7a6a4a245104ea90834907b9f503a5de96c438d604051610b9d919061240b565b60405180910390a450505050505050505050505050565b60008060016000868152602001908152602001600020600085815260200190815260200160002060008473ffffffffffffffffffffffffffffffffffffffff1673ffffffffffffffffffffffffffffffffffffffff16815260200190815260200160002060009054906101000a900460ff16905060006006811115610c3c57610c3b612394565b5b816006811115610c4f57610c4e612394565b5b03610c8e5760026000868152602001908152602001600020600085815260200190815260200160002060009054906101000a900460ff16915050610c93565b809150505b9392505050565b6060600760008481526020019081526020016000206000838152602001908152602001600020805480602002602001604051908101604052809291908181526020016000905b82821015610d9f578382906000526020600020016040518060400160405290816000820160009054906101000a900473ffffffffffffffffffffffffffffffffffffffff1673ffffffffffffffffffffffffffffffffffffffff1673ffffffffffffffffffffffffffffffffffffffff1681526020016000820160149054906101000a900460ff166006811115610d7a57610d79612394565b5b6006811115610d8c57610d8b612394565b5b8152505081526020019060010190610ce0565b50505050905092915050565b6060600560008373ffffffffffffffffffffffffffffffffffffffff1673ffffffffffffffffffffffffffffffffffffffff168152602001908152602001600020805480602002602001604051908101604052809291908181526020016000905b82821015610e8d578382906000526020600020906003020160405180606001604052908160008201548152602001600182015481526020016002820160009054906101000a900460ff166006811115610e6857610e67612394565b5b6006811115610e7a57610e79612394565b5b8152505081526020019060010190610e0c565b505050509050919050565b828260008060009054906101000a900473ffffffffffffffffffffffffffffffffffffffff1673ffffffffffffffffffffffffffffffffffffffff1663c6310de3336040518263ffffffff1660e01b8152600401610ef691906126e2565b602060405180830381865afa158015610f13573d6000803e3d6000fd5b505050506040513d601f19601f82011682018060405250810190610f379190612729565b90506000600680811115610f4e57610f4d612394565b5b60016000868152602001908152602001600020600085815260200190815260200160002060003373ffffffffffffffffffffffffffffffffffffffff1673ffffffffffffffffffffffffffffffffffffffff16815260200190815260200160002060009054906101000a900460ff166006811115610fcf57610fce612394565b5b101590508180610fdc5750805b61101b576040517f08c379a0000000000000000000000000000000000000000000000000000000008152600401611012906127b3565b60405180910390fd5b868686600081600681111561103357611032612394565b5b60036000868152602001908152602001600020600085815260200190815260200160002060009054906101000a900460ff16600681111561107757611076612394565b5b1015905060008060068111156110905761108f612394565b5b60036000878152602001908152602001600020600086815260200190815260200160002060009054906101000a900460ff1660068111156110d4576110d3612394565b5b14905081806110e05750805b61111f576040517f08c379a000000000000000000000000000000000000000000000000000000000815260040161111690612845565b60405180910390fd5b89600260008e815260200190815260200160002060008d815260200190815260200160002060006101000a81548160ff0219169083600681111561116657611165612394565b5b0217905550505050505050505050505050565b60008054906101000a900473ffffffffffffffffffffffffffffffffffffffff1673ffffffffffffffffffffffffffffffffffffffff1663c6310de3336040518263ffffffff1660e01b81526004016111d291906126e2565b602060405180830381865afa1580156111ef573d6000803e3d6000fd5b505050506040513d601f19601f820116820180604052508101906112139190612729565b611252576040517f08c379a0000000000000000000000000000000000000000000000000000000008152600401611249906127b3565b60405180910390fd5b60016000848152602001908152602001600020600083815260200190815260200160002060008273ffffffffffffffffffffffffffffffffffffffff1673ffffffffffffffffffffffffffffffffffffffff16815260200190815260200160002060006101000a81549060ff0219169055600460008273ffffffffffffffffffffffffffffffffffffffff1673ffffffffffffffffffffffffffffffffffffffff1681526020019081526020016000206000848152602001908152602001600020600083815260200190815260200160002060006101000a81549060ff021916905561133f8184846119b9565b61134a838383611d61565b8073ffffffffffffffffffffffffffffffffffffffff1682847fd2ba3a3435b2cf3d7fc56557f43627b4c46c251aae1e05868586ebcb52a511f160405160405180910390a481838273ffffffffffffffffffffffffffffffffffffffff167f9c22416d2351a8fd56706bdcaba7a6a4a245104ea90834907b9f503a5de96c4360006040516113d8919061240b565b60405180910390a4505050565b6000600660008673ffffffffffffffffffffffffffffffffffffffff1673ffffffffffffffffffffffffffffffffffffffff1681526020019081526020016000206000858152602001908152602001600020600084815260200190815260200160002054036115d657600560008573ffffffffffffffffffffffffffffffffffffffff1673ffffffffffffffffffffffffffffffffffffffff16815260200190815260200160002060405180606001604052808581526020018481526020018360068111156114b7576114b6612394565b5b8152509080600181540180825580915050600190039060005260206000209060030201600090919091909150600082015181600001556020820151816001015560408201518160020160006101000a81548160ff0219169083600681111561152257611521612394565b5b02179055505050600560008573ffffffffffffffffffffffffffffffffffffffff1673ffffffffffffffffffffffffffffffffffffffff16815260200190815260200160002080549050600660008673ffffffffffffffffffffffffffffffffffffffff1673ffffffffffffffffffffffffffffffffffffffff16815260200190815260200160002060008581526020019081526020016000206000848152602001908152602001600020819055506116d4565b60006001600660008773ffffffffffffffffffffffffffffffffffffffff1673ffffffffffffffffffffffffffffffffffffffff16815260200190815260200160002060008681526020019081526020016000206000858152602001908152602001600020546116469190612926565b905081600560008773ffffffffffffffffffffffffffffffffffffffff1673ffffffffffffffffffffffffffffffffffffffff168152602001908152602001600020828154811061169a5761169961295a565b5b906000526020600020906003020160020160006101000a81548160ff021916908360068111156116cd576116cc612394565b5b0217905550505b50505050565b600060086000868152602001908152602001600020600085815260200190815260200160002060008473ffffffffffffffffffffffffffffffffffffffff1673ffffffffffffffffffffffffffffffffffffffff16815260200190815260200160002054036118d45760076000858152602001908152602001600020600084815260200190815260200160002060405180604001604052808473ffffffffffffffffffffffffffffffffffffffff1681526020018360068111156117a1576117a0612394565b5b8152509080600181540180825580915050600190039060005260206000200160009091909190915060008201518160000160006101000a81548173ffffffffffffffffffffffffffffffffffffffff021916908373ffffffffffffffffffffffffffffffffffffffff16021790555060208201518160000160146101000a81548160ff0219169083600681111561183b5761183a612394565b5b021790555050506007600085815260200190815260200160002060008481526020019081526020016000208054905060086000868152602001908152602001600020600085815260200190815260200160002060008473ffffffffffffffffffffffffffffffffffffffff1673ffffffffffffffffffffffffffffffffffffffff168152602001908152602001600020819055506119b3565b6000600160086000878152602001908152602001600020600086815260200190815260200160002060008573ffffffffffffffffffffffffffffffffffffffff1673ffffffffffffffffffffffffffffffffffffffff168152602001908152602001600020546119449190612926565b905081600760008781526020019081526020016000206000868152602001908152602001600020828154811061197d5761197c61295a565b5b9060005260206000200160000160146101000a81548160ff021916908360068111156119ac576119ab612394565b5b0217905550505b50505050565b6000600660008573ffffffffffffffffffffffffffffffffffffffff1673ffffffffffffffffffffffffffffffffffffffff168152602001908152602001600020600084815260200190815260200160002060008381526020019081526020016000205490506000811115611d5b576000600182611a379190612926565b905060006001600560008873ffffffffffffffffffffffffffffffffffffffff1673ffffffffffffffffffffffffffffffffffffffff16815260200190815260200160002080549050611a8a9190612926565b9050808214611c67576000600560008873ffffffffffffffffffffffffffffffffffffffff1673ffffffffffffffffffffffffffffffffffffffff1681526020019081526020016000208281548110611ae657611ae561295a565b5b906000526020600020906003020160405180606001604052908160008201548152602001600182015481526020016002820160009054906101000a900460ff166006811115611b3857611b37612394565b5b6006811115611b4a57611b49612394565b5b81525050905080600560008973ffffffffffffffffffffffffffffffffffffffff1673ffffffffffffffffffffffffffffffffffffffff1681526020019081526020016000208481548110611ba257611ba161295a565b5b9060005260206000209060030201600082015181600001556020820151816001015560408201518160020160006101000a81548160ff02191690836006811115611bef57611bee612394565b5b021790555090505083600660008973ffffffffffffffffffffffffffffffffffffffff1673ffffffffffffffffffffffffffffffffffffffff16815260200190815260200160002060008360000151815260200190815260200160002060008360200151815260200190815260200160002081905550505b600560008773ffffffffffffffffffffffffffffffffffffffff1673ffffffffffffffffffffffffffffffffffffffff168152602001908152602001600020805480611cb657611cb5612989565b5b600190038181906000526020600020906003020160008082016000905560018201600090556002820160006101000a81549060ff021916905550509055600660008773ffffffffffffffffffffffffffffffffffffffff1673ffffffffffffffffffffffffffffffffffffffff168152602001908152602001600020600086815260200190815260200160002060008581526020019081526020016000206000905550505b50505050565b600060086000858152602001908152602001600020600084815260200190815260200160002060008373ffffffffffffffffffffffffffffffffffffffff1673ffffffffffffffffffffffffffffffffffffffff1681526020019081526020016000205490506000811115612113576000600182611ddf9190612926565b90506000600160076000888152602001908152602001600020600087815260200190815260200160002080549050611e179190612926565b90508082146120275760006007600088815260200190815260200160002060008781526020019081526020016000208281548110611e5857611e5761295a565b5b906000526020600020016040518060400160405290816000820160009054906101000a900473ffffffffffffffffffffffffffffffffffffffff1673ffffffffffffffffffffffffffffffffffffffff1673ffffffffffffffffffffffffffffffffffffffff1681526020016000820160149054906101000a900460ff166006811115611ee857611ee7612394565b5b6006811115611efa57611ef9612394565b5b815250509050806007600089815260200190815260200160002060008881526020019081526020016000208481548110611f3757611f3661295a565b5b9060005260206000200160008201518160000160006101000a81548173ffffffffffffffffffffffffffffffffffffffff021916908373ffffffffffffffffffffffffffffffffffffffff16021790555060208201518160000160146101000a81548160ff02191690836006811115611fb357611fb2612394565b5b0217905550905050836008600089815260200190815260200160002060008881526020019081526020016000206000836000015173ffffffffffffffffffffffffffffffffffffffff1673ffffffffffffffffffffffffffffffffffffffff16815260200190815260200160002081905550505b60076000878152602001908152602001600020600086815260200190815260200160002080548061205b5761205a612989565b5b60019003818190600052602060002001600080820160006101000a81549073ffffffffffffffffffffffffffffffffffffffff02191690556000820160146101000a81549060ff02191690555050905560086000878152602001908152602001600020600086815260200190815260200160002060008573ffffffffffffffffffffffffffffffffffffffff1673ffffffffffffffffffffffffffffffffffffffff1681526020019081526020016000206000905550505b50505050565b600073ffffffffffffffffffffffffffffffffffffffff82169050919050565b6000819050919050565b600061215e61215961215484612119565b612139565b612119565b9050919050565b600061217082612143565b9050919050565b600061218282612165565b9050919050565b61219281612177565b82525050565b60006020820190506121ad6000830184612189565b92915050565b600080fd5b6000819050919050565b6121cb816121b8565b81146121d657600080fd5b50565b6000813590506121e8816121c2565b92915050565b600781106121fb57600080fd5b50565b60008135905061220d816121ee565b92915050565b60008060006060848603121561222c5761222b6121b3565b5b600061223a868287016121d9565b935050602061224b868287016121d9565b925050604061225c868287016121fe565b9150509250925092565b600061227182612119565b9050919050565b61228181612266565b811461228c57600080fd5b50565b60008135905061229e81612278565b92915050565b600080600080608085870312156122be576122bd6121b3565b5b60006122cc878288016121d9565b94505060206122dd878288016121d9565b93505060406122ee8782880161228f565b92505060606122ff878288016121fe565b91505092959194509250565b60008115159050919050565b6123208161230b565b82525050565b600060208201905061233b6000830184612317565b92915050565b60008060006060848603121561235a576123596121b3565b5b6000612368868287016121d9565b9350506020612379868287016121d9565b925050604061238a8682870161228f565b9150509250925092565b7f4e487b7100000000000000000000000000000000000000000000000000000000600052602160045260246000fd5b600781106123d4576123d3612394565b5b50565b60008190506123e5826123c3565b919050565b60006123f5826123d7565b9050919050565b612405816123ea565b82525050565b600060208201905061242060008301846123fc565b92915050565b6000806040838503121561243d5761243c6121b3565b5b600061244b858286016121d9565b925050602061245c858286016121d9565b9150509250929050565b600081519050919050565b600082825260208201905092915050565b6000819050602082019050919050565b61249b81612266565b82525050565b6124aa816123ea565b82525050565b6040820160008201516124c66000850182612492565b5060208201516124d960208501826124a1565b50505050565b60006124eb83836124b0565b60408301905092915050565b6000602082019050919050565b600061250f82612466565b6125198185612471565b935061252483612482565b8060005b8381101561255557815161253c88826124df565b9750612547836124f7565b925050600181019050612528565b5085935050505092915050565b6000602082019050818103600083015261257c8184612504565b905092915050565b60006020828403121561259a576125996121b3565b5b60006125a88482850161228f565b91505092915050565b600081519050919050565b600082825260208201905092915050565b6000819050602082019050919050565b6125e6816121b8565b82525050565b60608201600082015161260260008501826125dd565b50602082015161261560208501826125dd565b50604082015161262860408501826124a1565b50505050565b600061263a83836125ec565b60608301905092915050565b6000602082019050919050565b600061265e826125b1565b61266881856125bc565b9350612673836125cd565b8060005b838110156126a457815161268b888261262e565b975061269683612646565b925050600181019050612677565b5085935050505092915050565b600060208201905081810360008301526126cb8184612653565b905092915050565b6126dc81612266565b82525050565b60006020820190506126f760008301846126d3565b92915050565b6127068161230b565b811461271157600080fd5b50565b600081519050612723816126fd565b92915050565b60006020828403121561273f5761273e6121b3565b5b600061274d84828501612714565b91505092915050565b600082825260208201905092915050565b7f4e4654416363657373436f6e74726f6c3a204e6f7420617574686f72697a6564600082015250565b600061279d602083612756565b91506127a882612767565b602082019050919050565b600060208201905081810360008301526127cc81612790565b9050919050565b7f4e4654416363657373436f6e74726f6c3a20416363657373206c6576656c206560008201527f786365656473206d617820616363657373206c6576656c000000000000000000602082015250565b600061282f603783612756565b915061283a826127d3565b604082019050919050565b6000602082019050818103600083015261285e81612822565b9050919050565b7f4e4654416363657373436f6e74726f6c3a20496e76616c69642061636365737360008201527f206c6576656c0000000000000000000000000000000000000000000000000000602082015250565b60006128c1602683612756565b91506128cc82612865565b604082019050919050565b600060208201905081810360008301526128f0816128b4565b9050919050565b7f4e487b7100000000000000000000000000000000000000000000000000000000600052601160045260246000fd5b6000612931826121b8565b915061293c836121b8565b9250828203905081811115612954576129536128f7565b5b92915050565b7f4e487b7100000000000000000000000000000000000000000000000000000000600052603260045260246000fd5b7f4e487b7100000000000000000000000000000000000000000000000000000000600052603160045260246000fdfea26469706673582212205186ff67ad6b43d4cc14d5cf51ef4ce0187d30215a1b231c07737caf904334f664736f6c63430008130033",
  "immutableReferences": {},
  "source": "// SPDX-License-Identifier: MIT\r\npragma solidity ^0.8.7;\r\n\r\nimport \"./MasterAccessControl.sol\";\r\n\r\n    // Access Levels\r\nenum AccessLevel {\r\n        None,\r\n        UseModel,\r\n        Resale,\r\n        CreateReplica,\r\n        ViewAndDownload,\r\n        EditData,\r\n        AbsoluteOwnership\r\n    }\r\n\r\n\r\n\r\ncontract NFTAccessControl {\r\n    // Reference to Master Access Control\r\n    MasterAccessControl public accessControl;\r\n\r\n    // Access Levels\r\n\r\n    // None                  - No access\r\n    // 1 - UseModel          - Can use the model\r\n    // 2 - Resale            - Can resell the NFT without replicating and data and model view\r\n    // 3 - CreateReplica     - Can create a replica of the NFT but not data view\r\n    // 4 - ViewAndDownload   - Can view and download the data and model but no absolute ownership\r\n    // 5 - EditData          - Can NFT Metadata\r\n    // 6 - AbsoluteOwnership - Can view, download, create replica, resale, and use model, set access levels\r\n    mapping(uint256 => mapping(uint256 => mapping(address => AccessLevel))) private nftAccess; // collectionId => NFTId => address => AccessLevel\r\n\r\n    // Default access level for all users per NFT\r\n    mapping(uint256 => mapping(uint256 => AccessLevel)) private defaultAccessLevel;\r\n\r\n    // Max access level for a NFT\r\n    mapping(uint256 => mapping(uint256 => AccessLevel)) private maxAccessLevel;\r\n\r\n    // User Access Mappings\r\n    mapping(address => mapping(uint256 => mapping (uint256 => AccessLevel))) private userAccess; // address => collectionId => NFTId\r\n\r\n    // Mapping from user to their list of access entries\r\n    mapping(address => AccessEntry[]) private userAccessList;\r\n\r\n    // Helper mapping to track indices in userAccessList for efficient removal\r\n    mapping(address => mapping(uint256 => mapping(uint256 => uint256))) private userAccessIndex; // address => collectionId => nftId => index in userAccessList (index + 1)\r\n\r\n    // Structs\r\n    struct AccessEntry {\r\n        uint256 collectionId;\r\n        uint256 nftId;\r\n        AccessLevel accessLevel;\r\n    }\r\n\r\n    // New struct to store user access for an NFT\r\n    struct UserAccess {\r\n        address user;\r\n        AccessLevel accessLevel;\r\n    }\r\n\r\n    // Mapping from NFT to list of user accesses\r\n    mapping(uint256 => mapping(uint256 => UserAccess[])) private nftAccessList; // collectionId => nftId => array of UserAccess\r\n\r\n    // Helper mapping to track indices in nftAccessList for efficient removal\r\n    mapping(uint256 => mapping(uint256 => mapping(address => uint256))) private nftAccessIndex; // collectionId => nftId => user => index in nftAccessList (index + 1)\r\n\r\n    // Events\r\n    event AccessGranted(uint256 indexed collectionId, uint256 indexed nftId, address indexed user, AccessLevel accessLevel);\r\n    event AccessRevoked(uint256 indexed collectionId, uint256 indexed nftId, address indexed user);\r\n    event AccessLevelChanged(address indexed user, uint256 indexed collectionId, uint256 indexed nftId, AccessLevel newAccessLevel);\r\n\r\n    // // AccessEntry struct\r\n    // struct AccessEntry {\r\n    //     uint256 collectionId;\r\n    //     uint256 nftId;\r\n    //     AccessLevel accessLevel;\r\n    // }\r\n\r\n    // // Mapping from user to their list of access entries\r\n    // mapping(address => AccessEntry[]) private userAccessList;\r\n\r\n    // // Helper mapping to track indices in userAccessList for efficient removal\r\n    // mapping(address => mapping(uint256 => mapping(uint256 => uint256))) private userAccessIndex; // address => collectionId => nftId => index in userAccessList (index + 1)\r\n\r\n\r\n\r\n    // // Events\r\n    // event AccessGranted(uint256 indexed collectionId, uint256 indexed nftId, address indexed user, AccessLevel accessLevel);\r\n    // event AccessRevoked(uint256 indexed collectionId, uint256 indexed nftId, address indexed user);\r\n    // event AccessLevelChanged(address indexed user, uint256 indexed collectionId, uint256 indexed nftId, AccessLevel newAccessLevel);\r\n\r\n    \r\n\r\n    \r\n    // Constructor\r\n    constructor(address _accessControlAddress) {\r\n        accessControl = MasterAccessControl(_accessControlAddress);\r\n        accessControl.grantSelfAccess(msg.sender);\r\n    }\r\n\r\n\r\n    //------------------------------------------------------------------------\r\n    // ------------------------------ Modifiers ------------------------------\r\n    //------------------------------------------------------------------------\r\n\r\n\r\n\r\n    // Modifier to check access\r\n    modifier onlyAuthorized() {\r\n        require(accessControl.selfCheckAccess(msg.sender), \"NFTAccessControl: Not authorized\");\r\n        _;\r\n    }\r\n\r\n    modifier onlyAuthorizedOrOwner(uint256 _collectionId, uint256 _nftId) {\r\n\r\n        bool isAuthorized   = accessControl.selfCheckAccess(msg.sender);\r\n        bool OwnerOrGreater = nftAccess[_collectionId][_nftId][msg.sender] >= AccessLevel.AbsoluteOwnership;\r\n\r\n        require(isAuthorized || OwnerOrGreater, \"NFTAccessControl: Not authorized\");\r\n        _;\r\n    }\r\n\r\n    modifier maxAccessLevelCheck(uint256 _collectionId, uint256 _nftId, AccessLevel _accessLevel) {\r\n\r\n        bool maxAccess      = maxAccessLevel[_collectionId][_nftId] >= _accessLevel;\r\n        bool isMaxAccess    = maxAccessLevel[_collectionId][_nftId] == AccessLevel.None;\r\n\r\n        require(maxAccess || isMaxAccess , \"NFTAccessControl: Access level exceeds max access level\");\r\n        _;\r\n    }\r\n\r\n\r\n\r\n\r\n\r\n    //------------------------------------------------------------------------\r\n    // -------------------------- Setting Default Access ---------------------\r\n    //------------------------------------------------------------------------\r\n\r\n\r\n    function setMaxAccessLevel(uint256 _collectionId, uint256 _nftId, AccessLevel _accessLevel) \r\n    external \r\n    onlyAuthorizedOrOwner(_collectionId, _nftId) \r\n    maxAccessLevelCheck(_collectionId, _nftId, _accessLevel)\r\n    {\r\n        require(_accessLevel != AccessLevel.None, \"NFTAccessControl: Invalid access level\");\r\n        maxAccessLevel[_collectionId][_nftId] = _accessLevel;\r\n    }\r\n\r\n\r\n    // Set default access level\r\n    function setDefaultAccessLevel(uint256 _collectionId, uint256 _nftId, AccessLevel _accessLevel) \r\n    external \r\n    onlyAuthorizedOrOwner(_collectionId, _nftId) \r\n    maxAccessLevelCheck(_collectionId, _nftId, _accessLevel)\r\n    {   \r\n        defaultAccessLevel[_collectionId][_nftId] = _accessLevel;\r\n    }\r\n\r\n\r\n    //------------------------------------------------------------------------\r\n    // --------------------------- Setting User Access -----------------------\r\n    //------------------------------------------------------------------------\r\n\r\n\r\n\r\n    // // Grant access to a user\r\n    // function grantAccess(uint256 _collectionId, uint256 _nftId, address _user, AccessLevel _accessLevel) external onlyAuthorizedOrOwner(_collectionId, _nftId) {\r\n    //     require(_accessLevel != AccessLevel.None, \"NFTAccessControl: Invalid access level\");\r\n\r\n    //     nftAccess[_collectionId][_nftId][_user] = _accessLevel;\r\n    //     userAccess[_user][_collectionId][_nftId] = _accessLevel;\r\n\r\n    //     emit AccessGranted(_collectionId, _nftId, _user, _accessLevel);\r\n    // }\r\n\r\n\r\n// Grant Access to a User\r\n// Main function\r\nfunction grantAccess(\r\n    uint256 _collectionId,\r\n    uint256 _nftId,\r\n    address _user,\r\n    AccessLevel _accessLevel\r\n)\r\n    external\r\n    onlyAuthorizedOrOwner(_collectionId, _nftId)\r\n    maxAccessLevelCheck(_collectionId, _nftId, _accessLevel)\r\n{\r\n    require(_accessLevel != AccessLevel.None, \"NFTAccessControl: Invalid access level\");\r\n\r\n    nftAccess[_collectionId][_nftId][_user] = _accessLevel;\r\n    userAccess[_user][_collectionId][_nftId] = _accessLevel;\r\n\r\n    _updateUserAccessList(_user, _collectionId, _nftId, _accessLevel);\r\n    _updateNFTAccessList(_collectionId, _nftId, _user, _accessLevel);\r\n\r\n    emit AccessGranted(_collectionId, _nftId, _user, _accessLevel);\r\n    emit AccessLevelChanged(_user, _collectionId, _nftId, _accessLevel);\r\n}\r\n\r\n// Function to update user access list\r\nfunction _updateUserAccessList(\r\n    address _user,\r\n    uint256 _collectionId,\r\n    uint256 _nftId,\r\n    AccessLevel _accessLevel\r\n) internal {\r\n    if (userAccessIndex[_user][_collectionId][_nftId] == 0) {\r\n        // Entry does not exist\r\n        userAccessList[_user].push(AccessEntry({\r\n            collectionId: _collectionId,\r\n            nftId: _nftId,\r\n            accessLevel: _accessLevel\r\n        }));\r\n        // Store index (indexing from 1 because default mapping value is 0)\r\n        userAccessIndex[_user][_collectionId][_nftId] = userAccessList[_user].length;\r\n    } else {\r\n        // Entry exists, update accessLevel\r\n        uint256 index = userAccessIndex[_user][_collectionId][_nftId] - 1;\r\n        userAccessList[_user][index].accessLevel = _accessLevel;\r\n    }\r\n}\r\n\r\n// Function to update NFT access list\r\nfunction _updateNFTAccessList(\r\n    uint256 _collectionId,\r\n    uint256 _nftId,\r\n    address _user,\r\n    AccessLevel _accessLevel\r\n) internal {\r\n    if (nftAccessIndex[_collectionId][_nftId][_user] == 0) {\r\n        // User not in the list, add them\r\n        nftAccessList[_collectionId][_nftId].push(UserAccess({\r\n            user: _user,\r\n            accessLevel: _accessLevel\r\n        }));\r\n        nftAccessIndex[_collectionId][_nftId][_user] = nftAccessList[_collectionId][_nftId].length;\r\n    } else {\r\n        // User exists, update accessLevel\r\n        uint256 index = nftAccessIndex[_collectionId][_nftId][_user] - 1;\r\n        nftAccessList[_collectionId][_nftId][index].accessLevel = _accessLevel;\r\n    }\r\n}\r\n\r\n\r\n\r\n\r\n    // // Revoke access from a user\r\n    // function revokeAccess(uint256 _collectionId, uint256 _nftId, address _user) external onlyAuthorized {\r\n    //     delete nftAccess[_collectionId][_nftId][_user];\r\n\r\n    //     delete userAccess[_user][_collectionId][_nftId];\r\n\r\n    //     emit AccessRevoked(_collectionId, _nftId, _user);\r\n    // }\r\n\r\n\r\n\r\n // Revoke Access from a User\r\nfunction revokeAccess(\r\n    uint256 _collectionId,\r\n    uint256 _nftId,\r\n    address _user\r\n)\r\n    external\r\n    onlyAuthorized\r\n{\r\n    delete nftAccess[_collectionId][_nftId][_user];\r\n    delete userAccess[_user][_collectionId][_nftId];\r\n\r\n    _updateUserAccessListOnRevoke(_user, _collectionId, _nftId);\r\n    _updateNFTAccessListOnRevoke(_collectionId, _nftId, _user);\r\n\r\n    emit AccessRevoked(_collectionId, _nftId, _user);\r\n    emit AccessLevelChanged(_user, _collectionId, _nftId, AccessLevel.None);\r\n}\r\n\r\n// Function to update user access list on revoke\r\nfunction _updateUserAccessListOnRevoke(\r\n    address _user,\r\n    uint256 _collectionId,\r\n    uint256 _nftId\r\n) internal {\r\n    uint256 userIndexPlusOne = userAccessIndex[_user][_collectionId][_nftId];\r\n    if (userIndexPlusOne > 0) {\r\n        uint256 userIndex = userIndexPlusOne - 1;\r\n        uint256 lastIndex = userAccessList[_user].length - 1;\r\n\r\n        if (userIndex != lastIndex) {\r\n            // Swap the last entry with the one to delete\r\n            AccessEntry memory lastEntry = userAccessList[_user][lastIndex];\r\n            userAccessList[_user][userIndex] = lastEntry;\r\n            // Update the index mapping\r\n            userAccessIndex[_user][lastEntry.collectionId][lastEntry.nftId] = userIndexPlusOne;\r\n        }\r\n\r\n        // Remove the last element\r\n        userAccessList[_user].pop();\r\n        // Delete index mapping\r\n        delete userAccessIndex[_user][_collectionId][_nftId];\r\n    }\r\n}\r\n\r\n// Function to update NFT access list on revoke\r\nfunction _updateNFTAccessListOnRevoke(\r\n    uint256 _collectionId,\r\n    uint256 _nftId,\r\n    address _user\r\n) internal {\r\n    uint256 nftIndexPlusOne = nftAccessIndex[_collectionId][_nftId][_user];\r\n    if (nftIndexPlusOne > 0) {\r\n        uint256 nftIndex = nftIndexPlusOne - 1;\r\n        uint256 lastIndex = nftAccessList[_collectionId][_nftId].length - 1;\r\n\r\n        if (nftIndex != lastIndex) {\r\n            // Swap the last entry with the one to delete\r\n            UserAccess memory lastUserAccess = nftAccessList[_collectionId][_nftId][lastIndex];\r\n            nftAccessList[_collectionId][_nftId][nftIndex] = lastUserAccess;\r\n            // Update the index mapping\r\n            nftAccessIndex[_collectionId][_nftId][lastUserAccess.user] = nftIndexPlusOne;\r\n        }\r\n\r\n        // Remove the last element\r\n        nftAccessList[_collectionId][_nftId].pop();\r\n        // Delete index mapping\r\n        delete nftAccessIndex[_collectionId][_nftId][_user];\r\n    }\r\n}\r\n\r\n\r\n\r\n    // -----------------------------------------------------------------------\r\n    // ------------------------------ Getting Access -------------------------\r\n    // -----------------------------------------------------------------------\r\n\r\n\r\n    // Get all access for a user\r\n\r\n    // struct UserAccessStruct {\r\n    //     uint256 collectionIds;\r\n    //     uint256 nftIds;\r\n    //     AccessLevel accessLevels;\r\n    // }\r\n\r\n    // function getAllAccessForUser(address _user) external view returns (UserAccessStruct[] memory) {\r\n        \r\n\r\n    //     uint256 collectionIds = ;\r\n    //     uint256 nftIds;\r\n    //     uint256 accessLevels;\r\n\r\n    //     UserAccessStruct[] memory userAccessStruct = new UserAccessStruct[](collectionIds);\r\n\r\n    //     for (uint256 i = 0; i < collectionIds; i++) {\r\n    //         nftIds = accessControl.getNFTCount(i);\r\n    //         userAccessStruct[i].collectionIds = i;\r\n    //         userAccessStruct[i].nftIds = nftIds;\r\n    //         for (uint256 j = 0; j < nftIds; j++) {\r\n    //             accessLevels = userAccess[_user][i][j];\r\n    //             userAccessStruct[i].accessLevels = accessLevels;\r\n    //         }\r\n    //     }\r\n\r\n    //     return userAccessStruct;\r\n\r\n    // }\r\n\r\n\r\n    // Get all access entries for a user\r\n    function getAllAccessForUser(address _user) external view returns (AccessEntry[] memory) {\r\n        return userAccessList[_user];\r\n    }\r\n\r\n\r\n    // Get user's access level\r\n    function getAccessLevel(uint256 _collectionId, uint256 _nftId, address _user) external view returns (AccessLevel) {\r\n        AccessLevel level = nftAccess[_collectionId][_nftId][_user];\r\n        if (level == AccessLevel.None) {\r\n            return defaultAccessLevel[_collectionId][_nftId];\r\n        }\r\n        return level;\r\n    }\r\n\r\n    function checkMinimumAccess(uint256 _collectionId, uint256 _nftId, address _user, AccessLevel _accessLevel) external view returns (bool) {\r\n        \r\n\r\n        if (defaultAccessLevel[_collectionId][_nftId] >= _accessLevel ){\r\n            return true;\r\n        }\r\n\r\n        AccessLevel level = nftAccess[_collectionId][_nftId][_user];\r\n\r\n        \r\n        if (level == AccessLevel.None) {\r\n            return defaultAccessLevel[_collectionId][_nftId] >= _accessLevel;\r\n        }\r\n        return level >= _accessLevel;\r\n    }\r\n\r\n\r\n    // Get all users and their access levels for a specific NFT\r\n    function getAllUsersAccessForNFT(uint256 _collectionId, uint256 _nftId)\r\n        external\r\n        view\r\n        returns (UserAccess[] memory)\r\n    {\r\n        return nftAccessList[_collectionId][_nftId];\r\n    }\r\n}\r\n",
  "sourcePath": "F:\\Projects\\03 Hackathon\\Tron Hackathon\\NeuraNFT_Tron\\smart_contracts\\truffle_compiled_contract\\contracts\\NFTAccessControl.sol",
  "compiler": {
    "name": "solc",
    "version": "0.8.19+commit.7dd6d404.Emscripten.clang"
  },
  "schemaVersion": "3.4.16",
  "updatedAt": "2024-10-07T12:42:49.239Z",
  "networkType": "ethereum",
  "devdoc": {
    "kind": "dev",
    "methods": {},
    "version": 1
  },
  "userdoc": {
    "kind": "user",
    "methods": {},
    "version": 1
  }
}