{
  "contractName": "NFTContract",
  "abi": [
    {
      "inputs": [
        {
          "internalType": "address",
          "name": "_masterAccessControlAddress",
          "type": "address"
        },
        {
          "internalType": "address",
          "name": "_nftAccessControlAddress",
          "type": "address"
        },
        {
          "internalType": "address",
          "name": "_nftMetadataAddress",
          "type": "address"
        }
      ],
      "stateMutability": "nonpayable",
      "type": "constructor"
    },
    {
      "anonymous": false,
      "inputs": [
        {
          "indexed": true,
          "internalType": "address",
          "name": "owner",
          "type": "address"
        },
        {
          "indexed": true,
          "internalType": "address",
          "name": "approved",
          "type": "address"
        },
        {
          "indexed": true,
          "internalType": "uint256",
          "name": "collectionId",
          "type": "uint256"
        },
        {
          "indexed": false,
          "internalType": "uint256",
          "name": "tokenId",
          "type": "uint256"
        }
      ],
      "name": "Approval",
      "type": "event"
    },
    {
      "anonymous": false,
      "inputs": [
        {
          "indexed": true,
          "internalType": "address",
          "name": "owner",
          "type": "address"
        },
        {
          "indexed": true,
          "internalType": "address",
          "name": "operator",
          "type": "address"
        },
        {
          "indexed": false,
          "internalType": "bool",
          "name": "approved",
          "type": "bool"
        }
      ],
      "name": "ApprovalForAll",
      "type": "event"
    },
    {
      "anonymous": false,
      "inputs": [
        {
          "indexed": true,
          "internalType": "uint256",
          "name": "collectionId",
          "type": "uint256"
        },
        {
          "indexed": true,
          "internalType": "uint256",
          "name": "tokenId",
          "type": "uint256"
        }
      ],
      "name": "NFTBurned",
      "type": "event"
    },
    {
      "anonymous": false,
      "inputs": [
        {
          "indexed": true,
          "internalType": "uint256",
          "name": "collectionId",
          "type": "uint256"
        },
        {
          "indexed": true,
          "internalType": "uint256",
          "name": "tokenId",
          "type": "uint256"
        },
        {
          "indexed": false,
          "internalType": "string",
          "name": "name",
          "type": "string"
        },
        {
          "indexed": false,
          "internalType": "address",
          "name": "creator",
          "type": "address"
        }
      ],
      "name": "NFTCreated",
      "type": "event"
    },
    {
      "anonymous": false,
      "inputs": [
        {
          "indexed": true,
          "internalType": "address",
          "name": "from",
          "type": "address"
        },
        {
          "indexed": true,
          "internalType": "address",
          "name": "to",
          "type": "address"
        },
        {
          "indexed": true,
          "internalType": "uint256",
          "name": "collectionId",
          "type": "uint256"
        },
        {
          "indexed": false,
          "internalType": "uint256",
          "name": "tokenId",
          "type": "uint256"
        }
      ],
      "name": "Transfer",
      "type": "event"
    },
    {
      "inputs": [],
      "name": "masterAccessControl",
      "outputs": [
        {
          "internalType": "contract MasterAccessControl",
          "name": "",
          "type": "address"
        }
      ],
      "stateMutability": "view",
      "type": "function",
      "constant": true
    },
    {
      "inputs": [],
      "name": "nftAccessControl",
      "outputs": [
        {
          "internalType": "contract NFTAccessControl",
          "name": "",
          "type": "address"
        }
      ],
      "stateMutability": "view",
      "type": "function",
      "constant": true
    },
    {
      "inputs": [],
      "name": "nftMetadata",
      "outputs": [
        {
          "internalType": "contract NFTMetadata",
          "name": "",
          "type": "address"
        }
      ],
      "stateMutability": "view",
      "type": "function",
      "constant": true
    },
    {
      "inputs": [
        {
          "internalType": "uint256",
          "name": "_collectionId",
          "type": "uint256"
        },
        {
          "internalType": "string",
          "name": "_name",
          "type": "string"
        },
        {
          "internalType": "uint8",
          "name": "_levelOfOwnership",
          "type": "uint8"
        }
      ],
      "name": "createNFT",
      "outputs": [
        {
          "internalType": "uint256",
          "name": "",
          "type": "uint256"
        }
      ],
      "stateMutability": "nonpayable",
      "type": "function"
    },
    {
      "inputs": [
        {
          "internalType": "uint256",
          "name": "_collectionId",
          "type": "uint256"
        },
        {
          "internalType": "uint256",
          "name": "_tokenId",
          "type": "uint256"
        }
      ],
      "name": "burnNFT",
      "outputs": [],
      "stateMutability": "nonpayable",
      "type": "function"
    },
    {
      "inputs": [
        {
          "internalType": "uint256",
          "name": "_collectionId",
          "type": "uint256"
        },
        {
          "internalType": "uint256",
          "name": "_tokenId",
          "type": "uint256"
        },
        {
          "internalType": "address",
          "name": "_to",
          "type": "address"
        }
      ],
      "name": "transferNFT",
      "outputs": [],
      "stateMutability": "nonpayable",
      "type": "function"
    },
    {
      "inputs": [
        {
          "internalType": "uint256",
          "name": "_collectionId",
          "type": "uint256"
        },
        {
          "internalType": "uint256",
          "name": "_tokenId",
          "type": "uint256"
        }
      ],
      "name": "getNFTInfo",
      "outputs": [
        {
          "components": [
            {
              "internalType": "uint8",
              "name": "levelOfOwnership",
              "type": "uint8"
            },
            {
              "internalType": "string",
              "name": "name",
              "type": "string"
            },
            {
              "internalType": "address",
              "name": "creator",
              "type": "address"
            },
            {
              "internalType": "uint256",
              "name": "creationDate",
              "type": "uint256"
            },
            {
              "internalType": "address",
              "name": "owner",
              "type": "address"
            }
          ],
          "internalType": "struct NFTContract.NFTInfo",
          "name": "",
          "type": "tuple"
        }
      ],
      "stateMutability": "view",
      "type": "function",
      "constant": true
    },
    {
      "inputs": [
        {
          "internalType": "uint256",
          "name": "_collectionId",
          "type": "uint256"
        }
      ],
      "name": "getCollectionNFTCount",
      "outputs": [
        {
          "internalType": "uint256",
          "name": "",
          "type": "uint256"
        }
      ],
      "stateMutability": "view",
      "type": "function",
      "constant": true
    },
    {
      "inputs": [
        {
          "internalType": "uint256",
          "name": "_collectionId",
          "type": "uint256"
        }
      ],
      "name": "getCollectionNFTs",
      "outputs": [
        {
          "internalType": "uint256[]",
          "name": "",
          "type": "uint256[]"
        }
      ],
      "stateMutability": "view",
      "type": "function",
      "constant": true
    },
    {
      "inputs": [
        {
          "internalType": "address",
          "name": "owner",
          "type": "address"
        }
      ],
      "name": "balanceOf",
      "outputs": [
        {
          "internalType": "uint256",
          "name": "",
          "type": "uint256"
        }
      ],
      "stateMutability": "view",
      "type": "function",
      "constant": true
    },
    {
      "inputs": [
        {
          "internalType": "address",
          "name": "owner",
          "type": "address"
        },
        {
          "internalType": "uint256",
          "name": "collectionId",
          "type": "uint256"
        }
      ],
      "name": "balanceOfCollection",
      "outputs": [
        {
          "internalType": "uint256",
          "name": "",
          "type": "uint256"
        }
      ],
      "stateMutability": "view",
      "type": "function",
      "constant": true
    },
    {
      "inputs": [
        {
          "internalType": "uint256",
          "name": "collectionId",
          "type": "uint256"
        },
        {
          "internalType": "uint256",
          "name": "tokenId",
          "type": "uint256"
        }
      ],
      "name": "ownerOf",
      "outputs": [
        {
          "internalType": "address",
          "name": "",
          "type": "address"
        }
      ],
      "stateMutability": "view",
      "type": "function",
      "constant": true
    },
    {
      "inputs": [
        {
          "internalType": "uint256",
          "name": "_collectionId",
          "type": "uint256"
        }
      ],
      "name": "numberOfHolders",
      "outputs": [
        {
          "internalType": "uint256",
          "name": "",
          "type": "uint256"
        }
      ],
      "stateMutability": "view",
      "type": "function",
      "constant": true
    },
    {
      "inputs": [
        {
          "internalType": "address",
          "name": "from",
          "type": "address"
        },
        {
          "internalType": "address",
          "name": "to",
          "type": "address"
        },
        {
          "internalType": "uint256",
          "name": "collectionId",
          "type": "uint256"
        },
        {
          "internalType": "uint256",
          "name": "tokenId",
          "type": "uint256"
        }
      ],
      "name": "safeTransferFrom",
      "outputs": [],
      "stateMutability": "nonpayable",
      "type": "function"
    },
    {
      "inputs": [
        {
          "internalType": "address",
          "name": "from",
          "type": "address"
        },
        {
          "internalType": "address",
          "name": "to",
          "type": "address"
        },
        {
          "internalType": "uint256",
          "name": "collectionId",
          "type": "uint256"
        },
        {
          "internalType": "uint256",
          "name": "tokenId",
          "type": "uint256"
        },
        {
          "internalType": "bytes",
          "name": "data",
          "type": "bytes"
        }
      ],
      "name": "safeTransferFrom",
      "outputs": [],
      "stateMutability": "nonpayable",
      "type": "function"
    },
    {
      "inputs": [
        {
          "internalType": "address",
          "name": "from",
          "type": "address"
        },
        {
          "internalType": "address",
          "name": "to",
          "type": "address"
        },
        {
          "internalType": "uint256",
          "name": "collectionId",
          "type": "uint256"
        },
        {
          "internalType": "uint256",
          "name": "tokenId",
          "type": "uint256"
        }
      ],
      "name": "transferFrom",
      "outputs": [],
      "stateMutability": "nonpayable",
      "type": "function"
    },
    {
      "inputs": [
        {
          "internalType": "address",
          "name": "to",
          "type": "address"
        },
        {
          "internalType": "uint256",
          "name": "collectionId",
          "type": "uint256"
        },
        {
          "internalType": "uint256",
          "name": "tokenId",
          "type": "uint256"
        }
      ],
      "name": "approve",
      "outputs": [],
      "stateMutability": "nonpayable",
      "type": "function"
    },
    {
      "inputs": [
        {
          "internalType": "address",
          "name": "operator",
          "type": "address"
        },
        {
          "internalType": "bool",
          "name": "approved",
          "type": "bool"
        }
      ],
      "name": "setApprovalForAll",
      "outputs": [],
      "stateMutability": "nonpayable",
      "type": "function"
    },
    {
      "inputs": [
        {
          "internalType": "uint256",
          "name": "collectionId",
          "type": "uint256"
        },
        {
          "internalType": "uint256",
          "name": "tokenId",
          "type": "uint256"
        }
      ],
      "name": "getApproved",
      "outputs": [
        {
          "internalType": "address",
          "name": "",
          "type": "address"
        }
      ],
      "stateMutability": "view",
      "type": "function",
      "constant": true
    },
    {
      "inputs": [
        {
          "internalType": "address",
          "name": "owner",
          "type": "address"
        },
        {
          "internalType": "address",
          "name": "operator",
          "type": "address"
        }
      ],
      "name": "isApprovedForAll",
      "outputs": [
        {
          "internalType": "bool",
          "name": "",
          "type": "bool"
        }
      ],
      "stateMutability": "view",
      "type": "function",
      "constant": true
    }
  ],
  "bytecode": "0x60806040523480156200001157600080fd5b5060405162003bb338038062003bb38339818101604052810190620000379190620001fb565b826000806101000a81548173ffffffffffffffffffffffffffffffffffffffff021916908373ffffffffffffffffffffffffffffffffffffffff16021790555081600160006101000a81548173ffffffffffffffffffffffffffffffffffffffff021916908373ffffffffffffffffffffffffffffffffffffffff16021790555080600260006101000a81548173ffffffffffffffffffffffffffffffffffffffff021916908373ffffffffffffffffffffffffffffffffffffffff16021790555060008054906101000a900473ffffffffffffffffffffffffffffffffffffffff1673ffffffffffffffffffffffffffffffffffffffff1663a2aadc54336040518263ffffffff1660e01b815260040162000154919062000268565b600060405180830381600087803b1580156200016f57600080fd5b505af115801562000184573d6000803e3d6000fd5b5050505050505062000285565b600080fd5b600073ffffffffffffffffffffffffffffffffffffffff82169050919050565b6000620001c38262000196565b9050919050565b620001d581620001b6565b8114620001e157600080fd5b50565b600081519050620001f581620001ca565b92915050565b60008060006060848603121562000217576200021662000191565b5b60006200022786828701620001e4565b93505060206200023a86828701620001e4565b92505060406200024d86828701620001e4565b9150509250925092565b6200026281620001b6565b82525050565b60006020820190506200027f600083018462000257565b92915050565b61391e80620002956000396000f3fe608060405234801561001057600080fd5b506004361061012c5760003560e01c80639ef8dd67116100ad578063e985e9c511610071578063e985e9c514610367578063f242432a14610397578063f9f96003146103b3578063fe99049a146103e3578063feb4cbb9146103ff5761012c565b80639ef8dd67146102c3578063a22cb465146102e1578063d3caf167146102fd578063d9dad80d14610319578063db9d777b146103495761012c565b806370a08231116100f457806370a08231146101e75780637edb992c146102175780638894c446146102475780638f928bf5146102635780639e889b4c146102935761012c565b8063099a490c146101315780630febdd4914610161578063145e32c51461017d578063426a84931461019b5780635b8ef74e146101b7575b600080fd5b61014b600480360381019061014691906122c9565b61042f565b6040516101589190612318565b60405180910390f35b61017b60048036038101906101769190612333565b61048a565b005b6101856104ac565b60405161019291906123f9565b60405180910390f35b6101b560048036038101906101b09190612414565b6104d2565b005b6101d160048036038101906101cc9190612467565b61069c565b6040516101de91906124b6565b60405180910390f35b61020160048036038101906101fc91906124d1565b610734565b60405161020e9190612318565b60405180910390f35b610231600480360381019061022c9190612467565b61077d565b60405161023e919061263e565b60405180910390f35b610261600480360381019061025c9190612660565b610921565b005b61027d60048036038101906102789190612814565b610932565b60405161028a9190612318565b60405180910390f35b6102ad60048036038101906102a89190612883565b610d61565b6040516102ba919061295f565b60405180910390f35b6102cb610eb4565b6040516102d891906129a2565b60405180910390f35b6102fb60048036038101906102f691906129f5565b610ed8565b005b61031760048036038101906103129190612467565b611043565b005b610333600480360381019061032e9190612467565b61152b565b60405161034091906124b6565b60405180910390f35b6103516115f1565b60405161035e9190612a56565b60405180910390f35b610381600480360381019061037c9190612a71565b611617565b60405161038e9190612ac0565b60405180910390f35b6103b160048036038101906103ac9190612b7c565b6116ab565b005b6103cd60048036038101906103c89190612883565b61170a565b6040516103da9190612318565b60405180910390f35b6103fd60048036038101906103f89190612333565b611953565b005b61041960048036038101906104149190612883565b6119af565b6040516104269190612318565b60405180910390f35b6000600660008473ffffffffffffffffffffffffffffffffffffffff1673ffffffffffffffffffffffffffffffffffffffff168152602001908152602001600020600083815260200190815260200160002054905092915050565b6104a684848484604051806020016040528060008152506116ab565b50505050565b600260009054906101000a900473ffffffffffffffffffffffffffffffffffffffff1681565b60006104de838361152b565b90508073ffffffffffffffffffffffffffffffffffffffff168473ffffffffffffffffffffffffffffffffffffffff160361054e576040517f08c379a000000000000000000000000000000000000000000000000000000000815260040161054590612c96565b60405180910390fd5b8073ffffffffffffffffffffffffffffffffffffffff163373ffffffffffffffffffffffffffffffffffffffff16148061058e575061058d8133611617565b5b6105cd576040517f08c379a00000000000000000000000000000000000000000000000000000000081526004016105c490612d28565b60405180910390fd5b8360076000858152602001908152602001600020600084815260200190815260200160002060006101000a81548173ffffffffffffffffffffffffffffffffffffffff021916908373ffffffffffffffffffffffffffffffffffffffff160217905550828473ffffffffffffffffffffffffffffffffffffffff168273ffffffffffffffffffffffffffffffffffffffff167fb3fd5071835887567a0671151121894ddccc2842f1d10bedad13e0d17cace9a78560405161068e9190612318565b60405180910390a450505050565b60006106a883836119cc565b6106e7576040517f08c379a00000000000000000000000000000000000000000000000000000000081526004016106de90612dba565b60405180910390fd5b60076000848152602001908152602001600020600083815260200190815260200160002060009054906101000a900473ffffffffffffffffffffffffffffffffffffffff16905092915050565b6000600560008373ffffffffffffffffffffffffffffffffffffffff1673ffffffffffffffffffffffffffffffffffffffff168152602001908152602001600020549050919050565b610785612166565b6003600084815260200190815260200160002060008381526020019081526020016000206040518060a00160405290816000820160009054906101000a900460ff1660ff1660ff1681526020016001820180546107e190612e09565b80601f016020809104026020016040519081016040528092919081815260200182805461080d90612e09565b801561085a5780601f1061082f5761010080835404028352916020019161085a565b820191906000526020600020905b81548152906001019060200180831161083d57829003601f168201915b505050505081526020016002820160009054906101000a900473ffffffffffffffffffffffffffffffffffffffff1673ffffffffffffffffffffffffffffffffffffffff1673ffffffffffffffffffffffffffffffffffffffff168152602001600382015481526020016004820160009054906101000a900473ffffffffffffffffffffffffffffffffffffffff1673ffffffffffffffffffffffffffffffffffffffff1673ffffffffffffffffffffffffffffffffffffffff1681525050905092915050565b61092d3382858561048a565b505050565b6000808260ff1611801561094a575060068260ff1611155b610989576040517f08c379a000000000000000000000000000000000000000000000000000000000815260040161098090612eac565b60405180910390fd5b60006009600086815260200190815260200160002054036109be57600160096000868152602001908152602001600020819055505b60006009600086815260200190815260200160002060008154809291906109e490612efb565b91905055905060006040518060a001604052808560ff1681526020018681526020013373ffffffffffffffffffffffffffffffffffffffff1681526020014281526020013373ffffffffffffffffffffffffffffffffffffffff1681525090508060036000888152602001908152602001600020600084815260200190815260200160002060008201518160000160006101000a81548160ff021916908360ff1602179055506020820151816001019081610a9f91906130e5565b5060408201518160020160006101000a81548173ffffffffffffffffffffffffffffffffffffffff021916908373ffffffffffffffffffffffffffffffffffffffff1602179055506060820151816003015560808201518160040160006101000a81548173ffffffffffffffffffffffffffffffffffffffff021916908373ffffffffffffffffffffffffffffffffffffffff160217905550905050600460008781526020019081526020016000206000815480929190610b5f90612efb565b9190505550600560003373ffffffffffffffffffffffffffffffffffffffff1673ffffffffffffffffffffffffffffffffffffffff1681526020019081526020016000206000815480929190610bb490612efb565b9190505550600660003373ffffffffffffffffffffffffffffffffffffffff1673ffffffffffffffffffffffffffffffffffffffff16815260200190815260200160002060008781526020019081526020016000206000815480929190610c1a90612efb565b9190505550600160009054906101000a900473ffffffffffffffffffffffffffffffffffffffff1673ffffffffffffffffffffffffffffffffffffffff166396360e5387843360066040518563ffffffff1660e01b8152600401610c81949392919061322e565b600060405180830381600087803b158015610c9b57600080fd5b505af1158015610caf573d6000803e3d6000fd5b5050505081867f70c783e7a8d1b78c0efffba9d45d314bfe7a85f6388c8e9a32536a97949a0f2a8733604051610ce69291906132ac565b60405180910390a3853373ffffffffffffffffffffffffffffffffffffffff16600073ffffffffffffffffffffffffffffffffffffffff167f9ed053bb818ff08b8353cd46f78db1f0799f31c9e4458fdb425c10eccd2efc4485604051610d4d9190612318565b60405180910390a481925050509392505050565b606060006004600084815260200190815260200160002054905060008167ffffffffffffffff811115610d9757610d966126bd565b5b604051908082528060200260200182016040528015610dc55781602001602082028036833780820191505090505b509050600080600190505b6009600087815260200190815260200160002054811015610ea857600073ffffffffffffffffffffffffffffffffffffffff1660036000888152602001908152602001600020600083815260200190815260200160002060040160009054906101000a900473ffffffffffffffffffffffffffffffffffffffff1673ffffffffffffffffffffffffffffffffffffffff1614610e955780838381518110610e7a57610e796132dc565b5b6020026020010181815250508180610e9190612efb565b9250505b8080610ea090612efb565b915050610dd0565b50819350505050919050565b60008054906101000a900473ffffffffffffffffffffffffffffffffffffffff1681565b3373ffffffffffffffffffffffffffffffffffffffff168273ffffffffffffffffffffffffffffffffffffffff1603610f46576040517f08c379a0000000000000000000000000000000000000000000000000000000008152600401610f3d90613357565b60405180910390fd5b80600860003373ffffffffffffffffffffffffffffffffffffffff1673ffffffffffffffffffffffffffffffffffffffff16815260200190815260200160002060008473ffffffffffffffffffffffffffffffffffffffff1673ffffffffffffffffffffffffffffffffffffffff16815260200190815260200160002060006101000a81548160ff0219169083151502179055508173ffffffffffffffffffffffffffffffffffffffff163373ffffffffffffffffffffffffffffffffffffffff167f17307eab39ab6107e8899845ad3d59bd9653f200f220920489ca2b5937696c31836040516110379190612ac0565b60405180910390a35050565b81813373ffffffffffffffffffffffffffffffffffffffff1660036000848152602001908152602001600020600083815260200190815260200160002060040160009054906101000a900473ffffffffffffffffffffffffffffffffffffffff1673ffffffffffffffffffffffffffffffffffffffff16146110fa576040517f08c379a00000000000000000000000000000000000000000000000000000000081526004016110f1906133c3565b60405180910390fd5b600060036000868152602001908152602001600020600085815260200190815260200160002060040160009054906101000a900473ffffffffffffffffffffffffffffffffffffffff169050600360008681526020019081526020016000206000858152602001908152602001600020600080820160006101000a81549060ff021916905560018201600061118f91906121c4565b6002820160006101000a81549073ffffffffffffffffffffffffffffffffffffffff021916905560038201600090556004820160006101000a81549073ffffffffffffffffffffffffffffffffffffffff0219169055505060046000868152602001908152602001600020600081548092919061120b906133e3565b9190505550600560008273ffffffffffffffffffffffffffffffffffffffff1673ffffffffffffffffffffffffffffffffffffffff1681526020019081526020016000206000815480929190611260906133e3565b9190505550600660008273ffffffffffffffffffffffffffffffffffffffff1673ffffffffffffffffffffffffffffffffffffffff168152602001908152602001600020600086815260200190815260200160002060008154809291906112c6906133e3565b9190505550600260009054906101000a900473ffffffffffffffffffffffffffffffffffffffff1673ffffffffffffffffffffffffffffffffffffffff16637536278f86866040518363ffffffff1660e01b815260040161132892919061340c565b602060405180830381865afa158015611345573d6000803e3d6000fd5b505050506040513d601f19601f82011682018060405250810190611369919061344a565b156113fe57600260009054906101000a900473ffffffffffffffffffffffffffffffffffffffff1673ffffffffffffffffffffffffffffffffffffffff16635958575486866040518363ffffffff1660e01b81526004016113cb92919061340c565b600060405180830381600087803b1580156113e557600080fd5b505af11580156113f9573d6000803e3d6000fd5b505050505b600160009054906101000a900473ffffffffffffffffffffffffffffffffffffffff1673ffffffffffffffffffffffffffffffffffffffff1663e57fb90d8686846040518463ffffffff1660e01b815260040161145d93929190613477565b600060405180830381600087803b15801561147757600080fd5b505af115801561148b573d6000803e3d6000fd5b5050505083857f401ca505317eed77a11d86cfdf8adc682b4c9cb9855ab9b951515e1b371c67ef60405160405180910390a384600073ffffffffffffffffffffffffffffffffffffffff168273ffffffffffffffffffffffffffffffffffffffff167f9ed053bb818ff08b8353cd46f78db1f0799f31c9e4458fdb425c10eccd2efc448760405161151c9190612318565b60405180910390a45050505050565b60008060036000858152602001908152602001600020600084815260200190815260200160002060040160009054906101000a900473ffffffffffffffffffffffffffffffffffffffff169050600073ffffffffffffffffffffffffffffffffffffffff168173ffffffffffffffffffffffffffffffffffffffff16036115e7576040517f08c379a00000000000000000000000000000000000000000000000000000000081526004016115de906134fa565b60405180910390fd5b8091505092915050565b600160009054906101000a900473ffffffffffffffffffffffffffffffffffffffff1681565b6000600860008473ffffffffffffffffffffffffffffffffffffffff1673ffffffffffffffffffffffffffffffffffffffff16815260200190815260200160002060008373ffffffffffffffffffffffffffffffffffffffff1673ffffffffffffffffffffffffffffffffffffffff16815260200190815260200160002060009054906101000a900460ff16905092915050565b6116b785858585611953565b6116c48585858585611a4d565b611703576040517f08c379a00000000000000000000000000000000000000000000000000000000081526004016116fa9061358c565b60405180910390fd5b5050505050565b600080600090506000600960008581526020019081526020016000205467ffffffffffffffff8111156117405761173f6126bd565b5b60405190808252806020026020018201604052801561176e5781602001602082028036833780820191505090505b5090506000600190505b600960008681526020019081526020016000205481101561194857600073ffffffffffffffffffffffffffffffffffffffff1660036000878152602001908152602001600020600083815260200190815260200160002060040160009054906101000a900473ffffffffffffffffffffffffffffffffffffffff1673ffffffffffffffffffffffffffffffffffffffff161461193557600060036000878152602001908152602001600020600083815260200190815260200160002060040160009054906101000a900473ffffffffffffffffffffffffffffffffffffffff1690506000805b858110156118cf578273ffffffffffffffffffffffffffffffffffffffff168582815181106118905761188f6132dc565b5b602002602001015173ffffffffffffffffffffffffffffffffffffffff16036118bc57600191506118cf565b80806118c790612efb565b91505061185e565b508061193257818486815181106118e9576118e86132dc565b5b602002602001019073ffffffffffffffffffffffffffffffffffffffff16908173ffffffffffffffffffffffffffffffffffffffff1681525050848061192e90612efb565b9550505b50505b808061194090612efb565b915050611778565b508192505050919050565b61195e338383611bcb565b61199d576040517f08c379a00000000000000000000000000000000000000000000000000000000081526004016119949061361e565b60405180910390fd5b6119a984848484611c63565b50505050565b600060046000838152602001908152602001600020549050919050565b60008073ffffffffffffffffffffffffffffffffffffffff1660036000858152602001908152602001600020600084815260200190815260200160002060040160009054906101000a900473ffffffffffffffffffffffffffffffffffffffff1673ffffffffffffffffffffffffffffffffffffffff161415905092915050565b6000808573ffffffffffffffffffffffffffffffffffffffff163b1115611bbd578473ffffffffffffffffffffffffffffffffffffffff16637636e24533888787876040518663ffffffff1660e01b8152600401611aaf959493929190613693565b6020604051808303816000875af1925050508015611aeb57506040513d601f19601f82011682018060405250810190611ae89190613745565b60015b611b6d573d8060008114611b1b576040519150601f19603f3d011682016040523d82523d6000602084013e611b20565b606091505b506000815103611b65576040517f08c379a0000000000000000000000000000000000000000000000000000000008152600401611b5c9061358c565b60405180910390fd5b805181602001fd5b637636e24560e01b7bffffffffffffffffffffffffffffffffffffffffffffffffffffffff1916817bffffffffffffffffffffffffffffffffffffffffffffffffffffffff191614915050611bc2565b600190505b95945050505050565b600080611bd8848461152b565b90508073ffffffffffffffffffffffffffffffffffffffff168573ffffffffffffffffffffffffffffffffffffffff161480611c4857508473ffffffffffffffffffffffffffffffffffffffff16611c30858561069c565b73ffffffffffffffffffffffffffffffffffffffff16145b80611c595750611c588186611617565b5b9150509392505050565b8373ffffffffffffffffffffffffffffffffffffffff16611c84838361152b565b73ffffffffffffffffffffffffffffffffffffffff1614611cda576040517f08c379a0000000000000000000000000000000000000000000000000000000008152600401611cd1906137e4565b60405180910390fd5b600073ffffffffffffffffffffffffffffffffffffffff168373ffffffffffffffffffffffffffffffffffffffff1603611d49576040517f08c379a0000000000000000000000000000000000000000000000000000000008152600401611d4090613876565b60405180910390fd5b611d55600083836104d2565b600560008573ffffffffffffffffffffffffffffffffffffffff1673ffffffffffffffffffffffffffffffffffffffff1681526020019081526020016000206000815480929190611da5906133e3565b9190505550600560008473ffffffffffffffffffffffffffffffffffffffff1673ffffffffffffffffffffffffffffffffffffffff1681526020019081526020016000206000815480929190611dfa90612efb565b9190505550600660008573ffffffffffffffffffffffffffffffffffffffff1673ffffffffffffffffffffffffffffffffffffffff16815260200190815260200160002060008381526020019081526020016000206000815480929190611e60906133e3565b9190505550600660008473ffffffffffffffffffffffffffffffffffffffff1673ffffffffffffffffffffffffffffffffffffffff16815260200190815260200160002060008381526020019081526020016000206000815480929190611ec690612efb565b91905055508260036000848152602001908152602001600020600083815260200190815260200160002060040160006101000a81548173ffffffffffffffffffffffffffffffffffffffff021916908373ffffffffffffffffffffffffffffffffffffffff160217905550818373ffffffffffffffffffffffffffffffffffffffff168573ffffffffffffffffffffffffffffffffffffffff167f9ed053bb818ff08b8353cd46f78db1f0799f31c9e4458fdb425c10eccd2efc4484604051611f8f9190612318565b60405180910390a46000600160009054906101000a900473ffffffffffffffffffffffffffffffffffffffff1673ffffffffffffffffffffffffffffffffffffffff1663be18f3958484886040518463ffffffff1660e01b8152600401611ff893929190613477565b602060405180830381865afa158015612015573d6000803e3d6000fd5b505050506040513d601f19601f8201168201806040525081019061203991906138bb565b9050600160009054906101000a900473ffffffffffffffffffffffffffffffffffffffff1673ffffffffffffffffffffffffffffffffffffffff1663e57fb90d8484886040518463ffffffff1660e01b815260040161209a93929190613477565b600060405180830381600087803b1580156120b457600080fd5b505af11580156120c8573d6000803e3d6000fd5b50505050600160009054906101000a900473ffffffffffffffffffffffffffffffffffffffff1673ffffffffffffffffffffffffffffffffffffffff166396360e53848487856040518563ffffffff1660e01b815260040161212d949392919061322e565b600060405180830381600087803b15801561214757600080fd5b505af115801561215b573d6000803e3d6000fd5b505050505050505050565b6040518060a00160405280600060ff16815260200160608152602001600073ffffffffffffffffffffffffffffffffffffffff16815260200160008152602001600073ffffffffffffffffffffffffffffffffffffffff1681525090565b5080546121d090612e09565b6000825580601f106121e25750612201565b601f0160209004906000526020600020908101906122009190612204565b5b50565b5b8082111561221d576000816000905550600101612205565b5090565b6000604051905090565b600080fd5b600080fd5b600073ffffffffffffffffffffffffffffffffffffffff82169050919050565b600061226082612235565b9050919050565b61227081612255565b811461227b57600080fd5b50565b60008135905061228d81612267565b92915050565b6000819050919050565b6122a681612293565b81146122b157600080fd5b50565b6000813590506122c38161229d565b92915050565b600080604083850312156122e0576122df61222b565b5b60006122ee8582860161227e565b92505060206122ff858286016122b4565b9150509250929050565b61231281612293565b82525050565b600060208201905061232d6000830184612309565b92915050565b6000806000806080858703121561234d5761234c61222b565b5b600061235b8782880161227e565b945050602061236c8782880161227e565b935050604061237d878288016122b4565b925050606061238e878288016122b4565b91505092959194509250565b6000819050919050565b60006123bf6123ba6123b584612235565b61239a565b612235565b9050919050565b60006123d1826123a4565b9050919050565b60006123e3826123c6565b9050919050565b6123f3816123d8565b82525050565b600060208201905061240e60008301846123ea565b92915050565b60008060006060848603121561242d5761242c61222b565b5b600061243b8682870161227e565b935050602061244c868287016122b4565b925050604061245d868287016122b4565b9150509250925092565b6000806040838503121561247e5761247d61222b565b5b600061248c858286016122b4565b925050602061249d858286016122b4565b9150509250929050565b6124b081612255565b82525050565b60006020820190506124cb60008301846124a7565b92915050565b6000602082840312156124e7576124e661222b565b5b60006124f58482850161227e565b91505092915050565b600060ff82169050919050565b612514816124fe565b82525050565b600081519050919050565b600082825260208201905092915050565b60005b83811015612554578082015181840152602081019050612539565b60008484015250505050565b6000601f19601f8301169050919050565b600061257c8261251a565b6125868185612525565b9350612596818560208601612536565b61259f81612560565b840191505092915050565b6125b381612255565b82525050565b6125c281612293565b82525050565b600060a0830160008301516125e0600086018261250b565b50602083015184820360208601526125f88282612571565b915050604083015161260d60408601826125aa565b50606083015161262060608601826125b9565b50608083015161263360808601826125aa565b508091505092915050565b6000602082019050818103600083015261265881846125c8565b905092915050565b6000806000606084860312156126795761267861222b565b5b6000612687868287016122b4565b9350506020612698868287016122b4565b92505060406126a98682870161227e565b9150509250925092565b600080fd5b600080fd5b7f4e487b7100000000000000000000000000000000000000000000000000000000600052604160045260246000fd5b6126f582612560565b810181811067ffffffffffffffff82111715612714576127136126bd565b5b80604052505050565b6000612727612221565b905061273382826126ec565b919050565b600067ffffffffffffffff821115612753576127526126bd565b5b61275c82612560565b9050602081019050919050565b82818337600083830152505050565b600061278b61278684612738565b61271d565b9050828152602081018484840111156127a7576127a66126b8565b5b6127b2848285612769565b509392505050565b600082601f8301126127cf576127ce6126b3565b5b81356127df848260208601612778565b91505092915050565b6127f1816124fe565b81146127fc57600080fd5b50565b60008135905061280e816127e8565b92915050565b60008060006060848603121561282d5761282c61222b565b5b600061283b868287016122b4565b935050602084013567ffffffffffffffff81111561285c5761285b612230565b5b612868868287016127ba565b9250506040612879868287016127ff565b9150509250925092565b6000602082840312156128995761289861222b565b5b60006128a7848285016122b4565b91505092915050565b600081519050919050565b600082825260208201905092915050565b6000819050602082019050919050565b60006128e883836125b9565b60208301905092915050565b6000602082019050919050565b600061290c826128b0565b61291681856128bb565b9350612921836128cc565b8060005b8381101561295257815161293988826128dc565b9750612944836128f4565b925050600181019050612925565b5085935050505092915050565b600060208201905081810360008301526129798184612901565b905092915050565b600061298c826123c6565b9050919050565b61299c81612981565b82525050565b60006020820190506129b76000830184612993565b92915050565b60008115159050919050565b6129d2816129bd565b81146129dd57600080fd5b50565b6000813590506129ef816129c9565b92915050565b60008060408385031215612a0c57612a0b61222b565b5b6000612a1a8582860161227e565b9250506020612a2b858286016129e0565b9150509250929050565b6000612a40826123c6565b9050919050565b612a5081612a35565b82525050565b6000602082019050612a6b6000830184612a47565b92915050565b60008060408385031215612a8857612a8761222b565b5b6000612a968582860161227e565b9250506020612aa78582860161227e565b9150509250929050565b612aba816129bd565b82525050565b6000602082019050612ad56000830184612ab1565b92915050565b600067ffffffffffffffff821115612af657612af56126bd565b5b612aff82612560565b9050602081019050919050565b6000612b1f612b1a84612adb565b61271d565b905082815260208101848484011115612b3b57612b3a6126b8565b5b612b46848285612769565b509392505050565b600082601f830112612b6357612b626126b3565b5b8135612b73848260208601612b0c565b91505092915050565b600080600080600060a08688031215612b9857612b9761222b565b5b6000612ba68882890161227e565b9550506020612bb78882890161227e565b9450506040612bc8888289016122b4565b9350506060612bd9888289016122b4565b925050608086013567ffffffffffffffff811115612bfa57612bf9612230565b5b612c0688828901612b4e565b9150509295509295909350565b600082825260208201905092915050565b7f4e4654436f6e74726163743a20417070726f76616c20746f2063757272656e7460008201527f206f776e65720000000000000000000000000000000000000000000000000000602082015250565b6000612c80602683612c13565b9150612c8b82612c24565b604082019050919050565b60006020820190508181036000830152612caf81612c73565b9050919050565b7f4e4654436f6e74726163743a204e6f74206f776e6572206f7220617070726f7660008201527f656420666f7220616c6c00000000000000000000000000000000000000000000602082015250565b6000612d12602a83612c13565b9150612d1d82612cb6565b604082019050919050565b60006020820190508181036000830152612d4181612d05565b9050919050565b7f4e4654436f6e74726163743a20546f6b656e20646f6573206e6f74206578697360008201527f7400000000000000000000000000000000000000000000000000000000000000602082015250565b6000612da4602183612c13565b9150612daf82612d48565b604082019050919050565b60006020820190508181036000830152612dd381612d97565b9050919050565b7f4e487b7100000000000000000000000000000000000000000000000000000000600052602260045260246000fd5b60006002820490506001821680612e2157607f821691505b602082108103612e3457612e33612dda565b5b50919050565b7f4e4654436f6e74726163743a20496e76616c6964206c6576656c206f66206f7760008201527f6e65727368697000000000000000000000000000000000000000000000000000602082015250565b6000612e96602783612c13565b9150612ea182612e3a565b604082019050919050565b60006020820190508181036000830152612ec581612e89565b9050919050565b7f4e487b7100000000000000000000000000000000000000000000000000000000600052601160045260246000fd5b6000612f0682612293565b91507fffffffffffffffffffffffffffffffffffffffffffffffffffffffffffffffff8203612f3857612f37612ecc565b5b600182019050919050565b60008190508160005260206000209050919050565b60006020601f8301049050919050565b600082821b905092915050565b600060088302612fa57fffffffffffffffffffffffffffffffffffffffffffffffffffffffffffffffff82612f68565b612faf8683612f68565b95508019841693508086168417925050509392505050565b6000612fe2612fdd612fd884612293565b61239a565b612293565b9050919050565b6000819050919050565b612ffc83612fc7565b61301061300882612fe9565b848454612f75565b825550505050565b600090565b613025613018565b613030818484612ff3565b505050565b5b818110156130545761304960008261301d565b600181019050613036565b5050565b601f8211156130995761306a81612f43565b61307384612f58565b81016020851015613082578190505b61309661308e85612f58565b830182613035565b50505b505050565b600082821c905092915050565b60006130bc6000198460080261309e565b1980831691505092915050565b60006130d583836130ab565b9150826002028217905092915050565b6130ee8261251a565b67ffffffffffffffff811115613107576131066126bd565b5b6131118254612e09565b61311c828285613058565b600060209050601f83116001811461314f576000841561313d578287015190505b61314785826130c9565b8655506131af565b601f19841661315d86612f43565b60005b8281101561318557848901518255600182019150602085019450602081019050613160565b868310156131a2578489015161319e601f8916826130ab565b8355505b6001600288020188555050505b505050505050565b7f4e487b7100000000000000000000000000000000000000000000000000000000600052602160045260246000fd5b600781106131f7576131f66131b7565b5b50565b6000819050613208826131e6565b919050565b6000613218826131fa565b9050919050565b6132288161320d565b82525050565b60006080820190506132436000830187612309565b6132506020830186612309565b61325d60408301856124a7565b61326a606083018461321f565b95945050505050565b600061327e8261251a565b6132888185612c13565b9350613298818560208601612536565b6132a181612560565b840191505092915050565b600060408201905081810360008301526132c68185613273565b90506132d560208301846124a7565b9392505050565b7f4e487b7100000000000000000000000000000000000000000000000000000000600052603260045260246000fd5b7f4e4654436f6e74726163743a20417070726f766520746f2063616c6c65720000600082015250565b6000613341601e83612c13565b915061334c8261330b565b602082019050919050565b6000602082019050818103600083015261337081613334565b9050919050565b7f4e4654436f6e74726163743a204e6f7420746865204e4654206f776e65720000600082015250565b60006133ad601e83612c13565b91506133b882613377565b602082019050919050565b600060208201905081810360008301526133dc816133a0565b9050919050565b60006133ee82612293565b91506000820361340157613400612ecc565b5b600182039050919050565b60006040820190506134216000830185612309565b61342e6020830184612309565b9392505050565b600081519050613444816129c9565b92915050565b6000602082840312156134605761345f61222b565b5b600061346e84828501613435565b91505092915050565b600060608201905061348c6000830186612309565b6134996020830185612309565b6134a660408301846124a7565b949350505050565b7f4e4654436f6e74726163743a20496e76616c696420746f6b656e204944000000600082015250565b60006134e4601d83612c13565b91506134ef826134ae565b602082019050919050565b60006020820190508181036000830152613513816134d7565b9050919050565b7f4e4654436f6e74726163743a205472616e7366657220746f206e6f6e2045524360008201527f373231526563656976657220696d706c656d656e746572000000000000000000602082015250565b6000613576603783612c13565b91506135818261351a565b604082019050919050565b600060208201905081810360008301526135a581613569565b9050919050565b7f4e4654436f6e74726163743a204e6f7420617070726f766564206f72206f776e60008201527f6572000000000000000000000000000000000000000000000000000000000000602082015250565b6000613608602283612c13565b9150613613826135ac565b604082019050919050565b60006020820190508181036000830152613637816135fb565b9050919050565b600081519050919050565b600082825260208201905092915050565b60006136658261363e565b61366f8185613649565b935061367f818560208601612536565b61368881612560565b840191505092915050565b600060a0820190506136a860008301886124a7565b6136b560208301876124a7565b6136c26040830186612309565b6136cf6060830185612309565b81810360808301526136e1818461365a565b90509695505050505050565b60007fffffffff0000000000000000000000000000000000000000000000000000000082169050919050565b613722816136ed565b811461372d57600080fd5b50565b60008151905061373f81613719565b92915050565b60006020828403121561375b5761375a61222b565b5b600061376984828501613730565b91505092915050565b7f4e4654436f6e74726163743a205472616e736665722066726f6d20696e636f7260008201527f72656374206f776e657200000000000000000000000000000000000000000000602082015250565b60006137ce602a83612c13565b91506137d982613772565b604082019050919050565b600060208201905081810360008301526137fd816137c1565b9050919050565b7f4e4654436f6e74726163743a205472616e7366657220746f20746865207a657260008201527f6f20616464726573730000000000000000000000000000000000000000000000602082015250565b6000613860602983612c13565b915061386b82613804565b604082019050919050565b6000602082019050818103600083015261388f81613853565b9050919050565b600781106138a357600080fd5b50565b6000815190506138b581613896565b92915050565b6000602082840312156138d1576138d061222b565b5b60006138df848285016138a6565b9150509291505056fea2646970667358221220379c4e5723484b46e47f80d59d99881a48074fef4f2bc71b162ea7e1187e075e64736f6c63430008130033",
  "immutableReferences": {},
  "source": "// SPDX-License-Identifier: MIT\r\npragma solidity ^0.8.7;\r\n\r\nimport \"./MasterAccessControl.sol\";\r\nimport \"./NFTAccessControl.sol\";\r\nimport \"./NFTMetadata.sol\";\r\n\r\n// Novel ERC standard incorporating collection ID\r\nabstract contract ERC721Collection {\r\n    event Transfer(address indexed from, address indexed to, uint256 indexed collectionId, uint256 tokenId);\r\n    event Approval(address indexed owner, address indexed approved, uint256 indexed collectionId, uint256 tokenId);\r\n    event ApprovalForAll(address indexed owner, address indexed operator, bool approved);\r\n\r\n    function balanceOf(address owner) public view virtual returns (uint256 balance);\r\n    function balanceOfCollection(address owner, uint256 collectionId) public view virtual returns (uint256 balance);\r\n    function ownerOf(uint256 collectionId, uint256 tokenId) public view virtual returns (address owner);\r\n    function safeTransferFrom(address from, address to, uint256 collectionId, uint256 tokenId, bytes memory data) public virtual;\r\n    function safeTransferFrom(address from, address to, uint256 collectionId, uint256 tokenId) public virtual;\r\n    function transferFrom(address from, address to, uint256 collectionId, uint256 tokenId) public virtual;\r\n    function approve(address to, uint256 collectionId, uint256 tokenId) public virtual;\r\n    function setApprovalForAll(address operator, bool _approved) public virtual;\r\n    function getApproved(uint256 collectionId, uint256 tokenId) public view virtual returns (address operator);\r\n    function isApprovedForAll(address owner, address operator) public view virtual returns (bool);\r\n}\r\n\r\ncontract NFTContract is ERC721Collection {\r\n    MasterAccessControl public masterAccessControl;\r\n    NFTAccessControl public nftAccessControl;\r\n    NFTMetadata public nftMetadata;\r\n\r\n    struct NFTInfo {\r\n        uint8 levelOfOwnership;\r\n        string name;\r\n        address creator;\r\n        uint256 creationDate;\r\n        address owner;\r\n    }\r\n\r\n    mapping(uint256 => mapping(uint256 => NFTInfo)) private nfts; // collectionId => tokenId => NFTInfo\r\n    mapping(uint256 => uint256) private collectionNFTCount; // collectionId => number of NFTs\r\n    mapping(address => uint256) private balances; // owner => total number of NFTs\r\n    mapping(address => mapping(uint256 => uint256)) private balanceCollection; // owner => collectionId => number of NFTs\r\n\r\n    mapping(uint256 => mapping(uint256 => address)) private tokenApprovals; // collectionId => tokenId => approved address\r\n    mapping(address => mapping(address => bool)) private operatorApprovals;\r\n\r\n    mapping(uint256 => uint256) private nextTokenId; // collectionId => nextTokenId\r\n\r\n    event NFTCreated(uint256 indexed collectionId, uint256 indexed tokenId, string name, address creator);\r\n    event NFTBurned(uint256 indexed collectionId, uint256 indexed tokenId);\r\n\r\n    constructor(address _masterAccessControlAddress, address _nftAccessControlAddress, address _nftMetadataAddress) {\r\n        masterAccessControl = MasterAccessControl(_masterAccessControlAddress);\r\n        nftAccessControl = NFTAccessControl(_nftAccessControlAddress);\r\n        nftMetadata = NFTMetadata(_nftMetadataAddress);\r\n        masterAccessControl.grantSelfAccess(msg.sender);\r\n    }\r\n\r\n    modifier onlyAuthorized() {\r\n        require(masterAccessControl.selfCheckAccess(msg.sender), \"NFTContract: Not authorized\");\r\n        _;\r\n    }\r\n\r\n    modifier onlyNFTOwner(uint256 _collectionId, uint256 _tokenId) {\r\n        require(nfts[_collectionId][_tokenId].owner == msg.sender, \"NFTContract: Not the NFT owner\");\r\n        _;\r\n    }\r\n\r\n    function createNFT(uint256 _collectionId, string memory _name, uint8 _levelOfOwnership) external returns (uint256) {\r\n        require(_levelOfOwnership > 0 && _levelOfOwnership <= 6, \"NFTContract: Invalid level of ownership\");\r\n\r\n        if (nextTokenId[_collectionId] == 0) {\r\n            nextTokenId[_collectionId] = 1;\r\n        }\r\n\r\n        uint256 tokenId = nextTokenId[_collectionId]++;\r\n        NFTInfo memory newNFT = NFTInfo({\r\n            levelOfOwnership: _levelOfOwnership,\r\n            name: _name,\r\n            creator: msg.sender,\r\n            creationDate: block.timestamp,\r\n            owner: msg.sender\r\n        });\r\n\r\n        nfts[_collectionId][tokenId] = newNFT;\r\n        collectionNFTCount[_collectionId]++;\r\n        balances[msg.sender]++;\r\n        balanceCollection[msg.sender][_collectionId]++;\r\n\r\n        nftAccessControl.grantAccess(_collectionId, tokenId, msg.sender, AccessLevel.AbsoluteOwnership);\r\n\r\n        emit NFTCreated(_collectionId, tokenId, _name, msg.sender);\r\n        emit Transfer(address(0), msg.sender, _collectionId, tokenId);\r\n\r\n        return tokenId;\r\n    }\r\n\r\n    function burnNFT(uint256 _collectionId, uint256 _tokenId) external onlyNFTOwner(_collectionId, _tokenId) {\r\n        address owner = nfts[_collectionId][_tokenId].owner;\r\n\r\n        delete nfts[_collectionId][_tokenId];\r\n        collectionNFTCount[_collectionId]--;\r\n        balances[owner]--;\r\n        balanceCollection[owner][_collectionId]--;\r\n\r\n\r\n        // check if metadata exists\r\n        if (nftMetadata.metadataExists(_collectionId, _tokenId)) {\r\n            nftMetadata.deleteMetadata(_collectionId, _tokenId);\r\n        }\r\n        // nftMetadata.deleteMetadata(_collectionId, _tokenId);\r\n        \r\n        nftAccessControl.revokeAccess(_collectionId, _tokenId, owner);\r\n\r\n        emit NFTBurned(_collectionId, _tokenId);\r\n        emit Transfer(owner, address(0), _collectionId, _tokenId);\r\n    }\r\n\r\n    function transferNFT(uint256 _collectionId, uint256 _tokenId, address _to) external {\r\n        safeTransferFrom(msg.sender, _to, _collectionId, _tokenId);\r\n    }\r\n\r\n    function getNFTInfo(uint256 _collectionId, uint256 _tokenId) external view returns (NFTInfo memory) {\r\n        return nfts[_collectionId][_tokenId];\r\n    }\r\n\r\n    function getCollectionNFTCount(uint256 _collectionId) external view returns (uint256) {\r\n        return collectionNFTCount[_collectionId];\r\n    }\r\n\r\n    function getCollectionNFTs(uint256 _collectionId) external view returns (uint256[] memory) {\r\n        uint256 count = collectionNFTCount[_collectionId];\r\n        uint256[] memory collectionNFTs = new uint256[](count);\r\n        uint256 index = 0;\r\n\r\n        for (uint256 i = 1; i < nextTokenId[_collectionId]; i++) {\r\n            if (nfts[_collectionId][i].owner != address(0)) {\r\n                collectionNFTs[index] = i;\r\n                index++;\r\n            }\r\n        }\r\n\r\n        return collectionNFTs;\r\n    }\r\n\r\n    function balanceOf(address owner) public view override returns (uint256) {\r\n        return balances[owner];\r\n    }\r\n\r\n    function balanceOfCollection(address owner, uint256 collectionId) public view override returns (uint256) {\r\n        return balanceCollection[owner][collectionId];\r\n    }\r\n\r\n    function ownerOf(uint256 collectionId, uint256 tokenId) public view override returns (address) {\r\n        address owner = nfts[collectionId][tokenId].owner;\r\n        require(owner != address(0), \"NFTContract: Invalid token ID\");\r\n        return owner;\r\n    }\r\n\r\n    function numberOfHolders(uint256 _collectionId) public view returns (uint256) {\r\n        uint256 count = 0;\r\n        address[] memory holders = new address[](nextTokenId[_collectionId]);\r\n\r\n        for (uint256 i = 1; i < nextTokenId[_collectionId]; i++) {\r\n            if (nfts[_collectionId][i].owner != address(0)) {\r\n                address holder = nfts[_collectionId][i].owner;\r\n                bool found = false;\r\n                for (uint256 j = 0; j < count; j++) {\r\n                    if (holders[j] == holder) {\r\n                        found = true;\r\n                        break;\r\n                    }\r\n                }\r\n                if (!found) {\r\n                    holders[count] = holder;\r\n                    count++;\r\n                }\r\n            }\r\n        }\r\n        return count;\r\n    }\r\n\r\n    function safeTransferFrom(address from, address to, uint256 collectionId, uint256 tokenId, bytes memory data) public override {\r\n        transferFrom(from, to, collectionId, tokenId);\r\n        require(_checkOnERC721Received(from, to, collectionId, tokenId, data), \"NFTContract: Transfer to non ERC721Receiver implementer\");\r\n    }\r\n\r\n    function safeTransferFrom(address from, address to, uint256 collectionId, uint256 tokenId) public override {\r\n        safeTransferFrom(from, to, collectionId, tokenId, \"\");\r\n    }\r\n\r\n    function transferFrom(address from, address to, uint256 collectionId, uint256 tokenId) public override {\r\n        require(_isApprovedOrOwner(msg.sender, collectionId, tokenId), \"NFTContract: Not approved or owner\");\r\n        _transfer(from, to, collectionId, tokenId);\r\n    }\r\n\r\n    function approve(address to, uint256 collectionId, uint256 tokenId) public override {\r\n        address owner = ownerOf(collectionId, tokenId);\r\n        require(to != owner, \"NFTContract: Approval to current owner\");\r\n        require(msg.sender == owner || isApprovedForAll(owner, msg.sender), \"NFTContract: Not owner or approved for all\");\r\n        \r\n        tokenApprovals[collectionId][tokenId] = to;\r\n        emit Approval(owner, to, collectionId, tokenId);\r\n    }\r\n\r\n    function setApprovalForAll(address operator, bool approved) public override {\r\n        require(operator != msg.sender, \"NFTContract: Approve to caller\");\r\n        operatorApprovals[msg.sender][operator] = approved;\r\n        emit ApprovalForAll(msg.sender, operator, approved);\r\n    }\r\n\r\n    function getApproved(uint256 collectionId, uint256 tokenId) public view override returns (address) {\r\n        require(_exists(collectionId, tokenId), \"NFTContract: Token does not exist\");\r\n        return tokenApprovals[collectionId][tokenId];\r\n    }\r\n\r\n    function isApprovedForAll(address owner, address operator) public view override returns (bool) {\r\n        return operatorApprovals[owner][operator];\r\n    }\r\n\r\n    function _exists(uint256 collectionId, uint256 tokenId) internal view returns (bool) {\r\n        return nfts[collectionId][tokenId].owner != address(0);\r\n    }\r\n\r\n    function _isApprovedOrOwner(address spender, uint256 collectionId, uint256 tokenId) internal view returns (bool) {\r\n        address owner = ownerOf(collectionId, tokenId);\r\n        return (spender == owner || getApproved(collectionId, tokenId) == spender || isApprovedForAll(owner, spender));\r\n    }\r\n\r\n    function _transfer(address from, address to, uint256 collectionId, uint256 tokenId) internal {\r\n        require(ownerOf(collectionId, tokenId) == from, \"NFTContract: Transfer from incorrect owner\");\r\n        require(to != address(0), \"NFTContract: Transfer to the zero address\");\r\n\r\n        // Clear approvals\r\n        approve(address(0), collectionId, tokenId);\r\n\r\n        balances[from]--;\r\n        balances[to]++;\r\n        balanceCollection[from][collectionId]--;\r\n        balanceCollection[to][collectionId]++;\r\n        nfts[collectionId][tokenId].owner = to;\r\n\r\n        emit Transfer(from, to, collectionId, tokenId);\r\n\r\n        // Update access control\r\n        AccessLevel currentAccessLevel = nftAccessControl.getAccessLevel(collectionId, tokenId, from);\r\n        nftAccessControl.revokeAccess(collectionId, tokenId, from);\r\n        nftAccessControl.grantAccess(collectionId, tokenId, to, currentAccessLevel);\r\n    }\r\n\r\n    function _checkOnERC721Received(address from, address to, uint256 collectionId, uint256 tokenId, bytes memory data) private returns (bool) {\r\n        if (to.code.length > 0) {\r\n            try IERC721Receiver(to).onERC721Received(msg.sender, from, collectionId, tokenId, data) returns (bytes4 retval) {\r\n                return retval == IERC721Receiver.onERC721Received.selector;\r\n            } catch (bytes memory reason) {\r\n                if (reason.length == 0) {\r\n                    revert(\"NFTContract: Transfer to non ERC721Receiver implementer\");\r\n                } else {\r\n                    assembly {\r\n                        revert(add(32, reason), mload(reason))\r\n                    }\r\n                }\r\n            }\r\n        } else {\r\n            return true;\r\n        }\r\n    }\r\n}\r\n\r\ninterface IERC721Receiver {\r\n    function onERC721Received(address operator, address from, uint256 collectionId, uint256 tokenId, bytes calldata data) external returns (bytes4);\r\n}",
  "sourcePath": "F:\\Projects\\03 Hackathon\\Tron Hackathon\\NeuraNFT_Tron\\smart_contracts\\truffle_compiled_contract\\contracts\\NFTContract.sol",
  "compiler": {
    "name": "solc",
    "version": "0.8.19+commit.7dd6d404.Emscripten.clang"
  },
  "schemaVersion": "3.4.16",
  "updatedAt": "2024-10-11T12:33:51.168Z",
  "networkType": "ethereum",
  "devdoc": {
    "kind": "dev",
    "methods": {},
    "version": 1
  },
  "userdoc": {
    "kind": "user",
    "methods": {},
    "version": 1
  }
}