{
  "contractName": "NFTMetadata",
  "abi": [
    {
      "inputs": [
        {
          "internalType": "address",
          "name": "_accessControlAddress",
          "type": "address"
        },
        {
          "internalType": "address",
          "name": "_nftAccessControlAddress",
          "type": "address"
        }
      ],
      "stateMutability": "nonpayable",
      "type": "constructor"
    },
    {
      "anonymous": false,
      "inputs": [
        {
          "indexed": true,
          "internalType": "uint256",
          "name": "collectionId",
          "type": "uint256"
        },
        {
          "indexed": true,
          "internalType": "uint256",
          "name": "nftId",
          "type": "uint256"
        },
        {
          "components": [
            {
              "internalType": "string",
              "name": "image",
              "type": "string"
            },
            {
              "internalType": "string",
              "name": "baseModel",
              "type": "string"
            },
            {
              "internalType": "string",
              "name": "data",
              "type": "string"
            },
            {
              "internalType": "string",
              "name": "rag",
              "type": "string"
            },
            {
              "internalType": "string",
              "name": "fineTuneData",
              "type": "string"
            },
            {
              "internalType": "string",
              "name": "description",
              "type": "string"
            }
          ],
          "indexed": false,
          "internalType": "struct NFTMetadata.Metadata",
          "name": "metadata",
          "type": "tuple"
        }
      ],
      "name": "MetadataCreated",
      "type": "event"
    },
    {
      "anonymous": false,
      "inputs": [
        {
          "indexed": true,
          "internalType": "uint256",
          "name": "collectionId",
          "type": "uint256"
        },
        {
          "indexed": true,
          "internalType": "uint256",
          "name": "nftId",
          "type": "uint256"
        }
      ],
      "name": "MetadataDeleted",
      "type": "event"
    },
    {
      "anonymous": false,
      "inputs": [
        {
          "indexed": true,
          "internalType": "uint256",
          "name": "collectionId",
          "type": "uint256"
        },
        {
          "indexed": true,
          "internalType": "uint256",
          "name": "nftId",
          "type": "uint256"
        },
        {
          "components": [
            {
              "internalType": "string",
              "name": "image",
              "type": "string"
            },
            {
              "internalType": "string",
              "name": "baseModel",
              "type": "string"
            },
            {
              "internalType": "string",
              "name": "data",
              "type": "string"
            },
            {
              "internalType": "string",
              "name": "rag",
              "type": "string"
            },
            {
              "internalType": "string",
              "name": "fineTuneData",
              "type": "string"
            },
            {
              "internalType": "string",
              "name": "description",
              "type": "string"
            }
          ],
          "indexed": false,
          "internalType": "struct NFTMetadata.Metadata",
          "name": "metadata",
          "type": "tuple"
        }
      ],
      "name": "MetadataUpdated",
      "type": "event"
    },
    {
      "anonymous": false,
      "inputs": [
        {
          "indexed": true,
          "internalType": "uint256",
          "name": "collectionId",
          "type": "uint256"
        },
        {
          "indexed": true,
          "internalType": "uint256",
          "name": "nftId",
          "type": "uint256"
        },
        {
          "components": [
            {
              "internalType": "uint256",
              "name": "replicaCollectionId",
              "type": "uint256"
            },
            {
              "internalType": "uint256",
              "name": "replicaNFTId",
              "type": "uint256"
            }
          ],
          "indexed": false,
          "internalType": "struct NFTMetadata.Replica",
          "name": "replica",
          "type": "tuple"
        }
      ],
      "name": "ReplicaCreated",
      "type": "event"
    },
    {
      "inputs": [],
      "name": "accessControl",
      "outputs": [
        {
          "internalType": "contract MasterAccessControl",
          "name": "",
          "type": "address"
        }
      ],
      "stateMutability": "view",
      "type": "function",
      "constant": true
    },
    {
      "inputs": [],
      "name": "nftAccessControl",
      "outputs": [
        {
          "internalType": "contract NFTAccessControl",
          "name": "",
          "type": "address"
        }
      ],
      "stateMutability": "view",
      "type": "function",
      "constant": true
    },
    {
      "inputs": [
        {
          "internalType": "uint256",
          "name": "_collectionId",
          "type": "uint256"
        },
        {
          "internalType": "uint256",
          "name": "_nftId",
          "type": "uint256"
        },
        {
          "components": [
            {
              "internalType": "string",
              "name": "image",
              "type": "string"
            },
            {
              "internalType": "string",
              "name": "baseModel",
              "type": "string"
            },
            {
              "internalType": "string",
              "name": "data",
              "type": "string"
            },
            {
              "internalType": "string",
              "name": "rag",
              "type": "string"
            },
            {
              "internalType": "string",
              "name": "fineTuneData",
              "type": "string"
            },
            {
              "internalType": "string",
              "name": "description",
              "type": "string"
            }
          ],
          "internalType": "struct NFTMetadata.Metadata",
          "name": "_metadata",
          "type": "tuple"
        }
      ],
      "name": "createMetadata",
      "outputs": [],
      "stateMutability": "nonpayable",
      "type": "function"
    },
    {
      "inputs": [
        {
          "internalType": "uint256",
          "name": "_collectionId",
          "type": "uint256"
        },
        {
          "internalType": "uint256",
          "name": "_nftId",
          "type": "uint256"
        },
        {
          "internalType": "uint256",
          "name": "_replicaCollectionId",
          "type": "uint256"
        },
        {
          "internalType": "uint256",
          "name": "_replicaNFTId",
          "type": "uint256"
        }
      ],
      "name": "replicateNFT",
      "outputs": [],
      "stateMutability": "nonpayable",
      "type": "function"
    },
    {
      "inputs": [
        {
          "internalType": "uint256",
          "name": "_collectionId",
          "type": "uint256"
        },
        {
          "internalType": "uint256",
          "name": "_nftId",
          "type": "uint256"
        },
        {
          "components": [
            {
              "internalType": "string",
              "name": "image",
              "type": "string"
            },
            {
              "internalType": "string",
              "name": "baseModel",
              "type": "string"
            },
            {
              "internalType": "string",
              "name": "data",
              "type": "string"
            },
            {
              "internalType": "string",
              "name": "rag",
              "type": "string"
            },
            {
              "internalType": "string",
              "name": "fineTuneData",
              "type": "string"
            },
            {
              "internalType": "string",
              "name": "description",
              "type": "string"
            }
          ],
          "internalType": "struct NFTMetadata.Metadata",
          "name": "_metadata",
          "type": "tuple"
        }
      ],
      "name": "updateMetadata",
      "outputs": [],
      "stateMutability": "nonpayable",
      "type": "function"
    },
    {
      "inputs": [
        {
          "internalType": "uint256",
          "name": "_collectionId",
          "type": "uint256"
        },
        {
          "internalType": "uint256",
          "name": "_nftId",
          "type": "uint256"
        }
      ],
      "name": "deleteMetadata",
      "outputs": [],
      "stateMutability": "nonpayable",
      "type": "function"
    },
    {
      "inputs": [
        {
          "internalType": "uint256",
          "name": "_collectionId",
          "type": "uint256"
        },
        {
          "internalType": "uint256",
          "name": "_nftId",
          "type": "uint256"
        }
      ],
      "name": "getMetadata",
      "outputs": [
        {
          "components": [
            {
              "internalType": "string",
              "name": "image",
              "type": "string"
            },
            {
              "internalType": "string",
              "name": "baseModel",
              "type": "string"
            },
            {
              "internalType": "string",
              "name": "data",
              "type": "string"
            },
            {
              "internalType": "string",
              "name": "rag",
              "type": "string"
            },
            {
              "internalType": "string",
              "name": "fineTuneData",
              "type": "string"
            },
            {
              "internalType": "string",
              "name": "description",
              "type": "string"
            }
          ],
          "internalType": "struct NFTMetadata.Metadata",
          "name": "",
          "type": "tuple"
        }
      ],
      "stateMutability": "view",
      "type": "function",
      "constant": true
    },
    {
      "inputs": [
        {
          "internalType": "uint256",
          "name": "_collectionId",
          "type": "uint256"
        },
        {
          "internalType": "uint256",
          "name": "_nftId",
          "type": "uint256"
        }
      ],
      "name": "metadataExists",
      "outputs": [
        {
          "internalType": "bool",
          "name": "",
          "type": "bool"
        }
      ],
      "stateMutability": "view",
      "type": "function",
      "constant": true
    }
  ],
  "bytecode": "0x60806040523480156200001157600080fd5b5060405162001e9538038062001e958339818101604052810190620000379190620001b9565b816000806101000a81548173ffffffffffffffffffffffffffffffffffffffff021916908373ffffffffffffffffffffffffffffffffffffffff16021790555080600160006101000a81548173ffffffffffffffffffffffffffffffffffffffff021916908373ffffffffffffffffffffffffffffffffffffffff16021790555060008054906101000a900473ffffffffffffffffffffffffffffffffffffffff1673ffffffffffffffffffffffffffffffffffffffff1663a2aadc54336040518263ffffffff1660e01b815260040162000113919062000211565b600060405180830381600087803b1580156200012e57600080fd5b505af115801562000143573d6000803e3d6000fd5b5050505050506200022e565b600080fd5b600073ffffffffffffffffffffffffffffffffffffffff82169050919050565b6000620001818262000154565b9050919050565b620001938162000174565b81146200019f57600080fd5b50565b600081519050620001b38162000188565b92915050565b60008060408385031215620001d357620001d26200014f565b5b6000620001e385828601620001a2565b9250506020620001f685828601620001a2565b9150509250929050565b6200020b8162000174565b82525050565b600060208201905062000228600083018462000200565b92915050565b611c57806200023e6000396000f3fe608060405234801561001057600080fd5b50600436106100885760003560e01c80637536278f1161005b5780637536278f14610113578063ccb9902714610143578063d4fee4151461015f578063db9d777b1461017b57610088565b806313007d551461008d57806359585754146100ab57806361ab9e60146100c75780637477efa4146100e3575b600080fd5b610095610199565b6040516100a2919061117e565b60405180910390f35b6100c560048036038101906100c091906111e3565b6101bd565b005b6100e160048036038101906100dc91906114bb565b610398565b005b6100fd60048036038101906100f891906111e3565b6105a4565b60405161010a9190611655565b60405180910390f35b61012d600480360381019061012891906111e3565b610998565b60405161013a9190611692565b60405180910390f35b61015d600480360381019061015891906116ad565b6109ac565b005b610179600480360381019061017491906114bb565b610f1c565b005b610183611006565b6040516101909190611735565b60405180910390f35b60008054906101000a900473ffffffffffffffffffffffffffffffffffffffff1681565b60008054906101000a900473ffffffffffffffffffffffffffffffffffffffff1673ffffffffffffffffffffffffffffffffffffffff1663c6310de3336040518263ffffffff1660e01b81526004016102169190611771565b602060405180830381865afa158015610233573d6000803e3d6000fd5b505050506040513d601f19601f8201168201806040525081019061025791906117b8565b610296576040517f08c379a000000000000000000000000000000000000000000000000000000000815260040161028d90611842565b60405180910390fd5b6102a0828261102c565b6102df576040517f08c379a00000000000000000000000000000000000000000000000000000000081526004016102d6906118d4565b60405180910390fd5b60026000838152602001908152602001600020600082815260200190815260200160002060008082016000610314919061106c565b600182016000610324919061106c565b600282016000610334919061106c565b600382016000610344919061106c565b600482016000610354919061106c565b600582016000610364919061106c565b505080827f03bc490bb78e04caa417a0c6b35ba462d8233a8e018a487d3c85504e55d6941c60405160405180910390a35050565b60008054906101000a900473ffffffffffffffffffffffffffffffffffffffff1673ffffffffffffffffffffffffffffffffffffffff1663c6310de3336040518263ffffffff1660e01b81526004016103f19190611771565b602060405180830381865afa15801561040e573d6000803e3d6000fd5b505050506040513d601f19601f8201168201806040525081019061043291906117b8565b610471576040517f08c379a000000000000000000000000000000000000000000000000000000000815260040161046890611842565b60405180910390fd5b61047b838361102c565b6104ba576040517f08c379a00000000000000000000000000000000000000000000000000000000081526004016104b1906118d4565b60405180910390fd5b8060026000858152602001908152602001600020600084815260200190815260200160002060008201518160000190816104f49190611af6565b50602082015181600101908161050a9190611af6565b5060408201518160020190816105209190611af6565b5060608201518160030190816105369190611af6565b50608082015181600401908161054c9190611af6565b5060a08201518160050190816105629190611af6565b5090505081837f5c8fd35de2e0598f91dcb7b08c6cfd56153f6239a9a0bc5ba963d3f016dc1ef0836040516105979190611655565b60405180910390a3505050565b6105ac6110ac565b6105b6838361102c565b6105f5576040517f08c379a00000000000000000000000000000000000000000000000000000000081526004016105ec906118d4565b60405180910390fd5b6002600084815260200190815260200160002060008381526020019081526020016000206040518060c001604052908160008201805461063490611923565b80601f016020809104026020016040519081016040528092919081815260200182805461066090611923565b80156106ad5780601f10610682576101008083540402835291602001916106ad565b820191906000526020600020905b81548152906001019060200180831161069057829003601f168201915b505050505081526020016001820180546106c690611923565b80601f01602080910402602001604051908101604052809291908181526020018280546106f290611923565b801561073f5780601f106107145761010080835404028352916020019161073f565b820191906000526020600020905b81548152906001019060200180831161072257829003601f168201915b5050505050815260200160028201805461075890611923565b80601f016020809104026020016040519081016040528092919081815260200182805461078490611923565b80156107d15780601f106107a6576101008083540402835291602001916107d1565b820191906000526020600020905b8154815290600101906020018083116107b457829003601f168201915b505050505081526020016003820180546107ea90611923565b80601f016020809104026020016040519081016040528092919081815260200182805461081690611923565b80156108635780601f1061083857610100808354040283529160200191610863565b820191906000526020600020905b81548152906001019060200180831161084657829003601f168201915b5050505050815260200160048201805461087c90611923565b80601f01602080910402602001604051908101604052809291908181526020018280546108a890611923565b80156108f55780601f106108ca576101008083540402835291602001916108f5565b820191906000526020600020905b8154815290600101906020018083116108d857829003601f168201915b5050505050815260200160058201805461090e90611923565b80601f016020809104026020016040519081016040528092919081815260200182805461093a90611923565b80156109875780601f1061095c57610100808354040283529160200191610987565b820191906000526020600020905b81548152906001019060200180831161096a57829003601f168201915b505050505081525050905092915050565b60006109a4838361102c565b905092915050565b60008054906101000a900473ffffffffffffffffffffffffffffffffffffffff1673ffffffffffffffffffffffffffffffffffffffff1663c6310de3336040518263ffffffff1660e01b8152600401610a059190611771565b602060405180830381865afa158015610a22573d6000803e3d6000fd5b505050506040513d601f19601f82011682018060405250810190610a4691906117b8565b610a85576040517f08c379a0000000000000000000000000000000000000000000000000000000008152600401610a7c90611842565b60405180910390fd5b610a8f848461102c565b610ace576040517f08c379a0000000000000000000000000000000000000000000000000000000008152600401610ac5906118d4565b60405180910390fd5b604051806040016040528083815260200182815250600360008681526020019081526020016000206000858152602001908152602001600020600082015181600001556020820151816001015590505060006002600084815260200190815260200160002060008381526020019081526020016000206040518060c0016040529081600082018054610b5f90611923565b80601f0160208091040260200160405190810160405280929190818152602001828054610b8b90611923565b8015610bd85780601f10610bad57610100808354040283529160200191610bd8565b820191906000526020600020905b815481529060010190602001808311610bbb57829003601f168201915b50505050508152602001600182018054610bf190611923565b80601f0160208091040260200160405190810160405280929190818152602001828054610c1d90611923565b8015610c6a5780601f10610c3f57610100808354040283529160200191610c6a565b820191906000526020600020905b815481529060010190602001808311610c4d57829003601f168201915b50505050508152602001600282018054610c8390611923565b80601f0160208091040260200160405190810160405280929190818152602001828054610caf90611923565b8015610cfc5780601f10610cd157610100808354040283529160200191610cfc565b820191906000526020600020905b815481529060010190602001808311610cdf57829003601f168201915b50505050508152602001600382018054610d1590611923565b80601f0160208091040260200160405190810160405280929190818152602001828054610d4190611923565b8015610d8e5780601f10610d6357610100808354040283529160200191610d8e565b820191906000526020600020905b815481529060010190602001808311610d7157829003601f168201915b50505050508152602001600482018054610da790611923565b80601f0160208091040260200160405190810160405280929190818152602001828054610dd390611923565b8015610e205780601f10610df557610100808354040283529160200191610e20565b820191906000526020600020905b815481529060010190602001808311610e0357829003601f168201915b50505050508152602001600582018054610e3990611923565b80601f0160208091040260200160405190810160405280929190818152602001828054610e6590611923565b8015610eb25780601f10610e8757610100808354040283529160200191610eb2565b820191906000526020600020905b815481529060010190602001808311610e9557829003601f168201915b5050505050815250509050610ec8858383610f1c565b83857f5dde2dde5bddd24d6808b98f5421e48ae6bd316d5fb072cc479d7f2e2ad75c3e604051806040016040528087815260200186815250604051610f0d9190611c06565b60405180910390a35050505050565b806002600085815260200190815260200160002060008481526020019081526020016000206000820151816000019081610f569190611af6565b506020820151816001019081610f6c9190611af6565b506040820151816002019081610f829190611af6565b506060820151816003019081610f989190611af6565b506080820151816004019081610fae9190611af6565b5060a0820151816005019081610fc49190611af6565b5090505081837f03f37875a30d73ff3ec38e4597342ebf44d54b2097441e1e23ca00a68a9ff69283604051610ff99190611655565b60405180910390a3505050565b600160009054906101000a900473ffffffffffffffffffffffffffffffffffffffff1681565b600080600260008581526020019081526020016000206000848152602001908152602001600020600001805461106190611923565b905011905092915050565b50805461107890611923565b6000825580601f1061108a57506110a9565b601f0160209004906000526020600020908101906110a891906110e2565b5b50565b6040518060c001604052806060815260200160608152602001606081526020016060815260200160608152602001606081525090565b5b808211156110fb5760008160009055506001016110e3565b5090565b600073ffffffffffffffffffffffffffffffffffffffff82169050919050565b6000819050919050565b600061114461113f61113a846110ff565b61111f565b6110ff565b9050919050565b600061115682611129565b9050919050565b60006111688261114b565b9050919050565b6111788161115d565b82525050565b6000602082019050611193600083018461116f565b92915050565b6000604051905090565b600080fd5b600080fd5b6000819050919050565b6111c0816111ad565b81146111cb57600080fd5b50565b6000813590506111dd816111b7565b92915050565b600080604083850312156111fa576111f96111a3565b5b6000611208858286016111ce565b9250506020611219858286016111ce565b9150509250929050565b600080fd5b6000601f19601f8301169050919050565b7f4e487b7100000000000000000000000000000000000000000000000000000000600052604160045260246000fd5b61127182611228565b810181811067ffffffffffffffff821117156112905761128f611239565b5b80604052505050565b60006112a3611199565b90506112af8282611268565b919050565b600080fd5b600080fd5b600080fd5b600067ffffffffffffffff8211156112de576112dd611239565b5b6112e782611228565b9050602081019050919050565b82818337600083830152505050565b6000611316611311846112c3565b611299565b905082815260208101848484011115611332576113316112be565b5b61133d8482856112f4565b509392505050565b600082601f83011261135a576113596112b9565b5b813561136a848260208601611303565b91505092915050565b600060c0828403121561138957611388611223565b5b61139360c0611299565b9050600082013567ffffffffffffffff8111156113b3576113b26112b4565b5b6113bf84828501611345565b600083015250602082013567ffffffffffffffff8111156113e3576113e26112b4565b5b6113ef84828501611345565b602083015250604082013567ffffffffffffffff811115611413576114126112b4565b5b61141f84828501611345565b604083015250606082013567ffffffffffffffff811115611443576114426112b4565b5b61144f84828501611345565b606083015250608082013567ffffffffffffffff811115611473576114726112b4565b5b61147f84828501611345565b60808301525060a082013567ffffffffffffffff8111156114a3576114a26112b4565b5b6114af84828501611345565b60a08301525092915050565b6000806000606084860312156114d4576114d36111a3565b5b60006114e2868287016111ce565b93505060206114f3868287016111ce565b925050604084013567ffffffffffffffff811115611514576115136111a8565b5b61152086828701611373565b9150509250925092565b600081519050919050565b600082825260208201905092915050565b60005b83811015611564578082015181840152602081019050611549565b60008484015250505050565b600061157b8261152a565b6115858185611535565b9350611595818560208601611546565b61159e81611228565b840191505092915050565b600060c08301600083015184820360008601526115c68282611570565b915050602083015184820360208601526115e08282611570565b915050604083015184820360408601526115fa8282611570565b915050606083015184820360608601526116148282611570565b9150506080830151848203608086015261162e8282611570565b91505060a083015184820360a08601526116488282611570565b9150508091505092915050565b6000602082019050818103600083015261166f81846115a9565b905092915050565b60008115159050919050565b61168c81611677565b82525050565b60006020820190506116a76000830184611683565b92915050565b600080600080608085870312156116c7576116c66111a3565b5b60006116d5878288016111ce565b94505060206116e6878288016111ce565b93505060406116f7878288016111ce565b9250506060611708878288016111ce565b91505092959194509250565b600061171f8261114b565b9050919050565b61172f81611714565b82525050565b600060208201905061174a6000830184611726565b92915050565b600061175b826110ff565b9050919050565b61176b81611750565b82525050565b60006020820190506117866000830184611762565b92915050565b61179581611677565b81146117a057600080fd5b50565b6000815190506117b28161178c565b92915050565b6000602082840312156117ce576117cd6111a3565b5b60006117dc848285016117a3565b91505092915050565b600082825260208201905092915050565b7f4e46544d657461646174613a204e6f7420617574686f72697a65640000000000600082015250565b600061182c601b836117e5565b9150611837826117f6565b602082019050919050565b6000602082019050818103600083015261185b8161181f565b9050919050565b7f4e46544d657461646174613a204d6574616461746120646f6573206e6f74206560008201527f7869737400000000000000000000000000000000000000000000000000000000602082015250565b60006118be6024836117e5565b91506118c982611862565b604082019050919050565b600060208201905081810360008301526118ed816118b1565b9050919050565b7f4e487b7100000000000000000000000000000000000000000000000000000000600052602260045260246000fd5b6000600282049050600182168061193b57607f821691505b60208210810361194e5761194d6118f4565b5b50919050565b60008190508160005260206000209050919050565b60006020601f8301049050919050565b600082821b905092915050565b6000600883026119b67fffffffffffffffffffffffffffffffffffffffffffffffffffffffffffffffff82611979565b6119c08683611979565b95508019841693508086168417925050509392505050565b60006119f36119ee6119e9846111ad565b61111f565b6111ad565b9050919050565b6000819050919050565b611a0d836119d8565b611a21611a19826119fa565b848454611986565b825550505050565b600090565b611a36611a29565b611a41818484611a04565b505050565b5b81811015611a6557611a5a600082611a2e565b600181019050611a47565b5050565b601f821115611aaa57611a7b81611954565b611a8484611969565b81016020851015611a93578190505b611aa7611a9f85611969565b830182611a46565b50505b505050565b600082821c905092915050565b6000611acd60001984600802611aaf565b1980831691505092915050565b6000611ae68383611abc565b9150826002028217905092915050565b611aff8261152a565b67ffffffffffffffff811115611b1857611b17611239565b5b611b228254611923565b611b2d828285611a69565b600060209050601f831160018114611b605760008415611b4e578287015190505b611b588582611ada565b865550611bc0565b601f198416611b6e86611954565b60005b82811015611b9657848901518255600182019150602085019450602081019050611b71565b86831015611bb35784890151611baf601f891682611abc565b8355505b6001600288020188555050505b505050505050565b611bd1816111ad565b82525050565b604082016000820151611bed6000850182611bc8565b506020820151611c006020850182611bc8565b50505050565b6000604082019050611c1b6000830184611bd7565b9291505056fea264697066735822122012be4d56d9890c4ce07eaeffea55c47dfe00e20e8676f7bec7497e3ffab2e8ba64736f6c63430008130033",
  "immutableReferences": {},
  "source": "// SPDX-License-Identifier: MIT\r\npragma solidity ^0.8.7;\r\n\r\nimport \"./MasterAccessControl.sol\";\r\nimport \"./NFTAccessControl.sol\";\r\n\r\n\r\ncontract NFTMetadata {\r\n    // Reference to Master Access Control\r\n    MasterAccessControl public accessControl;\r\n    NFTAccessControl public nftAccessControl;\r\n\r\n    // Metadata structure\r\n    struct Metadata {\r\n        string image;         // BTFS URL of the image\r\n        string baseModel;     // Base model identifier\r\n        string data;          // BTFS URL of data\r\n        string rag;           // BTFS URL of RAG\r\n        string fineTuneData;  // BTFS URL of fine-tune data\r\n        string description;   // Text description\r\n    }\r\n\r\n\r\n    struct Replica {\r\n        uint256 replicaCollectionId;\r\n        uint256 replicaNFTId;\r\n    }\r\n\r\n    // Mappings\r\n    mapping(uint256 => mapping(uint256 => Metadata)) private metadataMap; // collectionId => NFTId => Metadata\r\n    mapping(uint256 => mapping(uint256 => Replica)) private replicaMap; // collectionId => NFTId => replicaId => (replicaCollectionId, replicaNFTId)\r\n\r\n    // Events\r\n    event MetadataCreated(uint256 indexed collectionId, uint256 indexed nftId, Metadata metadata);\r\n    event MetadataUpdated(uint256 indexed collectionId, uint256 indexed nftId, Metadata metadata);\r\n    event MetadataDeleted(uint256 indexed collectionId, uint256 indexed nftId);\r\n    event ReplicaCreated(uint256 indexed collectionId, uint256 indexed nftId, Replica replica);\r\n\r\n    // Constructor\r\n    constructor(address _accessControlAddress, address _nftAccessControlAddress) {\r\n        accessControl = MasterAccessControl(_accessControlAddress);\r\n        nftAccessControl = NFTAccessControl(_nftAccessControlAddress);\r\n        accessControl.grantSelfAccess(msg.sender);\r\n    }\r\n\r\n    // Modifier to check access\r\n    modifier onlyAuthorized() {\r\n\r\n        require(accessControl.selfCheckAccess(msg.sender), \"NFTMetadata: Not authorized\");\r\n        _;\r\n    }\r\n\r\n\r\n    // None                  - No access\r\n    // 1 - UseModel          - Can use the model\r\n    // 2 - Resale            - Can resell the NFT without replicating and data and model view\r\n    // 3 - CreateReplica     - Can create a replica of the NFT but not data view\r\n    // 4 - ViewAndDownload   - Can view and download the data and model but no absolute ownership\r\n    // 5 - AbsoluteOwnership - Can view, download, create replica, resale, and use model\r\n\r\n    modifier onlyAuthorizedEditData(uint256 _collectionId, uint256 _nftId) {\r\n\r\n        AccessLevel requiredAccess = AccessLevel.EditData;\r\n\r\n        bool isAuthorized = nftAccessControl.checkMinimumAccess(_collectionId, _nftId, msg.sender ,requiredAccess);\r\n        bool isOwner =  accessControl.selfCheckAccess(msg.sender);\r\n\r\n        require(isAuthorized || isOwner, \"NFTMetadata: Not authorized\");\r\n        _;\r\n    }\r\n\r\n\r\n    // Create new metadata\r\n    function createMetadata(uint256 _collectionId, uint256 _nftId, Metadata memory _metadata) public  {\r\n        metadataMap[_collectionId][_nftId] = _metadata;\r\n        emit MetadataCreated(_collectionId, _nftId, _metadata);\r\n    }\r\n\r\n    function replicateNFT(uint256 _collectionId, uint256 _nftId, uint256 _replicaCollectionId, uint256 _replicaNFTId) external onlyAuthorized {\r\n        \r\n        require(_metadataExists(_collectionId, _nftId), \"NFTMetadata: Metadata does not exist\");\r\n\r\n        replicaMap[_collectionId][_nftId] = Replica(_replicaCollectionId, _replicaNFTId);\r\n        Metadata memory _metadata = metadataMap[_replicaCollectionId][_replicaNFTId];\r\n\r\n        createMetadata(_collectionId, _replicaNFTId, _metadata);\r\n\r\n        emit ReplicaCreated(_collectionId, _nftId, Replica(_replicaCollectionId, _replicaNFTId));\r\n            \r\n    }\r\n\r\n\r\n\r\n\r\n    // Update existing metadata\r\n    function updateMetadata(uint256 _collectionId, uint256 _nftId, Metadata memory _metadata) external onlyAuthorized {\r\n        require(_metadataExists(_collectionId, _nftId), \"NFTMetadata: Metadata does not exist\");\r\n        metadataMap[_collectionId][_nftId] = _metadata;\r\n        emit MetadataUpdated(_collectionId, _nftId, _metadata);\r\n    }\r\n\r\n    // Delete metadata\r\n    function deleteMetadata(uint256 _collectionId, uint256 _nftId) external onlyAuthorized {\r\n        require(_metadataExists(_collectionId, _nftId), \"NFTMetadata: Metadata does not exist\");\r\n        delete metadataMap[_collectionId][_nftId];\r\n        emit MetadataDeleted(_collectionId, _nftId);\r\n    }\r\n\r\n    // Get metadata\r\n    function getMetadata(uint256 _collectionId, uint256 _nftId) external view returns (Metadata memory) {\r\n        require(_metadataExists(_collectionId, _nftId), \"NFTMetadata: Metadata does not exist\");\r\n        return metadataMap[_collectionId][_nftId];\r\n    }\r\n\r\n    //external function to check if metadata exists\r\n    function metadataExists(uint256 _collectionId, uint256 _nftId) external view returns (bool) {\r\n        return _metadataExists(_collectionId, _nftId);\r\n    }\r\n\r\n    // Internal function to check if metadata exists\r\n    function _metadataExists(uint256 _collectionId, uint256 _nftId) internal view returns (bool) {\r\n        return bytes(metadataMap[_collectionId][_nftId].image).length > 0;\r\n    }\r\n}\r\n\r\n",
  "sourcePath": "F:\\Projects\\03 Hackathon\\NeuraNFT Hackathons\\Base hackathon\\NeuraNFT_Base\\smart_contracts\\truffle_compiled_contract\\contracts\\NFTMetadata.sol",
  "compiler": {
    "name": "solc",
    "version": "0.8.19+commit.7dd6d404.Emscripten.clang"
  },
  "schemaVersion": "3.4.16",
  "updatedAt": "2024-10-22T22:48:04.201Z",
  "networkType": "ethereum",
  "devdoc": {
    "kind": "dev",
    "methods": {},
    "version": 1
  },
  "userdoc": {
    "kind": "user",
    "methods": {},
    "version": 1
  }
}