{
  "contractName": "NFTMetadata",
  "abi": [
    {
      "inputs": [
        {
          "internalType": "address",
          "name": "_accessControlAddress",
          "type": "address"
        },
        {
          "internalType": "address",
          "name": "_nftAccessControlAddress",
          "type": "address"
        }
      ],
      "stateMutability": "nonpayable",
      "type": "constructor"
    },
    {
      "anonymous": false,
      "inputs": [
        {
          "indexed": true,
          "internalType": "uint256",
          "name": "collectionId",
          "type": "uint256"
        },
        {
          "indexed": true,
          "internalType": "uint256",
          "name": "nftId",
          "type": "uint256"
        },
        {
          "components": [
            {
              "internalType": "string",
              "name": "image",
              "type": "string"
            },
            {
              "internalType": "string",
              "name": "baseModel",
              "type": "string"
            },
            {
              "internalType": "string",
              "name": "data",
              "type": "string"
            },
            {
              "internalType": "string",
              "name": "rag",
              "type": "string"
            },
            {
              "internalType": "string",
              "name": "fineTuneData",
              "type": "string"
            },
            {
              "internalType": "string",
              "name": "description",
              "type": "string"
            }
          ],
          "indexed": false,
          "internalType": "struct NFTMetadata.Metadata",
          "name": "metadata",
          "type": "tuple"
        }
      ],
      "name": "MetadataCreated",
      "type": "event"
    },
    {
      "anonymous": false,
      "inputs": [
        {
          "indexed": true,
          "internalType": "uint256",
          "name": "collectionId",
          "type": "uint256"
        },
        {
          "indexed": true,
          "internalType": "uint256",
          "name": "nftId",
          "type": "uint256"
        }
      ],
      "name": "MetadataDeleted",
      "type": "event"
    },
    {
      "anonymous": false,
      "inputs": [
        {
          "indexed": true,
          "internalType": "uint256",
          "name": "collectionId",
          "type": "uint256"
        },
        {
          "indexed": true,
          "internalType": "uint256",
          "name": "nftId",
          "type": "uint256"
        },
        {
          "components": [
            {
              "internalType": "string",
              "name": "image",
              "type": "string"
            },
            {
              "internalType": "string",
              "name": "baseModel",
              "type": "string"
            },
            {
              "internalType": "string",
              "name": "data",
              "type": "string"
            },
            {
              "internalType": "string",
              "name": "rag",
              "type": "string"
            },
            {
              "internalType": "string",
              "name": "fineTuneData",
              "type": "string"
            },
            {
              "internalType": "string",
              "name": "description",
              "type": "string"
            }
          ],
          "indexed": false,
          "internalType": "struct NFTMetadata.Metadata",
          "name": "metadata",
          "type": "tuple"
        }
      ],
      "name": "MetadataUpdated",
      "type": "event"
    },
    {
      "anonymous": false,
      "inputs": [
        {
          "indexed": true,
          "internalType": "uint256",
          "name": "collectionId",
          "type": "uint256"
        },
        {
          "indexed": true,
          "internalType": "uint256",
          "name": "nftId",
          "type": "uint256"
        },
        {
          "components": [
            {
              "internalType": "uint256",
              "name": "replicaCollectionId",
              "type": "uint256"
            },
            {
              "internalType": "uint256",
              "name": "replicaNFTId",
              "type": "uint256"
            }
          ],
          "indexed": false,
          "internalType": "struct NFTMetadata.Replica",
          "name": "replica",
          "type": "tuple"
        }
      ],
      "name": "ReplicaCreated",
      "type": "event"
    },
    {
      "inputs": [],
      "name": "accessControl",
      "outputs": [
        {
          "internalType": "contract MasterAccessControl",
          "name": "",
          "type": "address"
        }
      ],
      "stateMutability": "view",
      "type": "function",
      "constant": true
    },
    {
      "inputs": [],
      "name": "nftAccessControl",
      "outputs": [
        {
          "internalType": "contract NFTAccessControl",
          "name": "",
          "type": "address"
        }
      ],
      "stateMutability": "view",
      "type": "function",
      "constant": true
    },
    {
      "inputs": [
        {
          "internalType": "uint256",
          "name": "_collectionId",
          "type": "uint256"
        },
        {
          "internalType": "uint256",
          "name": "_nftId",
          "type": "uint256"
        },
        {
          "components": [
            {
              "internalType": "string",
              "name": "image",
              "type": "string"
            },
            {
              "internalType": "string",
              "name": "baseModel",
              "type": "string"
            },
            {
              "internalType": "string",
              "name": "data",
              "type": "string"
            },
            {
              "internalType": "string",
              "name": "rag",
              "type": "string"
            },
            {
              "internalType": "string",
              "name": "fineTuneData",
              "type": "string"
            },
            {
              "internalType": "string",
              "name": "description",
              "type": "string"
            }
          ],
          "internalType": "struct NFTMetadata.Metadata",
          "name": "_metadata",
          "type": "tuple"
        }
      ],
      "name": "createMetadata",
      "outputs": [],
      "stateMutability": "nonpayable",
      "type": "function"
    },
    {
      "inputs": [
        {
          "internalType": "uint256",
          "name": "_collectionId",
          "type": "uint256"
        },
        {
          "internalType": "uint256",
          "name": "_nftId",
          "type": "uint256"
        },
        {
          "internalType": "uint256",
          "name": "_replicaCollectionId",
          "type": "uint256"
        },
        {
          "internalType": "uint256",
          "name": "_replicaNFTId",
          "type": "uint256"
        }
      ],
      "name": "replicateNFT",
      "outputs": [],
      "stateMutability": "nonpayable",
      "type": "function"
    },
    {
      "inputs": [
        {
          "internalType": "uint256",
          "name": "_collectionId",
          "type": "uint256"
        },
        {
          "internalType": "uint256",
          "name": "_nftId",
          "type": "uint256"
        },
        {
          "components": [
            {
              "internalType": "string",
              "name": "image",
              "type": "string"
            },
            {
              "internalType": "string",
              "name": "baseModel",
              "type": "string"
            },
            {
              "internalType": "string",
              "name": "data",
              "type": "string"
            },
            {
              "internalType": "string",
              "name": "rag",
              "type": "string"
            },
            {
              "internalType": "string",
              "name": "fineTuneData",
              "type": "string"
            },
            {
              "internalType": "string",
              "name": "description",
              "type": "string"
            }
          ],
          "internalType": "struct NFTMetadata.Metadata",
          "name": "_metadata",
          "type": "tuple"
        }
      ],
      "name": "updateMetadata",
      "outputs": [],
      "stateMutability": "nonpayable",
      "type": "function"
    },
    {
      "inputs": [
        {
          "internalType": "uint256",
          "name": "_collectionId",
          "type": "uint256"
        },
        {
          "internalType": "uint256",
          "name": "_nftId",
          "type": "uint256"
        }
      ],
      "name": "deleteMetadata",
      "outputs": [],
      "stateMutability": "nonpayable",
      "type": "function"
    },
    {
      "inputs": [
        {
          "internalType": "uint256",
          "name": "_collectionId",
          "type": "uint256"
        },
        {
          "internalType": "uint256",
          "name": "_nftId",
          "type": "uint256"
        }
      ],
      "name": "getMetadata",
      "outputs": [
        {
          "components": [
            {
              "internalType": "string",
              "name": "image",
              "type": "string"
            },
            {
              "internalType": "string",
              "name": "baseModel",
              "type": "string"
            },
            {
              "internalType": "string",
              "name": "data",
              "type": "string"
            },
            {
              "internalType": "string",
              "name": "rag",
              "type": "string"
            },
            {
              "internalType": "string",
              "name": "fineTuneData",
              "type": "string"
            },
            {
              "internalType": "string",
              "name": "description",
              "type": "string"
            }
          ],
          "internalType": "struct NFTMetadata.Metadata",
          "name": "",
          "type": "tuple"
        }
      ],
      "stateMutability": "view",
      "type": "function",
      "constant": true
    }
  ],
  "bytecode": "0x60806040523480156200001157600080fd5b5060405162001ef538038062001ef58339818101604052810190620000379190620001b9565b816000806101000a81548173ffffffffffffffffffffffffffffffffffffffff021916908373ffffffffffffffffffffffffffffffffffffffff16021790555080600160006101000a81548173ffffffffffffffffffffffffffffffffffffffff021916908373ffffffffffffffffffffffffffffffffffffffff16021790555060008054906101000a900473ffffffffffffffffffffffffffffffffffffffff1673ffffffffffffffffffffffffffffffffffffffff1663a2aadc54336040518263ffffffff1660e01b815260040162000113919062000211565b600060405180830381600087803b1580156200012e57600080fd5b505af115801562000143573d6000803e3d6000fd5b5050505050506200022e565b600080fd5b600073ffffffffffffffffffffffffffffffffffffffff82169050919050565b6000620001818262000154565b9050919050565b620001938162000174565b81146200019f57600080fd5b50565b600081519050620001b38162000188565b92915050565b60008060408385031215620001d357620001d26200014f565b5b6000620001e385828601620001a2565b9250506020620001f685828601620001a2565b9150509250929050565b6200020b8162000174565b82525050565b600060208201905062000228600083018462000200565b92915050565b611cb7806200023e6000396000f3fe608060405234801561001057600080fd5b506004361061007d5760003560e01c80637477efa41161005b5780637477efa4146100d8578063ccb9902714610108578063d4fee41514610124578063db9d777b146101405761007d565b806313007d551461008257806359585754146100a057806361ab9e60146100bc575b600080fd5b61008a61015e565b6040516100979190611208565b60405180910390f35b6100ba60048036038101906100b5919061126d565b610182565b005b6100d660048036038101906100d19190611545565b61035d565b005b6100f260048036038101906100ed919061126d565b610569565b6040516100ff91906116df565b60405180910390f35b610122600480360381019061011d9190611701565b61095d565b005b61013e60048036038101906101399190611545565b610ecd565b005b610148611090565b6040516101559190611789565b60405180910390f35b60008054906101000a900473ffffffffffffffffffffffffffffffffffffffff1681565b60008054906101000a900473ffffffffffffffffffffffffffffffffffffffff1673ffffffffffffffffffffffffffffffffffffffff1663c6310de3336040518263ffffffff1660e01b81526004016101db91906117c5565b602060405180830381865afa1580156101f8573d6000803e3d6000fd5b505050506040513d601f19601f8201168201806040525081019061021c9190611818565b61025b576040517f08c379a0000000000000000000000000000000000000000000000000000000008152600401610252906118a2565b60405180910390fd5b61026582826110b6565b6102a4576040517f08c379a000000000000000000000000000000000000000000000000000000000815260040161029b90611934565b60405180910390fd5b600260008381526020019081526020016000206000828152602001908152602001600020600080820160006102d991906110f6565b6001820160006102e991906110f6565b6002820160006102f991906110f6565b60038201600061030991906110f6565b60048201600061031991906110f6565b60058201600061032991906110f6565b505080827f03bc490bb78e04caa417a0c6b35ba462d8233a8e018a487d3c85504e55d6941c60405160405180910390a35050565b60008054906101000a900473ffffffffffffffffffffffffffffffffffffffff1673ffffffffffffffffffffffffffffffffffffffff1663c6310de3336040518263ffffffff1660e01b81526004016103b691906117c5565b602060405180830381865afa1580156103d3573d6000803e3d6000fd5b505050506040513d601f19601f820116820180604052508101906103f79190611818565b610436576040517f08c379a000000000000000000000000000000000000000000000000000000000815260040161042d906118a2565b60405180910390fd5b61044083836110b6565b61047f576040517f08c379a000000000000000000000000000000000000000000000000000000000815260040161047690611934565b60405180910390fd5b8060026000858152602001908152602001600020600084815260200190815260200160002060008201518160000190816104b99190611b56565b5060208201518160010190816104cf9190611b56565b5060408201518160020190816104e59190611b56565b5060608201518160030190816104fb9190611b56565b5060808201518160040190816105119190611b56565b5060a08201518160050190816105279190611b56565b5090505081837f5c8fd35de2e0598f91dcb7b08c6cfd56153f6239a9a0bc5ba963d3f016dc1ef08360405161055c91906116df565b60405180910390a3505050565b610571611136565b61057b83836110b6565b6105ba576040517f08c379a00000000000000000000000000000000000000000000000000000000081526004016105b190611934565b60405180910390fd5b6002600084815260200190815260200160002060008381526020019081526020016000206040518060c00160405290816000820180546105f990611983565b80601f016020809104026020016040519081016040528092919081815260200182805461062590611983565b80156106725780601f1061064757610100808354040283529160200191610672565b820191906000526020600020905b81548152906001019060200180831161065557829003601f168201915b5050505050815260200160018201805461068b90611983565b80601f01602080910402602001604051908101604052809291908181526020018280546106b790611983565b80156107045780601f106106d957610100808354040283529160200191610704565b820191906000526020600020905b8154815290600101906020018083116106e757829003601f168201915b5050505050815260200160028201805461071d90611983565b80601f016020809104026020016040519081016040528092919081815260200182805461074990611983565b80156107965780601f1061076b57610100808354040283529160200191610796565b820191906000526020600020905b81548152906001019060200180831161077957829003601f168201915b505050505081526020016003820180546107af90611983565b80601f01602080910402602001604051908101604052809291908181526020018280546107db90611983565b80156108285780601f106107fd57610100808354040283529160200191610828565b820191906000526020600020905b81548152906001019060200180831161080b57829003601f168201915b5050505050815260200160048201805461084190611983565b80601f016020809104026020016040519081016040528092919081815260200182805461086d90611983565b80156108ba5780601f1061088f576101008083540402835291602001916108ba565b820191906000526020600020905b81548152906001019060200180831161089d57829003601f168201915b505050505081526020016005820180546108d390611983565b80601f01602080910402602001604051908101604052809291908181526020018280546108ff90611983565b801561094c5780601f106109215761010080835404028352916020019161094c565b820191906000526020600020905b81548152906001019060200180831161092f57829003601f168201915b505050505081525050905092915050565b60008054906101000a900473ffffffffffffffffffffffffffffffffffffffff1673ffffffffffffffffffffffffffffffffffffffff1663c6310de3336040518263ffffffff1660e01b81526004016109b691906117c5565b602060405180830381865afa1580156109d3573d6000803e3d6000fd5b505050506040513d601f19601f820116820180604052508101906109f79190611818565b610a36576040517f08c379a0000000000000000000000000000000000000000000000000000000008152600401610a2d906118a2565b60405180910390fd5b610a4084846110b6565b610a7f576040517f08c379a0000000000000000000000000000000000000000000000000000000008152600401610a7690611934565b60405180910390fd5b604051806040016040528083815260200182815250600360008681526020019081526020016000206000858152602001908152602001600020600082015181600001556020820151816001015590505060006002600084815260200190815260200160002060008381526020019081526020016000206040518060c0016040529081600082018054610b1090611983565b80601f0160208091040260200160405190810160405280929190818152602001828054610b3c90611983565b8015610b895780601f10610b5e57610100808354040283529160200191610b89565b820191906000526020600020905b815481529060010190602001808311610b6c57829003601f168201915b50505050508152602001600182018054610ba290611983565b80601f0160208091040260200160405190810160405280929190818152602001828054610bce90611983565b8015610c1b5780601f10610bf057610100808354040283529160200191610c1b565b820191906000526020600020905b815481529060010190602001808311610bfe57829003601f168201915b50505050508152602001600282018054610c3490611983565b80601f0160208091040260200160405190810160405280929190818152602001828054610c6090611983565b8015610cad5780601f10610c8257610100808354040283529160200191610cad565b820191906000526020600020905b815481529060010190602001808311610c9057829003601f168201915b50505050508152602001600382018054610cc690611983565b80601f0160208091040260200160405190810160405280929190818152602001828054610cf290611983565b8015610d3f5780601f10610d1457610100808354040283529160200191610d3f565b820191906000526020600020905b815481529060010190602001808311610d2257829003601f168201915b50505050508152602001600482018054610d5890611983565b80601f0160208091040260200160405190810160405280929190818152602001828054610d8490611983565b8015610dd15780601f10610da657610100808354040283529160200191610dd1565b820191906000526020600020905b815481529060010190602001808311610db457829003601f168201915b50505050508152602001600582018054610dea90611983565b80601f0160208091040260200160405190810160405280929190818152602001828054610e1690611983565b8015610e635780601f10610e3857610100808354040283529160200191610e63565b820191906000526020600020905b815481529060010190602001808311610e4657829003601f168201915b5050505050815250509050610e79858383610ecd565b83857f5dde2dde5bddd24d6808b98f5421e48ae6bd316d5fb072cc479d7f2e2ad75c3e604051806040016040528087815260200186815250604051610ebe9190611c66565b60405180910390a35050505050565b60008054906101000a900473ffffffffffffffffffffffffffffffffffffffff1673ffffffffffffffffffffffffffffffffffffffff1663c6310de3336040518263ffffffff1660e01b8152600401610f2691906117c5565b602060405180830381865afa158015610f43573d6000803e3d6000fd5b505050506040513d601f19601f82011682018060405250810190610f679190611818565b610fa6576040517f08c379a0000000000000000000000000000000000000000000000000000000008152600401610f9d906118a2565b60405180910390fd5b806002600085815260200190815260200160002060008481526020019081526020016000206000820151816000019081610fe09190611b56565b506020820151816001019081610ff69190611b56565b50604082015181600201908161100c9190611b56565b5060608201518160030190816110229190611b56565b5060808201518160040190816110389190611b56565b5060a082015181600501908161104e9190611b56565b5090505081837f03f37875a30d73ff3ec38e4597342ebf44d54b2097441e1e23ca00a68a9ff6928360405161108391906116df565b60405180910390a3505050565b600160009054906101000a900473ffffffffffffffffffffffffffffffffffffffff1681565b60008060026000858152602001908152602001600020600084815260200190815260200160002060000180546110eb90611983565b905011905092915050565b50805461110290611983565b6000825580601f106111145750611133565b601f016020900490600052602060002090810190611132919061116c565b5b50565b6040518060c001604052806060815260200160608152602001606081526020016060815260200160608152602001606081525090565b5b8082111561118557600081600090555060010161116d565b5090565b600073ffffffffffffffffffffffffffffffffffffffff82169050919050565b6000819050919050565b60006111ce6111c96111c484611189565b6111a9565b611189565b9050919050565b60006111e0826111b3565b9050919050565b60006111f2826111d5565b9050919050565b611202816111e7565b82525050565b600060208201905061121d60008301846111f9565b92915050565b6000604051905090565b600080fd5b600080fd5b6000819050919050565b61124a81611237565b811461125557600080fd5b50565b60008135905061126781611241565b92915050565b600080604083850312156112845761128361122d565b5b600061129285828601611258565b92505060206112a385828601611258565b9150509250929050565b600080fd5b6000601f19601f8301169050919050565b7f4e487b7100000000000000000000000000000000000000000000000000000000600052604160045260246000fd5b6112fb826112b2565b810181811067ffffffffffffffff8211171561131a576113196112c3565b5b80604052505050565b600061132d611223565b905061133982826112f2565b919050565b600080fd5b600080fd5b600080fd5b600067ffffffffffffffff821115611368576113676112c3565b5b611371826112b2565b9050602081019050919050565b82818337600083830152505050565b60006113a061139b8461134d565b611323565b9050828152602081018484840111156113bc576113bb611348565b5b6113c784828561137e565b509392505050565b600082601f8301126113e4576113e3611343565b5b81356113f484826020860161138d565b91505092915050565b600060c08284031215611413576114126112ad565b5b61141d60c0611323565b9050600082013567ffffffffffffffff81111561143d5761143c61133e565b5b611449848285016113cf565b600083015250602082013567ffffffffffffffff81111561146d5761146c61133e565b5b611479848285016113cf565b602083015250604082013567ffffffffffffffff81111561149d5761149c61133e565b5b6114a9848285016113cf565b604083015250606082013567ffffffffffffffff8111156114cd576114cc61133e565b5b6114d9848285016113cf565b606083015250608082013567ffffffffffffffff8111156114fd576114fc61133e565b5b611509848285016113cf565b60808301525060a082013567ffffffffffffffff81111561152d5761152c61133e565b5b611539848285016113cf565b60a08301525092915050565b60008060006060848603121561155e5761155d61122d565b5b600061156c86828701611258565b935050602061157d86828701611258565b925050604084013567ffffffffffffffff81111561159e5761159d611232565b5b6115aa868287016113fd565b9150509250925092565b600081519050919050565b600082825260208201905092915050565b60005b838110156115ee5780820151818401526020810190506115d3565b60008484015250505050565b6000611605826115b4565b61160f81856115bf565b935061161f8185602086016115d0565b611628816112b2565b840191505092915050565b600060c083016000830151848203600086015261165082826115fa565b9150506020830151848203602086015261166a82826115fa565b9150506040830151848203604086015261168482826115fa565b9150506060830151848203606086015261169e82826115fa565b915050608083015184820360808601526116b882826115fa565b91505060a083015184820360a08601526116d282826115fa565b9150508091505092915050565b600060208201905081810360008301526116f98184611633565b905092915050565b6000806000806080858703121561171b5761171a61122d565b5b600061172987828801611258565b945050602061173a87828801611258565b935050604061174b87828801611258565b925050606061175c87828801611258565b91505092959194509250565b6000611773826111d5565b9050919050565b61178381611768565b82525050565b600060208201905061179e600083018461177a565b92915050565b60006117af82611189565b9050919050565b6117bf816117a4565b82525050565b60006020820190506117da60008301846117b6565b92915050565b60008115159050919050565b6117f5816117e0565b811461180057600080fd5b50565b600081519050611812816117ec565b92915050565b60006020828403121561182e5761182d61122d565b5b600061183c84828501611803565b91505092915050565b600082825260208201905092915050565b7f4e46544d657461646174613a204e6f7420617574686f72697a65640000000000600082015250565b600061188c601b83611845565b915061189782611856565b602082019050919050565b600060208201905081810360008301526118bb8161187f565b9050919050565b7f4e46544d657461646174613a204d6574616461746120646f6573206e6f74206560008201527f7869737400000000000000000000000000000000000000000000000000000000602082015250565b600061191e602483611845565b9150611929826118c2565b604082019050919050565b6000602082019050818103600083015261194d81611911565b9050919050565b7f4e487b7100000000000000000000000000000000000000000000000000000000600052602260045260246000fd5b6000600282049050600182168061199b57607f821691505b6020821081036119ae576119ad611954565b5b50919050565b60008190508160005260206000209050919050565b60006020601f8301049050919050565b600082821b905092915050565b600060088302611a167fffffffffffffffffffffffffffffffffffffffffffffffffffffffffffffffff826119d9565b611a2086836119d9565b95508019841693508086168417925050509392505050565b6000611a53611a4e611a4984611237565b6111a9565b611237565b9050919050565b6000819050919050565b611a6d83611a38565b611a81611a7982611a5a565b8484546119e6565b825550505050565b600090565b611a96611a89565b611aa1818484611a64565b505050565b5b81811015611ac557611aba600082611a8e565b600181019050611aa7565b5050565b601f821115611b0a57611adb816119b4565b611ae4846119c9565b81016020851015611af3578190505b611b07611aff856119c9565b830182611aa6565b50505b505050565b600082821c905092915050565b6000611b2d60001984600802611b0f565b1980831691505092915050565b6000611b468383611b1c565b9150826002028217905092915050565b611b5f826115b4565b67ffffffffffffffff811115611b7857611b776112c3565b5b611b828254611983565b611b8d828285611ac9565b600060209050601f831160018114611bc05760008415611bae578287015190505b611bb88582611b3a565b865550611c20565b601f198416611bce866119b4565b60005b82811015611bf657848901518255600182019150602085019450602081019050611bd1565b86831015611c135784890151611c0f601f891682611b1c565b8355505b6001600288020188555050505b505050505050565b611c3181611237565b82525050565b604082016000820151611c4d6000850182611c28565b506020820151611c606020850182611c28565b50505050565b6000604082019050611c7b6000830184611c37565b9291505056fea2646970667358221220efaef8eca0d752a2e85af668c92b4aaaf93948e416f17e994f6b87e5acfefe1f64736f6c63430008130033",
  "immutableReferences": {},
  "source": "// SPDX-License-Identifier: MIT\npragma solidity ^0.8.7;\n\nimport \"./MasterAccessControl.sol\";\nimport \"./NFTAccessControl.sol\";\n\n\ncontract NFTMetadata {\n    // Reference to Master Access Control\n    MasterAccessControl public accessControl;\n    NFTAccessControl public nftAccessControl;\n\n    // Metadata structure\n    struct Metadata {\n        string image;         // BTFS URL of the image\n        string baseModel;     // Base model identifier\n        string data;          // BTFS URL of data\n        string rag;           // BTFS URL of RAG\n        string fineTuneData;  // BTFS URL of fine-tune data\n        string description;   // Text description\n    }\n\n\n    struct Replica {\n        uint256 replicaCollectionId;\n        uint256 replicaNFTId;\n    }\n\n    // Mappings\n    mapping(uint256 => mapping(uint256 => Metadata)) private metadataMap; // collectionId => NFTId => Metadata\n    mapping(uint256 => mapping(uint256 => Replica)) private replicaMap; // collectionId => NFTId => replicaId => (replicaCollectionId, replicaNFTId)\n\n    // Events\n    event MetadataCreated(uint256 indexed collectionId, uint256 indexed nftId, Metadata metadata);\n    event MetadataUpdated(uint256 indexed collectionId, uint256 indexed nftId, Metadata metadata);\n    event MetadataDeleted(uint256 indexed collectionId, uint256 indexed nftId);\n    event ReplicaCreated(uint256 indexed collectionId, uint256 indexed nftId, Replica replica);\n\n    // Constructor\n    constructor(address _accessControlAddress, address _nftAccessControlAddress) {\n        accessControl = MasterAccessControl(_accessControlAddress);\n        nftAccessControl = NFTAccessControl(_nftAccessControlAddress);\n        accessControl.grantSelfAccess(msg.sender);\n    }\n\n    // Modifier to check access\n    modifier onlyAuthorized() {\n\n        require(accessControl.selfCheckAccess(msg.sender), \"NFTMetadata: Not authorized\");\n        _;\n    }\n\n\n    // None                  - No access\n    // 1 - UseModel          - Can use the model\n    // 2 - Resale            - Can resell the NFT without replicating and data and model view\n    // 3 - CreateReplica     - Can create a replica of the NFT but not data view\n    // 4 - ViewAndDownload   - Can view and download the data and model but no absolute ownership\n    // 5 - AbsoluteOwnership - Can view, download, create replica, resale, and use model\n\n    modifier onlyAuthorizedEditData(uint256 _collectionId, uint256 _nftId) {\n\n        AccessLevel requiredAccess = AccessLevel.EditData;\n\n        bool isAuthorized = nftAccessControl.checkMinimumAccess(_collectionId, _nftId, msg.sender ,requiredAccess);\n        bool isOwner =  accessControl.selfCheckAccess(msg.sender);\n\n        require(isAuthorized || isOwner, \"NFTMetadata: Not authorized\");\n        _;\n    }\n\n\n    // Create new metadata\n    function createMetadata(uint256 _collectionId, uint256 _nftId, Metadata memory _metadata) public onlyAuthorized {\n        metadataMap[_collectionId][_nftId] = _metadata;\n        emit MetadataCreated(_collectionId, _nftId, _metadata);\n    }\n\n    function replicateNFT(uint256 _collectionId, uint256 _nftId, uint256 _replicaCollectionId, uint256 _replicaNFTId) external onlyAuthorized {\n        \n        require(_metadataExists(_collectionId, _nftId), \"NFTMetadata: Metadata does not exist\");\n\n        replicaMap[_collectionId][_nftId] = Replica(_replicaCollectionId, _replicaNFTId);\n        Metadata memory _metadata = metadataMap[_replicaCollectionId][_replicaNFTId];\n\n        createMetadata(_collectionId, _replicaNFTId, _metadata);\n\n        emit ReplicaCreated(_collectionId, _nftId, Replica(_replicaCollectionId, _replicaNFTId));\n            \n    }\n\n\n\n\n    // Update existing metadata\n    function updateMetadata(uint256 _collectionId, uint256 _nftId, Metadata memory _metadata) external onlyAuthorized {\n        require(_metadataExists(_collectionId, _nftId), \"NFTMetadata: Metadata does not exist\");\n        metadataMap[_collectionId][_nftId] = _metadata;\n        emit MetadataUpdated(_collectionId, _nftId, _metadata);\n    }\n\n    // Delete metadata\n    function deleteMetadata(uint256 _collectionId, uint256 _nftId) external onlyAuthorized {\n        require(_metadataExists(_collectionId, _nftId), \"NFTMetadata: Metadata does not exist\");\n        delete metadataMap[_collectionId][_nftId];\n        emit MetadataDeleted(_collectionId, _nftId);\n    }\n\n    // Get metadata\n    function getMetadata(uint256 _collectionId, uint256 _nftId) external view returns (Metadata memory) {\n        require(_metadataExists(_collectionId, _nftId), \"NFTMetadata: Metadata does not exist\");\n        return metadataMap[_collectionId][_nftId];\n    }\n\n    // Internal function to check if metadata exists\n    function _metadataExists(uint256 _collectionId, uint256 _nftId) internal view returns (bool) {\n        return bytes(metadataMap[_collectionId][_nftId].image).length > 0;\n    }\n}\n\n",
  "sourcePath": "F:\\Projects\\03 Hackathon\\Tron Hackathon\\NeuraNFT_Tron\\smart_contracts\\truffle_compiled_contract\\contracts\\NFTMetadata.sol",
  "compiler": {
    "name": "solc",
    "version": "0.8.19+commit.7dd6d404.Emscripten.clang"
  },
  "schemaVersion": "3.4.16",
  "updatedAt": "2024-10-07T12:42:49.247Z",
  "networkType": "ethereum",
  "devdoc": {
    "kind": "dev",
    "methods": {},
    "version": 1
  },
  "userdoc": {
    "kind": "user",
    "methods": {},
    "version": 1
  }
}