{
  "contractName": "CollectionContract",
  "abi": [
    {
      "inputs": [
        {
          "internalType": "address",
          "name": "_masterAccessControlAddress",
          "type": "address"
        },
        {
          "internalType": "address",
          "name": "_nftContractAddress",
          "type": "address"
        }
      ],
      "stateMutability": "nonpayable",
      "type": "constructor"
    },
    {
      "anonymous": false,
      "inputs": [
        {
          "indexed": true,
          "internalType": "uint256",
          "name": "collectionId",
          "type": "uint256"
        },
        {
          "indexed": true,
          "internalType": "address",
          "name": "creator",
          "type": "address"
        },
        {
          "indexed": false,
          "internalType": "string",
          "name": "baseModel",
          "type": "string"
        }
      ],
      "name": "CollectionCreated",
      "type": "event"
    },
    {
      "anonymous": false,
      "inputs": [
        {
          "indexed": true,
          "internalType": "uint256",
          "name": "collectionId",
          "type": "uint256"
        },
        {
          "indexed": true,
          "internalType": "address",
          "name": "previousOwner",
          "type": "address"
        },
        {
          "indexed": true,
          "internalType": "address",
          "name": "newOwner",
          "type": "address"
        }
      ],
      "name": "CollectionTransferred",
      "type": "event"
    },
    {
      "anonymous": false,
      "inputs": [
        {
          "indexed": true,
          "internalType": "uint256",
          "name": "collectionId",
          "type": "uint256"
        },
        {
          "indexed": true,
          "internalType": "address",
          "name": "updater",
          "type": "address"
        }
      ],
      "name": "CollectionUpdated",
      "type": "event"
    },
    {
      "inputs": [],
      "name": "masterAccessControl",
      "outputs": [
        {
          "internalType": "contract MasterAccessControl",
          "name": "",
          "type": "address"
        }
      ],
      "stateMutability": "view",
      "type": "function",
      "constant": true
    },
    {
      "inputs": [],
      "name": "nftContract",
      "outputs": [
        {
          "internalType": "contract NFTContract",
          "name": "",
          "type": "address"
        }
      ],
      "stateMutability": "view",
      "type": "function",
      "constant": true
    },
    {
      "inputs": [
        {
          "internalType": "string",
          "name": "_name",
          "type": "string"
        },
        {
          "internalType": "uint256",
          "name": "_contextWindow",
          "type": "uint256"
        },
        {
          "internalType": "string",
          "name": "_baseModel",
          "type": "string"
        },
        {
          "internalType": "string",
          "name": "_image",
          "type": "string"
        },
        {
          "internalType": "string",
          "name": "_description",
          "type": "string"
        }
      ],
      "name": "createCollection",
      "outputs": [
        {
          "internalType": "uint256",
          "name": "",
          "type": "uint256"
        }
      ],
      "stateMutability": "nonpayable",
      "type": "function"
    },
    {
      "inputs": [
        {
          "internalType": "uint256",
          "name": "_collectionId",
          "type": "uint256"
        },
        {
          "internalType": "string",
          "name": "_name",
          "type": "string"
        },
        {
          "internalType": "uint256",
          "name": "_contextWindow",
          "type": "uint256"
        },
        {
          "internalType": "string",
          "name": "_baseModel",
          "type": "string"
        },
        {
          "internalType": "string",
          "name": "_image",
          "type": "string"
        },
        {
          "internalType": "string",
          "name": "_description",
          "type": "string"
        }
      ],
      "name": "updateCollection",
      "outputs": [],
      "stateMutability": "nonpayable",
      "type": "function"
    },
    {
      "inputs": [
        {
          "internalType": "uint256",
          "name": "_collectionId",
          "type": "uint256"
        },
        {
          "internalType": "address",
          "name": "_newOwner",
          "type": "address"
        }
      ],
      "name": "transferCollection",
      "outputs": [],
      "stateMutability": "nonpayable",
      "type": "function"
    },
    {
      "inputs": [
        {
          "internalType": "uint256",
          "name": "_collectionId",
          "type": "uint256"
        }
      ],
      "name": "getCollectionMetadata",
      "outputs": [
        {
          "components": [
            {
              "internalType": "string",
              "name": "name",
              "type": "string"
            },
            {
              "internalType": "uint256",
              "name": "contextWindow",
              "type": "uint256"
            },
            {
              "internalType": "string",
              "name": "baseModel",
              "type": "string"
            },
            {
              "internalType": "string",
              "name": "image",
              "type": "string"
            },
            {
              "internalType": "string",
              "name": "description",
              "type": "string"
            },
            {
              "internalType": "address",
              "name": "creator",
              "type": "address"
            },
            {
              "internalType": "uint256",
              "name": "dateCreated",
              "type": "uint256"
            },
            {
              "internalType": "address",
              "name": "owner",
              "type": "address"
            }
          ],
          "internalType": "struct CollectionContract.CollectionMetadata",
          "name": "",
          "type": "tuple"
        }
      ],
      "stateMutability": "view",
      "type": "function",
      "constant": true
    },
    {
      "inputs": [
        {
          "internalType": "uint256",
          "name": "_collectionId",
          "type": "uint256"
        }
      ],
      "name": "getCollectionOwner",
      "outputs": [
        {
          "internalType": "address",
          "name": "",
          "type": "address"
        }
      ],
      "stateMutability": "view",
      "type": "function",
      "constant": true
    },
    {
      "inputs": [],
      "name": "getTotalCollections",
      "outputs": [
        {
          "internalType": "uint256",
          "name": "",
          "type": "uint256"
        }
      ],
      "stateMutability": "view",
      "type": "function",
      "constant": true
    },
    {
      "inputs": [],
      "name": "getAllCollections",
      "outputs": [
        {
          "components": [
            {
              "internalType": "string",
              "name": "name",
              "type": "string"
            },
            {
              "internalType": "uint256",
              "name": "contextWindow",
              "type": "uint256"
            },
            {
              "internalType": "string",
              "name": "baseModel",
              "type": "string"
            },
            {
              "internalType": "string",
              "name": "image",
              "type": "string"
            },
            {
              "internalType": "string",
              "name": "description",
              "type": "string"
            },
            {
              "internalType": "address",
              "name": "creator",
              "type": "address"
            },
            {
              "internalType": "uint256",
              "name": "dateCreated",
              "type": "uint256"
            },
            {
              "internalType": "address",
              "name": "owner",
              "type": "address"
            }
          ],
          "internalType": "struct CollectionContract.CollectionMetadata[]",
          "name": "",
          "type": "tuple[]"
        }
      ],
      "stateMutability": "view",
      "type": "function",
      "constant": true
    },
    {
      "inputs": [
        {
          "internalType": "uint256",
          "name": "_collectionId",
          "type": "uint256"
        }
      ],
      "name": "getCollectionNFTCount",
      "outputs": [
        {
          "internalType": "uint256",
          "name": "",
          "type": "uint256"
        }
      ],
      "stateMutability": "view",
      "type": "function",
      "constant": true
    },
    {
      "inputs": [
        {
          "internalType": "uint256",
          "name": "_collectionId",
          "type": "uint256"
        }
      ],
      "name": "getCollectionUniqueHolders",
      "outputs": [
        {
          "internalType": "uint256",
          "name": "",
          "type": "uint256"
        }
      ],
      "stateMutability": "view",
      "type": "function",
      "constant": true
    }
  ],
  "bytecode": "0x60806040523480156200001157600080fd5b50604051620023d7380380620023d78339818101604052810190620000379190620001b9565b816000806101000a81548173ffffffffffffffffffffffffffffffffffffffff021916908373ffffffffffffffffffffffffffffffffffffffff16021790555080600160006101000a81548173ffffffffffffffffffffffffffffffffffffffff021916908373ffffffffffffffffffffffffffffffffffffffff16021790555060008054906101000a900473ffffffffffffffffffffffffffffffffffffffff1673ffffffffffffffffffffffffffffffffffffffff1663a2aadc54336040518263ffffffff1660e01b815260040162000113919062000211565b600060405180830381600087803b1580156200012e57600080fd5b505af115801562000143573d6000803e3d6000fd5b5050505050506200022e565b600080fd5b600073ffffffffffffffffffffffffffffffffffffffff82169050919050565b6000620001818262000154565b9050919050565b620001938162000174565b81146200019f57600080fd5b50565b600081519050620001b38162000188565b92915050565b60008060408385031215620001d357620001d26200014f565b5b6000620001e385828601620001a2565b9250506020620001f685828601620001a2565b9150509250929050565b6200020b8162000174565b82525050565b600060208201905062000228600083018462000200565b92915050565b612199806200023e6000396000f3fe608060405234801561001057600080fd5b50600436106100a95760003560e01c8063939bf6dd11610071578063939bf6dd146101785780639ef8dd6714610196578063cf013874146101b4578063d56d229d146101e4578063da4bd50514610202578063feb4cbb91461021e576100a9565b8063394120c0146100ae57806343ca4047146100de5780636804a958146100fa5780638c627b16146101185780638dacc9f914610148575b600080fd5b6100c860048036038101906100c39190611321565b61024e565b6040516100d5919061138f565b60405180910390f35b6100f860048036038101906100f391906114f0565b6102db565b005b610102610433565b60405161010f9190611811565b60405180910390f35b610132600480360381019061012d9190611321565b61080b565b60405161013f9190611842565b60405180910390f35b610162600480360381019061015d919061185d565b610900565b60405161016f9190611842565b60405180910390f35b610180610b45565b60405161018d9190611842565b60405180910390f35b61019e610b4f565b6040516101ab91906119a7565b60405180910390f35b6101ce60048036038101906101c99190611321565b610b73565b6040516101db9190611a87565b60405180910390f35b6101ec610efa565b6040516101f99190611aca565b60405180910390f35b61021c60048036038101906102179190611b11565b610f20565b005b61023860048036038101906102339190611321565b611171565b6040516102459190611842565b60405180910390f35b6000808211801561026157506004548211155b6102a0576040517f08c379a000000000000000000000000000000000000000000000000000000000815260040161029790611bd4565b60405180910390fd5b6003600083815260200190815260200160002060009054906101000a900473ffffffffffffffffffffffffffffffffffffffff169050919050565b853373ffffffffffffffffffffffffffffffffffffffff166003600083815260200190815260200160002060009054906101000a900473ffffffffffffffffffffffffffffffffffffffff1673ffffffffffffffffffffffffffffffffffffffff161461037d576040517f08c379a000000000000000000000000000000000000000000000000000000000815260040161037490611c66565b60405180910390fd5b6000600260008981526020019081526020016000209050868160000190816103a59190611e88565b50858160010181905550848160020190816103c09190611e88565b50838160030190816103d29190611e88565b50828160040190816103e49190611e88565b503373ffffffffffffffffffffffffffffffffffffffff16887fdc3665dfa360896ba80f3f0a287f3fab1df037f080190fd39f5b39281b5cef3360405160405180910390a35050505050505050565b6060600060045467ffffffffffffffff811115610453576104526113c5565b5b60405190808252806020026020018201604052801561048c57816020015b610479611266565b8152602001906001900390816104715790505b5090506000600190505b60045481116108035760026000828152602001908152602001600020604051806101000160405290816000820180546104ce90611cb5565b80601f01602080910402602001604051908101604052809291908181526020018280546104fa90611cb5565b80156105475780601f1061051c57610100808354040283529160200191610547565b820191906000526020600020905b81548152906001019060200180831161052a57829003601f168201915b505050505081526020016001820154815260200160028201805461056a90611cb5565b80601f016020809104026020016040519081016040528092919081815260200182805461059690611cb5565b80156105e35780601f106105b8576101008083540402835291602001916105e3565b820191906000526020600020905b8154815290600101906020018083116105c657829003601f168201915b505050505081526020016003820180546105fc90611cb5565b80601f016020809104026020016040519081016040528092919081815260200182805461062890611cb5565b80156106755780601f1061064a57610100808354040283529160200191610675565b820191906000526020600020905b81548152906001019060200180831161065857829003601f168201915b5050505050815260200160048201805461068e90611cb5565b80601f01602080910402602001604051908101604052809291908181526020018280546106ba90611cb5565b80156107075780601f106106dc57610100808354040283529160200191610707565b820191906000526020600020905b8154815290600101906020018083116106ea57829003601f168201915b505050505081526020016005820160009054906101000a900473ffffffffffffffffffffffffffffffffffffffff1673ffffffffffffffffffffffffffffffffffffffff1673ffffffffffffffffffffffffffffffffffffffff168152602001600682015481526020016007820160009054906101000a900473ffffffffffffffffffffffffffffffffffffffff1673ffffffffffffffffffffffffffffffffffffffff1673ffffffffffffffffffffffffffffffffffffffff1681525050826001836107d49190611f89565b815181106107e5576107e4611fbd565b5b602002602001018190525080806107fb90611fec565b915050610496565b508091505090565b6000808211801561081e57506004548211155b61085d576040517f08c379a000000000000000000000000000000000000000000000000000000000815260040161085490611bd4565b60405180910390fd5b600160009054906101000a900473ffffffffffffffffffffffffffffffffffffffff1673ffffffffffffffffffffffffffffffffffffffff1663f9f96003836040518263ffffffff1660e01b81526004016108b89190611842565b602060405180830381865afa1580156108d5573d6000803e3d6000fd5b505050506040513d601f19601f820116820180604052508101906108f99190612049565b9050919050565b60006004600081548092919061091590611fec565b9190505550600060045490506040518061010001604052808881526020018781526020018681526020018581526020018481526020013373ffffffffffffffffffffffffffffffffffffffff1681526020014281526020013373ffffffffffffffffffffffffffffffffffffffff168152506002600083815260200190815260200160002060008201518160000190816109af9190611e88565b506020820151816001015560408201518160020190816109cf9190611e88565b5060608201518160030190816109e59190611e88565b5060808201518160040190816109fb9190611e88565b5060a08201518160050160006101000a81548173ffffffffffffffffffffffffffffffffffffffff021916908373ffffffffffffffffffffffffffffffffffffffff16021790555060c0820151816006015560e08201518160070160006101000a81548173ffffffffffffffffffffffffffffffffffffffff021916908373ffffffffffffffffffffffffffffffffffffffff160217905550905050336003600083815260200190815260200160002060006101000a81548173ffffffffffffffffffffffffffffffffffffffff021916908373ffffffffffffffffffffffffffffffffffffffff1602179055503373ffffffffffffffffffffffffffffffffffffffff16817fb0b7b214963f2e16da9cf6ed5851757dfed306875edf1d59e030881102ef24ef87604051610b3091906120af565b60405180910390a38091505095945050505050565b6000600454905090565b60008054906101000a900473ffffffffffffffffffffffffffffffffffffffff1681565b610b7b611266565b600082118015610b8d57506004548211155b610bcc576040517f08c379a0000000000000000000000000000000000000000000000000000000008152600401610bc390611bd4565b60405180910390fd5b6002600083815260200190815260200160002060405180610100016040529081600082018054610bfb90611cb5565b80601f0160208091040260200160405190810160405280929190818152602001828054610c2790611cb5565b8015610c745780601f10610c4957610100808354040283529160200191610c74565b820191906000526020600020905b815481529060010190602001808311610c5757829003601f168201915b5050505050815260200160018201548152602001600282018054610c9790611cb5565b80601f0160208091040260200160405190810160405280929190818152602001828054610cc390611cb5565b8015610d105780601f10610ce557610100808354040283529160200191610d10565b820191906000526020600020905b815481529060010190602001808311610cf357829003601f168201915b50505050508152602001600382018054610d2990611cb5565b80601f0160208091040260200160405190810160405280929190818152602001828054610d5590611cb5565b8015610da25780601f10610d7757610100808354040283529160200191610da2565b820191906000526020600020905b815481529060010190602001808311610d8557829003601f168201915b50505050508152602001600482018054610dbb90611cb5565b80601f0160208091040260200160405190810160405280929190818152602001828054610de790611cb5565b8015610e345780601f10610e0957610100808354040283529160200191610e34565b820191906000526020600020905b815481529060010190602001808311610e1757829003601f168201915b505050505081526020016005820160009054906101000a900473ffffffffffffffffffffffffffffffffffffffff1673ffffffffffffffffffffffffffffffffffffffff1673ffffffffffffffffffffffffffffffffffffffff168152602001600682015481526020016007820160009054906101000a900473ffffffffffffffffffffffffffffffffffffffff1673ffffffffffffffffffffffffffffffffffffffff1673ffffffffffffffffffffffffffffffffffffffff16815250509050919050565b600160009054906101000a900473ffffffffffffffffffffffffffffffffffffffff1681565b813373ffffffffffffffffffffffffffffffffffffffff166003600083815260200190815260200160002060009054906101000a900473ffffffffffffffffffffffffffffffffffffffff1673ffffffffffffffffffffffffffffffffffffffff1614610fc2576040517f08c379a0000000000000000000000000000000000000000000000000000000008152600401610fb990611c66565b60405180910390fd5b600073ffffffffffffffffffffffffffffffffffffffff168273ffffffffffffffffffffffffffffffffffffffff1603611031576040517f08c379a000000000000000000000000000000000000000000000000000000000815260040161102890612143565b60405180910390fd5b60006003600085815260200190815260200160002060009054906101000a900473ffffffffffffffffffffffffffffffffffffffff169050826003600086815260200190815260200160002060006101000a81548173ffffffffffffffffffffffffffffffffffffffff021916908373ffffffffffffffffffffffffffffffffffffffff160217905550826002600086815260200190815260200160002060070160006101000a81548173ffffffffffffffffffffffffffffffffffffffff021916908373ffffffffffffffffffffffffffffffffffffffff1602179055508273ffffffffffffffffffffffffffffffffffffffff168173ffffffffffffffffffffffffffffffffffffffff16857f9b6a32f3cd7b15e8a1bfb25410c1b783cf20a9fcfee4b3b070770f5c09c0646f60405160405180910390a450505050565b6000808211801561118457506004548211155b6111c3576040517f08c379a00000000000000000000000000000000000000000000000000000000081526004016111ba90611bd4565b60405180910390fd5b600160009054906101000a900473ffffffffffffffffffffffffffffffffffffffff1673ffffffffffffffffffffffffffffffffffffffff1663feb4cbb9836040518263ffffffff1660e01b815260040161121e9190611842565b602060405180830381865afa15801561123b573d6000803e3d6000fd5b505050506040513d601f19601f8201168201806040525081019061125f9190612049565b9050919050565b6040518061010001604052806060815260200160008152602001606081526020016060815260200160608152602001600073ffffffffffffffffffffffffffffffffffffffff16815260200160008152602001600073ffffffffffffffffffffffffffffffffffffffff1681525090565b6000604051905090565b600080fd5b600080fd5b6000819050919050565b6112fe816112eb565b811461130957600080fd5b50565b60008135905061131b816112f5565b92915050565b600060208284031215611337576113366112e1565b5b60006113458482850161130c565b91505092915050565b600073ffffffffffffffffffffffffffffffffffffffff82169050919050565b60006113798261134e565b9050919050565b6113898161136e565b82525050565b60006020820190506113a46000830184611380565b92915050565b600080fd5b600080fd5b6000601f19601f8301169050919050565b7f4e487b7100000000000000000000000000000000000000000000000000000000600052604160045260246000fd5b6113fd826113b4565b810181811067ffffffffffffffff8211171561141c5761141b6113c5565b5b80604052505050565b600061142f6112d7565b905061143b82826113f4565b919050565b600067ffffffffffffffff82111561145b5761145a6113c5565b5b611464826113b4565b9050602081019050919050565b82818337600083830152505050565b600061149361148e84611440565b611425565b9050828152602081018484840111156114af576114ae6113af565b5b6114ba848285611471565b509392505050565b600082601f8301126114d7576114d66113aa565b5b81356114e7848260208601611480565b91505092915050565b60008060008060008060c0878903121561150d5761150c6112e1565b5b600061151b89828a0161130c565b965050602087013567ffffffffffffffff81111561153c5761153b6112e6565b5b61154889828a016114c2565b955050604061155989828a0161130c565b945050606087013567ffffffffffffffff81111561157a576115796112e6565b5b61158689828a016114c2565b935050608087013567ffffffffffffffff8111156115a7576115a66112e6565b5b6115b389828a016114c2565b92505060a087013567ffffffffffffffff8111156115d4576115d36112e6565b5b6115e089828a016114c2565b9150509295509295509295565b600081519050919050565b600082825260208201905092915050565b6000819050602082019050919050565b600081519050919050565b600082825260208201905092915050565b60005b83811015611653578082015181840152602081019050611638565b60008484015250505050565b600061166a82611619565b6116748185611624565b9350611684818560208601611635565b61168d816113b4565b840191505092915050565b6116a1816112eb565b82525050565b6116b08161136e565b82525050565b60006101008301600083015184820360008601526116d4828261165f565b91505060208301516116e96020860182611698565b5060408301518482036040860152611701828261165f565b9150506060830151848203606086015261171b828261165f565b91505060808301518482036080860152611735828261165f565b91505060a083015161174a60a08601826116a7565b5060c083015161175d60c0860182611698565b5060e083015161177060e08601826116a7565b508091505092915050565b600061178783836116b6565b905092915050565b6000602082019050919050565b60006117a7826115ed565b6117b181856115f8565b9350836020820285016117c385611609565b8060005b858110156117ff57848403895281516117e0858261177b565b94506117eb8361178f565b925060208a019950506001810190506117c7565b50829750879550505050505092915050565b6000602082019050818103600083015261182b818461179c565b905092915050565b61183c816112eb565b82525050565b60006020820190506118576000830184611833565b92915050565b600080600080600060a08688031215611879576118786112e1565b5b600086013567ffffffffffffffff811115611897576118966112e6565b5b6118a3888289016114c2565b95505060206118b48882890161130c565b945050604086013567ffffffffffffffff8111156118d5576118d46112e6565b5b6118e1888289016114c2565b935050606086013567ffffffffffffffff811115611902576119016112e6565b5b61190e888289016114c2565b925050608086013567ffffffffffffffff81111561192f5761192e6112e6565b5b61193b888289016114c2565b9150509295509295909350565b6000819050919050565b600061196d6119686119638461134e565b611948565b61134e565b9050919050565b600061197f82611952565b9050919050565b600061199182611974565b9050919050565b6119a181611986565b82525050565b60006020820190506119bc6000830184611998565b92915050565b60006101008301600083015184820360008601526119e0828261165f565b91505060208301516119f56020860182611698565b5060408301518482036040860152611a0d828261165f565b91505060608301518482036060860152611a27828261165f565b91505060808301518482036080860152611a41828261165f565b91505060a0830151611a5660a08601826116a7565b5060c0830151611a6960c0860182611698565b5060e0830151611a7c60e08601826116a7565b508091505092915050565b60006020820190508181036000830152611aa181846119c2565b905092915050565b6000611ab482611974565b9050919050565b611ac481611aa9565b82525050565b6000602082019050611adf6000830184611abb565b92915050565b611aee8161136e565b8114611af957600080fd5b50565b600081359050611b0b81611ae5565b92915050565b60008060408385031215611b2857611b276112e1565b5b6000611b368582860161130c565b9250506020611b4785828601611afc565b9150509250929050565b600082825260208201905092915050565b7f436f6c6c656374696f6e436f6e74726163743a20496e76616c696420636f6c6c60008201527f656374696f6e2049440000000000000000000000000000000000000000000000602082015250565b6000611bbe602983611b51565b9150611bc982611b62565b604082019050919050565b60006020820190508181036000830152611bed81611bb1565b9050919050565b7f436f6c6c656374696f6e436f6e74726163743a204e6f742074686520636f6c6c60008201527f656374696f6e206f776e65720000000000000000000000000000000000000000602082015250565b6000611c50602c83611b51565b9150611c5b82611bf4565b604082019050919050565b60006020820190508181036000830152611c7f81611c43565b9050919050565b7f4e487b7100000000000000000000000000000000000000000000000000000000600052602260045260246000fd5b60006002820490506001821680611ccd57607f821691505b602082108103611ce057611cdf611c86565b5b50919050565b60008190508160005260206000209050919050565b60006020601f8301049050919050565b600082821b905092915050565b600060088302611d487fffffffffffffffffffffffffffffffffffffffffffffffffffffffffffffffff82611d0b565b611d528683611d0b565b95508019841693508086168417925050509392505050565b6000611d85611d80611d7b846112eb565b611948565b6112eb565b9050919050565b6000819050919050565b611d9f83611d6a565b611db3611dab82611d8c565b848454611d18565b825550505050565b600090565b611dc8611dbb565b611dd3818484611d96565b505050565b5b81811015611df757611dec600082611dc0565b600181019050611dd9565b5050565b601f821115611e3c57611e0d81611ce6565b611e1684611cfb565b81016020851015611e25578190505b611e39611e3185611cfb565b830182611dd8565b50505b505050565b600082821c905092915050565b6000611e5f60001984600802611e41565b1980831691505092915050565b6000611e788383611e4e565b9150826002028217905092915050565b611e9182611619565b67ffffffffffffffff811115611eaa57611ea96113c5565b5b611eb48254611cb5565b611ebf828285611dfb565b600060209050601f831160018114611ef25760008415611ee0578287015190505b611eea8582611e6c565b865550611f52565b601f198416611f0086611ce6565b60005b82811015611f2857848901518255600182019150602085019450602081019050611f03565b86831015611f455784890151611f41601f891682611e4e565b8355505b6001600288020188555050505b505050505050565b7f4e487b7100000000000000000000000000000000000000000000000000000000600052601160045260246000fd5b6000611f94826112eb565b9150611f9f836112eb565b9250828203905081811115611fb757611fb6611f5a565b5b92915050565b7f4e487b7100000000000000000000000000000000000000000000000000000000600052603260045260246000fd5b6000611ff7826112eb565b91507fffffffffffffffffffffffffffffffffffffffffffffffffffffffffffffffff820361202957612028611f5a565b5b600182019050919050565b600081519050612043816112f5565b92915050565b60006020828403121561205f5761205e6112e1565b5b600061206d84828501612034565b91505092915050565b600061208182611619565b61208b8185611b51565b935061209b818560208601611635565b6120a4816113b4565b840191505092915050565b600060208201905081810360008301526120c98184612076565b905092915050565b7f436f6c6c656374696f6e436f6e74726163743a20496e76616c6964206e65772060008201527f6f776e6572206164647265737300000000000000000000000000000000000000602082015250565b600061212d602d83611b51565b9150612138826120d1565b604082019050919050565b6000602082019050818103600083015261215c81612120565b905091905056fea26469706673582212203b2cdfff458950d5f22c7305c0ec7238c9074749c3ca82d843391e7cefec34eb64736f6c63430008130033",
  "immutableReferences": {},
  "source": "// SPDX-License-Identifier: MIT\r\npragma solidity ^0.8.7;\r\n\r\nimport \"./MasterAccessControl.sol\";\r\nimport \"./NFTContract.sol\";\r\n\r\ncontract CollectionContract {\r\n    MasterAccessControl public masterAccessControl;\r\n    NFTContract public nftContract;\r\n\r\n    struct CollectionMetadata {\r\n        string name;\r\n        uint256 contextWindow;\r\n        string baseModel;\r\n        string image;\r\n        string description;\r\n        address creator;\r\n        uint256 dateCreated;\r\n        address owner;\r\n    }\r\n\r\n    mapping(uint256 => CollectionMetadata) private collections;\r\n    mapping(uint256 => address) private collectionOwners;\r\n\r\n    uint256 private totalCollections;\r\n\r\n    event CollectionCreated(uint256 indexed collectionId, address indexed creator, string baseModel);\r\n    event CollectionUpdated(uint256 indexed collectionId, address indexed updater);\r\n    event CollectionTransferred(uint256 indexed collectionId, address indexed previousOwner, address indexed newOwner);\r\n\r\n    constructor(address _masterAccessControlAddress, address _nftContractAddress) {\r\n        masterAccessControl = MasterAccessControl(_masterAccessControlAddress);\r\n        nftContract = NFTContract(_nftContractAddress);\r\n        masterAccessControl.grantSelfAccess(msg.sender);\r\n    }\r\n\r\n    modifier onlyAuthorized() {\r\n        require(masterAccessControl.selfCheckAccess(msg.sender), \"CollectionContract: Not authorized\");\r\n        _;\r\n    }\r\n\r\n    modifier onlyCollectionOwner(uint256 _collectionId) {\r\n        require(collectionOwners[_collectionId] == msg.sender, \"CollectionContract: Not the collection owner\");\r\n        _;\r\n    }\r\n\r\n    function createCollection(\r\n        string memory _name,\r\n        uint256 _contextWindow,\r\n        string memory _baseModel,\r\n        string memory _image,\r\n        string memory _description\r\n    ) external returns (uint256) {\r\n        totalCollections++;\r\n        uint256 newCollectionId = totalCollections;\r\n\r\n        collections[newCollectionId] = CollectionMetadata({\r\n            name : _name,\r\n            contextWindow : _contextWindow,\r\n            baseModel: _baseModel,\r\n            image: _image,\r\n            description: _description,\r\n            creator: msg.sender,\r\n            dateCreated: block.timestamp,\r\n            owner: msg.sender\r\n        });\r\n\r\n        collectionOwners[newCollectionId] = msg.sender;\r\n\r\n        emit CollectionCreated(newCollectionId, msg.sender, _baseModel);\r\n\r\n        return newCollectionId;\r\n    }\r\n\r\n    function updateCollection(\r\n        uint256 _collectionId,\r\n        string memory _name,\r\n        uint256 _contextWindow,\r\n        string memory _baseModel,\r\n        string memory _image,\r\n        string memory _description\r\n    ) external onlyCollectionOwner(_collectionId) {\r\n        CollectionMetadata storage collection = collections[_collectionId];\r\n        \r\n        collection.name = _name;\r\n        collection.contextWindow = _contextWindow;\r\n        collection.baseModel = _baseModel;\r\n        collection.image = _image;\r\n        collection.description = _description;\r\n\r\n\r\n        emit CollectionUpdated(_collectionId, msg.sender);\r\n    }\r\n\r\n    function transferCollection(uint256 _collectionId, address _newOwner) external onlyCollectionOwner(_collectionId) {\r\n        require(_newOwner != address(0), \"CollectionContract: Invalid new owner address\");\r\n\r\n        address previousOwner = collectionOwners[_collectionId];\r\n        collectionOwners[_collectionId] = _newOwner;\r\n        collections[_collectionId].owner = _newOwner;\r\n\r\n        emit CollectionTransferred(_collectionId, previousOwner, _newOwner);\r\n    }\r\n\r\n    function getCollectionMetadata(uint256 _collectionId) external view returns (CollectionMetadata memory) {\r\n        require(_collectionId > 0 && _collectionId <= totalCollections, \"CollectionContract: Invalid collection ID\");\r\n        return collections[_collectionId];\r\n    }\r\n\r\n    function getCollectionOwner(uint256 _collectionId) external view returns (address) {\r\n        require(_collectionId > 0 && _collectionId <= totalCollections, \"CollectionContract: Invalid collection ID\");\r\n        return collectionOwners[_collectionId];\r\n    }\r\n\r\n    function getTotalCollections() external view returns (uint256) {\r\n        return totalCollections;\r\n    }\r\n\r\n    function getAllCollections() external view returns (CollectionMetadata[] memory) {\r\n        CollectionMetadata[] memory allCollections = new CollectionMetadata[](totalCollections);\r\n        \r\n        for (uint256 i = 1; i <= totalCollections; i++) {\r\n            allCollections[i - 1] = collections[i];\r\n        }\r\n\r\n        return allCollections;\r\n    }\r\n\r\n    function getCollectionNFTCount(uint256 _collectionId) external view returns (uint256) {\r\n        require(_collectionId > 0 && _collectionId <= totalCollections, \"CollectionContract: Invalid collection ID\");\r\n        return nftContract.getCollectionNFTCount(_collectionId);\r\n    }\r\n\r\n    function getCollectionUniqueHolders(uint256 _collectionId) external view returns (uint256) {\r\n        require(_collectionId > 0 && _collectionId <= totalCollections, \"CollectionContract: Invalid collection ID\");\r\n        return nftContract.numberOfHolders(_collectionId);\r\n    }\r\n}",
  "sourcePath": "F:\\Projects\\03 Hackathon\\NeuraNFT Hackathons\\Base hackathon\\NeuraNFT_Base\\smart_contracts\\truffle_compiled_contract\\contracts\\CollectionContract.sol",
  "compiler": {
    "name": "solc",
    "version": "0.8.19+commit.7dd6d404.Emscripten.clang"
  },
  "schemaVersion": "3.4.16",
  "updatedAt": "2024-10-18T14:32:53.823Z",
  "networkType": "ethereum",
  "devdoc": {
    "kind": "dev",
    "methods": {},
    "version": 1
  },
  "userdoc": {
    "kind": "user",
    "methods": {},
    "version": 1
  }
}