{
  "contractName": "NFTMetadata",
  "abi": [
    {
      "inputs": [
        {
          "internalType": "address",
          "name": "_accessControlAddress",
          "type": "address"
        },
        {
          "internalType": "address",
          "name": "_nftAccessControlAddress",
          "type": "address"
        }
      ],
      "stateMutability": "nonpayable",
      "type": "constructor"
    },
    {
      "anonymous": false,
      "inputs": [
        {
          "indexed": true,
          "internalType": "uint256",
          "name": "collectionId",
          "type": "uint256"
        },
        {
          "indexed": true,
          "internalType": "uint256",
          "name": "nftId",
          "type": "uint256"
        },
        {
          "components": [
            {
              "internalType": "string",
              "name": "image",
              "type": "string"
            },
            {
              "internalType": "string",
              "name": "baseModel",
              "type": "string"
            },
            {
              "internalType": "string",
              "name": "data",
              "type": "string"
            },
            {
              "internalType": "string",
              "name": "rag",
              "type": "string"
            },
            {
              "internalType": "string",
              "name": "fineTuneData",
              "type": "string"
            },
            {
              "internalType": "string",
              "name": "description",
              "type": "string"
            }
          ],
          "indexed": false,
          "internalType": "struct NFTMetadata.Metadata",
          "name": "metadata",
          "type": "tuple"
        }
      ],
      "name": "MetadataCreated",
      "type": "event"
    },
    {
      "anonymous": false,
      "inputs": [
        {
          "indexed": true,
          "internalType": "uint256",
          "name": "collectionId",
          "type": "uint256"
        },
        {
          "indexed": true,
          "internalType": "uint256",
          "name": "nftId",
          "type": "uint256"
        }
      ],
      "name": "MetadataDeleted",
      "type": "event"
    },
    {
      "anonymous": false,
      "inputs": [
        {
          "indexed": true,
          "internalType": "uint256",
          "name": "collectionId",
          "type": "uint256"
        },
        {
          "indexed": true,
          "internalType": "uint256",
          "name": "nftId",
          "type": "uint256"
        },
        {
          "components": [
            {
              "internalType": "string",
              "name": "image",
              "type": "string"
            },
            {
              "internalType": "string",
              "name": "baseModel",
              "type": "string"
            },
            {
              "internalType": "string",
              "name": "data",
              "type": "string"
            },
            {
              "internalType": "string",
              "name": "rag",
              "type": "string"
            },
            {
              "internalType": "string",
              "name": "fineTuneData",
              "type": "string"
            },
            {
              "internalType": "string",
              "name": "description",
              "type": "string"
            }
          ],
          "indexed": false,
          "internalType": "struct NFTMetadata.Metadata",
          "name": "metadata",
          "type": "tuple"
        }
      ],
      "name": "MetadataUpdated",
      "type": "event"
    },
    {
      "anonymous": false,
      "inputs": [
        {
          "indexed": true,
          "internalType": "uint256",
          "name": "collectionId",
          "type": "uint256"
        },
        {
          "indexed": true,
          "internalType": "uint256",
          "name": "nftId",
          "type": "uint256"
        },
        {
          "components": [
            {
              "internalType": "uint256",
              "name": "replicaCollectionId",
              "type": "uint256"
            },
            {
              "internalType": "uint256",
              "name": "replicaNFTId",
              "type": "uint256"
            }
          ],
          "indexed": false,
          "internalType": "struct NFTMetadata.Replica",
          "name": "replica",
          "type": "tuple"
        }
      ],
      "name": "ReplicaCreated",
      "type": "event"
    },
    {
      "inputs": [],
      "name": "accessControl",
      "outputs": [
        {
          "internalType": "contract MasterAccessControl",
          "name": "",
          "type": "address"
        }
      ],
      "stateMutability": "view",
      "type": "function"
    },
    {
      "inputs": [
        {
          "internalType": "uint256",
          "name": "_collectionId",
          "type": "uint256"
        },
        {
          "internalType": "uint256",
          "name": "_nftId",
          "type": "uint256"
        },
        {
          "components": [
            {
              "internalType": "string",
              "name": "image",
              "type": "string"
            },
            {
              "internalType": "string",
              "name": "baseModel",
              "type": "string"
            },
            {
              "internalType": "string",
              "name": "data",
              "type": "string"
            },
            {
              "internalType": "string",
              "name": "rag",
              "type": "string"
            },
            {
              "internalType": "string",
              "name": "fineTuneData",
              "type": "string"
            },
            {
              "internalType": "string",
              "name": "description",
              "type": "string"
            }
          ],
          "internalType": "struct NFTMetadata.Metadata",
          "name": "_metadata",
          "type": "tuple"
        }
      ],
      "name": "createMetadata",
      "outputs": [],
      "stateMutability": "nonpayable",
      "type": "function"
    },
    {
      "inputs": [
        {
          "internalType": "uint256",
          "name": "_collectionId",
          "type": "uint256"
        },
        {
          "internalType": "uint256",
          "name": "_nftId",
          "type": "uint256"
        }
      ],
      "name": "deleteMetadata",
      "outputs": [],
      "stateMutability": "nonpayable",
      "type": "function"
    },
    {
      "inputs": [
        {
          "internalType": "uint256",
          "name": "_collectionId",
          "type": "uint256"
        },
        {
          "internalType": "uint256",
          "name": "_nftId",
          "type": "uint256"
        }
      ],
      "name": "getMetadata",
      "outputs": [
        {
          "components": [
            {
              "internalType": "string",
              "name": "image",
              "type": "string"
            },
            {
              "internalType": "string",
              "name": "baseModel",
              "type": "string"
            },
            {
              "internalType": "string",
              "name": "data",
              "type": "string"
            },
            {
              "internalType": "string",
              "name": "rag",
              "type": "string"
            },
            {
              "internalType": "string",
              "name": "fineTuneData",
              "type": "string"
            },
            {
              "internalType": "string",
              "name": "description",
              "type": "string"
            }
          ],
          "internalType": "struct NFTMetadata.Metadata",
          "name": "",
          "type": "tuple"
        }
      ],
      "stateMutability": "view",
      "type": "function"
    },
    {
      "inputs": [
        {
          "internalType": "uint256",
          "name": "_collectionId",
          "type": "uint256"
        },
        {
          "internalType": "uint256",
          "name": "_nftId",
          "type": "uint256"
        }
      ],
      "name": "metadataExists",
      "outputs": [
        {
          "internalType": "bool",
          "name": "",
          "type": "bool"
        }
      ],
      "stateMutability": "view",
      "type": "function"
    },
    {
      "inputs": [],
      "name": "nftAccessControl",
      "outputs": [
        {
          "internalType": "contract NFTAccessControl",
          "name": "",
          "type": "address"
        }
      ],
      "stateMutability": "view",
      "type": "function"
    },
    {
      "inputs": [
        {
          "internalType": "uint256",
          "name": "_collectionId",
          "type": "uint256"
        },
        {
          "internalType": "uint256",
          "name": "_nftId",
          "type": "uint256"
        },
        {
          "internalType": "uint256",
          "name": "_replicaCollectionId",
          "type": "uint256"
        },
        {
          "internalType": "uint256",
          "name": "_replicaNFTId",
          "type": "uint256"
        }
      ],
      "name": "replicateNFT",
      "outputs": [],
      "stateMutability": "nonpayable",
      "type": "function"
    },
    {
      "inputs": [
        {
          "internalType": "uint256",
          "name": "_collectionId",
          "type": "uint256"
        },
        {
          "internalType": "uint256",
          "name": "_nftId",
          "type": "uint256"
        },
        {
          "components": [
            {
              "internalType": "string",
              "name": "image",
              "type": "string"
            },
            {
              "internalType": "string",
              "name": "baseModel",
              "type": "string"
            },
            {
              "internalType": "string",
              "name": "data",
              "type": "string"
            },
            {
              "internalType": "string",
              "name": "rag",
              "type": "string"
            },
            {
              "internalType": "string",
              "name": "fineTuneData",
              "type": "string"
            },
            {
              "internalType": "string",
              "name": "description",
              "type": "string"
            }
          ],
          "internalType": "struct NFTMetadata.Metadata",
          "name": "_metadata",
          "type": "tuple"
        }
      ],
      "name": "updateMetadata",
      "outputs": [],
      "stateMutability": "nonpayable",
      "type": "function"
    }
  ],
  "bytecode": "0x60806040523480156200001157600080fd5b50d380156200001f57600080fd5b50d280156200002d57600080fd5b5060405162001e6438038062001e6483398181016040528101906200005391906200018f565b816000806101000a81548173ffffffffffffffffffffffffffffffffffffffff021916908373ffffffffffffffffffffffffffffffffffffffff16021790555080600160006101000a81548173ffffffffffffffffffffffffffffffffffffffff021916908373ffffffffffffffffffffffffffffffffffffffff16021790555060008054906101000a900473ffffffffffffffffffffffffffffffffffffffff1673ffffffffffffffffffffffffffffffffffffffff1663a2aadc54336040518263ffffffff1660e01b81526004016200012f9190620001e7565b600060405180830381600087803b1580156200014a57600080fd5b505af11580156200015f573d6000803e3d6000fd5b50505050505062000278565b6000815190506200017c816200025e565b620001878162000204565b905092915050565b60008060408385031215620001a957620001a862000259565b5b6000620001b9858286016200016b565b9250506020620001cc858286016200016b565b9150509250929050565b620001e18162000204565b82525050565b6000602082019050620001fe6000830184620001d6565b92915050565b6000620002118262000218565b9050919050565b600073ffffffffffffffffffffffffffffffffffffffff82169050919050565b600074ffffffffffffffffffffffffffffffffffffffffff82169050919050565b600080fd5b620002698162000238565b81146200027557600080fd5b50565b611bdc80620002886000396000f3fe608060405234801561001057600080fd5b50d3801561001d57600080fd5b50d2801561002a57600080fd5b50600436106100a25760003560e01c80637536278f116100755780637536278f1461012d578063ccb990271461015d578063d4fee41514610179578063db9d777b14610195576100a2565b806313007d55146100a757806359585754146100c557806361ab9e60146100e15780637477efa4146100fd575b600080fd5b6100af6101b3565b6040516100bc9190611808565b60405180910390f35b6100df60048036038101906100da9190611517565b6101d7565b005b6100fb60048036038101906100f69190611557565b6103c1565b005b61011760048036038101906101129190611517565b610606565b604051610124919061187e565b60405180910390f35b61014760048036038101906101429190611517565b6109fa565b60405161015491906117ed565b60405180910390f35b610177600480360381019061017291906115c6565b610a0e565b005b610193600480360381019061018e9190611557565b610f8d565b005b61019d611189565b6040516101aa9190611823565b60405180910390f35b60008054906101000a900473ffffffffffffffffffffffffffffffffffffffff1681565b60008054906101000a900473ffffffffffffffffffffffffffffffffffffffff1673ffffffffffffffffffffffffffffffffffffffff1663c6310de3336040518263ffffffff1660e01b815260040161023091906117d2565b60206040518083038186803b15801561024857600080fd5b505afa15801561025c573d6000803e3d6000fd5b505050506040513d601f19601f8201168201806040525081019061028091906114ea565b6102bf576040517f08c379a00000000000000000000000000000000000000000000000000000000081526004016102b69061185e565b60405180910390fd5b6102c982826111af565b610308576040517f08c379a00000000000000000000000000000000000000000000000000000000081526004016102ff9061183e565b60405180910390fd5b6002600083815260200190815260200160002060008281526020019081526020016000206000808201600061033d91906111ef565b60018201600061034d91906111ef565b60028201600061035d91906111ef565b60038201600061036d91906111ef565b60048201600061037d91906111ef565b60058201600061038d91906111ef565b505080827f03bc490bb78e04caa417a0c6b35ba462d8233a8e018a487d3c85504e55d6941c60405160405180910390a35050565b60008054906101000a900473ffffffffffffffffffffffffffffffffffffffff1673ffffffffffffffffffffffffffffffffffffffff1663c6310de3336040518263ffffffff1660e01b815260040161041a91906117d2565b60206040518083038186803b15801561043257600080fd5b505afa158015610446573d6000803e3d6000fd5b505050506040513d601f19601f8201168201806040525081019061046a91906114ea565b6104a9576040517f08c379a00000000000000000000000000000000000000000000000000000000081526004016104a09061185e565b60405180910390fd5b6104b383836111af565b6104f2576040517f08c379a00000000000000000000000000000000000000000000000000000000081526004016104e99061183e565b60405180910390fd5b80600260008581526020019081526020016000206000848152602001908152602001600020600082015181600001908051906020019061053392919061122f565b50602082015181600101908051906020019061055092919061122f565b50604082015181600201908051906020019061056d92919061122f565b50606082015181600301908051906020019061058a92919061122f565b5060808201518160040190805190602001906105a792919061122f565b5060a08201518160050190805190602001906105c492919061122f565b5090505081837f5c8fd35de2e0598f91dcb7b08c6cfd56153f6239a9a0bc5ba963d3f016dc1ef0836040516105f9919061187e565b60405180910390a3505050565b61060e6112b5565b61061883836111af565b610657576040517f08c379a000000000000000000000000000000000000000000000000000000000815260040161064e9061183e565b60405180910390fd5b6002600084815260200190815260200160002060008381526020019081526020016000206040518060c001604052908160008201805461069690611a10565b80601f01602080910402602001604051908101604052809291908181526020018280546106c290611a10565b801561070f5780601f106106e45761010080835404028352916020019161070f565b820191906000526020600020905b8154815290600101906020018083116106f257829003601f168201915b5050505050815260200160018201805461072890611a10565b80601f016020809104026020016040519081016040528092919081815260200182805461075490611a10565b80156107a15780601f10610776576101008083540402835291602001916107a1565b820191906000526020600020905b81548152906001019060200180831161078457829003601f168201915b505050505081526020016002820180546107ba90611a10565b80601f01602080910402602001604051908101604052809291908181526020018280546107e690611a10565b80156108335780601f1061080857610100808354040283529160200191610833565b820191906000526020600020905b81548152906001019060200180831161081657829003601f168201915b5050505050815260200160038201805461084c90611a10565b80601f016020809104026020016040519081016040528092919081815260200182805461087890611a10565b80156108c55780601f1061089a576101008083540402835291602001916108c5565b820191906000526020600020905b8154815290600101906020018083116108a857829003601f168201915b505050505081526020016004820180546108de90611a10565b80601f016020809104026020016040519081016040528092919081815260200182805461090a90611a10565b80156109575780601f1061092c57610100808354040283529160200191610957565b820191906000526020600020905b81548152906001019060200180831161093a57829003601f168201915b5050505050815260200160058201805461097090611a10565b80601f016020809104026020016040519081016040528092919081815260200182805461099c90611a10565b80156109e95780601f106109be576101008083540402835291602001916109e9565b820191906000526020600020905b8154815290600101906020018083116109cc57829003601f168201915b505050505081525050905092915050565b6000610a0683836111af565b905092915050565b60008054906101000a900473ffffffffffffffffffffffffffffffffffffffff1673ffffffffffffffffffffffffffffffffffffffff1663c6310de3336040518263ffffffff1660e01b8152600401610a6791906117d2565b60206040518083038186803b158015610a7f57600080fd5b505afa158015610a93573d6000803e3d6000fd5b505050506040513d601f19601f82011682018060405250810190610ab791906114ea565b610af6576040517f08c379a0000000000000000000000000000000000000000000000000000000008152600401610aed9061185e565b60405180910390fd5b610b0084846111af565b610b3f576040517f08c379a0000000000000000000000000000000000000000000000000000000008152600401610b369061183e565b60405180910390fd5b604051806040016040528083815260200182815250600360008681526020019081526020016000206000858152602001908152602001600020600082015181600001556020820151816001015590505060006002600084815260200190815260200160002060008381526020019081526020016000206040518060c0016040529081600082018054610bd090611a10565b80601f0160208091040260200160405190810160405280929190818152602001828054610bfc90611a10565b8015610c495780601f10610c1e57610100808354040283529160200191610c49565b820191906000526020600020905b815481529060010190602001808311610c2c57829003601f168201915b50505050508152602001600182018054610c6290611a10565b80601f0160208091040260200160405190810160405280929190818152602001828054610c8e90611a10565b8015610cdb5780601f10610cb057610100808354040283529160200191610cdb565b820191906000526020600020905b815481529060010190602001808311610cbe57829003601f168201915b50505050508152602001600282018054610cf490611a10565b80601f0160208091040260200160405190810160405280929190818152602001828054610d2090611a10565b8015610d6d5780601f10610d4257610100808354040283529160200191610d6d565b820191906000526020600020905b815481529060010190602001808311610d5057829003601f168201915b50505050508152602001600382018054610d8690611a10565b80601f0160208091040260200160405190810160405280929190818152602001828054610db290611a10565b8015610dff5780601f10610dd457610100808354040283529160200191610dff565b820191906000526020600020905b815481529060010190602001808311610de257829003601f168201915b50505050508152602001600482018054610e1890611a10565b80601f0160208091040260200160405190810160405280929190818152602001828054610e4490611a10565b8015610e915780601f10610e6657610100808354040283529160200191610e91565b820191906000526020600020905b815481529060010190602001808311610e7457829003601f168201915b50505050508152602001600582018054610eaa90611a10565b80601f0160208091040260200160405190810160405280929190818152602001828054610ed690611a10565b8015610f235780601f10610ef857610100808354040283529160200191610f23565b820191906000526020600020905b815481529060010190602001808311610f0657829003601f168201915b5050505050815250509050610f39858383610f8d565b83857f5dde2dde5bddd24d6808b98f5421e48ae6bd316d5fb072cc479d7f2e2ad75c3e604051806040016040528087815260200186815250604051610f7e91906118a0565b60405180910390a35050505050565b60008054906101000a900473ffffffffffffffffffffffffffffffffffffffff1673ffffffffffffffffffffffffffffffffffffffff1663c6310de3336040518263ffffffff1660e01b8152600401610fe691906117d2565b60206040518083038186803b158015610ffe57600080fd5b505afa158015611012573d6000803e3d6000fd5b505050506040513d601f19601f8201168201806040525081019061103691906114ea565b611075576040517f08c379a000000000000000000000000000000000000000000000000000000000815260040161106c9061185e565b60405180910390fd5b8060026000858152602001908152602001600020600084815260200190815260200160002060008201518160000190805190602001906110b692919061122f565b5060208201518160010190805190602001906110d392919061122f565b5060408201518160020190805190602001906110f092919061122f565b50606082015181600301908051906020019061110d92919061122f565b50608082015181600401908051906020019061112a92919061122f565b5060a082015181600501908051906020019061114792919061122f565b5090505081837f03f37875a30d73ff3ec38e4597342ebf44d54b2097441e1e23ca00a68a9ff6928360405161117c919061187e565b60405180910390a3505050565b600160009054906101000a900473ffffffffffffffffffffffffffffffffffffffff1681565b60008060026000858152602001908152602001600020600084815260200190815260200160002060000180546111e490611a10565b905011905092915050565b5080546111fb90611a10565b6000825580601f1061120d575061122c565b601f01602090049060005260206000209081019061122b91906112eb565b5b50565b82805461123b90611a10565b90600052602060002090601f01602090048101928261125d57600085556112a4565b82601f1061127657805160ff19168380011785556112a4565b828001600101855582156112a4579182015b828111156112a3578251825591602001919060010190611288565b5b5090506112b191906112eb565b5090565b6040518060c001604052806060815260200160608152602001606081526020016060815260200160608152602001606081525090565b5b808211156113045760008160009055506001016112ec565b5090565b600061131b611316846118e0565b6118bb565b90508281526020810184848401111561133757611336611ae0565b5b6113428482856119ce565b509392505050565b60008151905061135981611b78565b92915050565b600082601f83011261137457611373611ad1565b5b8135611384848260208601611308565b91505092915050565b600060c082840312156113a3576113a2611ad6565b5b6113ad60c06118bb565b9050600082013567ffffffffffffffff8111156113cd576113cc611adb565b5b6113d98482850161135f565b600083015250602082013567ffffffffffffffff8111156113fd576113fc611adb565b5b6114098482850161135f565b602083015250604082013567ffffffffffffffff81111561142d5761142c611adb565b5b6114398482850161135f565b604083015250606082013567ffffffffffffffff81111561145d5761145c611adb565b5b6114698482850161135f565b606083015250608082013567ffffffffffffffff81111561148d5761148c611adb565b5b6114998482850161135f565b60808301525060a082013567ffffffffffffffff8111156114bd576114bc611adb565b5b6114c98482850161135f565b60a08301525092915050565b6000813590506114e481611b8f565b92915050565b600060208284031215611500576114ff611aea565b5b600061150e8482850161134a565b91505092915050565b6000806040838503121561152e5761152d611aea565b5b600061153c858286016114d5565b925050602061154d858286016114d5565b9150509250929050565b6000806000606084860312156115705761156f611aea565b5b600061157e868287016114d5565b935050602061158f868287016114d5565b925050604084013567ffffffffffffffff8111156115b0576115af611ae5565b5b6115bc8682870161138d565b9150509250925092565b600080600080608085870312156115e0576115df611aea565b5b60006115ee878288016114d5565b94505060206115ff878288016114d5565b9350506040611610878288016114d5565b9250506060611621878288016114d5565b91505092959194509250565b6116368161193e565b82525050565b61164581611950565b82525050565b61165481611986565b82525050565b61166381611998565b82525050565b600061167482611911565b61167e818561191c565b935061168e8185602086016119dd565b61169781611aef565b840191505092915050565b60006116af60248361192d565b91506116ba82611b00565b604082019050919050565b60006116d2601b8361192d565b91506116dd82611b4f565b602082019050919050565b600060c08301600083015184820360008601526117058282611669565b9150506020830151848203602086015261171f8282611669565b915050604083015184820360408601526117398282611669565b915050606083015184820360608601526117538282611669565b9150506080830151848203608086015261176d8282611669565b91505060a083015184820360a08601526117878282611669565b9150508091505092915050565b6040820160008201516117aa60008501826117c3565b5060208201516117bd60208501826117c3565b50505050565b6117cc8161197c565b82525050565b60006020820190506117e7600083018461162d565b92915050565b6000602082019050611802600083018461163c565b92915050565b600060208201905061181d600083018461164b565b92915050565b6000602082019050611838600083018461165a565b92915050565b60006020820190508181036000830152611857816116a2565b9050919050565b60006020820190508181036000830152611877816116c5565b9050919050565b6000602082019050818103600083015261189881846116e8565b905092915050565b60006040820190506118b56000830184611794565b92915050565b60006118c56118d6565b90506118d18282611a42565b919050565b6000604051905090565b600067ffffffffffffffff8211156118fb576118fa611aa2565b5b61190482611aef565b9050602081019050919050565b600081519050919050565b600082825260208201905092915050565b600082825260208201905092915050565b60006119498261195c565b9050919050565b60008115159050919050565b600073ffffffffffffffffffffffffffffffffffffffff82169050919050565b6000819050919050565b6000611991826119aa565b9050919050565b60006119a3826119aa565b9050919050565b60006119b5826119bc565b9050919050565b60006119c78261195c565b9050919050565b82818337600083830152505050565b60005b838110156119fb5780820151818401526020810190506119e0565b83811115611a0a576000848401525b50505050565b60006002820490506001821680611a2857607f821691505b60208210811415611a3c57611a3b611a73565b5b50919050565b611a4b82611aef565b810181811067ffffffffffffffff82111715611a6a57611a69611aa2565b5b80604052505050565b7f4e487b7100000000000000000000000000000000000000000000000000000000600052602260045260246000fd5b7f4e487b7100000000000000000000000000000000000000000000000000000000600052604160045260246000fd5b600080fd5b600080fd5b600080fd5b600080fd5b600080fd5b600080fd5b6000601f19601f8301169050919050565b7f4e46544d657461646174613a204d6574616461746120646f6573206e6f74206560008201527f7869737400000000000000000000000000000000000000000000000000000000602082015250565b7f4e46544d657461646174613a204e6f7420617574686f72697a65640000000000600082015250565b611b8181611950565b8114611b8c57600080fd5b50565b611b988161197c565b8114611ba357600080fd5b5056fea26474726f6e582212200f8ef90966161baf0db3a8d22b3cc52a20c8c9aa2dbff07081eba47f9a48daba64736f6c63430008070033",
  "source": "// SPDX-License-Identifier: MIT\npragma solidity ^0.8.7;\n\nimport \"./MasterAccessControl.sol\";\nimport \"./NFTAccessControl.sol\";\n\n\ncontract NFTMetadata {\n    // Reference to Master Access Control\n    MasterAccessControl public accessControl;\n    NFTAccessControl public nftAccessControl;\n\n    // Metadata structure\n    struct Metadata {\n        string image;         // BTFS URL of the image\n        string baseModel;     // Base model identifier\n        string data;          // BTFS URL of data\n        string rag;           // BTFS URL of RAG\n        string fineTuneData;  // BTFS URL of fine-tune data\n        string description;   // Text description\n    }\n\n\n    struct Replica {\n        uint256 replicaCollectionId;\n        uint256 replicaNFTId;\n    }\n\n    // Mappings\n    mapping(uint256 => mapping(uint256 => Metadata)) private metadataMap; // collectionId => NFTId => Metadata\n    mapping(uint256 => mapping(uint256 => Replica)) private replicaMap; // collectionId => NFTId => replicaId => (replicaCollectionId, replicaNFTId)\n\n    // Events\n    event MetadataCreated(uint256 indexed collectionId, uint256 indexed nftId, Metadata metadata);\n    event MetadataUpdated(uint256 indexed collectionId, uint256 indexed nftId, Metadata metadata);\n    event MetadataDeleted(uint256 indexed collectionId, uint256 indexed nftId);\n    event ReplicaCreated(uint256 indexed collectionId, uint256 indexed nftId, Replica replica);\n\n    // Constructor\n    constructor(address _accessControlAddress, address _nftAccessControlAddress) {\n        accessControl = MasterAccessControl(_accessControlAddress);\n        nftAccessControl = NFTAccessControl(_nftAccessControlAddress);\n        accessControl.grantSelfAccess(msg.sender);\n    }\n\n    // Modifier to check access\n    modifier onlyAuthorized() {\n\n        require(accessControl.selfCheckAccess(msg.sender), \"NFTMetadata: Not authorized\");\n        _;\n    }\n\n\n    // None                  - No access\n    // 1 - UseModel          - Can use the model\n    // 2 - Resale            - Can resell the NFT without replicating and data and model view\n    // 3 - CreateReplica     - Can create a replica of the NFT but not data view\n    // 4 - ViewAndDownload   - Can view and download the data and model but no absolute ownership\n    // 5 - AbsoluteOwnership - Can view, download, create replica, resale, and use model\n\n    modifier onlyAuthorizedEditData(uint256 _collectionId, uint256 _nftId) {\n\n        AccessLevel requiredAccess = AccessLevel.EditData;\n\n        bool isAuthorized = nftAccessControl.checkMinimumAccess(_collectionId, _nftId, msg.sender ,requiredAccess);\n        bool isOwner =  accessControl.selfCheckAccess(msg.sender);\n\n        require(isAuthorized || isOwner, \"NFTMetadata: Not authorized\");\n        _;\n    }\n\n\n    // Create new metadata\n    function createMetadata(uint256 _collectionId, uint256 _nftId, Metadata memory _metadata) public onlyAuthorized {\n        metadataMap[_collectionId][_nftId] = _metadata;\n        emit MetadataCreated(_collectionId, _nftId, _metadata);\n    }\n\n    function replicateNFT(uint256 _collectionId, uint256 _nftId, uint256 _replicaCollectionId, uint256 _replicaNFTId) external onlyAuthorized {\n        \n        require(_metadataExists(_collectionId, _nftId), \"NFTMetadata: Metadata does not exist\");\n\n        replicaMap[_collectionId][_nftId] = Replica(_replicaCollectionId, _replicaNFTId);\n        Metadata memory _metadata = metadataMap[_replicaCollectionId][_replicaNFTId];\n\n        createMetadata(_collectionId, _replicaNFTId, _metadata);\n\n        emit ReplicaCreated(_collectionId, _nftId, Replica(_replicaCollectionId, _replicaNFTId));\n            \n    }\n\n\n\n\n    // Update existing metadata\n    function updateMetadata(uint256 _collectionId, uint256 _nftId, Metadata memory _metadata) external onlyAuthorized {\n        require(_metadataExists(_collectionId, _nftId), \"NFTMetadata: Metadata does not exist\");\n        metadataMap[_collectionId][_nftId] = _metadata;\n        emit MetadataUpdated(_collectionId, _nftId, _metadata);\n    }\n\n    // Delete metadata\n    function deleteMetadata(uint256 _collectionId, uint256 _nftId) external onlyAuthorized {\n        require(_metadataExists(_collectionId, _nftId), \"NFTMetadata: Metadata does not exist\");\n        delete metadataMap[_collectionId][_nftId];\n        emit MetadataDeleted(_collectionId, _nftId);\n    }\n\n    // Get metadata\n    function getMetadata(uint256 _collectionId, uint256 _nftId) external view returns (Metadata memory) {\n        require(_metadataExists(_collectionId, _nftId), \"NFTMetadata: Metadata does not exist\");\n        return metadataMap[_collectionId][_nftId];\n    }\n\n    //external function to check if metadata exists\n    function metadataExists(uint256 _collectionId, uint256 _nftId) external view returns (bool) {\n        return _metadataExists(_collectionId, _nftId);\n    }\n\n    // Internal function to check if metadata exists\n    function _metadataExists(uint256 _collectionId, uint256 _nftId) internal view returns (bool) {\n        return bytes(metadataMap[_collectionId][_nftId].image).length > 0;\n    }\n}\n\n",
  "sourcePath": "/home/sid/mounts/Projects/03 Hackathon/Tron Hackathon/NeuraNFT_Tron/smart_contracts/neuranft-contract/contracts/NFTMetadata.sol",
  "compiler": {
    "name": "solc",
    "version": "0.8.7+commit.2128cde5.mod.Emscripten.clang"
  },
  "schemaVersion": "2.0.1",
  "updatedAt": "2024-10-07T15:18:53.685Z"
}