{
  "contractName": "NFTAccessControl",
  "abi": [
    {
      "inputs": [
        {
          "internalType": "address",
          "name": "_accessControlAddress",
          "type": "address"
        }
      ],
      "stateMutability": "nonpayable",
      "type": "constructor"
    },
    {
      "anonymous": false,
      "inputs": [
        {
          "indexed": true,
          "internalType": "uint256",
          "name": "collectionId",
          "type": "uint256"
        },
        {
          "indexed": true,
          "internalType": "uint256",
          "name": "nftId",
          "type": "uint256"
        },
        {
          "indexed": true,
          "internalType": "address",
          "name": "user",
          "type": "address"
        },
        {
          "indexed": false,
          "internalType": "enum AccessLevel",
          "name": "accessLevel",
          "type": "uint8"
        }
      ],
      "name": "AccessGranted",
      "type": "event",
      "stateMutability": "nonpayable"
    },
    {
      "anonymous": false,
      "inputs": [
        {
          "indexed": true,
          "internalType": "address",
          "name": "user",
          "type": "address"
        },
        {
          "indexed": true,
          "internalType": "uint256",
          "name": "collectionId",
          "type": "uint256"
        },
        {
          "indexed": true,
          "internalType": "uint256",
          "name": "nftId",
          "type": "uint256"
        },
        {
          "indexed": false,
          "internalType": "enum AccessLevel",
          "name": "newAccessLevel",
          "type": "uint8"
        }
      ],
      "name": "AccessLevelChanged",
      "type": "event",
      "stateMutability": "nonpayable"
    },
    {
      "anonymous": false,
      "inputs": [
        {
          "indexed": true,
          "internalType": "uint256",
          "name": "collectionId",
          "type": "uint256"
        },
        {
          "indexed": true,
          "internalType": "uint256",
          "name": "nftId",
          "type": "uint256"
        },
        {
          "indexed": true,
          "internalType": "address",
          "name": "user",
          "type": "address"
        }
      ],
      "name": "AccessRevoked",
      "type": "event",
      "stateMutability": "nonpayable"
    },
    {
      "inputs": [],
      "name": "accessControl",
      "outputs": [
        {
          "internalType": "contract MasterAccessControl",
          "name": "",
          "type": "address"
        }
      ],
      "stateMutability": "view",
      "type": "function"
    },
    {
      "inputs": [
        {
          "internalType": "uint256",
          "name": "_collectionId",
          "type": "uint256"
        },
        {
          "internalType": "uint256",
          "name": "_nftId",
          "type": "uint256"
        },
        {
          "internalType": "address",
          "name": "_user",
          "type": "address"
        },
        {
          "internalType": "enum AccessLevel",
          "name": "_accessLevel",
          "type": "uint8"
        }
      ],
      "name": "checkMinimumAccess",
      "outputs": [
        {
          "internalType": "bool",
          "name": "",
          "type": "bool"
        }
      ],
      "stateMutability": "view",
      "type": "function"
    },
    {
      "inputs": [
        {
          "internalType": "uint256",
          "name": "_collectionId",
          "type": "uint256"
        },
        {
          "internalType": "uint256",
          "name": "_nftId",
          "type": "uint256"
        },
        {
          "internalType": "address",
          "name": "_user",
          "type": "address"
        }
      ],
      "name": "getAccessLevel",
      "outputs": [
        {
          "internalType": "enum AccessLevel",
          "name": "",
          "type": "uint8"
        }
      ],
      "stateMutability": "view",
      "type": "function"
    },
    {
      "inputs": [
        {
          "internalType": "address",
          "name": "_user",
          "type": "address"
        }
      ],
      "name": "getAllAccessForUser",
      "outputs": [
        {
          "components": [
            {
              "internalType": "uint256",
              "name": "collectionId",
              "type": "uint256"
            },
            {
              "internalType": "uint256",
              "name": "nftId",
              "type": "uint256"
            },
            {
              "internalType": "enum AccessLevel",
              "name": "accessLevel",
              "type": "uint8"
            }
          ],
          "internalType": "struct NFTAccessControl.AccessEntry[]",
          "name": "",
          "type": "tuple[]"
        }
      ],
      "stateMutability": "view",
      "type": "function"
    },
    {
      "inputs": [
        {
          "internalType": "uint256",
          "name": "_collectionId",
          "type": "uint256"
        },
        {
          "internalType": "uint256",
          "name": "_nftId",
          "type": "uint256"
        }
      ],
      "name": "getAllUsersAccessForNFT",
      "outputs": [
        {
          "components": [
            {
              "internalType": "address",
              "name": "user",
              "type": "address"
            },
            {
              "internalType": "enum AccessLevel",
              "name": "accessLevel",
              "type": "uint8"
            }
          ],
          "internalType": "struct NFTAccessControl.UserAccess[]",
          "name": "",
          "type": "tuple[]"
        }
      ],
      "stateMutability": "view",
      "type": "function"
    },
    {
      "inputs": [
        {
          "internalType": "uint256",
          "name": "_collectionId",
          "type": "uint256"
        },
        {
          "internalType": "uint256",
          "name": "_nftId",
          "type": "uint256"
        },
        {
          "internalType": "address",
          "name": "_user",
          "type": "address"
        },
        {
          "internalType": "enum AccessLevel",
          "name": "_accessLevel",
          "type": "uint8"
        }
      ],
      "name": "grantAccess",
      "outputs": [],
      "stateMutability": "nonpayable",
      "type": "function"
    },
    {
      "inputs": [
        {
          "internalType": "uint256",
          "name": "_collectionId",
          "type": "uint256"
        },
        {
          "internalType": "uint256",
          "name": "_nftId",
          "type": "uint256"
        },
        {
          "internalType": "address",
          "name": "_user",
          "type": "address"
        }
      ],
      "name": "revokeAccess",
      "outputs": [],
      "stateMutability": "nonpayable",
      "type": "function"
    },
    {
      "inputs": [
        {
          "internalType": "uint256",
          "name": "_collectionId",
          "type": "uint256"
        },
        {
          "internalType": "uint256",
          "name": "_nftId",
          "type": "uint256"
        },
        {
          "internalType": "enum AccessLevel",
          "name": "_accessLevel",
          "type": "uint8"
        }
      ],
      "name": "setDefaultAccessLevel",
      "outputs": [],
      "stateMutability": "nonpayable",
      "type": "function"
    },
    {
      "inputs": [
        {
          "internalType": "uint256",
          "name": "_collectionId",
          "type": "uint256"
        },
        {
          "internalType": "uint256",
          "name": "_nftId",
          "type": "uint256"
        },
        {
          "internalType": "enum AccessLevel",
          "name": "_accessLevel",
          "type": "uint8"
        }
      ],
      "name": "setMaxAccessLevel",
      "outputs": [],
      "stateMutability": "nonpayable",
      "type": "function"
    }
  ],
  "bytecode": "0x60806040523480156200001157600080fd5b50d380156200001f57600080fd5b50d280156200002d57600080fd5b5060405162002c8d38038062002c8d83398181016040528101906200005391906200014d565b806000806101000a81548173ffffffffffffffffffffffffffffffffffffffff021916908373ffffffffffffffffffffffffffffffffffffffff16021790555060008054906101000a900473ffffffffffffffffffffffffffffffffffffffff1673ffffffffffffffffffffffffffffffffffffffff1663a2aadc54336040518263ffffffff1660e01b8152600401620000ee919062000190565b600060405180830381600087803b1580156200010957600080fd5b505af11580156200011e573d6000803e3d6000fd5b505050505062000221565b6000815190506200013a8162000207565b6200014581620001ad565b905092915050565b60006020828403121562000166576200016562000202565b5b6000620001768482850162000129565b91505092915050565b6200018a81620001ad565b82525050565b6000602082019050620001a760008301846200017f565b92915050565b6000620001ba82620001c1565b9050919050565b600073ffffffffffffffffffffffffffffffffffffffff82169050919050565b600074ffffffffffffffffffffffffffffffffffffffffff82169050919050565b600080fd5b6200021281620001e1565b81146200021e57600080fd5b50565b612a5c80620002316000396000f3fe608060405234801561001057600080fd5b50d3801561001d57600080fd5b50d2801561002a57600080fd5b50600436106100ad5760003560e01c8063be18f39511610080578063be18f39514610138578063c236501314610168578063c9835f3014610198578063d17f650d146101c8578063e57fb90d146101e4576100ad565b806313007d55146100b25780633a93511d146100d05780633b984bff146100ec57806396360e531461011c575b600080fd5b6100ba610200565b6040516100c79190612624565b60405180910390f35b6100ea60048036038101906100e59190612328565b610224565b005b610106600480360381019061010191906122c1565b61057c565b6040516101139190612609565b60405180910390f35b610136600480360381019061013191906122c1565b610718565b005b610152600480360381019061014d919061226e565b610bef565b60405161015f919061263f565b60405180910390f35b610182600480360381019061017d919061222e565b610cd6565b60405161018f91906125e7565b60405180910390f35b6101b260048036038101906101ad91906121d4565b610de7565b6040516101bf91906125c5565b60405180910390f35b6101e260048036038101906101dd9190612328565b610ed4565b005b6101fe60048036038101906101f9919061226e565b6111c4565b005b60008054906101000a900473ffffffffffffffffffffffffffffffffffffffff1681565b828260008060009054906101000a900473ffffffffffffffffffffffffffffffffffffffff1673ffffffffffffffffffffffffffffffffffffffff1663c6310de3336040518263ffffffff1660e01b815260040161028291906125aa565b60206040518083038186803b15801561029a57600080fd5b505afa1580156102ae573d6000803e3d6000fd5b505050506040513d601f19601f820116820180604052508101906102d29190612201565b905060006006808111156102e9576102e8612864565b5b60016000868152602001908152602001600020600085815260200190815260200160002060003373ffffffffffffffffffffffffffffffffffffffff1673ffffffffffffffffffffffffffffffffffffffff16815260200190815260200160002060009054906101000a900460ff16600681111561036a57610369612864565b5b1015905081806103775750805b6103b6576040517f08c379a00000000000000000000000000000000000000000000000000000000081526004016103ad9061269a565b60405180910390fd5b86868660008160068111156103ce576103cd612864565b5b60036000868152602001908152602001600020600085815260200190815260200160002060009054906101000a900460ff16600681111561041257610411612864565b5b10159050600080600681111561042b5761042a612864565b5b60036000878152602001908152602001600020600086815260200190815260200160002060009054906101000a900460ff16600681111561046f5761046e612864565b5b149050818061047b5750805b6104ba576040517f08c379a00000000000000000000000000000000000000000000000000000000081526004016104b19061267a565b60405180910390fd5b600060068111156104ce576104cd612864565b5b8a60068111156104e1576104e0612864565b5b1415610522576040517f08c379a00000000000000000000000000000000000000000000000000000000081526004016105199061265a565b60405180910390fd5b89600360008e815260200190815260200160002060008d815260200190815260200160002060006101000a81548160ff0219169083600681111561056957610568612864565b5b0217905550505050505050505050505050565b600081600681111561059157610590612864565b5b60026000878152602001908152602001600020600086815260200190815260200160002060009054906101000a900460ff1660068111156105d5576105d4612864565b5b106105e35760019050610710565b600060016000878152602001908152602001600020600086815260200190815260200160002060008573ffffffffffffffffffffffffffffffffffffffff1673ffffffffffffffffffffffffffffffffffffffff16815260200190815260200160002060009054906101000a900460ff1690506000600681111561066a57610669612864565b5b81600681111561067d5761067c612864565b5b14156106e45782600681111561069657610695612864565b5b60026000888152602001908152602001600020600087815260200190815260200160002060009054906101000a900460ff1660068111156106da576106d9612864565b5b1015915050610710565b8260068111156106f7576106f6612864565b5b81600681111561070a57610709612864565b5b10159150505b949350505050565b838360008060009054906101000a900473ffffffffffffffffffffffffffffffffffffffff1673ffffffffffffffffffffffffffffffffffffffff1663c6310de3336040518263ffffffff1660e01b815260040161077691906125aa565b60206040518083038186803b15801561078e57600080fd5b505afa1580156107a2573d6000803e3d6000fd5b505050506040513d601f19601f820116820180604052508101906107c69190612201565b905060006006808111156107dd576107dc612864565b5b60016000868152602001908152602001600020600085815260200190815260200160002060003373ffffffffffffffffffffffffffffffffffffffff1673ffffffffffffffffffffffffffffffffffffffff16815260200190815260200160002060009054906101000a900460ff16600681111561085e5761085d612864565b5b10159050818061086b5750805b6108aa576040517f08c379a00000000000000000000000000000000000000000000000000000000081526004016108a19061269a565b60405180910390fd5b87878660008160068111156108c2576108c1612864565b5b60036000868152602001908152602001600020600085815260200190815260200160002060009054906101000a900460ff16600681111561090657610905612864565b5b10159050600080600681111561091f5761091e612864565b5b60036000878152602001908152602001600020600086815260200190815260200160002060009054906101000a900460ff16600681111561096357610962612864565b5b149050818061096f5750805b6109ae576040517f08c379a00000000000000000000000000000000000000000000000000000000081526004016109a59061267a565b60405180910390fd5b600060068111156109c2576109c1612864565b5b8a60068111156109d5576109d4612864565b5b1415610a16576040517f08c379a0000000000000000000000000000000000000000000000000000000008152600401610a0d9061265a565b60405180910390fd5b89600160008f815260200190815260200160002060008e815260200190815260200160002060008d73ffffffffffffffffffffffffffffffffffffffff1673ffffffffffffffffffffffffffffffffffffffff16815260200190815260200160002060006101000a81548160ff02191690836006811115610a9a57610a99612864565b5b021790555089600460008d73ffffffffffffffffffffffffffffffffffffffff1673ffffffffffffffffffffffffffffffffffffffff16815260200190815260200160002060008f815260200190815260200160002060008e815260200190815260200160002060006101000a81548160ff02191690836006811115610b2357610b22612864565b5b0217905550610b348b8e8e8d61143f565b610b408d8d8d8d611735565b8a73ffffffffffffffffffffffffffffffffffffffff168c8e7fd5422307db29d9fcf76206ee945905c864bf3bf5118ab875bc2c9523e59866e98d604051610b88919061263f565b60405180910390a48b8d8c73ffffffffffffffffffffffffffffffffffffffff167f9c22416d2351a8fd56706bdcaba7a6a4a245104ea90834907b9f503a5de96c438d604051610bd8919061263f565b60405180910390a450505050505050505050505050565b60008060016000868152602001908152602001600020600085815260200190815260200160002060008473ffffffffffffffffffffffffffffffffffffffff1673ffffffffffffffffffffffffffffffffffffffff16815260200190815260200160002060009054906101000a900460ff16905060006006811115610c7757610c76612864565b5b816006811115610c8a57610c89612864565b5b1415610cca5760026000868152602001908152602001600020600085815260200190815260200160002060009054906101000a900460ff16915050610ccf565b809150505b9392505050565b6060600760008481526020019081526020016000206000838152602001908152602001600020805480602002602001604051908101604052809291908181526020016000905b82821015610ddb578382906000526020600020016040518060400160405290816000820160009054906101000a900473ffffffffffffffffffffffffffffffffffffffff1673ffffffffffffffffffffffffffffffffffffffff1673ffffffffffffffffffffffffffffffffffffffff1681526020016000820160149054906101000a900460ff166006811115610db657610db5612864565b5b6006811115610dc857610dc7612864565b5b8152505081526020019060010190610d1c565b50505050905092915050565b6060600560008373ffffffffffffffffffffffffffffffffffffffff1673ffffffffffffffffffffffffffffffffffffffff168152602001908152602001600020805480602002602001604051908101604052809291908181526020016000905b82821015610ec9578382906000526020600020906003020160405180606001604052908160008201548152602001600182015481526020016002820160009054906101000a900460ff166006811115610ea457610ea3612864565b5b6006811115610eb657610eb5612864565b5b8152505081526020019060010190610e48565b505050509050919050565b828260008060009054906101000a900473ffffffffffffffffffffffffffffffffffffffff1673ffffffffffffffffffffffffffffffffffffffff1663c6310de3336040518263ffffffff1660e01b8152600401610f3291906125aa565b60206040518083038186803b158015610f4a57600080fd5b505afa158015610f5e573d6000803e3d6000fd5b505050506040513d601f19601f82011682018060405250810190610f829190612201565b90506000600680811115610f9957610f98612864565b5b60016000868152602001908152602001600020600085815260200190815260200160002060003373ffffffffffffffffffffffffffffffffffffffff1673ffffffffffffffffffffffffffffffffffffffff16815260200190815260200160002060009054906101000a900460ff16600681111561101a57611019612864565b5b1015905081806110275750805b611066576040517f08c379a000000000000000000000000000000000000000000000000000000000815260040161105d9061269a565b60405180910390fd5b868686600081600681111561107e5761107d612864565b5b60036000868152602001908152602001600020600085815260200190815260200160002060009054906101000a900460ff1660068111156110c2576110c1612864565b5b1015905060008060068111156110db576110da612864565b5b60036000878152602001908152602001600020600086815260200190815260200160002060009054906101000a900460ff16600681111561111f5761111e612864565b5b149050818061112b5750805b61116a576040517f08c379a00000000000000000000000000000000000000000000000000000000081526004016111619061267a565b60405180910390fd5b89600260008e815260200190815260200160002060008d815260200190815260200160002060006101000a81548160ff021916908360068111156111b1576111b0612864565b5b0217905550505050505050505050505050565b60008054906101000a900473ffffffffffffffffffffffffffffffffffffffff1673ffffffffffffffffffffffffffffffffffffffff1663c6310de3336040518263ffffffff1660e01b815260040161121d91906125aa565b60206040518083038186803b15801561123557600080fd5b505afa158015611249573d6000803e3d6000fd5b505050506040513d601f19601f8201168201806040525081019061126d9190612201565b6112ac576040517f08c379a00000000000000000000000000000000000000000000000000000000081526004016112a39061269a565b60405180910390fd5b60016000848152602001908152602001600020600083815260200190815260200160002060008273ffffffffffffffffffffffffffffffffffffffff1673ffffffffffffffffffffffffffffffffffffffff16815260200190815260200160002060006101000a81549060ff0219169055600460008273ffffffffffffffffffffffffffffffffffffffff1673ffffffffffffffffffffffffffffffffffffffff1681526020019081526020016000206000848152602001908152602001600020600083815260200190815260200160002060006101000a81549060ff0219169055611399818484611a15565b6113a4838383611dbd565b8073ffffffffffffffffffffffffffffffffffffffff1682847fd2ba3a3435b2cf3d7fc56557f43627b4c46c251aae1e05868586ebcb52a511f160405160405180910390a481838273ffffffffffffffffffffffffffffffffffffffff167f9c22416d2351a8fd56706bdcaba7a6a4a245104ea90834907b9f503a5de96c436000604051611432919061263f565b60405180910390a4505050565b6000600660008673ffffffffffffffffffffffffffffffffffffffff1673ffffffffffffffffffffffffffffffffffffffff1681526020019081526020016000206000858152602001908152602001600020600084815260200190815260200160002054141561163157600560008573ffffffffffffffffffffffffffffffffffffffff1673ffffffffffffffffffffffffffffffffffffffff168152602001908152602001600020604051806060016040528085815260200184815260200183600681111561151257611511612864565b5b8152509080600181540180825580915050600190039060005260206000209060030201600090919091909150600082015181600001556020820151816001015560408201518160020160006101000a81548160ff0219169083600681111561157d5761157c612864565b5b02179055505050600560008573ffffffffffffffffffffffffffffffffffffffff1673ffffffffffffffffffffffffffffffffffffffff16815260200190815260200160002080549050600660008673ffffffffffffffffffffffffffffffffffffffff1673ffffffffffffffffffffffffffffffffffffffff168152602001908152602001600020600085815260200190815260200160002060008481526020019081526020016000208190555061172f565b60006001600660008773ffffffffffffffffffffffffffffffffffffffff1673ffffffffffffffffffffffffffffffffffffffff16815260200190815260200160002060008681526020019081526020016000206000858152602001908152602001600020546116a1919061273d565b905081600560008773ffffffffffffffffffffffffffffffffffffffff1673ffffffffffffffffffffffffffffffffffffffff16815260200190815260200160002082815481106116f5576116f46128c2565b5b906000526020600020906003020160020160006101000a81548160ff0219169083600681111561172857611727612864565b5b0217905550505b50505050565b600060086000868152602001908152602001600020600085815260200190815260200160002060008473ffffffffffffffffffffffffffffffffffffffff1673ffffffffffffffffffffffffffffffffffffffff1681526020019081526020016000205414156119305760076000858152602001908152602001600020600084815260200190815260200160002060405180604001604052808473ffffffffffffffffffffffffffffffffffffffff1681526020018360068111156117fd576117fc612864565b5b8152509080600181540180825580915050600190039060005260206000200160009091909190915060008201518160000160006101000a81548173ffffffffffffffffffffffffffffffffffffffff021916908373ffffffffffffffffffffffffffffffffffffffff16021790555060208201518160000160146101000a81548160ff0219169083600681111561189757611896612864565b5b021790555050506007600085815260200190815260200160002060008481526020019081526020016000208054905060086000868152602001908152602001600020600085815260200190815260200160002060008473ffffffffffffffffffffffffffffffffffffffff1673ffffffffffffffffffffffffffffffffffffffff16815260200190815260200160002081905550611a0f565b6000600160086000878152602001908152602001600020600086815260200190815260200160002060008573ffffffffffffffffffffffffffffffffffffffff1673ffffffffffffffffffffffffffffffffffffffff168152602001908152602001600020546119a0919061273d565b90508160076000878152602001908152602001600020600086815260200190815260200160002082815481106119d9576119d86128c2565b5b9060005260206000200160000160146101000a81548160ff02191690836006811115611a0857611a07612864565b5b0217905550505b50505050565b6000600660008573ffffffffffffffffffffffffffffffffffffffff1673ffffffffffffffffffffffffffffffffffffffff168152602001908152602001600020600084815260200190815260200160002060008381526020019081526020016000205490506000811115611db7576000600182611a93919061273d565b905060006001600560008873ffffffffffffffffffffffffffffffffffffffff1673ffffffffffffffffffffffffffffffffffffffff16815260200190815260200160002080549050611ae6919061273d565b9050808214611cc3576000600560008873ffffffffffffffffffffffffffffffffffffffff1673ffffffffffffffffffffffffffffffffffffffff1681526020019081526020016000208281548110611b4257611b416128c2565b5b906000526020600020906003020160405180606001604052908160008201548152602001600182015481526020016002820160009054906101000a900460ff166006811115611b9457611b93612864565b5b6006811115611ba657611ba5612864565b5b81525050905080600560008973ffffffffffffffffffffffffffffffffffffffff1673ffffffffffffffffffffffffffffffffffffffff1681526020019081526020016000208481548110611bfe57611bfd6128c2565b5b9060005260206000209060030201600082015181600001556020820151816001015560408201518160020160006101000a81548160ff02191690836006811115611c4b57611c4a612864565b5b021790555090505083600660008973ffffffffffffffffffffffffffffffffffffffff1673ffffffffffffffffffffffffffffffffffffffff16815260200190815260200160002060008360000151815260200190815260200160002060008360200151815260200190815260200160002081905550505b600560008773ffffffffffffffffffffffffffffffffffffffff1673ffffffffffffffffffffffffffffffffffffffff168152602001908152602001600020805480611d1257611d11612893565b5b600190038181906000526020600020906003020160008082016000905560018201600090556002820160006101000a81549060ff021916905550509055600660008773ffffffffffffffffffffffffffffffffffffffff1673ffffffffffffffffffffffffffffffffffffffff168152602001908152602001600020600086815260200190815260200160002060008581526020019081526020016000206000905550505b50505050565b600060086000858152602001908152602001600020600084815260200190815260200160002060008373ffffffffffffffffffffffffffffffffffffffff1673ffffffffffffffffffffffffffffffffffffffff168152602001908152602001600020549050600081111561216f576000600182611e3b919061273d565b90506000600160076000888152602001908152602001600020600087815260200190815260200160002080549050611e73919061273d565b90508082146120835760006007600088815260200190815260200160002060008781526020019081526020016000208281548110611eb457611eb36128c2565b5b906000526020600020016040518060400160405290816000820160009054906101000a900473ffffffffffffffffffffffffffffffffffffffff1673ffffffffffffffffffffffffffffffffffffffff1673ffffffffffffffffffffffffffffffffffffffff1681526020016000820160149054906101000a900460ff166006811115611f4457611f43612864565b5b6006811115611f5657611f55612864565b5b815250509050806007600089815260200190815260200160002060008881526020019081526020016000208481548110611f9357611f926128c2565b5b9060005260206000200160008201518160000160006101000a81548173ffffffffffffffffffffffffffffffffffffffff021916908373ffffffffffffffffffffffffffffffffffffffff16021790555060208201518160000160146101000a81548160ff0219169083600681111561200f5761200e612864565b5b0217905550905050836008600089815260200190815260200160002060008881526020019081526020016000206000836000015173ffffffffffffffffffffffffffffffffffffffff1673ffffffffffffffffffffffffffffffffffffffff16815260200190815260200160002081905550505b6007600087815260200190815260200160002060008681526020019081526020016000208054806120b7576120b6612893565b5b60019003818190600052602060002001600080820160006101000a81549073ffffffffffffffffffffffffffffffffffffffff02191690556000820160146101000a81549060ff02191690555050905560086000878152602001908152602001600020600086815260200190815260200160002060008573ffffffffffffffffffffffffffffffffffffffff1673ffffffffffffffffffffffffffffffffffffffff1681526020019081526020016000206000905550505b50505050565b600081359050612184816129d1565b61218d81612771565b905092915050565b6000815190506121a4816129e8565b92915050565b6000813590506121b9816129ff565b92915050565b6000813590506121ce81612a0f565b92915050565b6000602082840312156121ea576121e96128f1565b5b60006121f884828501612175565b91505092915050565b600060208284031215612217576122166128f1565b5b600061222584828501612195565b91505092915050565b60008060408385031215612245576122446128f1565b5b6000612253858286016121bf565b9250506020612264858286016121bf565b9150509250929050565b600080600060608486031215612287576122866128f1565b5b6000612295868287016121bf565b93505060206122a6868287016121bf565b92505060406122b786828701612175565b9150509250925092565b600080600080608085870312156122db576122da6128f1565b5b60006122e9878288016121bf565b94505060206122fa878288016121bf565b935050604061230b87828801612175565b925050606061231c878288016121aa565b91505092959194509250565b600080600060608486031215612341576123406128f1565b5b600061234f868287016121bf565b9350506020612360868287016121bf565b9250506040612371868287016121aa565b9150509250925092565b6000612387838361252a565b60608301905092915050565b600061239f838361256c565b60408301905092915050565b6123b481612771565b82525050565b6123c381612771565b82525050565b60006123d4826126da565b6123de818561270a565b93506123e9836126ba565b8060005b8381101561241a578151612401888261237b565b975061240c836126f0565b9250506001810190506123ed565b5085935050505092915050565b6000612432826126e5565b61243c818561271b565b9350612447836126ca565b8060005b8381101561247857815161245f8882612393565b975061246a836126fd565b92505060018101905061244b565b5085935050505092915050565b61248e81612783565b82525050565b61249d816127ed565b82525050565b6124ac816127ff565b82525050565b6124bb816127ff565b82525050565b60006124ce60268361272c565b91506124d9826128f6565b604082019050919050565b60006124f160378361272c565b91506124fc82612945565b604082019050919050565b600061251460208361272c565b915061251f82612994565b602082019050919050565b606082016000820151612540600085018261259b565b506020820151612553602085018261259b565b50604082015161256660408501826124a3565b50505050565b60408201600082015161258260008501826123ab565b50602082015161259560208501826124a3565b50505050565b6125a4816127e3565b82525050565b60006020820190506125bf60008301846123ba565b92915050565b600060208201905081810360008301526125df81846123c9565b905092915050565b600060208201905081810360008301526126018184612427565b905092915050565b600060208201905061261e6000830184612485565b92915050565b60006020820190506126396000830184612494565b92915050565b600060208201905061265460008301846124b2565b92915050565b60006020820190508181036000830152612673816124c1565b9050919050565b60006020820190508181036000830152612693816124e4565b9050919050565b600060208201905081810360008301526126b381612507565b9050919050565b6000819050602082019050919050565b6000819050602082019050919050565b600081519050919050565b600081519050919050565b6000602082019050919050565b6000602082019050919050565b600082825260208201905092915050565b600082825260208201905092915050565b600082825260208201905092915050565b6000612748826127e3565b9150612753836127e3565b92508282101561276657612765612835565b5b828203905092915050565b600061277c826127a2565b9050919050565b60008115159050919050565b600081905061279d826129bd565b919050565b600073ffffffffffffffffffffffffffffffffffffffff82169050919050565b600074ffffffffffffffffffffffffffffffffffffffffff82169050919050565b6000819050919050565b60006127f882612811565b9050919050565b600061280a8261278f565b9050919050565b600061281c82612823565b9050919050565b600061282e826127a2565b9050919050565b7f4e487b7100000000000000000000000000000000000000000000000000000000600052601160045260246000fd5b7f4e487b7100000000000000000000000000000000000000000000000000000000600052602160045260246000fd5b7f4e487b7100000000000000000000000000000000000000000000000000000000600052603160045260246000fd5b7f4e487b7100000000000000000000000000000000000000000000000000000000600052603260045260246000fd5b600080fd5b7f4e4654416363657373436f6e74726f6c3a20496e76616c69642061636365737360008201527f206c6576656c0000000000000000000000000000000000000000000000000000602082015250565b7f4e4654416363657373436f6e74726f6c3a20416363657373206c6576656c206560008201527f786365656473206d617820616363657373206c6576656c000000000000000000602082015250565b7f4e4654416363657373436f6e74726f6c3a204e6f7420617574686f72697a6564600082015250565b600781106129ce576129cd612864565b5b50565b6129da816127c2565b81146129e557600080fd5b50565b6129f181612783565b81146129fc57600080fd5b50565b60078110612a0c57600080fd5b50565b612a18816127e3565b8114612a2357600080fd5b5056fea26474726f6e582212206f3e31682f8c0bb3d56f7af0f1e6b1e1a5307177dfadcf7c19744ae455ac773764736f6c63430008070033",
  "source": "// SPDX-License-Identifier: MIT\r\npragma solidity ^0.8.7;\r\n\r\nimport \"./MasterAccessControl.sol\";\r\n\r\n    // Access Levels\r\nenum AccessLevel {\r\n        None,\r\n        UseModel,\r\n        Resale,\r\n        CreateReplica,\r\n        ViewAndDownload,\r\n        EditData,\r\n        AbsoluteOwnership\r\n    }\r\n\r\n\r\n\r\ncontract NFTAccessControl {\r\n    // Reference to Master Access Control\r\n    MasterAccessControl public accessControl;\r\n\r\n    // Access Levels\r\n\r\n    // None                  - No access\r\n    // 1 - UseModel          - Can use the model\r\n    // 2 - Resale            - Can resell the NFT without replicating and data and model view\r\n    // 3 - CreateReplica     - Can create a replica of the NFT but not data view\r\n    // 4 - ViewAndDownload   - Can view and download the data and model but no absolute ownership\r\n    // 5 - EditData          - Can NFT Metadata\r\n    // 6 - AbsoluteOwnership - Can view, download, create replica, resale, and use model, set access levels\r\n    mapping(uint256 => mapping(uint256 => mapping(address => AccessLevel))) private nftAccess; // collectionId => NFTId => address => AccessLevel\r\n\r\n    // Default access level for all users per NFT\r\n    mapping(uint256 => mapping(uint256 => AccessLevel)) private defaultAccessLevel;\r\n\r\n    // Max access level for a NFT\r\n    mapping(uint256 => mapping(uint256 => AccessLevel)) private maxAccessLevel;\r\n\r\n    // User Access Mappings\r\n    mapping(address => mapping(uint256 => mapping (uint256 => AccessLevel))) private userAccess; // address => collectionId => NFTId\r\n\r\n    // Mapping from user to their list of access entries\r\n    mapping(address => AccessEntry[]) private userAccessList;\r\n\r\n    // Helper mapping to track indices in userAccessList for efficient removal\r\n    mapping(address => mapping(uint256 => mapping(uint256 => uint256))) private userAccessIndex; // address => collectionId => nftId => index in userAccessList (index + 1)\r\n\r\n    // Structs\r\n    struct AccessEntry {\r\n        uint256 collectionId;\r\n        uint256 nftId;\r\n        AccessLevel accessLevel;\r\n    }\r\n\r\n    // New struct to store user access for an NFT\r\n    struct UserAccess {\r\n        address user;\r\n        AccessLevel accessLevel;\r\n    }\r\n\r\n    // Mapping from NFT to list of user accesses\r\n    mapping(uint256 => mapping(uint256 => UserAccess[])) private nftAccessList; // collectionId => nftId => array of UserAccess\r\n\r\n    // Helper mapping to track indices in nftAccessList for efficient removal\r\n    mapping(uint256 => mapping(uint256 => mapping(address => uint256))) private nftAccessIndex; // collectionId => nftId => user => index in nftAccessList (index + 1)\r\n\r\n    // Events\r\n    event AccessGranted(uint256 indexed collectionId, uint256 indexed nftId, address indexed user, AccessLevel accessLevel);\r\n    event AccessRevoked(uint256 indexed collectionId, uint256 indexed nftId, address indexed user);\r\n    event AccessLevelChanged(address indexed user, uint256 indexed collectionId, uint256 indexed nftId, AccessLevel newAccessLevel);\r\n\r\n    // // AccessEntry struct\r\n    // struct AccessEntry {\r\n    //     uint256 collectionId;\r\n    //     uint256 nftId;\r\n    //     AccessLevel accessLevel;\r\n    // }\r\n\r\n    // // Mapping from user to their list of access entries\r\n    // mapping(address => AccessEntry[]) private userAccessList;\r\n\r\n    // // Helper mapping to track indices in userAccessList for efficient removal\r\n    // mapping(address => mapping(uint256 => mapping(uint256 => uint256))) private userAccessIndex; // address => collectionId => nftId => index in userAccessList (index + 1)\r\n\r\n\r\n\r\n    // // Events\r\n    // event AccessGranted(uint256 indexed collectionId, uint256 indexed nftId, address indexed user, AccessLevel accessLevel);\r\n    // event AccessRevoked(uint256 indexed collectionId, uint256 indexed nftId, address indexed user);\r\n    // event AccessLevelChanged(address indexed user, uint256 indexed collectionId, uint256 indexed nftId, AccessLevel newAccessLevel);\r\n\r\n    \r\n\r\n    \r\n    // Constructor\r\n    constructor(address _accessControlAddress) {\r\n        accessControl = MasterAccessControl(_accessControlAddress);\r\n        accessControl.grantSelfAccess(msg.sender);\r\n    }\r\n\r\n\r\n    //------------------------------------------------------------------------\r\n    // ------------------------------ Modifiers ------------------------------\r\n    //------------------------------------------------------------------------\r\n\r\n\r\n\r\n    // Modifier to check access\r\n    modifier onlyAuthorized() {\r\n        require(accessControl.selfCheckAccess(msg.sender), \"NFTAccessControl: Not authorized\");\r\n        _;\r\n    }\r\n\r\n    modifier onlyAuthorizedOrOwner(uint256 _collectionId, uint256 _nftId) {\r\n\r\n        bool isAuthorized   = accessControl.selfCheckAccess(msg.sender);\r\n        bool OwnerOrGreater = nftAccess[_collectionId][_nftId][msg.sender] >= AccessLevel.AbsoluteOwnership;\r\n\r\n        require(isAuthorized || OwnerOrGreater, \"NFTAccessControl: Not authorized\");\r\n        _;\r\n    }\r\n\r\n    modifier maxAccessLevelCheck(uint256 _collectionId, uint256 _nftId, AccessLevel _accessLevel) {\r\n\r\n        bool maxAccess      = maxAccessLevel[_collectionId][_nftId] >= _accessLevel;\r\n        bool isMaxAccess    = maxAccessLevel[_collectionId][_nftId] == AccessLevel.None;\r\n\r\n        require(maxAccess || isMaxAccess , \"NFTAccessControl: Access level exceeds max access level\");\r\n        _;\r\n    }\r\n\r\n\r\n\r\n\r\n\r\n    //------------------------------------------------------------------------\r\n    // -------------------------- Setting Default Access ---------------------\r\n    //------------------------------------------------------------------------\r\n\r\n\r\n    function setMaxAccessLevel(uint256 _collectionId, uint256 _nftId, AccessLevel _accessLevel) \r\n    external \r\n    onlyAuthorizedOrOwner(_collectionId, _nftId) \r\n    maxAccessLevelCheck(_collectionId, _nftId, _accessLevel)\r\n    {\r\n        require(_accessLevel != AccessLevel.None, \"NFTAccessControl: Invalid access level\");\r\n        maxAccessLevel[_collectionId][_nftId] = _accessLevel;\r\n    }\r\n\r\n\r\n    // Set default access level\r\n    function setDefaultAccessLevel(uint256 _collectionId, uint256 _nftId, AccessLevel _accessLevel) \r\n    external \r\n    onlyAuthorizedOrOwner(_collectionId, _nftId) \r\n    maxAccessLevelCheck(_collectionId, _nftId, _accessLevel)\r\n    {   \r\n        defaultAccessLevel[_collectionId][_nftId] = _accessLevel;\r\n    }\r\n\r\n\r\n    //------------------------------------------------------------------------\r\n    // --------------------------- Setting User Access -----------------------\r\n    //------------------------------------------------------------------------\r\n\r\n\r\n\r\n    // // Grant access to a user\r\n    // function grantAccess(uint256 _collectionId, uint256 _nftId, address _user, AccessLevel _accessLevel) external onlyAuthorizedOrOwner(_collectionId, _nftId) {\r\n    //     require(_accessLevel != AccessLevel.None, \"NFTAccessControl: Invalid access level\");\r\n\r\n    //     nftAccess[_collectionId][_nftId][_user] = _accessLevel;\r\n    //     userAccess[_user][_collectionId][_nftId] = _accessLevel;\r\n\r\n    //     emit AccessGranted(_collectionId, _nftId, _user, _accessLevel);\r\n    // }\r\n\r\n\r\n// Grant Access to a User\r\n// Main function\r\nfunction grantAccess(\r\n    uint256 _collectionId,\r\n    uint256 _nftId,\r\n    address _user,\r\n    AccessLevel _accessLevel\r\n)\r\n    external\r\n    onlyAuthorizedOrOwner(_collectionId, _nftId)\r\n    maxAccessLevelCheck(_collectionId, _nftId, _accessLevel)\r\n{\r\n    require(_accessLevel != AccessLevel.None, \"NFTAccessControl: Invalid access level\");\r\n\r\n    nftAccess[_collectionId][_nftId][_user] = _accessLevel;\r\n    userAccess[_user][_collectionId][_nftId] = _accessLevel;\r\n\r\n    _updateUserAccessList(_user, _collectionId, _nftId, _accessLevel);\r\n    _updateNFTAccessList(_collectionId, _nftId, _user, _accessLevel);\r\n\r\n    emit AccessGranted(_collectionId, _nftId, _user, _accessLevel);\r\n    emit AccessLevelChanged(_user, _collectionId, _nftId, _accessLevel);\r\n}\r\n\r\n// Function to update user access list\r\nfunction _updateUserAccessList(\r\n    address _user,\r\n    uint256 _collectionId,\r\n    uint256 _nftId,\r\n    AccessLevel _accessLevel\r\n) internal {\r\n    if (userAccessIndex[_user][_collectionId][_nftId] == 0) {\r\n        // Entry does not exist\r\n        userAccessList[_user].push(AccessEntry({\r\n            collectionId: _collectionId,\r\n            nftId: _nftId,\r\n            accessLevel: _accessLevel\r\n        }));\r\n        // Store index (indexing from 1 because default mapping value is 0)\r\n        userAccessIndex[_user][_collectionId][_nftId] = userAccessList[_user].length;\r\n    } else {\r\n        // Entry exists, update accessLevel\r\n        uint256 index = userAccessIndex[_user][_collectionId][_nftId] - 1;\r\n        userAccessList[_user][index].accessLevel = _accessLevel;\r\n    }\r\n}\r\n\r\n// Function to update NFT access list\r\nfunction _updateNFTAccessList(\r\n    uint256 _collectionId,\r\n    uint256 _nftId,\r\n    address _user,\r\n    AccessLevel _accessLevel\r\n) internal {\r\n    if (nftAccessIndex[_collectionId][_nftId][_user] == 0) {\r\n        // User not in the list, add them\r\n        nftAccessList[_collectionId][_nftId].push(UserAccess({\r\n            user: _user,\r\n            accessLevel: _accessLevel\r\n        }));\r\n        nftAccessIndex[_collectionId][_nftId][_user] = nftAccessList[_collectionId][_nftId].length;\r\n    } else {\r\n        // User exists, update accessLevel\r\n        uint256 index = nftAccessIndex[_collectionId][_nftId][_user] - 1;\r\n        nftAccessList[_collectionId][_nftId][index].accessLevel = _accessLevel;\r\n    }\r\n}\r\n\r\n\r\n\r\n\r\n    // // Revoke access from a user\r\n    // function revokeAccess(uint256 _collectionId, uint256 _nftId, address _user) external onlyAuthorized {\r\n    //     delete nftAccess[_collectionId][_nftId][_user];\r\n\r\n    //     delete userAccess[_user][_collectionId][_nftId];\r\n\r\n    //     emit AccessRevoked(_collectionId, _nftId, _user);\r\n    // }\r\n\r\n\r\n\r\n // Revoke Access from a User\r\nfunction revokeAccess(\r\n    uint256 _collectionId,\r\n    uint256 _nftId,\r\n    address _user\r\n)\r\n    external\r\n    onlyAuthorized\r\n{\r\n    delete nftAccess[_collectionId][_nftId][_user];\r\n    delete userAccess[_user][_collectionId][_nftId];\r\n\r\n    _updateUserAccessListOnRevoke(_user, _collectionId, _nftId);\r\n    _updateNFTAccessListOnRevoke(_collectionId, _nftId, _user);\r\n\r\n    emit AccessRevoked(_collectionId, _nftId, _user);\r\n    emit AccessLevelChanged(_user, _collectionId, _nftId, AccessLevel.None);\r\n}\r\n\r\n// Function to update user access list on revoke\r\nfunction _updateUserAccessListOnRevoke(\r\n    address _user,\r\n    uint256 _collectionId,\r\n    uint256 _nftId\r\n) internal {\r\n    uint256 userIndexPlusOne = userAccessIndex[_user][_collectionId][_nftId];\r\n    if (userIndexPlusOne > 0) {\r\n        uint256 userIndex = userIndexPlusOne - 1;\r\n        uint256 lastIndex = userAccessList[_user].length - 1;\r\n\r\n        if (userIndex != lastIndex) {\r\n            // Swap the last entry with the one to delete\r\n            AccessEntry memory lastEntry = userAccessList[_user][lastIndex];\r\n            userAccessList[_user][userIndex] = lastEntry;\r\n            // Update the index mapping\r\n            userAccessIndex[_user][lastEntry.collectionId][lastEntry.nftId] = userIndexPlusOne;\r\n        }\r\n\r\n        // Remove the last element\r\n        userAccessList[_user].pop();\r\n        // Delete index mapping\r\n        delete userAccessIndex[_user][_collectionId][_nftId];\r\n    }\r\n}\r\n\r\n// Function to update NFT access list on revoke\r\nfunction _updateNFTAccessListOnRevoke(\r\n    uint256 _collectionId,\r\n    uint256 _nftId,\r\n    address _user\r\n) internal {\r\n    uint256 nftIndexPlusOne = nftAccessIndex[_collectionId][_nftId][_user];\r\n    if (nftIndexPlusOne > 0) {\r\n        uint256 nftIndex = nftIndexPlusOne - 1;\r\n        uint256 lastIndex = nftAccessList[_collectionId][_nftId].length - 1;\r\n\r\n        if (nftIndex != lastIndex) {\r\n            // Swap the last entry with the one to delete\r\n            UserAccess memory lastUserAccess = nftAccessList[_collectionId][_nftId][lastIndex];\r\n            nftAccessList[_collectionId][_nftId][nftIndex] = lastUserAccess;\r\n            // Update the index mapping\r\n            nftAccessIndex[_collectionId][_nftId][lastUserAccess.user] = nftIndexPlusOne;\r\n        }\r\n\r\n        // Remove the last element\r\n        nftAccessList[_collectionId][_nftId].pop();\r\n        // Delete index mapping\r\n        delete nftAccessIndex[_collectionId][_nftId][_user];\r\n    }\r\n}\r\n\r\n\r\n\r\n    // -----------------------------------------------------------------------\r\n    // ------------------------------ Getting Access -------------------------\r\n    // -----------------------------------------------------------------------\r\n\r\n\r\n    // Get all access for a user\r\n\r\n    // struct UserAccessStruct {\r\n    //     uint256 collectionIds;\r\n    //     uint256 nftIds;\r\n    //     AccessLevel accessLevels;\r\n    // }\r\n\r\n    // function getAllAccessForUser(address _user) external view returns (UserAccessStruct[] memory) {\r\n        \r\n\r\n    //     uint256 collectionIds = ;\r\n    //     uint256 nftIds;\r\n    //     uint256 accessLevels;\r\n\r\n    //     UserAccessStruct[] memory userAccessStruct = new UserAccessStruct[](collectionIds);\r\n\r\n    //     for (uint256 i = 0; i < collectionIds; i++) {\r\n    //         nftIds = accessControl.getNFTCount(i);\r\n    //         userAccessStruct[i].collectionIds = i;\r\n    //         userAccessStruct[i].nftIds = nftIds;\r\n    //         for (uint256 j = 0; j < nftIds; j++) {\r\n    //             accessLevels = userAccess[_user][i][j];\r\n    //             userAccessStruct[i].accessLevels = accessLevels;\r\n    //         }\r\n    //     }\r\n\r\n    //     return userAccessStruct;\r\n\r\n    // }\r\n\r\n\r\n    // Get all access entries for a user\r\n    function getAllAccessForUser(address _user) external view returns (AccessEntry[] memory) {\r\n        return userAccessList[_user];\r\n    }\r\n\r\n\r\n    // Get user's access level\r\n    function getAccessLevel(uint256 _collectionId, uint256 _nftId, address _user) external view returns (AccessLevel) {\r\n        AccessLevel level = nftAccess[_collectionId][_nftId][_user];\r\n        if (level == AccessLevel.None) {\r\n            return defaultAccessLevel[_collectionId][_nftId];\r\n        }\r\n        return level;\r\n    }\r\n\r\n    function checkMinimumAccess(uint256 _collectionId, uint256 _nftId, address _user, AccessLevel _accessLevel) external view returns (bool) {\r\n        \r\n\r\n        if (defaultAccessLevel[_collectionId][_nftId] >= _accessLevel ){\r\n            return true;\r\n        }\r\n\r\n        AccessLevel level = nftAccess[_collectionId][_nftId][_user];\r\n\r\n        \r\n        if (level == AccessLevel.None) {\r\n            return defaultAccessLevel[_collectionId][_nftId] >= _accessLevel;\r\n        }\r\n        return level >= _accessLevel;\r\n    }\r\n\r\n\r\n    // Get all users and their access levels for a specific NFT\r\n    function getAllUsersAccessForNFT(uint256 _collectionId, uint256 _nftId)\r\n        external\r\n        view\r\n        returns (UserAccess[] memory)\r\n    {\r\n        return nftAccessList[_collectionId][_nftId];\r\n    }\r\n}\r\n",
  "sourcePath": "/home/sid/mounts/Projects/03 Hackathon/Tron Hackathon/NeuraNFT_Tron/smart_contracts/neuranft-contract/contracts/NFTAccessControl.sol",
  "compiler": {
    "name": "solc",
    "version": "0.8.7+commit.2128cde5.mod.Emscripten.clang"
  },
  "schemaVersion": "2.0.1",
  "updatedAt": "2024-10-07T15:18:53.713Z"
}