{
  "contractName": "CollectionContract",
  "abi": [
    {
      "inputs": [
        {
          "internalType": "address",
          "name": "_masterAccessControlAddress",
          "type": "address"
        },
        {
          "internalType": "address",
          "name": "_nftContractAddress",
          "type": "address"
        }
      ],
      "stateMutability": "nonpayable",
      "type": "constructor"
    },
    {
      "anonymous": false,
      "inputs": [
        {
          "indexed": true,
          "internalType": "uint256",
          "name": "collectionId",
          "type": "uint256"
        },
        {
          "indexed": true,
          "internalType": "address",
          "name": "creator",
          "type": "address"
        },
        {
          "indexed": false,
          "internalType": "string",
          "name": "baseModel",
          "type": "string"
        }
      ],
      "name": "CollectionCreated",
      "type": "event"
    },
    {
      "anonymous": false,
      "inputs": [
        {
          "indexed": true,
          "internalType": "uint256",
          "name": "collectionId",
          "type": "uint256"
        },
        {
          "indexed": true,
          "internalType": "address",
          "name": "previousOwner",
          "type": "address"
        },
        {
          "indexed": true,
          "internalType": "address",
          "name": "newOwner",
          "type": "address"
        }
      ],
      "name": "CollectionTransferred",
      "type": "event"
    },
    {
      "anonymous": false,
      "inputs": [
        {
          "indexed": true,
          "internalType": "uint256",
          "name": "collectionId",
          "type": "uint256"
        },
        {
          "indexed": true,
          "internalType": "address",
          "name": "updater",
          "type": "address"
        }
      ],
      "name": "CollectionUpdated",
      "type": "event"
    },
    {
      "inputs": [
        {
          "internalType": "string",
          "name": "_baseModel",
          "type": "string"
        },
        {
          "internalType": "string",
          "name": "_image",
          "type": "string"
        },
        {
          "internalType": "string",
          "name": "_description",
          "type": "string"
        }
      ],
      "name": "createCollection",
      "outputs": [
        {
          "internalType": "uint256",
          "name": "",
          "type": "uint256"
        }
      ],
      "stateMutability": "nonpayable",
      "type": "function"
    },
    {
      "inputs": [],
      "name": "getAllCollections",
      "outputs": [
        {
          "components": [
            {
              "internalType": "string",
              "name": "baseModel",
              "type": "string"
            },
            {
              "internalType": "string",
              "name": "image",
              "type": "string"
            },
            {
              "internalType": "string",
              "name": "description",
              "type": "string"
            },
            {
              "internalType": "address",
              "name": "creator",
              "type": "address"
            },
            {
              "internalType": "uint256",
              "name": "dateCreated",
              "type": "uint256"
            },
            {
              "internalType": "address",
              "name": "owner",
              "type": "address"
            }
          ],
          "internalType": "struct CollectionContract.CollectionMetadata[]",
          "name": "",
          "type": "tuple[]"
        }
      ],
      "stateMutability": "view",
      "type": "function"
    },
    {
      "inputs": [
        {
          "internalType": "uint256",
          "name": "_collectionId",
          "type": "uint256"
        }
      ],
      "name": "getCollectionMetadata",
      "outputs": [
        {
          "components": [
            {
              "internalType": "string",
              "name": "baseModel",
              "type": "string"
            },
            {
              "internalType": "string",
              "name": "image",
              "type": "string"
            },
            {
              "internalType": "string",
              "name": "description",
              "type": "string"
            },
            {
              "internalType": "address",
              "name": "creator",
              "type": "address"
            },
            {
              "internalType": "uint256",
              "name": "dateCreated",
              "type": "uint256"
            },
            {
              "internalType": "address",
              "name": "owner",
              "type": "address"
            }
          ],
          "internalType": "struct CollectionContract.CollectionMetadata",
          "name": "",
          "type": "tuple"
        }
      ],
      "stateMutability": "view",
      "type": "function"
    },
    {
      "inputs": [
        {
          "internalType": "uint256",
          "name": "_collectionId",
          "type": "uint256"
        }
      ],
      "name": "getCollectionNFTCount",
      "outputs": [
        {
          "internalType": "uint256",
          "name": "",
          "type": "uint256"
        }
      ],
      "stateMutability": "view",
      "type": "function"
    },
    {
      "inputs": [
        {
          "internalType": "uint256",
          "name": "_collectionId",
          "type": "uint256"
        }
      ],
      "name": "getCollectionOwner",
      "outputs": [
        {
          "internalType": "address",
          "name": "",
          "type": "address"
        }
      ],
      "stateMutability": "view",
      "type": "function"
    },
    {
      "inputs": [
        {
          "internalType": "uint256",
          "name": "_collectionId",
          "type": "uint256"
        }
      ],
      "name": "getCollectionUniqueHolders",
      "outputs": [
        {
          "internalType": "uint256",
          "name": "",
          "type": "uint256"
        }
      ],
      "stateMutability": "view",
      "type": "function"
    },
    {
      "inputs": [],
      "name": "getTotalCollections",
      "outputs": [
        {
          "internalType": "uint256",
          "name": "",
          "type": "uint256"
        }
      ],
      "stateMutability": "view",
      "type": "function"
    },
    {
      "inputs": [],
      "name": "masterAccessControl",
      "outputs": [
        {
          "internalType": "contract MasterAccessControl",
          "name": "",
          "type": "address"
        }
      ],
      "stateMutability": "view",
      "type": "function"
    },
    {
      "inputs": [],
      "name": "nftContract",
      "outputs": [
        {
          "internalType": "contract NFTContract",
          "name": "",
          "type": "address"
        }
      ],
      "stateMutability": "view",
      "type": "function"
    },
    {
      "inputs": [
        {
          "internalType": "uint256",
          "name": "_collectionId",
          "type": "uint256"
        },
        {
          "internalType": "address",
          "name": "_newOwner",
          "type": "address"
        }
      ],
      "name": "transferCollection",
      "outputs": [],
      "stateMutability": "nonpayable",
      "type": "function"
    },
    {
      "inputs": [
        {
          "internalType": "uint256",
          "name": "_collectionId",
          "type": "uint256"
        },
        {
          "internalType": "string",
          "name": "_baseModel",
          "type": "string"
        },
        {
          "internalType": "string",
          "name": "_image",
          "type": "string"
        },
        {
          "internalType": "string",
          "name": "_description",
          "type": "string"
        }
      ],
      "name": "updateCollection",
      "outputs": [],
      "stateMutability": "nonpayable",
      "type": "function"
    }
  ],
  "bytecode": "0x60806040523480156200001157600080fd5b50d380156200001f57600080fd5b50d280156200002d57600080fd5b50604051620022393803806200223983398181016040528101906200005391906200018f565b816000806101000a81548173ffffffffffffffffffffffffffffffffffffffff021916908373ffffffffffffffffffffffffffffffffffffffff16021790555080600160006101000a81548173ffffffffffffffffffffffffffffffffffffffff021916908373ffffffffffffffffffffffffffffffffffffffff16021790555060008054906101000a900473ffffffffffffffffffffffffffffffffffffffff1673ffffffffffffffffffffffffffffffffffffffff1663a2aadc54336040518263ffffffff1660e01b81526004016200012f9190620001e7565b600060405180830381600087803b1580156200014a57600080fd5b505af11580156200015f573d6000803e3d6000fd5b50505050505062000278565b6000815190506200017c816200025e565b620001878162000204565b905092915050565b60008060408385031215620001a957620001a862000259565b5b6000620001b9858286016200016b565b9250506020620001cc858286016200016b565b9150509250929050565b620001e18162000204565b82525050565b6000602082019050620001fe6000830184620001d6565b92915050565b6000620002118262000218565b9050919050565b600073ffffffffffffffffffffffffffffffffffffffff82169050919050565b600074ffffffffffffffffffffffffffffffffffffffffff82169050919050565b600080fd5b620002698162000238565b81146200027557600080fd5b50565b611fb180620002886000396000f3fe608060405234801561001057600080fd5b50d3801561001d57600080fd5b50d2801561002a57600080fd5b50600436106100c35760003560e01c8063a5f55ba51161008b578063a5f55ba514610182578063cf0138741461019e578063d56d229d146101ce578063da4bd505146101ec578063ece86c2114610208578063feb4cbb914610238576100c3565b8063394120c0146100c85780636804a958146100f85780638c627b1614610116578063939bf6dd146101465780639ef8dd6714610164575b600080fd5b6100e260048036038101906100dd91906114d4565b610268565b6040516100ef9190611938565b60405180910390f35b6101006102f5565b60405161010d9190611953565b60405180910390f35b610130600480360381019061012b91906114d4565b610630565b60405161013d9190611a6f565b60405180910390f35b61014e610734565b60405161015b9190611a6f565b60405180910390f35b61016c61073e565b6040516101799190611975565b60405180910390f35b61019c6004803603810190610197919061156e565b610762565b005b6101b860048036038101906101b391906114d4565b6108b2565b6040516101c59190611a4d565b60405180910390f35b6101d6610b9c565b6040516101e39190611990565b60405180910390f35b6102066004803603810190610201919061152e565b610bc2565b005b610222600480360381019061021d919061142d565b610e14565b60405161022f9190611a6f565b60405180910390f35b610252600480360381019061024d91906114d4565b611128565b60405161025f9190611a6f565b60405180910390f35b6000808211801561027b57506004548211155b6102ba576040517f08c379a00000000000000000000000000000000000000000000000000000000081526004016102b190611a0d565b60405180910390fd5b6003600083815260200190815260200160002060009054906101000a900473ffffffffffffffffffffffffffffffffffffffff169050919050565b6060600060045467ffffffffffffffff81111561031557610314611da6565b5b60405190808252806020026020018201604052801561034e57816020015b61033b61122c565b8152602001906001900390816103335790505b5090506000600190505b600454811161062857600260008281526020019081526020016000206040518060c001604052908160008201805461038f90611c6d565b80601f01602080910402602001604051908101604052809291908181526020018280546103bb90611c6d565b80156104085780601f106103dd57610100808354040283529160200191610408565b820191906000526020600020905b8154815290600101906020018083116103eb57829003601f168201915b5050505050815260200160018201805461042190611c6d565b80601f016020809104026020016040519081016040528092919081815260200182805461044d90611c6d565b801561049a5780601f1061046f5761010080835404028352916020019161049a565b820191906000526020600020905b81548152906001019060200180831161047d57829003601f168201915b505050505081526020016002820180546104b390611c6d565b80601f01602080910402602001604051908101604052809291908181526020018280546104df90611c6d565b801561052c5780601f106105015761010080835404028352916020019161052c565b820191906000526020600020905b81548152906001019060200180831161050f57829003601f168201915b505050505081526020016003820160009054906101000a900473ffffffffffffffffffffffffffffffffffffffff1673ffffffffffffffffffffffffffffffffffffffff1673ffffffffffffffffffffffffffffffffffffffff168152602001600482015481526020016005820160009054906101000a900473ffffffffffffffffffffffffffffffffffffffff1673ffffffffffffffffffffffffffffffffffffffff1673ffffffffffffffffffffffffffffffffffffffff1681525050826001836105f99190611b46565b8151811061060a57610609611d77565b5b6020026020010181905250808061062090611cd0565b915050610358565b508091505090565b6000808211801561064357506004548211155b610682576040517f08c379a000000000000000000000000000000000000000000000000000000000815260040161067990611a0d565b60405180910390fd5b600160009054906101000a900473ffffffffffffffffffffffffffffffffffffffff1673ffffffffffffffffffffffffffffffffffffffff1663f9f96003836040518263ffffffff1660e01b81526004016106dd9190611a6f565b60206040518083038186803b1580156106f557600080fd5b505afa158015610709573d6000803e3d6000fd5b505050506040513d601f19601f8201168201806040525081019061072d9190611501565b9050919050565b6000600454905090565b60008054906101000a900473ffffffffffffffffffffffffffffffffffffffff1681565b833373ffffffffffffffffffffffffffffffffffffffff166003600083815260200190815260200160002060009054906101000a900473ffffffffffffffffffffffffffffffffffffffff1673ffffffffffffffffffffffffffffffffffffffff1614610804576040517f08c379a00000000000000000000000000000000000000000000000000000000081526004016107fb906119cd565b60405180910390fd5b60006002600087815260200190815260200160002090508481600001908051906020019061083392919061128e565b508381600101908051906020019061084c92919061128e565b508281600201908051906020019061086592919061128e565b503373ffffffffffffffffffffffffffffffffffffffff16867fdc3665dfa360896ba80f3f0a287f3fab1df037f080190fd39f5b39281b5cef3360405160405180910390a3505050505050565b6108ba61122c565b6000821180156108cc57506004548211155b61090b576040517f08c379a000000000000000000000000000000000000000000000000000000000815260040161090290611a0d565b60405180910390fd5b600260008381526020019081526020016000206040518060c001604052908160008201805461093990611c6d565b80601f016020809104026020016040519081016040528092919081815260200182805461096590611c6d565b80156109b25780601f10610987576101008083540402835291602001916109b2565b820191906000526020600020905b81548152906001019060200180831161099557829003601f168201915b505050505081526020016001820180546109cb90611c6d565b80601f01602080910402602001604051908101604052809291908181526020018280546109f790611c6d565b8015610a445780601f10610a1957610100808354040283529160200191610a44565b820191906000526020600020905b815481529060010190602001808311610a2757829003601f168201915b50505050508152602001600282018054610a5d90611c6d565b80601f0160208091040260200160405190810160405280929190818152602001828054610a8990611c6d565b8015610ad65780601f10610aab57610100808354040283529160200191610ad6565b820191906000526020600020905b815481529060010190602001808311610ab957829003601f168201915b505050505081526020016003820160009054906101000a900473ffffffffffffffffffffffffffffffffffffffff1673ffffffffffffffffffffffffffffffffffffffff1673ffffffffffffffffffffffffffffffffffffffff168152602001600482015481526020016005820160009054906101000a900473ffffffffffffffffffffffffffffffffffffffff1673ffffffffffffffffffffffffffffffffffffffff1673ffffffffffffffffffffffffffffffffffffffff16815250509050919050565b600160009054906101000a900473ffffffffffffffffffffffffffffffffffffffff1681565b813373ffffffffffffffffffffffffffffffffffffffff166003600083815260200190815260200160002060009054906101000a900473ffffffffffffffffffffffffffffffffffffffff1673ffffffffffffffffffffffffffffffffffffffff1614610c64576040517f08c379a0000000000000000000000000000000000000000000000000000000008152600401610c5b906119cd565b60405180910390fd5b600073ffffffffffffffffffffffffffffffffffffffff168273ffffffffffffffffffffffffffffffffffffffff161415610cd4576040517f08c379a0000000000000000000000000000000000000000000000000000000008152600401610ccb906119ed565b60405180910390fd5b60006003600085815260200190815260200160002060009054906101000a900473ffffffffffffffffffffffffffffffffffffffff169050826003600086815260200190815260200160002060006101000a81548173ffffffffffffffffffffffffffffffffffffffff021916908373ffffffffffffffffffffffffffffffffffffffff160217905550826002600086815260200190815260200160002060050160006101000a81548173ffffffffffffffffffffffffffffffffffffffff021916908373ffffffffffffffffffffffffffffffffffffffff1602179055508273ffffffffffffffffffffffffffffffffffffffff168173ffffffffffffffffffffffffffffffffffffffff16857f9b6a32f3cd7b15e8a1bfb25410c1b783cf20a9fcfee4b3b070770f5c09c0646f60405160405180910390a450505050565b60008060009054906101000a900473ffffffffffffffffffffffffffffffffffffffff1673ffffffffffffffffffffffffffffffffffffffff1663c6310de3336040518263ffffffff1660e01b8152600401610e709190611938565b60206040518083038186803b158015610e8857600080fd5b505afa158015610e9c573d6000803e3d6000fd5b505050506040513d601f19601f82011682018060405250810190610ec09190611400565b610eff576040517f08c379a0000000000000000000000000000000000000000000000000000000008152600401610ef690611a2d565b60405180910390fd5b60046000815480929190610f1290611cd0565b9190505550600060045490506040518060c001604052808681526020018581526020018481526020013373ffffffffffffffffffffffffffffffffffffffff1681526020014281526020013373ffffffffffffffffffffffffffffffffffffffff16815250600260008381526020019081526020016000206000820151816000019080519060200190610fa692919061128e565b506020820151816001019080519060200190610fc392919061128e565b506040820151816002019080519060200190610fe092919061128e565b5060608201518160030160006101000a81548173ffffffffffffffffffffffffffffffffffffffff021916908373ffffffffffffffffffffffffffffffffffffffff1602179055506080820151816004015560a08201518160050160006101000a81548173ffffffffffffffffffffffffffffffffffffffff021916908373ffffffffffffffffffffffffffffffffffffffff160217905550905050336003600083815260200190815260200160002060006101000a81548173ffffffffffffffffffffffffffffffffffffffff021916908373ffffffffffffffffffffffffffffffffffffffff1602179055503373ffffffffffffffffffffffffffffffffffffffff16817fb0b7b214963f2e16da9cf6ed5851757dfed306875edf1d59e030881102ef24ef8760405161111591906119ab565b60405180910390a3809150509392505050565b6000808211801561113b57506004548211155b61117a576040517f08c379a000000000000000000000000000000000000000000000000000000000815260040161117190611a0d565b60405180910390fd5b600160009054906101000a900473ffffffffffffffffffffffffffffffffffffffff1673ffffffffffffffffffffffffffffffffffffffff1663feb4cbb9836040518263ffffffff1660e01b81526004016111d59190611a6f565b60206040518083038186803b1580156111ed57600080fd5b505afa158015611201573d6000803e3d6000fd5b505050506040513d601f19601f820116820180604052508101906112259190611501565b9050919050565b6040518060c00160405280606081526020016060815260200160608152602001600073ffffffffffffffffffffffffffffffffffffffff16815260200160008152602001600073ffffffffffffffffffffffffffffffffffffffff1681525090565b82805461129a90611c6d565b90600052602060002090601f0160209004810192826112bc5760008555611303565b82601f106112d557805160ff1916838001178555611303565b82800160010185558215611303579182015b828111156113025782518255916020019190600101906112e7565b5b5090506113109190611314565b5090565b5b8082111561132d576000816000905550600101611315565b5090565b600061134461133f84611aaf565b611a8a565b9050828152602081018484840111156113605761135f611dda565b5b61136b848285611c2b565b509392505050565b60008135905061138281611f36565b61138b81611b7a565b905092915050565b6000815190506113a281611f4d565b92915050565b600082601f8301126113bd576113bc611dd5565b5b81356113cd848260208601611331565b91505092915050565b6000813590506113e581611f64565b92915050565b6000815190506113fa81611f64565b92915050565b60006020828403121561141657611415611de4565b5b600061142484828501611393565b91505092915050565b60008060006060848603121561144657611445611de4565b5b600084013567ffffffffffffffff81111561146457611463611ddf565b5b611470868287016113a8565b935050602084013567ffffffffffffffff81111561149157611490611ddf565b5b61149d868287016113a8565b925050604084013567ffffffffffffffff8111156114be576114bd611ddf565b5b6114ca868287016113a8565b9150509250925092565b6000602082840312156114ea576114e9611de4565b5b60006114f8848285016113d6565b91505092915050565b60006020828403121561151757611516611de4565b5b6000611525848285016113eb565b91505092915050565b6000806040838503121561154557611544611de4565b5b6000611553858286016113d6565b925050602061156485828601611373565b9150509250929050565b6000806000806080858703121561158857611587611de4565b5b6000611596878288016113d6565b945050602085013567ffffffffffffffff8111156115b7576115b6611ddf565b5b6115c3878288016113a8565b935050604085013567ffffffffffffffff8111156115e4576115e3611ddf565b5b6115f0878288016113a8565b925050606085013567ffffffffffffffff81111561161157611610611ddf565b5b61161d878288016113a8565b91505092959194509250565b600061163583836117ec565b905092915050565b61164681611b7a565b82525050565b61165581611b7a565b82525050565b600061166682611af0565b6116708185611b13565b93508360208202850161168285611ae0565b8060005b858110156116be578484038952815161169f8582611629565b94506116aa83611b06565b925060208a01995050600181019050611686565b50829750879550505050505092915050565b6116d981611be3565b82525050565b6116e881611bf5565b82525050565b60006116f982611afb565b6117038185611b24565b9350611713818560208601611c3a565b61171c81611de9565b840191505092915050565b600061173282611afb565b61173c8185611b35565b935061174c818560208601611c3a565b61175581611de9565b840191505092915050565b600061176d602c83611b35565b915061177882611dfa565b604082019050919050565b6000611790602d83611b35565b915061179b82611e49565b604082019050919050565b60006117b3602983611b35565b91506117be82611e98565b604082019050919050565b60006117d6602283611b35565b91506117e182611ee7565b604082019050919050565b600060c083016000830151848203600086015261180982826116ee565b9150506020830151848203602086015261182382826116ee565b9150506040830151848203604086015261183d82826116ee565b9150506060830151611852606086018261163d565b506080830151611865608086018261191a565b5060a083015161187860a086018261163d565b508091505092915050565b600060c08301600083015184820360008601526118a082826116ee565b915050602083015184820360208601526118ba82826116ee565b915050604083015184820360408601526118d482826116ee565b91505060608301516118e9606086018261163d565b5060808301516118fc608086018261191a565b5060a083015161190f60a086018261163d565b508091505092915050565b61192381611bd9565b82525050565b61193281611bd9565b82525050565b600060208201905061194d600083018461164c565b92915050565b6000602082019050818103600083015261196d818461165b565b905092915050565b600060208201905061198a60008301846116d0565b92915050565b60006020820190506119a560008301846116df565b92915050565b600060208201905081810360008301526119c58184611727565b905092915050565b600060208201905081810360008301526119e681611760565b9050919050565b60006020820190508181036000830152611a0681611783565b9050919050565b60006020820190508181036000830152611a26816117a6565b9050919050565b60006020820190508181036000830152611a46816117c9565b9050919050565b60006020820190508181036000830152611a678184611883565b905092915050565b6000602082019050611a846000830184611929565b92915050565b6000611a94611aa5565b9050611aa08282611c9f565b919050565b6000604051905090565b600067ffffffffffffffff821115611aca57611ac9611da6565b5b611ad382611de9565b9050602081019050919050565b6000819050602082019050919050565b600081519050919050565b600081519050919050565b6000602082019050919050565b600082825260208201905092915050565b600082825260208201905092915050565b600082825260208201905092915050565b6000611b5182611bd9565b9150611b5c83611bd9565b925082821015611b6f57611b6e611d19565b5b828203905092915050565b6000611b8582611b98565b9050919050565b60008115159050919050565b600073ffffffffffffffffffffffffffffffffffffffff82169050919050565b600074ffffffffffffffffffffffffffffffffffffffffff82169050919050565b6000819050919050565b6000611bee82611c07565b9050919050565b6000611c0082611c07565b9050919050565b6000611c1282611c19565b9050919050565b6000611c2482611b98565b9050919050565b82818337600083830152505050565b60005b83811015611c58578082015181840152602081019050611c3d565b83811115611c67576000848401525b50505050565b60006002820490506001821680611c8557607f821691505b60208210811415611c9957611c98611d48565b5b50919050565b611ca882611de9565b810181811067ffffffffffffffff82111715611cc757611cc6611da6565b5b80604052505050565b6000611cdb82611bd9565b91507fffffffffffffffffffffffffffffffffffffffffffffffffffffffffffffffff821415611d0e57611d0d611d19565b5b600182019050919050565b7f4e487b7100000000000000000000000000000000000000000000000000000000600052601160045260246000fd5b7f4e487b7100000000000000000000000000000000000000000000000000000000600052602260045260246000fd5b7f4e487b7100000000000000000000000000000000000000000000000000000000600052603260045260246000fd5b7f4e487b7100000000000000000000000000000000000000000000000000000000600052604160045260246000fd5b600080fd5b600080fd5b600080fd5b600080fd5b6000601f19601f8301169050919050565b7f436f6c6c656374696f6e436f6e74726163743a204e6f742074686520636f6c6c60008201527f656374696f6e206f776e65720000000000000000000000000000000000000000602082015250565b7f436f6c6c656374696f6e436f6e74726163743a20496e76616c6964206e65772060008201527f6f776e6572206164647265737300000000000000000000000000000000000000602082015250565b7f436f6c6c656374696f6e436f6e74726163743a20496e76616c696420636f6c6c60008201527f656374696f6e2049440000000000000000000000000000000000000000000000602082015250565b7f436f6c6c656374696f6e436f6e74726163743a204e6f7420617574686f72697a60008201527f6564000000000000000000000000000000000000000000000000000000000000602082015250565b611f3f81611bb8565b8114611f4a57600080fd5b50565b611f5681611b8c565b8114611f6157600080fd5b50565b611f6d81611bd9565b8114611f7857600080fd5b5056fea26474726f6e5822122010907805dc217a1128ad47d00427674857c71fdcf65c46fec2fccb7ff00a74f564736f6c63430008070033",
  "source": "// SPDX-License-Identifier: MIT\r\npragma solidity ^0.8.7;\r\n\r\nimport \"./MasterAccessControl.sol\";\r\nimport \"./NFTContract.sol\";\r\n\r\ncontract CollectionContract {\r\n    MasterAccessControl public masterAccessControl;\r\n    NFTContract public nftContract;\r\n\r\n    struct CollectionMetadata {\r\n        string baseModel;\r\n        string image;\r\n        string description;\r\n        address creator;\r\n        uint256 dateCreated;\r\n        address owner;\r\n    }\r\n\r\n    mapping(uint256 => CollectionMetadata) private collections;\r\n    mapping(uint256 => address) private collectionOwners;\r\n\r\n    uint256 private totalCollections;\r\n\r\n    event CollectionCreated(uint256 indexed collectionId, address indexed creator, string baseModel);\r\n    event CollectionUpdated(uint256 indexed collectionId, address indexed updater);\r\n    event CollectionTransferred(uint256 indexed collectionId, address indexed previousOwner, address indexed newOwner);\r\n\r\n    constructor(address _masterAccessControlAddress, address _nftContractAddress) {\r\n        masterAccessControl = MasterAccessControl(_masterAccessControlAddress);\r\n        nftContract = NFTContract(_nftContractAddress);\r\n        masterAccessControl.grantSelfAccess(msg.sender);\r\n    }\r\n\r\n    modifier onlyAuthorized() {\r\n        require(masterAccessControl.selfCheckAccess(msg.sender), \"CollectionContract: Not authorized\");\r\n        _;\r\n    }\r\n\r\n    modifier onlyCollectionOwner(uint256 _collectionId) {\r\n        require(collectionOwners[_collectionId] == msg.sender, \"CollectionContract: Not the collection owner\");\r\n        _;\r\n    }\r\n\r\n    function createCollection(\r\n        string memory _baseModel,\r\n        string memory _image,\r\n        string memory _description\r\n    ) external onlyAuthorized returns (uint256) {\r\n        totalCollections++;\r\n        uint256 newCollectionId = totalCollections;\r\n\r\n        collections[newCollectionId] = CollectionMetadata({\r\n            baseModel: _baseModel,\r\n            image: _image,\r\n            description: _description,\r\n            creator: msg.sender,\r\n            dateCreated: block.timestamp,\r\n            owner: msg.sender\r\n        });\r\n\r\n        collectionOwners[newCollectionId] = msg.sender;\r\n\r\n        emit CollectionCreated(newCollectionId, msg.sender, _baseModel);\r\n\r\n        return newCollectionId;\r\n    }\r\n\r\n    function updateCollection(\r\n        uint256 _collectionId,\r\n        string memory _baseModel,\r\n        string memory _image,\r\n        string memory _description\r\n    ) external onlyCollectionOwner(_collectionId) {\r\n        CollectionMetadata storage collection = collections[_collectionId];\r\n        \r\n        collection.baseModel = _baseModel;\r\n        collection.image = _image;\r\n        collection.description = _description;\r\n\r\n        emit CollectionUpdated(_collectionId, msg.sender);\r\n    }\r\n\r\n    function transferCollection(uint256 _collectionId, address _newOwner) external onlyCollectionOwner(_collectionId) {\r\n        require(_newOwner != address(0), \"CollectionContract: Invalid new owner address\");\r\n\r\n        address previousOwner = collectionOwners[_collectionId];\r\n        collectionOwners[_collectionId] = _newOwner;\r\n        collections[_collectionId].owner = _newOwner;\r\n\r\n        emit CollectionTransferred(_collectionId, previousOwner, _newOwner);\r\n    }\r\n\r\n    function getCollectionMetadata(uint256 _collectionId) external view returns (CollectionMetadata memory) {\r\n        require(_collectionId > 0 && _collectionId <= totalCollections, \"CollectionContract: Invalid collection ID\");\r\n        return collections[_collectionId];\r\n    }\r\n\r\n    function getCollectionOwner(uint256 _collectionId) external view returns (address) {\r\n        require(_collectionId > 0 && _collectionId <= totalCollections, \"CollectionContract: Invalid collection ID\");\r\n        return collectionOwners[_collectionId];\r\n    }\r\n\r\n    function getTotalCollections() external view returns (uint256) {\r\n        return totalCollections;\r\n    }\r\n\r\n    function getAllCollections() external view returns (CollectionMetadata[] memory) {\r\n        CollectionMetadata[] memory allCollections = new CollectionMetadata[](totalCollections);\r\n        \r\n        for (uint256 i = 1; i <= totalCollections; i++) {\r\n            allCollections[i - 1] = collections[i];\r\n        }\r\n\r\n        return allCollections;\r\n    }\r\n\r\n    function getCollectionNFTCount(uint256 _collectionId) external view returns (uint256) {\r\n        require(_collectionId > 0 && _collectionId <= totalCollections, \"CollectionContract: Invalid collection ID\");\r\n        return nftContract.getCollectionNFTCount(_collectionId);\r\n    }\r\n\r\n    function getCollectionUniqueHolders(uint256 _collectionId) external view returns (uint256) {\r\n        require(_collectionId > 0 && _collectionId <= totalCollections, \"CollectionContract: Invalid collection ID\");\r\n        return nftContract.numberOfHolders(_collectionId);\r\n    }\r\n}",
  "sourcePath": "/home/sid/mounts/Projects/03 Hackathon/Tron Hackathon/NeuraNFT_Tron/smart_contracts/neuranft-contract/contracts/CollectionContract.sol",
  "compiler": {
    "name": "solc",
    "version": "0.8.7+commit.2128cde5.mod.Emscripten.clang"
  },
  "schemaVersion": "2.0.1",
  "updatedAt": "2024-10-07T15:19:05.883Z"
}