{
  "contractName": "MasterAccessControl",
  "abi": [
    {
      "inputs": [],
      "stateMutability": "nonpayable",
      "type": "constructor"
    },
    {
      "anonymous": false,
      "inputs": [
        {
          "indexed": true,
          "internalType": "address",
          "name": "contractAddress",
          "type": "address"
        },
        {
          "indexed": true,
          "internalType": "address",
          "name": "caller",
          "type": "address"
        }
      ],
      "name": "AccessGranted",
      "type": "event"
    },
    {
      "anonymous": false,
      "inputs": [
        {
          "indexed": true,
          "internalType": "address",
          "name": "contractAddress",
          "type": "address"
        },
        {
          "indexed": true,
          "internalType": "address",
          "name": "caller",
          "type": "address"
        }
      ],
      "name": "AccessRevoked",
      "type": "event"
    },
    {
      "inputs": [
        {
          "internalType": "address",
          "name": "_contract",
          "type": "address"
        },
        {
          "internalType": "address",
          "name": "_caller",
          "type": "address"
        }
      ],
      "name": "grantAccess",
      "outputs": [],
      "stateMutability": "nonpayable",
      "type": "function"
    },
    {
      "inputs": [
        {
          "internalType": "address",
          "name": "_addressToGrant",
          "type": "address"
        }
      ],
      "name": "grantSelfAccess",
      "outputs": [],
      "stateMutability": "nonpayable",
      "type": "function"
    },
    {
      "inputs": [
        {
          "internalType": "address",
          "name": "_contract",
          "type": "address"
        },
        {
          "internalType": "address",
          "name": "_caller",
          "type": "address"
        }
      ],
      "name": "hasAccess",
      "outputs": [
        {
          "internalType": "bool",
          "name": "",
          "type": "bool"
        }
      ],
      "stateMutability": "view",
      "type": "function"
    },
    {
      "inputs": [
        {
          "internalType": "address",
          "name": "_contract",
          "type": "address"
        },
        {
          "internalType": "address",
          "name": "_caller",
          "type": "address"
        }
      ],
      "name": "revokeAccess",
      "outputs": [],
      "stateMutability": "nonpayable",
      "type": "function"
    },
    {
      "inputs": [
        {
          "internalType": "address",
          "name": "_addressToRevoke",
          "type": "address"
        }
      ],
      "name": "revokeSelfAccess",
      "outputs": [],
      "stateMutability": "nonpayable",
      "type": "function"
    },
    {
      "inputs": [
        {
          "internalType": "address",
          "name": "_addressToCheck",
          "type": "address"
        }
      ],
      "name": "selfCheckAccess",
      "outputs": [
        {
          "internalType": "bool",
          "name": "",
          "type": "bool"
        }
      ],
      "stateMutability": "view",
      "type": "function"
    }
  ],
  "bytecode": "0x608060405234801561001057600080fd5b50d3801561001d57600080fd5b50d2801561002a57600080fd5b5060016000803073ffffffffffffffffffffffffffffffffffffffff1673ffffffffffffffffffffffffffffffffffffffff16815260200190815260200160002060003373ffffffffffffffffffffffffffffffffffffffff1673ffffffffffffffffffffffffffffffffffffffff16815260200190815260200160002060006101000a81548160ff0219169083151502179055503373ffffffffffffffffffffffffffffffffffffffff163073ffffffffffffffffffffffffffffffffffffffff167f9f520b3bfc56d06f7065d10b4683b3f57ac8895d5026cd176dee95ce1454cb8d60405160405180910390a36108d9806101286000396000f3fe608060405234801561001057600080fd5b50d3801561001d57600080fd5b50d2801561002a57600080fd5b506004361061007c5760003560e01c80631709ef07146100815780635f6ea340146100b157806373d422af146100cd578063a2aadc54146100e9578063c6310de314610105578063c6a09d9514610135575b600080fd5b61009b6004803603810190610096919061071b565b610151565b6040516100a8919061078d565b60405180910390f35b6100cb60048036038101906100c6919061071b565b6101e4565b005b6100e760048036038101906100e291906106ee565b61031f565b005b61010360048036038101906100fe91906106ee565b610410565b005b61011f600480360381019061011a91906106ee565b610501565b60405161012c919061078d565b60405180910390f35b61014f600480360381019061014a919061071b565b610593565b005b60008060008473ffffffffffffffffffffffffffffffffffffffff1673ffffffffffffffffffffffffffffffffffffffff16815260200190815260200160002060008373ffffffffffffffffffffffffffffffffffffffff1673ffffffffffffffffffffffffffffffffffffffff16815260200190815260200160002060009054906101000a900460ff16905092915050565b6101ee3033610151565b61022d576040517f08c379a0000000000000000000000000000000000000000000000000000000008152600401610224906107a8565b60405180910390fd5b60008060008473ffffffffffffffffffffffffffffffffffffffff1673ffffffffffffffffffffffffffffffffffffffff16815260200190815260200160002060008373ffffffffffffffffffffffffffffffffffffffff1673ffffffffffffffffffffffffffffffffffffffff16815260200190815260200160002060006101000a81548160ff0219169083151502179055508073ffffffffffffffffffffffffffffffffffffffff168273ffffffffffffffffffffffffffffffffffffffff167f825c8be24eb0df19500f63e86c29e7d0d951e73056b889b891d85e40938d9b6e60405160405180910390a35050565b60008060003373ffffffffffffffffffffffffffffffffffffffff1673ffffffffffffffffffffffffffffffffffffffff16815260200190815260200160002060008373ffffffffffffffffffffffffffffffffffffffff1673ffffffffffffffffffffffffffffffffffffffff16815260200190815260200160002060006101000a81548160ff0219169083151502179055508073ffffffffffffffffffffffffffffffffffffffff163373ffffffffffffffffffffffffffffffffffffffff167f825c8be24eb0df19500f63e86c29e7d0d951e73056b889b891d85e40938d9b6e60405160405180910390a350565b60016000803373ffffffffffffffffffffffffffffffffffffffff1673ffffffffffffffffffffffffffffffffffffffff16815260200190815260200160002060008373ffffffffffffffffffffffffffffffffffffffff1673ffffffffffffffffffffffffffffffffffffffff16815260200190815260200160002060006101000a81548160ff0219169083151502179055508073ffffffffffffffffffffffffffffffffffffffff163373ffffffffffffffffffffffffffffffffffffffff167f9f520b3bfc56d06f7065d10b4683b3f57ac8895d5026cd176dee95ce1454cb8d60405160405180910390a350565b60008060003373ffffffffffffffffffffffffffffffffffffffff1673ffffffffffffffffffffffffffffffffffffffff16815260200190815260200160002060008373ffffffffffffffffffffffffffffffffffffffff1673ffffffffffffffffffffffffffffffffffffffff16815260200190815260200160002060009054906101000a900460ff169050919050565b61059d3033610151565b6105dc576040517f08c379a00000000000000000000000000000000000000000000000000000000081526004016105d3906107a8565b60405180910390fd5b60016000808473ffffffffffffffffffffffffffffffffffffffff1673ffffffffffffffffffffffffffffffffffffffff16815260200190815260200160002060008373ffffffffffffffffffffffffffffffffffffffff1673ffffffffffffffffffffffffffffffffffffffff16815260200190815260200160002060006101000a81548160ff0219169083151502179055508073ffffffffffffffffffffffffffffffffffffffff168273ffffffffffffffffffffffffffffffffffffffff167f9f520b3bfc56d06f7065d10b4683b3f57ac8895d5026cd176dee95ce1454cb8d60405160405180910390a35050565b6000813590506106dd8161088c565b6106e6816107d9565b905092915050565b60006020828403121561070457610703610838565b5b6000610712848285016106ce565b91505092915050565b6000806040838503121561073257610731610838565b5b6000610740858286016106ce565b9250506020610751858286016106ce565b9150509250929050565b610764816107eb565b82525050565b60006107776023836107c8565b91506107828261083d565b604082019050919050565b60006020820190506107a2600083018461075b565b92915050565b600060208201905081810360008301526107c18161076a565b9050919050565b600082825260208201905092915050565b60006107e4826107f7565b9050919050565b60008115159050919050565b600073ffffffffffffffffffffffffffffffffffffffff82169050919050565b600074ffffffffffffffffffffffffffffffffffffffffff82169050919050565b600080fd5b7f4d6173746572416363657373436f6e74726f6c3a204e6f7420617574686f726960008201527f7a65640000000000000000000000000000000000000000000000000000000000602082015250565b61089581610817565b81146108a057600080fd5b5056fea26474726f6e58221220a2855e050b4f6afb5b373ddbeb866cbd05f3615aa49332da289ca8a263b63a1164736f6c63430008070033",
  "source": "// SPDX-License-Identifier: MIT\r\npragma solidity ^0.8.7;\r\n\r\ncontract MasterAccessControl {\r\n    // Mapping from contract address to a mapping of caller addresses to access rights\r\n    mapping(address => mapping(address => bool)) private accessRights;\r\n\r\n    // Events\r\n    event AccessGranted(address indexed contractAddress, address indexed caller);\r\n    event AccessRevoked(address indexed contractAddress, address indexed caller);\r\n\r\n    // Modifier to check access rights\r\n    modifier onlyAuthorized()\r\n    {\r\n        require(hasAccess(address(this), msg.sender), \"MasterAccessControl: Not authorized\");\r\n        _;\r\n    }\r\n\r\n\r\n    // Constructor\r\n    constructor() {\r\n        // Grant deployer access\r\n        accessRights[address(this)][msg.sender] = true;\r\n        emit AccessGranted(address(this), msg.sender);\r\n    }\r\n\r\n    // Grant access to a caller for a specific contract\r\n    function grantAccess(address _contract, address _caller) external onlyAuthorized {\r\n        // Implement ownership logic if necessary\r\n        accessRights[_contract][_caller] = true;\r\n        emit AccessGranted(_contract, _caller);\r\n    }\r\n\r\n    // Revoke access\r\n    function revokeAccess(address _contract, address _caller) onlyAuthorized() external {\r\n        // Implement ownership logic if necessary\r\n        accessRights[_contract][_caller] = false;\r\n        emit AccessRevoked(_contract, _caller);\r\n    }\r\n\r\n\r\n    function grantSelfAccess(address _addressToGrant) external {\r\n        accessRights[msg.sender][_addressToGrant] = true;\r\n        emit AccessGranted(msg.sender, _addressToGrant);\r\n    }\r\n\r\n    function revokeSelfAccess(address _addressToRevoke) external {\r\n        accessRights[msg.sender][_addressToRevoke] = false;\r\n        emit AccessRevoked(msg.sender, _addressToRevoke);\r\n    }\r\n\r\n\r\n\r\n    // Check if an address has access to a contract\r\n    function hasAccess(address _contract, address _caller) public view returns (bool) {\r\n        return accessRights[_contract][_caller];\r\n    }\r\n\r\n    // Function for contracts to check access\r\n    function selfCheckAccess(address _addressToCheck) external view returns (bool) {\r\n        return accessRights[msg.sender][_addressToCheck];\r\n    }\r\n}",
  "sourcePath": "/home/sid/mounts/Projects/03 Hackathon/Tron Hackathon/NeuraNFT_Tron/smart_contracts/neuranft-contract/contracts/MasterAccessControl.sol",
  "compiler": {
    "name": "solc",
    "version": "0.8.7+commit.2128cde5.mod.Emscripten.clang"
  },
  "schemaVersion": "2.0.1",
  "updatedAt": "2024-10-07T15:19:05.884Z"
}