{
  "contractName": "NFTContract",
  "abi": [
    {
      "inputs": [
        {
          "internalType": "address",
          "name": "_masterAccessControlAddress",
          "type": "address"
        },
        {
          "internalType": "address",
          "name": "_nftAccessControlAddress",
          "type": "address"
        },
        {
          "internalType": "address",
          "name": "_nftMetadataAddress",
          "type": "address"
        }
      ],
      "stateMutability": "nonpayable",
      "type": "constructor"
    },
    {
      "anonymous": false,
      "inputs": [
        {
          "indexed": true,
          "internalType": "address",
          "name": "owner",
          "type": "address"
        },
        {
          "indexed": true,
          "internalType": "address",
          "name": "approved",
          "type": "address"
        },
        {
          "indexed": true,
          "internalType": "uint256",
          "name": "collectionId",
          "type": "uint256"
        },
        {
          "indexed": false,
          "internalType": "uint256",
          "name": "tokenId",
          "type": "uint256"
        }
      ],
      "name": "Approval",
      "type": "event"
    },
    {
      "anonymous": false,
      "inputs": [
        {
          "indexed": true,
          "internalType": "address",
          "name": "owner",
          "type": "address"
        },
        {
          "indexed": true,
          "internalType": "address",
          "name": "operator",
          "type": "address"
        },
        {
          "indexed": false,
          "internalType": "bool",
          "name": "approved",
          "type": "bool"
        }
      ],
      "name": "ApprovalForAll",
      "type": "event"
    },
    {
      "anonymous": false,
      "inputs": [
        {
          "indexed": true,
          "internalType": "uint256",
          "name": "collectionId",
          "type": "uint256"
        },
        {
          "indexed": true,
          "internalType": "uint256",
          "name": "tokenId",
          "type": "uint256"
        }
      ],
      "name": "NFTBurned",
      "type": "event"
    },
    {
      "anonymous": false,
      "inputs": [
        {
          "indexed": true,
          "internalType": "uint256",
          "name": "collectionId",
          "type": "uint256"
        },
        {
          "indexed": true,
          "internalType": "uint256",
          "name": "tokenId",
          "type": "uint256"
        },
        {
          "indexed": false,
          "internalType": "string",
          "name": "name",
          "type": "string"
        },
        {
          "indexed": false,
          "internalType": "address",
          "name": "creator",
          "type": "address"
        }
      ],
      "name": "NFTCreated",
      "type": "event"
    },
    {
      "anonymous": false,
      "inputs": [
        {
          "indexed": true,
          "internalType": "address",
          "name": "from",
          "type": "address"
        },
        {
          "indexed": true,
          "internalType": "address",
          "name": "to",
          "type": "address"
        },
        {
          "indexed": true,
          "internalType": "uint256",
          "name": "collectionId",
          "type": "uint256"
        },
        {
          "indexed": false,
          "internalType": "uint256",
          "name": "tokenId",
          "type": "uint256"
        }
      ],
      "name": "Transfer",
      "type": "event"
    },
    {
      "inputs": [
        {
          "internalType": "address",
          "name": "to",
          "type": "address"
        },
        {
          "internalType": "uint256",
          "name": "collectionId",
          "type": "uint256"
        },
        {
          "internalType": "uint256",
          "name": "tokenId",
          "type": "uint256"
        }
      ],
      "name": "approve",
      "outputs": [],
      "stateMutability": "nonpayable",
      "type": "function"
    },
    {
      "inputs": [
        {
          "internalType": "address",
          "name": "owner",
          "type": "address"
        }
      ],
      "name": "balanceOf",
      "outputs": [
        {
          "internalType": "uint256",
          "name": "",
          "type": "uint256"
        }
      ],
      "stateMutability": "view",
      "type": "function"
    },
    {
      "inputs": [
        {
          "internalType": "address",
          "name": "owner",
          "type": "address"
        },
        {
          "internalType": "uint256",
          "name": "collectionId",
          "type": "uint256"
        }
      ],
      "name": "balanceOfCollection",
      "outputs": [
        {
          "internalType": "uint256",
          "name": "",
          "type": "uint256"
        }
      ],
      "stateMutability": "view",
      "type": "function"
    },
    {
      "inputs": [
        {
          "internalType": "uint256",
          "name": "_collectionId",
          "type": "uint256"
        },
        {
          "internalType": "uint256",
          "name": "_tokenId",
          "type": "uint256"
        }
      ],
      "name": "burnNFT",
      "outputs": [],
      "stateMutability": "nonpayable",
      "type": "function"
    },
    {
      "inputs": [
        {
          "internalType": "uint256",
          "name": "_collectionId",
          "type": "uint256"
        },
        {
          "internalType": "string",
          "name": "_name",
          "type": "string"
        },
        {
          "internalType": "uint8",
          "name": "_levelOfOwnership",
          "type": "uint8"
        }
      ],
      "name": "createNFT",
      "outputs": [
        {
          "internalType": "uint256",
          "name": "",
          "type": "uint256"
        }
      ],
      "stateMutability": "nonpayable",
      "type": "function"
    },
    {
      "inputs": [
        {
          "internalType": "uint256",
          "name": "collectionId",
          "type": "uint256"
        },
        {
          "internalType": "uint256",
          "name": "tokenId",
          "type": "uint256"
        }
      ],
      "name": "getApproved",
      "outputs": [
        {
          "internalType": "address",
          "name": "",
          "type": "address"
        }
      ],
      "stateMutability": "view",
      "type": "function"
    },
    {
      "inputs": [
        {
          "internalType": "uint256",
          "name": "_collectionId",
          "type": "uint256"
        }
      ],
      "name": "getCollectionNFTCount",
      "outputs": [
        {
          "internalType": "uint256",
          "name": "",
          "type": "uint256"
        }
      ],
      "stateMutability": "view",
      "type": "function"
    },
    {
      "inputs": [
        {
          "internalType": "uint256",
          "name": "_collectionId",
          "type": "uint256"
        }
      ],
      "name": "getCollectionNFTs",
      "outputs": [
        {
          "internalType": "uint256[]",
          "name": "",
          "type": "uint256[]"
        }
      ],
      "stateMutability": "view",
      "type": "function"
    },
    {
      "inputs": [
        {
          "internalType": "uint256",
          "name": "_collectionId",
          "type": "uint256"
        },
        {
          "internalType": "uint256",
          "name": "_tokenId",
          "type": "uint256"
        }
      ],
      "name": "getNFTInfo",
      "outputs": [
        {
          "components": [
            {
              "internalType": "uint8",
              "name": "levelOfOwnership",
              "type": "uint8"
            },
            {
              "internalType": "string",
              "name": "name",
              "type": "string"
            },
            {
              "internalType": "address",
              "name": "creator",
              "type": "address"
            },
            {
              "internalType": "uint256",
              "name": "creationDate",
              "type": "uint256"
            },
            {
              "internalType": "address",
              "name": "owner",
              "type": "address"
            }
          ],
          "internalType": "struct NFTContract.NFTInfo",
          "name": "",
          "type": "tuple"
        }
      ],
      "stateMutability": "view",
      "type": "function"
    },
    {
      "inputs": [
        {
          "internalType": "address",
          "name": "owner",
          "type": "address"
        },
        {
          "internalType": "address",
          "name": "operator",
          "type": "address"
        }
      ],
      "name": "isApprovedForAll",
      "outputs": [
        {
          "internalType": "bool",
          "name": "",
          "type": "bool"
        }
      ],
      "stateMutability": "view",
      "type": "function"
    },
    {
      "inputs": [],
      "name": "masterAccessControl",
      "outputs": [
        {
          "internalType": "contract MasterAccessControl",
          "name": "",
          "type": "address"
        }
      ],
      "stateMutability": "view",
      "type": "function"
    },
    {
      "inputs": [],
      "name": "nftAccessControl",
      "outputs": [
        {
          "internalType": "contract NFTAccessControl",
          "name": "",
          "type": "address"
        }
      ],
      "stateMutability": "view",
      "type": "function"
    },
    {
      "inputs": [],
      "name": "nftMetadata",
      "outputs": [
        {
          "internalType": "contract NFTMetadata",
          "name": "",
          "type": "address"
        }
      ],
      "stateMutability": "view",
      "type": "function"
    },
    {
      "inputs": [
        {
          "internalType": "uint256",
          "name": "_collectionId",
          "type": "uint256"
        }
      ],
      "name": "numberOfHolders",
      "outputs": [
        {
          "internalType": "uint256",
          "name": "",
          "type": "uint256"
        }
      ],
      "stateMutability": "view",
      "type": "function"
    },
    {
      "inputs": [
        {
          "internalType": "uint256",
          "name": "collectionId",
          "type": "uint256"
        },
        {
          "internalType": "uint256",
          "name": "tokenId",
          "type": "uint256"
        }
      ],
      "name": "ownerOf",
      "outputs": [
        {
          "internalType": "address",
          "name": "",
          "type": "address"
        }
      ],
      "stateMutability": "view",
      "type": "function"
    },
    {
      "inputs": [
        {
          "internalType": "address",
          "name": "from",
          "type": "address"
        },
        {
          "internalType": "address",
          "name": "to",
          "type": "address"
        },
        {
          "internalType": "uint256",
          "name": "collectionId",
          "type": "uint256"
        },
        {
          "internalType": "uint256",
          "name": "tokenId",
          "type": "uint256"
        }
      ],
      "name": "safeTransferFrom",
      "outputs": [],
      "stateMutability": "nonpayable",
      "type": "function"
    },
    {
      "inputs": [
        {
          "internalType": "address",
          "name": "from",
          "type": "address"
        },
        {
          "internalType": "address",
          "name": "to",
          "type": "address"
        },
        {
          "internalType": "uint256",
          "name": "collectionId",
          "type": "uint256"
        },
        {
          "internalType": "uint256",
          "name": "tokenId",
          "type": "uint256"
        },
        {
          "internalType": "bytes",
          "name": "data",
          "type": "bytes"
        }
      ],
      "name": "safeTransferFrom",
      "outputs": [],
      "stateMutability": "nonpayable",
      "type": "function"
    },
    {
      "inputs": [
        {
          "internalType": "address",
          "name": "operator",
          "type": "address"
        },
        {
          "internalType": "bool",
          "name": "approved",
          "type": "bool"
        }
      ],
      "name": "setApprovalForAll",
      "outputs": [],
      "stateMutability": "nonpayable",
      "type": "function"
    },
    {
      "inputs": [
        {
          "internalType": "address",
          "name": "from",
          "type": "address"
        },
        {
          "internalType": "address",
          "name": "to",
          "type": "address"
        },
        {
          "internalType": "uint256",
          "name": "collectionId",
          "type": "uint256"
        },
        {
          "internalType": "uint256",
          "name": "tokenId",
          "type": "uint256"
        }
      ],
      "name": "transferFrom",
      "outputs": [],
      "stateMutability": "nonpayable",
      "type": "function"
    },
    {
      "inputs": [
        {
          "internalType": "uint256",
          "name": "_collectionId",
          "type": "uint256"
        },
        {
          "internalType": "uint256",
          "name": "_tokenId",
          "type": "uint256"
        },
        {
          "internalType": "address",
          "name": "_to",
          "type": "address"
        }
      ],
      "name": "transferNFT",
      "outputs": [],
      "stateMutability": "nonpayable",
      "type": "function"
    }
  ],
  "bytecode": "0x60806040523480156200001157600080fd5b50d380156200001f57600080fd5b50d280156200002d57600080fd5b5060405162003a8238038062003a828339818101604052810190620000539190620001d1565b826000806101000a81548173ffffffffffffffffffffffffffffffffffffffff021916908373ffffffffffffffffffffffffffffffffffffffff16021790555081600160006101000a81548173ffffffffffffffffffffffffffffffffffffffff021916908373ffffffffffffffffffffffffffffffffffffffff16021790555080600260006101000a81548173ffffffffffffffffffffffffffffffffffffffff021916908373ffffffffffffffffffffffffffffffffffffffff16021790555060008054906101000a900473ffffffffffffffffffffffffffffffffffffffff1673ffffffffffffffffffffffffffffffffffffffff1663a2aadc54336040518263ffffffff1660e01b81526004016200017091906200023e565b600060405180830381600087803b1580156200018b57600080fd5b505af1158015620001a0573d6000803e3d6000fd5b50505050505050620002cf565b600081519050620001be81620002b5565b620001c9816200025b565b905092915050565b600080600060608486031215620001ed57620001ec620002b0565b5b6000620001fd86828701620001ad565b93505060206200021086828701620001ad565b92505060406200022386828701620001ad565b9150509250925092565b62000238816200025b565b82525050565b60006020820190506200025560008301846200022d565b92915050565b600062000268826200026f565b9050919050565b600073ffffffffffffffffffffffffffffffffffffffff82169050919050565b600074ffffffffffffffffffffffffffffffffffffffffff82169050919050565b600080fd5b620002c0816200028f565b8114620002cc57600080fd5b50565b6137a380620002df6000396000f3fe608060405234801561001057600080fd5b50d3801561001d57600080fd5b50d2801561002a57600080fd5b50600436106101465760003560e01c80639ef8dd67116100c7578063e985e9c51161008b578063e985e9c514610381578063f242432a146103b1578063f9f96003146103cd578063fe99049a146103fd578063feb4cbb91461041957610146565b80639ef8dd67146102dd578063a22cb465146102fb578063d3caf16714610317578063d9dad80d14610333578063db9d777b1461036357610146565b806370a082311161010e57806370a08231146102015780637edb992c146102315780638894c446146102615780638f928bf51461027d5780639e889b4c146102ad57610146565b8063099a490c1461014b5780630febdd491461017b578063145e32c514610197578063426a8493146101b55780635b8ef74e146101d1575b600080fd5b61016560048036038101906101609190612625565b610449565b6040516101729190612ed1565b60405180910390f35b610195600480360381019061019091906124e7565b6104a4565b005b61019f6104c6565b6040516101ac9190612d04565b60405180910390f35b6101cf60048036038101906101ca9190612665565b6104ec565b005b6101eb60048036038101906101e691906127db565b6106b7565b6040516101f89190612c1c565b60405180910390f35b61021b6004803603810190610216919061247a565b61074f565b6040516102289190612ed1565b60405180910390f35b61024b600480360381019061024691906127db565b610798565b6040516102589190612eaf565b60405180910390f35b61027b6004803603810190610276919061281b565b61093c565b005b6102976004803603810190610292919061276c565b61094d565b6040516102a49190612ed1565b60405180910390f35b6102c760048036038101906102c2919061273f565b610d84565b6040516102d49190612c91565b60405180910390f35b6102e5610ed7565b6040516102f29190612cce565b60405180910390f35b610315600480360381019061031091906125e5565b610efb565b005b610331600480360381019061032c91906127db565b611067565b005b61034d600480360381019061034891906127db565b61155e565b60405161035a9190612c1c565b60405180910390f35b61036b611625565b6040516103789190612ce9565b60405180910390f35b61039b600480360381019061039691906124a7565b61164b565b6040516103a89190612cb3565b60405180910390f35b6103cb60048036038101906103c6919061254e565b6116df565b005b6103e760048036038101906103e2919061273f565b61173e565b6040516103f49190612ed1565b60405180910390f35b610417600480360381019061041291906124e7565b611988565b005b610433600480360381019061042e919061273f565b6119e4565b6040516104409190612ed1565b60405180910390f35b6000600660008473ffffffffffffffffffffffffffffffffffffffff1673ffffffffffffffffffffffffffffffffffffffff168152602001908152602001600020600083815260200190815260200160002054905092915050565b6104c084848484604051806020016040528060008152506116df565b50505050565b600260009054906101000a900473ffffffffffffffffffffffffffffffffffffffff1681565b60006104f8838361155e565b90508073ffffffffffffffffffffffffffffffffffffffff168473ffffffffffffffffffffffffffffffffffffffff161415610569576040517f08c379a000000000000000000000000000000000000000000000000000000000815260040161056090612e4f565b60405180910390fd5b8073ffffffffffffffffffffffffffffffffffffffff163373ffffffffffffffffffffffffffffffffffffffff1614806105a957506105a8813361164b565b5b6105e8576040517f08c379a00000000000000000000000000000000000000000000000000000000081526004016105df90612daf565b60405180910390fd5b8360076000858152602001908152602001600020600084815260200190815260200160002060006101000a81548173ffffffffffffffffffffffffffffffffffffffff021916908373ffffffffffffffffffffffffffffffffffffffff160217905550828473ffffffffffffffffffffffffffffffffffffffff168273ffffffffffffffffffffffffffffffffffffffff167fb3fd5071835887567a0671151121894ddccc2842f1d10bedad13e0d17cace9a7856040516106a99190612ed1565b60405180910390a450505050565b60006106c38383611a01565b610702576040517f08c379a00000000000000000000000000000000000000000000000000000000081526004016106f990612e2f565b60405180910390fd5b60076000848152602001908152602001600020600083815260200190815260200160002060009054906101000a900473ffffffffffffffffffffffffffffffffffffffff16905092915050565b6000600560008373ffffffffffffffffffffffffffffffffffffffff1673ffffffffffffffffffffffffffffffffffffffff168152602001908152602001600020549050919050565b6107a06121bb565b6003600084815260200190815260200160002060008381526020019081526020016000206040518060a00160405290816000820160009054906101000a900460ff1660ff1660ff1681526020016001820180546107fc90613227565b80601f016020809104026020016040519081016040528092919081815260200182805461082890613227565b80156108755780601f1061084a57610100808354040283529160200191610875565b820191906000526020600020905b81548152906001019060200180831161085857829003601f168201915b505050505081526020016002820160009054906101000a900473ffffffffffffffffffffffffffffffffffffffff1673ffffffffffffffffffffffffffffffffffffffff1673ffffffffffffffffffffffffffffffffffffffff168152602001600382015481526020016004820160009054906101000a900473ffffffffffffffffffffffffffffffffffffffff1673ffffffffffffffffffffffffffffffffffffffff1673ffffffffffffffffffffffffffffffffffffffff1681525050905092915050565b610948338285856104a4565b505050565b6000808260ff16118015610965575060068260ff1611155b6109a4576040517f08c379a000000000000000000000000000000000000000000000000000000000815260040161099b90612def565b60405180910390fd5b6000600960008681526020019081526020016000205414156109da57600160096000868152602001908152602001600020819055505b6000600960008681526020019081526020016000206000815480929190610a009061328a565b91905055905060006040518060a001604052808560ff1681526020018681526020013373ffffffffffffffffffffffffffffffffffffffff1681526020014281526020013373ffffffffffffffffffffffffffffffffffffffff1681525090508060036000888152602001908152602001600020600084815260200190815260200160002060008201518160000160006101000a81548160ff021916908360ff1602179055506020820151816001019080519060200190610ac2929190612219565b5060408201518160020160006101000a81548173ffffffffffffffffffffffffffffffffffffffff021916908373ffffffffffffffffffffffffffffffffffffffff1602179055506060820151816003015560808201518160040160006101000a81548173ffffffffffffffffffffffffffffffffffffffff021916908373ffffffffffffffffffffffffffffffffffffffff160217905550905050600460008781526020019081526020016000206000815480929190610b829061328a565b9190505550600560003373ffffffffffffffffffffffffffffffffffffffff1673ffffffffffffffffffffffffffffffffffffffff1681526020019081526020016000206000815480929190610bd79061328a565b9190505550600660003373ffffffffffffffffffffffffffffffffffffffff1673ffffffffffffffffffffffffffffffffffffffff16815260200190815260200160002060008781526020019081526020016000206000815480929190610c3d9061328a565b9190505550600160009054906101000a900473ffffffffffffffffffffffffffffffffffffffff1673ffffffffffffffffffffffffffffffffffffffff166396360e5387843360066040518563ffffffff1660e01b8152600401610ca49493929190612f4c565b600060405180830381600087803b158015610cbe57600080fd5b505af1158015610cd2573d6000803e3d6000fd5b5050505081867f70c783e7a8d1b78c0efffba9d45d314bfe7a85f6388c8e9a32536a97949a0f2a8733604051610d09929190612d1f565b60405180910390a3853373ffffffffffffffffffffffffffffffffffffffff16600073ffffffffffffffffffffffffffffffffffffffff167f9ed053bb818ff08b8353cd46f78db1f0799f31c9e4458fdb425c10eccd2efc4485604051610d709190612ed1565b60405180910390a481925050509392505050565b606060006004600084815260200190815260200160002054905060008167ffffffffffffffff811115610dba57610db961338f565b5b604051908082528060200260200182016040528015610de85781602001602082028036833780820191505090505b509050600080600190505b6009600087815260200190815260200160002054811015610ecb57600073ffffffffffffffffffffffffffffffffffffffff1660036000888152602001908152602001600020600083815260200190815260200160002060040160009054906101000a900473ffffffffffffffffffffffffffffffffffffffff1673ffffffffffffffffffffffffffffffffffffffff1614610eb85780838381518110610e9d57610e9c613360565b5b6020026020010181815250508180610eb49061328a565b9250505b8080610ec39061328a565b915050610df3565b50819350505050919050565b60008054906101000a900473ffffffffffffffffffffffffffffffffffffffff1681565b3373ffffffffffffffffffffffffffffffffffffffff168273ffffffffffffffffffffffffffffffffffffffff161415610f6a576040517f08c379a0000000000000000000000000000000000000000000000000000000008152600401610f6190612d8f565b60405180910390fd5b80600860003373ffffffffffffffffffffffffffffffffffffffff1673ffffffffffffffffffffffffffffffffffffffff16815260200190815260200160002060008473ffffffffffffffffffffffffffffffffffffffff1673ffffffffffffffffffffffffffffffffffffffff16815260200190815260200160002060006101000a81548160ff0219169083151502179055508173ffffffffffffffffffffffffffffffffffffffff163373ffffffffffffffffffffffffffffffffffffffff167f17307eab39ab6107e8899845ad3d59bd9653f200f220920489ca2b5937696c318360405161105b9190612cb3565b60405180910390a35050565b81813373ffffffffffffffffffffffffffffffffffffffff1660036000848152602001908152602001600020600083815260200190815260200160002060040160009054906101000a900473ffffffffffffffffffffffffffffffffffffffff1673ffffffffffffffffffffffffffffffffffffffff161461111e576040517f08c379a000000000000000000000000000000000000000000000000000000000815260040161111590612dcf565b60405180910390fd5b600060036000868152602001908152602001600020600085815260200190815260200160002060040160009054906101000a900473ffffffffffffffffffffffffffffffffffffffff169050600360008681526020019081526020016000206000858152602001908152602001600020600080820160006101000a81549060ff02191690556001820160006111b3919061229f565b6002820160006101000a81549073ffffffffffffffffffffffffffffffffffffffff021916905560038201600090556004820160006101000a81549073ffffffffffffffffffffffffffffffffffffffff0219169055505060046000868152602001908152602001600020600081548092919061122f906131fd565b9190505550600560008273ffffffffffffffffffffffffffffffffffffffff1673ffffffffffffffffffffffffffffffffffffffff1681526020019081526020016000206000815480929190611284906131fd565b9190505550600660008273ffffffffffffffffffffffffffffffffffffffff1673ffffffffffffffffffffffffffffffffffffffff168152602001908152602001600020600086815260200190815260200160002060008154809291906112ea906131fd565b9190505550600260009054906101000a900473ffffffffffffffffffffffffffffffffffffffff1673ffffffffffffffffffffffffffffffffffffffff16637536278f86866040518363ffffffff1660e01b815260040161134c929190612eec565b60206040518083038186803b15801561136457600080fd5b505afa158015611378573d6000803e3d6000fd5b505050506040513d601f19601f8201168201806040525081019061139c91906126b8565b1561143157600260009054906101000a900473ffffffffffffffffffffffffffffffffffffffff1673ffffffffffffffffffffffffffffffffffffffff16635958575486866040518363ffffffff1660e01b81526004016113fe929190612eec565b600060405180830381600087803b15801561141857600080fd5b505af115801561142c573d6000803e3d6000fd5b505050505b600160009054906101000a900473ffffffffffffffffffffffffffffffffffffffff1673ffffffffffffffffffffffffffffffffffffffff1663e57fb90d8686846040518463ffffffff1660e01b815260040161149093929190612f15565b600060405180830381600087803b1580156114aa57600080fd5b505af11580156114be573d6000803e3d6000fd5b5050505083857f401ca505317eed77a11d86cfdf8adc682b4c9cb9855ab9b951515e1b371c67ef60405160405180910390a384600073ffffffffffffffffffffffffffffffffffffffff168273ffffffffffffffffffffffffffffffffffffffff167f9ed053bb818ff08b8353cd46f78db1f0799f31c9e4458fdb425c10eccd2efc448760405161154f9190612ed1565b60405180910390a45050505050565b60008060036000858152602001908152602001600020600084815260200190815260200160002060040160009054906101000a900473ffffffffffffffffffffffffffffffffffffffff169050600073ffffffffffffffffffffffffffffffffffffffff168173ffffffffffffffffffffffffffffffffffffffff16141561161b576040517f08c379a000000000000000000000000000000000000000000000000000000000815260040161161290612e0f565b60405180910390fd5b8091505092915050565b600160009054906101000a900473ffffffffffffffffffffffffffffffffffffffff1681565b6000600860008473ffffffffffffffffffffffffffffffffffffffff1673ffffffffffffffffffffffffffffffffffffffff16815260200190815260200160002060008373ffffffffffffffffffffffffffffffffffffffff1673ffffffffffffffffffffffffffffffffffffffff16815260200190815260200160002060009054906101000a900460ff16905092915050565b6116eb85858585611988565b6116f88585858585611a82565b611737576040517f08c379a000000000000000000000000000000000000000000000000000000000815260040161172e90612d6f565b60405180910390fd5b5050505050565b600080600090506000600960008581526020019081526020016000205467ffffffffffffffff8111156117745761177361338f565b5b6040519080825280602002602001820160405280156117a25781602001602082028036833780820191505090505b5090506000600190505b600960008681526020019081526020016000205481101561197d57600073ffffffffffffffffffffffffffffffffffffffff1660036000878152602001908152602001600020600083815260200190815260200160002060040160009054906101000a900473ffffffffffffffffffffffffffffffffffffffff1673ffffffffffffffffffffffffffffffffffffffff161461196a57600060036000878152602001908152602001600020600083815260200190815260200160002060040160009054906101000a900473ffffffffffffffffffffffffffffffffffffffff1690506000805b85811015611904578273ffffffffffffffffffffffffffffffffffffffff168582815181106118c4576118c3613360565b5b602002602001015173ffffffffffffffffffffffffffffffffffffffff1614156118f15760019150611904565b80806118fc9061328a565b915050611892565b5080611967578184868151811061191e5761191d613360565b5b602002602001019073ffffffffffffffffffffffffffffffffffffffff16908173ffffffffffffffffffffffffffffffffffffffff168152505084806119639061328a565b9550505b50505b80806119759061328a565b9150506117ac565b508192505050919050565b611993338383611c10565b6119d2576040517f08c379a00000000000000000000000000000000000000000000000000000000081526004016119c990612e6f565b60405180910390fd5b6119de84848484611ca8565b50505050565b600060046000838152602001908152602001600020549050919050565b60008073ffffffffffffffffffffffffffffffffffffffff1660036000858152602001908152602001600020600084815260200190815260200160002060040160009054906101000a900473ffffffffffffffffffffffffffffffffffffffff1673ffffffffffffffffffffffffffffffffffffffff161415905092915050565b6000808573ffffffffffffffffffffffffffffffffffffffff163b1115611c02578473ffffffffffffffffffffffffffffffffffffffff16637636e24533888787876040518663ffffffff1660e01b8152600401611ae4959493929190612c37565b602060405180830381600087803b158015611afe57600080fd5b505af1925050508015611b2f57506040513d601f19601f82011682018060405250810190611b2c91906126e5565b60015b611bb2573d8060008114611b5f576040519150601f19603f3d011682016040523d82523d6000602084013e611b64565b606091505b50600081511415611baa576040517f08c379a0000000000000000000000000000000000000000000000000000000008152600401611ba190612d6f565b60405180910390fd5b805181602001fd5b637636e24560e01b7bffffffffffffffffffffffffffffffffffffffffffffffffffffffff1916817bffffffffffffffffffffffffffffffffffffffffffffffffffffffff191614915050611c07565b600190505b95945050505050565b600080611c1d848461155e565b90508073ffffffffffffffffffffffffffffffffffffffff168573ffffffffffffffffffffffffffffffffffffffff161480611c8d57508473ffffffffffffffffffffffffffffffffffffffff16611c7585856106b7565b73ffffffffffffffffffffffffffffffffffffffff16145b80611c9e5750611c9d818661164b565b5b9150509392505050565b8373ffffffffffffffffffffffffffffffffffffffff16611cc9838361155e565b73ffffffffffffffffffffffffffffffffffffffff1614611d1f576040517f08c379a0000000000000000000000000000000000000000000000000000000008152600401611d1690612e8f565b60405180910390fd5b600073ffffffffffffffffffffffffffffffffffffffff168373ffffffffffffffffffffffffffffffffffffffff161415611d8f576040517f08c379a0000000000000000000000000000000000000000000000000000000008152600401611d8690612d4f565b60405180910390fd5b611d9b600083836104ec565b600560008573ffffffffffffffffffffffffffffffffffffffff1673ffffffffffffffffffffffffffffffffffffffff1681526020019081526020016000206000815480929190611deb906131fd565b9190505550600560008473ffffffffffffffffffffffffffffffffffffffff1673ffffffffffffffffffffffffffffffffffffffff1681526020019081526020016000206000815480929190611e409061328a565b9190505550600660008573ffffffffffffffffffffffffffffffffffffffff1673ffffffffffffffffffffffffffffffffffffffff16815260200190815260200160002060008381526020019081526020016000206000815480929190611ea6906131fd565b9190505550600660008473ffffffffffffffffffffffffffffffffffffffff1673ffffffffffffffffffffffffffffffffffffffff16815260200190815260200160002060008381526020019081526020016000206000815480929190611f0c9061328a565b91905055508260036000848152602001908152602001600020600083815260200190815260200160002060040160006101000a81548173ffffffffffffffffffffffffffffffffffffffff021916908373ffffffffffffffffffffffffffffffffffffffff160217905550818373ffffffffffffffffffffffffffffffffffffffff168573ffffffffffffffffffffffffffffffffffffffff167f9ed053bb818ff08b8353cd46f78db1f0799f31c9e4458fdb425c10eccd2efc4484604051611fd59190612ed1565b60405180910390a46000600160009054906101000a900473ffffffffffffffffffffffffffffffffffffffff1673ffffffffffffffffffffffffffffffffffffffff1663be18f3958484886040518463ffffffff1660e01b815260040161203e93929190612f15565b60206040518083038186803b15801561205657600080fd5b505afa15801561206a573d6000803e3d6000fd5b505050506040513d601f19601f8201168201806040525081019061208e9190612712565b9050600160009054906101000a900473ffffffffffffffffffffffffffffffffffffffff1673ffffffffffffffffffffffffffffffffffffffff1663e57fb90d8484886040518463ffffffff1660e01b81526004016120ef93929190612f15565b600060405180830381600087803b15801561210957600080fd5b505af115801561211d573d6000803e3d6000fd5b50505050600160009054906101000a900473ffffffffffffffffffffffffffffffffffffffff1673ffffffffffffffffffffffffffffffffffffffff166396360e53848487856040518563ffffffff1660e01b81526004016121829493929190612f4c565b600060405180830381600087803b15801561219c57600080fd5b505af11580156121b0573d6000803e3d6000fd5b505050505050505050565b6040518060a00160405280600060ff16815260200160608152602001600073ffffffffffffffffffffffffffffffffffffffff16815260200160008152602001600073ffffffffffffffffffffffffffffffffffffffff1681525090565b82805461222590613227565b90600052602060002090601f016020900481019282612247576000855561228e565b82601f1061226057805160ff191683800117855561228e565b8280016001018555821561228e579182015b8281111561228d578251825591602001919060010190612272565b5b50905061229b91906122df565b5090565b5080546122ab90613227565b6000825580601f106122bd57506122dc565b601f0160209004906000526020600020908101906122db91906122df565b5b50565b5b808211156122f85760008160009055506001016122e0565b5090565b600061230f61230a84612fb6565b612f91565b90508281526020810184848401111561232b5761232a6133c3565b5b6123368482856131bb565b509392505050565b600061235161234c84612fe7565b612f91565b90508281526020810184848401111561236d5761236c6133c3565b5b6123788482856131bb565b509392505050565b60008135905061238f816136ea565b6123988161309a565b905092915050565b6000813590506123af81613701565b92915050565b6000815190506123c481613701565b92915050565b6000815190506123d981613718565b92915050565b600082601f8301126123f4576123f36133be565b5b81356124048482602086016122fc565b91505092915050565b60008151905061241c8161372f565b92915050565b600082601f830112612437576124366133be565b5b813561244784826020860161233e565b91505092915050565b60008135905061245f8161373f565b92915050565b60008135905061247481613756565b92915050565b6000602082840312156124905761248f6133cd565b5b600061249e84828501612380565b91505092915050565b600080604083850312156124be576124bd6133cd565b5b60006124cc85828601612380565b92505060206124dd85828601612380565b9150509250929050565b60008060008060808587031215612501576125006133cd565b5b600061250f87828801612380565b945050602061252087828801612380565b935050604061253187828801612450565b925050606061254287828801612450565b91505092959194509250565b600080600080600060a0868803121561256a576125696133cd565b5b600061257888828901612380565b955050602061258988828901612380565b945050604061259a88828901612450565b93505060606125ab88828901612450565b925050608086013567ffffffffffffffff8111156125cc576125cb6133c8565b5b6125d8888289016123df565b9150509295509295909350565b600080604083850312156125fc576125fb6133cd565b5b600061260a85828601612380565b925050602061261b858286016123a0565b9150509250929050565b6000806040838503121561263c5761263b6133cd565b5b600061264a85828601612380565b925050602061265b85828601612450565b9150509250929050565b60008060006060848603121561267e5761267d6133cd565b5b600061268c86828701612380565b935050602061269d86828701612450565b92505060406126ae86828701612450565b9150509250925092565b6000602082840312156126ce576126cd6133cd565b5b60006126dc848285016123b5565b91505092915050565b6000602082840312156126fb576126fa6133cd565b5b6000612709848285016123ca565b91505092915050565b600060208284031215612728576127276133cd565b5b60006127368482850161240d565b91505092915050565b600060208284031215612755576127546133cd565b5b600061276384828501612450565b91505092915050565b600080600060608486031215612785576127846133cd565b5b600061279386828701612450565b935050602084013567ffffffffffffffff8111156127b4576127b36133c8565b5b6127c086828701612422565b92505060406127d186828701612465565b9150509250925092565b600080604083850312156127f2576127f16133cd565b5b600061280085828601612450565b925050602061281185828601612450565b9150509250929050565b600080600060608486031215612834576128336133cd565b5b600061284286828701612450565b935050602061285386828701612450565b925050604061286486828701612380565b9150509250925092565b600061287a8383612bef565b60208301905092915050565b61288f8161309a565b82525050565b61289e8161309a565b82525050565b60006128af82613028565b6128b98185613056565b93506128c483613018565b8060005b838110156128f55781516128dc888261286e565b97506128e783613049565b9250506001810190506128c8565b5085935050505092915050565b61290b816130ac565b82525050565b600061291c82613033565b6129268185613067565b93506129368185602086016131ca565b61293f816133d2565b840191505092915050565b6129538161314f565b82525050565b61296281613161565b82525050565b61297181613173565b82525050565b61298081613185565b82525050565b60006129918261303e565b61299b8185613078565b93506129ab8185602086016131ca565b6129b4816133d2565b840191505092915050565b60006129ca8261303e565b6129d48185613089565b93506129e48185602086016131ca565b6129ed816133d2565b840191505092915050565b6000612a05602983613089565b9150612a10826133e3565b604082019050919050565b6000612a28603783613089565b9150612a3382613432565b604082019050919050565b6000612a4b601e83613089565b9150612a5682613481565b602082019050919050565b6000612a6e602a83613089565b9150612a79826134aa565b604082019050919050565b6000612a91601e83613089565b9150612a9c826134f9565b602082019050919050565b6000612ab4602783613089565b9150612abf82613522565b604082019050919050565b6000612ad7601d83613089565b9150612ae282613571565b602082019050919050565b6000612afa602183613089565b9150612b058261359a565b604082019050919050565b6000612b1d602683613089565b9150612b28826135e9565b604082019050919050565b6000612b40602283613089565b9150612b4b82613638565b604082019050919050565b6000612b63602a83613089565b9150612b6e82613687565b604082019050919050565b600060a083016000830151612b916000860182612c0d565b5060208301518482036020860152612ba98282612986565b9150506040830151612bbe6040860182612886565b506060830151612bd16060860182612bef565b506080830151612be46080860182612886565b508091505092915050565b612bf881613138565b82525050565b612c0781613138565b82525050565b612c1681613142565b82525050565b6000602082019050612c316000830184612895565b92915050565b600060a082019050612c4c6000830188612895565b612c596020830187612895565b612c666040830186612bfe565b612c736060830185612bfe565b8181036080830152612c858184612911565b90509695505050505050565b60006020820190508181036000830152612cab81846128a4565b905092915050565b6000602082019050612cc86000830184612902565b92915050565b6000602082019050612ce3600083018461294a565b92915050565b6000602082019050612cfe6000830184612959565b92915050565b6000602082019050612d196000830184612968565b92915050565b60006040820190508181036000830152612d3981856129bf565b9050612d486020830184612895565b9392505050565b60006020820190508181036000830152612d68816129f8565b9050919050565b60006020820190508181036000830152612d8881612a1b565b9050919050565b60006020820190508181036000830152612da881612a3e565b9050919050565b60006020820190508181036000830152612dc881612a61565b9050919050565b60006020820190508181036000830152612de881612a84565b9050919050565b60006020820190508181036000830152612e0881612aa7565b9050919050565b60006020820190508181036000830152612e2881612aca565b9050919050565b60006020820190508181036000830152612e4881612aed565b9050919050565b60006020820190508181036000830152612e6881612b10565b9050919050565b60006020820190508181036000830152612e8881612b33565b9050919050565b60006020820190508181036000830152612ea881612b56565b9050919050565b60006020820190508181036000830152612ec98184612b79565b905092915050565b6000602082019050612ee66000830184612bfe565b92915050565b6000604082019050612f016000830185612bfe565b612f0e6020830184612bfe565b9392505050565b6000606082019050612f2a6000830186612bfe565b612f376020830185612bfe565b612f446040830184612895565b949350505050565b6000608082019050612f616000830187612bfe565b612f6e6020830186612bfe565b612f7b6040830185612895565b612f886060830184612977565b95945050505050565b6000612f9b612fac565b9050612fa78282613259565b919050565b6000604051905090565b600067ffffffffffffffff821115612fd157612fd061338f565b5b612fda826133d2565b9050602081019050919050565b600067ffffffffffffffff8211156130025761300161338f565b5b61300b826133d2565b9050602081019050919050565b6000819050602082019050919050565b600081519050919050565b600081519050919050565b600081519050919050565b6000602082019050919050565b600082825260208201905092915050565b600082825260208201905092915050565b600082825260208201905092915050565b600082825260208201905092915050565b60006130a5826130f7565b9050919050565b60008115159050919050565b60007fffffffff0000000000000000000000000000000000000000000000000000000082169050919050565b60008190506130f2826136d6565b919050565b600073ffffffffffffffffffffffffffffffffffffffff82169050919050565b600074ffffffffffffffffffffffffffffffffffffffffff82169050919050565b6000819050919050565b600060ff82169050919050565b600061315a82613197565b9050919050565b600061316c82613197565b9050919050565b600061317e82613197565b9050919050565b6000613190826130e4565b9050919050565b60006131a2826131a9565b9050919050565b60006131b4826130f7565b9050919050565b82818337600083830152505050565b60005b838110156131e85780820151818401526020810190506131cd565b838111156131f7576000848401525b50505050565b600061320882613138565b9150600082141561321c5761321b6132d3565b5b600182039050919050565b6000600282049050600182168061323f57607f821691505b6020821081141561325357613252613331565b5b50919050565b613262826133d2565b810181811067ffffffffffffffff821117156132815761328061338f565b5b80604052505050565b600061329582613138565b91507fffffffffffffffffffffffffffffffffffffffffffffffffffffffffffffffff8214156132c8576132c76132d3565b5b600182019050919050565b7f4e487b7100000000000000000000000000000000000000000000000000000000600052601160045260246000fd5b7f4e487b7100000000000000000000000000000000000000000000000000000000600052602160045260246000fd5b7f4e487b7100000000000000000000000000000000000000000000000000000000600052602260045260246000fd5b7f4e487b7100000000000000000000000000000000000000000000000000000000600052603260045260246000fd5b7f4e487b7100000000000000000000000000000000000000000000000000000000600052604160045260246000fd5b600080fd5b600080fd5b600080fd5b600080fd5b6000601f19601f8301169050919050565b7f4e4654436f6e74726163743a205472616e7366657220746f20746865207a657260008201527f6f20616464726573730000000000000000000000000000000000000000000000602082015250565b7f4e4654436f6e74726163743a205472616e7366657220746f206e6f6e2045524360008201527f373231526563656976657220696d706c656d656e746572000000000000000000602082015250565b7f4e4654436f6e74726163743a20417070726f766520746f2063616c6c65720000600082015250565b7f4e4654436f6e74726163743a204e6f74206f776e6572206f7220617070726f7660008201527f656420666f7220616c6c00000000000000000000000000000000000000000000602082015250565b7f4e4654436f6e74726163743a204e6f7420746865204e4654206f776e65720000600082015250565b7f4e4654436f6e74726163743a20496e76616c6964206c6576656c206f66206f7760008201527f6e65727368697000000000000000000000000000000000000000000000000000602082015250565b7f4e4654436f6e74726163743a20496e76616c696420746f6b656e204944000000600082015250565b7f4e4654436f6e74726163743a20546f6b656e20646f6573206e6f74206578697360008201527f7400000000000000000000000000000000000000000000000000000000000000602082015250565b7f4e4654436f6e74726163743a20417070726f76616c20746f2063757272656e7460008201527f206f776e65720000000000000000000000000000000000000000000000000000602082015250565b7f4e4654436f6e74726163743a204e6f7420617070726f766564206f72206f776e60008201527f6572000000000000000000000000000000000000000000000000000000000000602082015250565b7f4e4654436f6e74726163743a205472616e736665722066726f6d20696e636f7260008201527f72656374206f776e657200000000000000000000000000000000000000000000602082015250565b600781106136e7576136e6613302565b5b50565b6136f381613117565b81146136fe57600080fd5b50565b61370a816130ac565b811461371557600080fd5b50565b613721816130b8565b811461372c57600080fd5b50565b6007811061373c57600080fd5b50565b61374881613138565b811461375357600080fd5b50565b61375f81613142565b811461376a57600080fd5b5056fea26474726f6e582212204264fe5b159ad24a4928114cf9f4c76b3e7e777755caeba25e946e2de84dea4764736f6c63430008070033",
  "source": "// SPDX-License-Identifier: MIT\r\npragma solidity ^0.8.7;\r\n\r\nimport \"./MasterAccessControl.sol\";\r\nimport \"./NFTAccessControl.sol\";\r\nimport \"./NFTMetadata.sol\";\r\n\r\n// Novel ERC standard incorporating collection ID\r\nabstract contract ERC721Collection {\r\n    event Transfer(address indexed from, address indexed to, uint256 indexed collectionId, uint256 tokenId);\r\n    event Approval(address indexed owner, address indexed approved, uint256 indexed collectionId, uint256 tokenId);\r\n    event ApprovalForAll(address indexed owner, address indexed operator, bool approved);\r\n\r\n    function balanceOf(address owner) public view virtual returns (uint256 balance);\r\n    function balanceOfCollection(address owner, uint256 collectionId) public view virtual returns (uint256 balance);\r\n    function ownerOf(uint256 collectionId, uint256 tokenId) public view virtual returns (address owner);\r\n    function safeTransferFrom(address from, address to, uint256 collectionId, uint256 tokenId, bytes memory data) public virtual;\r\n    function safeTransferFrom(address from, address to, uint256 collectionId, uint256 tokenId) public virtual;\r\n    function transferFrom(address from, address to, uint256 collectionId, uint256 tokenId) public virtual;\r\n    function approve(address to, uint256 collectionId, uint256 tokenId) public virtual;\r\n    function setApprovalForAll(address operator, bool _approved) public virtual;\r\n    function getApproved(uint256 collectionId, uint256 tokenId) public view virtual returns (address operator);\r\n    function isApprovedForAll(address owner, address operator) public view virtual returns (bool);\r\n}\r\n\r\ncontract NFTContract is ERC721Collection {\r\n    MasterAccessControl public masterAccessControl;\r\n    NFTAccessControl public nftAccessControl;\r\n    NFTMetadata public nftMetadata;\r\n\r\n    struct NFTInfo {\r\n        uint8 levelOfOwnership;\r\n        string name;\r\n        address creator;\r\n        uint256 creationDate;\r\n        address owner;\r\n    }\r\n\r\n    mapping(uint256 => mapping(uint256 => NFTInfo)) private nfts; // collectionId => tokenId => NFTInfo\r\n    mapping(uint256 => uint256) private collectionNFTCount; // collectionId => number of NFTs\r\n    mapping(address => uint256) private balances; // owner => total number of NFTs\r\n    mapping(address => mapping(uint256 => uint256)) private balanceCollection; // owner => collectionId => number of NFTs\r\n\r\n    mapping(uint256 => mapping(uint256 => address)) private tokenApprovals; // collectionId => tokenId => approved address\r\n    mapping(address => mapping(address => bool)) private operatorApprovals;\r\n\r\n    mapping(uint256 => uint256) private nextTokenId; // collectionId => nextTokenId\r\n\r\n    event NFTCreated(uint256 indexed collectionId, uint256 indexed tokenId, string name, address creator);\r\n    event NFTBurned(uint256 indexed collectionId, uint256 indexed tokenId);\r\n\r\n    constructor(address _masterAccessControlAddress, address _nftAccessControlAddress, address _nftMetadataAddress) {\r\n        masterAccessControl = MasterAccessControl(_masterAccessControlAddress);\r\n        nftAccessControl = NFTAccessControl(_nftAccessControlAddress);\r\n        nftMetadata = NFTMetadata(_nftMetadataAddress);\r\n        masterAccessControl.grantSelfAccess(msg.sender);\r\n    }\r\n\r\n    modifier onlyAuthorized() {\r\n        require(masterAccessControl.selfCheckAccess(msg.sender), \"NFTContract: Not authorized\");\r\n        _;\r\n    }\r\n\r\n    modifier onlyNFTOwner(uint256 _collectionId, uint256 _tokenId) {\r\n        require(nfts[_collectionId][_tokenId].owner == msg.sender, \"NFTContract: Not the NFT owner\");\r\n        _;\r\n    }\r\n\r\n    function createNFT(uint256 _collectionId, string memory _name, uint8 _levelOfOwnership) external returns (uint256) {\r\n        require(_levelOfOwnership > 0 && _levelOfOwnership <= 6, \"NFTContract: Invalid level of ownership\");\r\n\r\n        if (nextTokenId[_collectionId] == 0) {\r\n            nextTokenId[_collectionId] = 1;\r\n        }\r\n\r\n        uint256 tokenId = nextTokenId[_collectionId]++;\r\n        NFTInfo memory newNFT = NFTInfo({\r\n            levelOfOwnership: _levelOfOwnership,\r\n            name: _name,\r\n            creator: msg.sender,\r\n            creationDate: block.timestamp,\r\n            owner: msg.sender\r\n        });\r\n\r\n        nfts[_collectionId][tokenId] = newNFT;\r\n        collectionNFTCount[_collectionId]++;\r\n        balances[msg.sender]++;\r\n        balanceCollection[msg.sender][_collectionId]++;\r\n\r\n        nftAccessControl.grantAccess(_collectionId, tokenId, msg.sender, AccessLevel.AbsoluteOwnership);\r\n\r\n        emit NFTCreated(_collectionId, tokenId, _name, msg.sender);\r\n        emit Transfer(address(0), msg.sender, _collectionId, tokenId);\r\n\r\n        return tokenId;\r\n    }\r\n\r\n    function burnNFT(uint256 _collectionId, uint256 _tokenId) external onlyNFTOwner(_collectionId, _tokenId) {\r\n        address owner = nfts[_collectionId][_tokenId].owner;\r\n\r\n        delete nfts[_collectionId][_tokenId];\r\n        collectionNFTCount[_collectionId]--;\r\n        balances[owner]--;\r\n        balanceCollection[owner][_collectionId]--;\r\n\r\n\r\n        // check if metadata exists\r\n        if (nftMetadata.metadataExists(_collectionId, _tokenId)) {\r\n            nftMetadata.deleteMetadata(_collectionId, _tokenId);\r\n        }\r\n        // nftMetadata.deleteMetadata(_collectionId, _tokenId);\r\n        \r\n        nftAccessControl.revokeAccess(_collectionId, _tokenId, owner);\r\n\r\n        emit NFTBurned(_collectionId, _tokenId);\r\n        emit Transfer(owner, address(0), _collectionId, _tokenId);\r\n    }\r\n\r\n    function transferNFT(uint256 _collectionId, uint256 _tokenId, address _to) external {\r\n        safeTransferFrom(msg.sender, _to, _collectionId, _tokenId);\r\n    }\r\n\r\n    function getNFTInfo(uint256 _collectionId, uint256 _tokenId) external view returns (NFTInfo memory) {\r\n        return nfts[_collectionId][_tokenId];\r\n    }\r\n\r\n    function getCollectionNFTCount(uint256 _collectionId) external view returns (uint256) {\r\n        return collectionNFTCount[_collectionId];\r\n    }\r\n\r\n    function getCollectionNFTs(uint256 _collectionId) external view returns (uint256[] memory) {\r\n        uint256 count = collectionNFTCount[_collectionId];\r\n        uint256[] memory collectionNFTs = new uint256[](count);\r\n        uint256 index = 0;\r\n\r\n        for (uint256 i = 1; i < nextTokenId[_collectionId]; i++) {\r\n            if (nfts[_collectionId][i].owner != address(0)) {\r\n                collectionNFTs[index] = i;\r\n                index++;\r\n            }\r\n        }\r\n\r\n        return collectionNFTs;\r\n    }\r\n\r\n    function balanceOf(address owner) public view override returns (uint256) {\r\n        return balances[owner];\r\n    }\r\n\r\n    function balanceOfCollection(address owner, uint256 collectionId) public view override returns (uint256) {\r\n        return balanceCollection[owner][collectionId];\r\n    }\r\n\r\n    function ownerOf(uint256 collectionId, uint256 tokenId) public view override returns (address) {\r\n        address owner = nfts[collectionId][tokenId].owner;\r\n        require(owner != address(0), \"NFTContract: Invalid token ID\");\r\n        return owner;\r\n    }\r\n\r\n    function numberOfHolders(uint256 _collectionId) public view returns (uint256) {\r\n        uint256 count = 0;\r\n        address[] memory holders = new address[](nextTokenId[_collectionId]);\r\n\r\n        for (uint256 i = 1; i < nextTokenId[_collectionId]; i++) {\r\n            if (nfts[_collectionId][i].owner != address(0)) {\r\n                address holder = nfts[_collectionId][i].owner;\r\n                bool found = false;\r\n                for (uint256 j = 0; j < count; j++) {\r\n                    if (holders[j] == holder) {\r\n                        found = true;\r\n                        break;\r\n                    }\r\n                }\r\n                if (!found) {\r\n                    holders[count] = holder;\r\n                    count++;\r\n                }\r\n            }\r\n        }\r\n        return count;\r\n    }\r\n\r\n    function safeTransferFrom(address from, address to, uint256 collectionId, uint256 tokenId, bytes memory data) public override {\r\n        transferFrom(from, to, collectionId, tokenId);\r\n        require(_checkOnERC721Received(from, to, collectionId, tokenId, data), \"NFTContract: Transfer to non ERC721Receiver implementer\");\r\n    }\r\n\r\n    function safeTransferFrom(address from, address to, uint256 collectionId, uint256 tokenId) public override {\r\n        safeTransferFrom(from, to, collectionId, tokenId, \"\");\r\n    }\r\n\r\n    function transferFrom(address from, address to, uint256 collectionId, uint256 tokenId) public override {\r\n        require(_isApprovedOrOwner(msg.sender, collectionId, tokenId), \"NFTContract: Not approved or owner\");\r\n        _transfer(from, to, collectionId, tokenId);\r\n    }\r\n\r\n    function approve(address to, uint256 collectionId, uint256 tokenId) public override {\r\n        address owner = ownerOf(collectionId, tokenId);\r\n        require(to != owner, \"NFTContract: Approval to current owner\");\r\n        require(msg.sender == owner || isApprovedForAll(owner, msg.sender), \"NFTContract: Not owner or approved for all\");\r\n        \r\n        tokenApprovals[collectionId][tokenId] = to;\r\n        emit Approval(owner, to, collectionId, tokenId);\r\n    }\r\n\r\n    function setApprovalForAll(address operator, bool approved) public override {\r\n        require(operator != msg.sender, \"NFTContract: Approve to caller\");\r\n        operatorApprovals[msg.sender][operator] = approved;\r\n        emit ApprovalForAll(msg.sender, operator, approved);\r\n    }\r\n\r\n    function getApproved(uint256 collectionId, uint256 tokenId) public view override returns (address) {\r\n        require(_exists(collectionId, tokenId), \"NFTContract: Token does not exist\");\r\n        return tokenApprovals[collectionId][tokenId];\r\n    }\r\n\r\n    function isApprovedForAll(address owner, address operator) public view override returns (bool) {\r\n        return operatorApprovals[owner][operator];\r\n    }\r\n\r\n    function _exists(uint256 collectionId, uint256 tokenId) internal view returns (bool) {\r\n        return nfts[collectionId][tokenId].owner != address(0);\r\n    }\r\n\r\n    function _isApprovedOrOwner(address spender, uint256 collectionId, uint256 tokenId) internal view returns (bool) {\r\n        address owner = ownerOf(collectionId, tokenId);\r\n        return (spender == owner || getApproved(collectionId, tokenId) == spender || isApprovedForAll(owner, spender));\r\n    }\r\n\r\n    function _transfer(address from, address to, uint256 collectionId, uint256 tokenId) internal {\r\n        require(ownerOf(collectionId, tokenId) == from, \"NFTContract: Transfer from incorrect owner\");\r\n        require(to != address(0), \"NFTContract: Transfer to the zero address\");\r\n\r\n        // Clear approvals\r\n        approve(address(0), collectionId, tokenId);\r\n\r\n        balances[from]--;\r\n        balances[to]++;\r\n        balanceCollection[from][collectionId]--;\r\n        balanceCollection[to][collectionId]++;\r\n        nfts[collectionId][tokenId].owner = to;\r\n\r\n        emit Transfer(from, to, collectionId, tokenId);\r\n\r\n        // Update access control\r\n        AccessLevel currentAccessLevel = nftAccessControl.getAccessLevel(collectionId, tokenId, from);\r\n        nftAccessControl.revokeAccess(collectionId, tokenId, from);\r\n        nftAccessControl.grantAccess(collectionId, tokenId, to, currentAccessLevel);\r\n    }\r\n\r\n    function _checkOnERC721Received(address from, address to, uint256 collectionId, uint256 tokenId, bytes memory data) private returns (bool) {\r\n        if (to.code.length > 0) {\r\n            try IERC721Receiver(to).onERC721Received(msg.sender, from, collectionId, tokenId, data) returns (bytes4 retval) {\r\n                return retval == IERC721Receiver.onERC721Received.selector;\r\n            } catch (bytes memory reason) {\r\n                if (reason.length == 0) {\r\n                    revert(\"NFTContract: Transfer to non ERC721Receiver implementer\");\r\n                } else {\r\n                    assembly {\r\n                        revert(add(32, reason), mload(reason))\r\n                    }\r\n                }\r\n            }\r\n        } else {\r\n            return true;\r\n        }\r\n    }\r\n}\r\n\r\ninterface IERC721Receiver {\r\n    function onERC721Received(address operator, address from, uint256 collectionId, uint256 tokenId, bytes calldata data) external returns (bytes4);\r\n}",
  "sourcePath": "/home/sid/mounts/Projects/03 Hackathon/Tron Hackathon/NeuraNFT_Tron/smart_contracts/neuranft-contract/contracts/NFTContract.sol",
  "compiler": {
    "name": "solc",
    "version": "0.8.7+commit.2128cde5.mod.Emscripten.clang"
  },
  "schemaVersion": "2.0.1",
  "updatedAt": "2024-10-07T15:19:05.890Z"
}